{
	"v2-core-master/contracts/XeleronFactory_flattened.sol": {
		"XeleronFactory": {
			"abi": [
				{
					"inputs": [
						{
							"internalType": "address",
							"name": "_feeToSetter",
							"type": "address"
						}
					],
					"payable": false,
					"stateMutability": "nonpayable",
					"type": "constructor"
				},
				{
					"anonymous": false,
					"inputs": [
						{
							"indexed": true,
							"internalType": "address",
							"name": "token0",
							"type": "address"
						},
						{
							"indexed": true,
							"internalType": "address",
							"name": "token1",
							"type": "address"
						},
						{
							"indexed": false,
							"internalType": "address",
							"name": "pair",
							"type": "address"
						},
						{
							"indexed": false,
							"internalType": "uint256",
							"name": "",
							"type": "uint256"
						}
					],
					"name": "PairCreated",
					"type": "event"
				},
				{
					"constant": true,
					"inputs": [],
					"name": "INIT_CODE_HASH",
					"outputs": [
						{
							"internalType": "bytes32",
							"name": "",
							"type": "bytes32"
						}
					],
					"payable": false,
					"stateMutability": "view",
					"type": "function"
				},
				{
					"constant": true,
					"inputs": [
						{
							"internalType": "uint256",
							"name": "",
							"type": "uint256"
						}
					],
					"name": "allPairs",
					"outputs": [
						{
							"internalType": "address",
							"name": "",
							"type": "address"
						}
					],
					"payable": false,
					"stateMutability": "view",
					"type": "function"
				},
				{
					"constant": true,
					"inputs": [],
					"name": "allPairsLength",
					"outputs": [
						{
							"internalType": "uint256",
							"name": "",
							"type": "uint256"
						}
					],
					"payable": false,
					"stateMutability": "view",
					"type": "function"
				},
				{
					"constant": false,
					"inputs": [
						{
							"internalType": "address",
							"name": "tokenA",
							"type": "address"
						},
						{
							"internalType": "address",
							"name": "tokenB",
							"type": "address"
						}
					],
					"name": "createPair",
					"outputs": [
						{
							"internalType": "address",
							"name": "pair",
							"type": "address"
						}
					],
					"payable": false,
					"stateMutability": "nonpayable",
					"type": "function"
				},
				{
					"constant": true,
					"inputs": [],
					"name": "feeTo",
					"outputs": [
						{
							"internalType": "address",
							"name": "",
							"type": "address"
						}
					],
					"payable": false,
					"stateMutability": "view",
					"type": "function"
				},
				{
					"constant": true,
					"inputs": [],
					"name": "feeToSetter",
					"outputs": [
						{
							"internalType": "address",
							"name": "",
							"type": "address"
						}
					],
					"payable": false,
					"stateMutability": "view",
					"type": "function"
				},
				{
					"constant": true,
					"inputs": [
						{
							"internalType": "address",
							"name": "",
							"type": "address"
						},
						{
							"internalType": "address",
							"name": "",
							"type": "address"
						}
					],
					"name": "getPair",
					"outputs": [
						{
							"internalType": "address",
							"name": "",
							"type": "address"
						}
					],
					"payable": false,
					"stateMutability": "view",
					"type": "function"
				},
				{
					"constant": false,
					"inputs": [
						{
							"internalType": "address",
							"name": "_feeTo",
							"type": "address"
						}
					],
					"name": "setFeeTo",
					"outputs": [],
					"payable": false,
					"stateMutability": "nonpayable",
					"type": "function"
				},
				{
					"constant": false,
					"inputs": [
						{
							"internalType": "address",
							"name": "_feeToSetter",
							"type": "address"
						}
					],
					"name": "setFeeToSetter",
					"outputs": [],
					"payable": false,
					"stateMutability": "nonpayable",
					"type": "function"
				}
			],
			"devdoc": {
				"methods": {}
			},
			"evm": {
				"assembly": "    /* \"v2-core-master/contracts/XeleronFactory_flattened.sol\":20471:22324  contract XeleronFactory is IXeleronFactory {... */\n  mstore(0x40, 0x80)\n    /* \"v2-core-master/contracts/XeleronFactory_flattened.sol\":20878:20962  constructor(address _feeToSetter) public {... */\n  callvalue\n    /* \"--CODEGEN--\":8:17   */\n  dup1\n    /* \"--CODEGEN--\":5:7   */\n  iszero\n  tag_1\n  jumpi\n    /* \"--CODEGEN--\":30:31   */\n  0x00\n    /* \"--CODEGEN--\":27:28   */\n  dup1\n    /* \"--CODEGEN--\":20:32   */\n  revert\n    /* \"--CODEGEN--\":5:7   */\ntag_1:\n    /* \"v2-core-master/contracts/XeleronFactory_flattened.sol\":20878:20962  constructor(address _feeToSetter) public {... */\n  pop\n  mload(0x40)\n  sub(codesize, bytecodeSize)\n  dup1\n  bytecodeSize\n  dup4\n  codecopy\n  dup2\n  dup2\n  add\n  0x40\n  mstore\n    /* \"--CODEGEN--\":13:15   */\n  0x20\n    /* \"--CODEGEN--\":8:11   */\n  dup2\n    /* \"--CODEGEN--\":5:16   */\n  lt\n    /* \"--CODEGEN--\":2:4   */\n  iszero\n  tag_2\n  jumpi\n    /* \"--CODEGEN--\":29:30   */\n  0x00\n    /* \"--CODEGEN--\":26:27   */\n  dup1\n    /* \"--CODEGEN--\":19:31   */\n  revert\n    /* \"--CODEGEN--\":2:4   */\ntag_2:\n  pop\n    /* \"v2-core-master/contracts/XeleronFactory_flattened.sol\":20878:20962  constructor(address _feeToSetter) public {... */\n  mload\n    /* \"v2-core-master/contracts/XeleronFactory_flattened.sol\":20929:20940  feeToSetter */\n  0x01\n    /* \"v2-core-master/contracts/XeleronFactory_flattened.sol\":20929:20955  feeToSetter = _feeToSetter */\n  dup1\n  sload\n  not(sub(shl(0xa0, 0x01), 0x01))\n  and\n  sub(shl(0xa0, 0x01), 0x01)\n  swap1\n  swap3\n  and\n  swap2\n  swap1\n  swap2\n  or\n  swap1\n  sstore\n    /* \"v2-core-master/contracts/XeleronFactory_flattened.sol\":20471:22324  contract XeleronFactory is IXeleronFactory {... */\n  dataSize(sub_0)\n  dup1\n  dataOffset(sub_0)\n  0x00\n  codecopy\n  0x00\n  return\nstop\n\nsub_0: assembly {\n        /* \"v2-core-master/contracts/XeleronFactory_flattened.sol\":20471:22324  contract XeleronFactory is IXeleronFactory {... */\n      mstore(0x40, 0x80)\n      callvalue\n        /* \"--CODEGEN--\":8:17   */\n      dup1\n        /* \"--CODEGEN--\":5:7   */\n      iszero\n      tag_1\n      jumpi\n        /* \"--CODEGEN--\":30:31   */\n      0x00\n        /* \"--CODEGEN--\":27:28   */\n      dup1\n        /* \"--CODEGEN--\":20:32   */\n      revert\n        /* \"--CODEGEN--\":5:7   */\n    tag_1:\n        /* \"v2-core-master/contracts/XeleronFactory_flattened.sol\":20471:22324  contract XeleronFactory is IXeleronFactory {... */\n      pop\n      jumpi(tag_2, lt(calldatasize, 0x04))\n      shr(0xe0, calldataload(0x00))\n      dup1\n      0x574f2ba3\n      gt\n      tag_12\n      jumpi\n      dup1\n      0xc9c65396\n      gt\n      tag_13\n      jumpi\n      dup1\n      0xc9c65396\n      eq\n      tag_9\n      jumpi\n      dup1\n      0xe6a43905\n      eq\n      tag_10\n      jumpi\n      dup1\n      0xf46901ed\n      eq\n      tag_11\n      jumpi\n      jump(tag_2)\n    tag_13:\n      dup1\n      0x574f2ba3\n      eq\n      tag_7\n      jumpi\n      dup1\n      0xa2e74af6\n      eq\n      tag_8\n      jumpi\n      jump(tag_2)\n    tag_12:\n      dup1\n      0x017e7e58\n      eq\n      tag_3\n      jumpi\n      dup1\n      0x094b7415\n      eq\n      tag_4\n      jumpi\n      dup1\n      0x1e3dd18b\n      eq\n      tag_5\n      jumpi\n      dup1\n      0x257671f5\n      eq\n      tag_6\n      jumpi\n    tag_2:\n      0x00\n      dup1\n      revert\n        /* \"v2-core-master/contracts/XeleronFactory_flattened.sol\":20520:20540  address public feeTo */\n    tag_3:\n      tag_14\n      tag_15\n      jump\t// in\n    tag_14:\n      0x40\n      dup1\n      mload\n      0xffffffffffffffffffffffffffffffffffffffff\n      swap1\n      swap3\n      and\n      dup3\n      mstore\n      mload\n      swap1\n      dup2\n      swap1\n      sub\n      0x20\n      add\n      swap1\n      return\n        /* \"v2-core-master/contracts/XeleronFactory_flattened.sol\":20546:20572  address public feeToSetter */\n    tag_4:\n      tag_14\n      tag_17\n      jump\t// in\n        /* \"v2-core-master/contracts/XeleronFactory_flattened.sol\":20647:20672  address[] public allPairs */\n    tag_5:\n      tag_14\n      0x04\n      dup1\n      calldatasize\n      sub\n        /* \"--CODEGEN--\":13:15   */\n      0x20\n        /* \"--CODEGEN--\":8:11   */\n      dup2\n        /* \"--CODEGEN--\":5:16   */\n      lt\n        /* \"--CODEGEN--\":2:4   */\n      iszero\n      tag_19\n      jumpi\n        /* \"--CODEGEN--\":29:30   */\n      0x00\n        /* \"--CODEGEN--\":26:27   */\n      dup1\n        /* \"--CODEGEN--\":19:31   */\n      revert\n        /* \"--CODEGEN--\":2:4   */\n    tag_19:\n      pop\n        /* \"v2-core-master/contracts/XeleronFactory_flattened.sol\":20647:20672  address[] public allPairs */\n      calldataload\n      tag_20\n      jump\t// in\n        /* \"v2-core-master/contracts/XeleronFactory_flattened.sol\":20679:20779  bytes32 public constant INIT_CODE_HASH = keccak256(abi.encodePacked(type(XeleronPair).creationCode)) */\n    tag_6:\n      tag_21\n      tag_22\n      jump\t// in\n    tag_21:\n      0x40\n      dup1\n      mload\n      swap2\n      dup3\n      mstore\n      mload\n      swap1\n      dup2\n      swap1\n      sub\n      0x20\n      add\n      swap1\n      return\n        /* \"v2-core-master/contracts/XeleronFactory_flattened.sol\":20968:21062  function allPairsLength() external view returns (uint) {... */\n    tag_7:\n      tag_21\n      tag_24\n      jump\t// in\n        /* \"v2-core-master/contracts/XeleronFactory_flattened.sol\":22158:22322  function setFeeToSetter(address _feeToSetter) external {... */\n    tag_8:\n      tag_25\n      0x04\n      dup1\n      calldatasize\n      sub\n        /* \"--CODEGEN--\":13:15   */\n      0x20\n        /* \"--CODEGEN--\":8:11   */\n      dup2\n        /* \"--CODEGEN--\":5:16   */\n      lt\n        /* \"--CODEGEN--\":2:4   */\n      iszero\n      tag_26\n      jumpi\n        /* \"--CODEGEN--\":29:30   */\n      0x00\n        /* \"--CODEGEN--\":26:27   */\n      dup1\n        /* \"--CODEGEN--\":19:31   */\n      revert\n        /* \"--CODEGEN--\":2:4   */\n    tag_26:\n      pop\n        /* \"v2-core-master/contracts/XeleronFactory_flattened.sol\":22158:22322  function setFeeToSetter(address _feeToSetter) external {... */\n      calldataload\n      0xffffffffffffffffffffffffffffffffffffffff\n      and\n      tag_27\n      jump\t// in\n    tag_25:\n      stop\n        /* \"v2-core-master/contracts/XeleronFactory_flattened.sol\":21068:22006  function createPair(address tokenA, address tokenB) external returns (address pair) {... */\n    tag_9:\n      tag_14\n      0x04\n      dup1\n      calldatasize\n      sub\n        /* \"--CODEGEN--\":13:15   */\n      0x40\n        /* \"--CODEGEN--\":8:11   */\n      dup2\n        /* \"--CODEGEN--\":5:16   */\n      lt\n        /* \"--CODEGEN--\":2:4   */\n      iszero\n      tag_29\n      jumpi\n        /* \"--CODEGEN--\":29:30   */\n      0x00\n        /* \"--CODEGEN--\":26:27   */\n      dup1\n        /* \"--CODEGEN--\":19:31   */\n      revert\n        /* \"--CODEGEN--\":2:4   */\n    tag_29:\n      pop\n        /* \"v2-core-master/contracts/XeleronFactory_flattened.sol\":21068:22006  function createPair(address tokenA, address tokenB) external returns (address pair) {... */\n      0xffffffffffffffffffffffffffffffffffffffff\n      dup2\n      calldataload\n      dup2\n      and\n      swap2\n      0x20\n      add\n      calldataload\n      and\n      tag_30\n      jump\t// in\n        /* \"v2-core-master/contracts/XeleronFactory_flattened.sol\":20579:20641  mapping(address => mapping(address => address)) public getPair */\n    tag_10:\n      tag_14\n      0x04\n      dup1\n      calldatasize\n      sub\n        /* \"--CODEGEN--\":13:15   */\n      0x40\n        /* \"--CODEGEN--\":8:11   */\n      dup2\n        /* \"--CODEGEN--\":5:16   */\n      lt\n        /* \"--CODEGEN--\":2:4   */\n      iszero\n      tag_32\n      jumpi\n        /* \"--CODEGEN--\":29:30   */\n      0x00\n        /* \"--CODEGEN--\":26:27   */\n      dup1\n        /* \"--CODEGEN--\":19:31   */\n      revert\n        /* \"--CODEGEN--\":2:4   */\n    tag_32:\n      pop\n        /* \"v2-core-master/contracts/XeleronFactory_flattened.sol\":20579:20641  mapping(address => mapping(address => address)) public getPair */\n      0xffffffffffffffffffffffffffffffffffffffff\n      dup2\n      calldataload\n      dup2\n      and\n      swap2\n      0x20\n      add\n      calldataload\n      and\n      tag_33\n      jump\t// in\n        /* \"v2-core-master/contracts/XeleronFactory_flattened.sol\":22012:22152  function setFeeTo(address _feeTo) external {... */\n    tag_11:\n      tag_25\n      0x04\n      dup1\n      calldatasize\n      sub\n        /* \"--CODEGEN--\":13:15   */\n      0x20\n        /* \"--CODEGEN--\":8:11   */\n      dup2\n        /* \"--CODEGEN--\":5:16   */\n      lt\n        /* \"--CODEGEN--\":2:4   */\n      iszero\n      tag_35\n      jumpi\n        /* \"--CODEGEN--\":29:30   */\n      0x00\n        /* \"--CODEGEN--\":26:27   */\n      dup1\n        /* \"--CODEGEN--\":19:31   */\n      revert\n        /* \"--CODEGEN--\":2:4   */\n    tag_35:\n      pop\n        /* \"v2-core-master/contracts/XeleronFactory_flattened.sol\":22012:22152  function setFeeTo(address _feeTo) external {... */\n      calldataload\n      0xffffffffffffffffffffffffffffffffffffffff\n      and\n      tag_36\n      jump\t// in\n        /* \"v2-core-master/contracts/XeleronFactory_flattened.sol\":20520:20540  address public feeTo */\n    tag_15:\n      and(0xffffffffffffffffffffffffffffffffffffffff, sload(0x00))\n      dup2\n      jump\t// out\n        /* \"v2-core-master/contracts/XeleronFactory_flattened.sol\":20546:20572  address public feeToSetter */\n    tag_17:\n      and(0xffffffffffffffffffffffffffffffffffffffff, sload(0x01))\n      dup2\n      jump\t// out\n        /* \"v2-core-master/contracts/XeleronFactory_flattened.sol\":20647:20672  address[] public allPairs */\n    tag_20:\n      0x03\n      dup2\n      dup2\n      sload\n      dup2\n      lt\n      tag_37\n      jumpi\n      invalid\n    tag_37:\n      0x00\n      swap2\n      dup3\n      mstore\n      0x20\n      swap1\n      swap2\n      keccak256\n      add\n      sload\n      0xffffffffffffffffffffffffffffffffffffffff\n      and\n      swap1\n      pop\n      dup2\n      jump\t// out\n        /* \"v2-core-master/contracts/XeleronFactory_flattened.sol\":20679:20779  bytes32 public constant INIT_CODE_HASH = keccak256(abi.encodePacked(type(XeleronPair).creationCode)) */\n    tag_22:\n        /* \"v2-core-master/contracts/XeleronFactory_flattened.sol\":20747:20777  type(XeleronPair).creationCode */\n      mload(0x40)\n      tag_39\n      0x20\n      dup3\n      add\n      tag_40\n      jump\t// in\n    tag_39:\n        /* \"--CODEGEN--\":41:45   */\n      0x20\n        /* \"--CODEGEN--\":34:39   */\n      dup3\n        /* \"--CODEGEN--\":30:46   */\n      add\n        /* \"--CODEGEN--\":25:28   */\n      dup2\n        /* \"--CODEGEN--\":21:47   */\n      sub\n        /* \"--CODEGEN--\":14:19   */\n      dup3\n        /* \"--CODEGEN--\":7:48   */\n      mstore\n        /* \"--CODEGEN--\":87:89   */\n      0x1f\n        /* \"--CODEGEN--\":83:90   */\n      not\n        /* \"--CODEGEN--\":78:80   */\n      0x1f\n        /* \"--CODEGEN--\":73:76   */\n      dup3\n        /* \"--CODEGEN--\":69:81   */\n      add\n        /* \"--CODEGEN--\":65:91   */\n      and\n        /* \"--CODEGEN--\":61:63   */\n      0x40\n        /* \"--CODEGEN--\":54:92   */\n      mstore\n        /* \"v2-core-master/contracts/XeleronFactory_flattened.sol\":20747:20777  type(XeleronPair).creationCode */\n      pop\n        /* \"v2-core-master/contracts/XeleronFactory_flattened.sol\":20730:20778  abi.encodePacked(type(XeleronPair).creationCode) */\n      add(0x20, mload(0x40))\n      dup1\n      dup3\n      dup1\n      mload\n      swap1\n      0x20\n      add\n      swap1\n      dup1\n      dup4\n      dup4\n        /* \"--CODEGEN--\":36:189   */\n    tag_41:\n        /* \"--CODEGEN--\":66:68   */\n      0x20\n        /* \"--CODEGEN--\":61:64   */\n      dup4\n        /* \"--CODEGEN--\":58:69   */\n      lt\n        /* \"--CODEGEN--\":36:189   */\n      tag_43\n      jumpi\n        /* \"--CODEGEN--\":176:186   */\n      dup1\n      mload\n        /* \"--CODEGEN--\":164:187   */\n      dup3\n      mstore\n        /* \"--CODEGEN--\":139:151   */\n      0xffffffffffffffffffffffffffffffffffffffffffffffffffffffffffffffe0\n      swap1\n      swap3\n      add\n      swap2\n        /* \"--CODEGEN--\":98:100   */\n      0x20\n        /* \"--CODEGEN--\":89:101   */\n      swap2\n      dup3\n      add\n      swap2\n        /* \"--CODEGEN--\":114:126   */\n      add\n        /* \"--CODEGEN--\":36:189   */\n      jump(tag_41)\n    tag_43:\n        /* \"--CODEGEN--\":274:275   */\n      0x01\n        /* \"--CODEGEN--\":267:270   */\n      dup4\n        /* \"--CODEGEN--\":263:265   */\n      0x20\n        /* \"--CODEGEN--\":259:271   */\n      sub\n        /* \"--CODEGEN--\":254:257   */\n      0x0100\n        /* \"--CODEGEN--\":250:272   */\n      exp\n        /* \"--CODEGEN--\":246:276   */\n      sub\n        /* \"--CODEGEN--\":315:319   */\n      dup1\n        /* \"--CODEGEN--\":311:320   */\n      not\n        /* \"--CODEGEN--\":305:308   */\n      dup3\n        /* \"--CODEGEN--\":299:309   */\n      mload\n        /* \"--CODEGEN--\":295:321   */\n      and\n        /* \"--CODEGEN--\":356:360   */\n      dup2\n        /* \"--CODEGEN--\":350:353   */\n      dup5\n        /* \"--CODEGEN--\":344:354   */\n      mload\n        /* \"--CODEGEN--\":340:361   */\n      and\n        /* \"--CODEGEN--\":389:396   */\n      dup1\n        /* \"--CODEGEN--\":380:387   */\n      dup3\n        /* \"--CODEGEN--\":377:397   */\n      or\n        /* \"--CODEGEN--\":372:375   */\n      dup6\n        /* \"--CODEGEN--\":365:398   */\n      mstore\n        /* \"--CODEGEN--\":3:402   */\n      pop\n      pop\n      pop\n        /* \"v2-core-master/contracts/XeleronFactory_flattened.sol\":20730:20778  abi.encodePacked(type(XeleronPair).creationCode) */\n      pop\n      pop\n      pop\n      swap1\n      pop\n      add\n      swap2\n      pop\n      pop\n      mload(0x40)\n        /* \"--CODEGEN--\":49:53   */\n      0x20\n        /* \"--CODEGEN--\":39:46   */\n      dup2\n        /* \"--CODEGEN--\":30:37   */\n      dup4\n        /* \"--CODEGEN--\":26:47   */\n      sub\n        /* \"--CODEGEN--\":22:54   */\n      sub\n        /* \"--CODEGEN--\":13:20   */\n      dup2\n        /* \"--CODEGEN--\":6:55   */\n      mstore\n        /* \"v2-core-master/contracts/XeleronFactory_flattened.sol\":20730:20778  abi.encodePacked(type(XeleronPair).creationCode) */\n      swap1\n      0x40\n      mstore\n        /* \"v2-core-master/contracts/XeleronFactory_flattened.sol\":20720:20779  keccak256(abi.encodePacked(type(XeleronPair).creationCode)) */\n      dup1\n      mload\n      swap1\n      0x20\n      add\n      keccak256\n        /* \"v2-core-master/contracts/XeleronFactory_flattened.sol\":20679:20779  bytes32 public constant INIT_CODE_HASH = keccak256(abi.encodePacked(type(XeleronPair).creationCode)) */\n      dup2\n      jump\t// out\n        /* \"v2-core-master/contracts/XeleronFactory_flattened.sol\":20968:21062  function allPairsLength() external view returns (uint) {... */\n    tag_24:\n        /* \"v2-core-master/contracts/XeleronFactory_flattened.sol\":21040:21048  allPairs */\n      0x03\n        /* \"v2-core-master/contracts/XeleronFactory_flattened.sol\":21040:21055  allPairs.length */\n      sload\n        /* \"v2-core-master/contracts/XeleronFactory_flattened.sol\":20968:21062  function allPairsLength() external view returns (uint) {... */\n      swap1\n      jump\t// out\n        /* \"v2-core-master/contracts/XeleronFactory_flattened.sol\":22158:22322  function setFeeToSetter(address _feeToSetter) external {... */\n    tag_27:\n        /* \"v2-core-master/contracts/XeleronFactory_flattened.sol\":22245:22256  feeToSetter */\n      and(0xffffffffffffffffffffffffffffffffffffffff, sload(0x01))\n        /* \"v2-core-master/contracts/XeleronFactory_flattened.sol\":22231:22241  msg.sender */\n      caller\n        /* \"v2-core-master/contracts/XeleronFactory_flattened.sol\":22231:22256  msg.sender == feeToSetter */\n      eq\n        /* \"v2-core-master/contracts/XeleronFactory_flattened.sol\":22223:22279  require(msg.sender == feeToSetter, 'Xeleron: FORBIDDEN') */\n      tag_46\n      jumpi\n      0x40\n      dup1\n      mload\n      0x08c379a000000000000000000000000000000000000000000000000000000000\n      dup2\n      mstore\n      0x20\n      0x04\n      dup3\n      add\n      mstore\n      0x12\n      0x24\n      dup3\n      add\n      mstore\n      0x58656c65726f6e3a20464f5242494444454e0000000000000000000000000000\n      0x44\n      dup3\n      add\n      mstore\n      swap1\n      mload\n      swap1\n      dup2\n      swap1\n      sub\n      0x64\n      add\n      swap1\n      revert\n    tag_46:\n        /* \"v2-core-master/contracts/XeleronFactory_flattened.sol\":22289:22300  feeToSetter */\n      0x01\n        /* \"v2-core-master/contracts/XeleronFactory_flattened.sol\":22289:22315  feeToSetter = _feeToSetter */\n      dup1\n      sload\n      0xffffffffffffffffffffffff0000000000000000000000000000000000000000\n      and\n      0xffffffffffffffffffffffffffffffffffffffff\n      swap3\n      swap1\n      swap3\n      and\n      swap2\n      swap1\n      swap2\n      or\n      swap1\n      sstore\n        /* \"v2-core-master/contracts/XeleronFactory_flattened.sol\":22158:22322  function setFeeToSetter(address _feeToSetter) external {... */\n      jump\t// out\n        /* \"v2-core-master/contracts/XeleronFactory_flattened.sol\":21068:22006  function createPair(address tokenA, address tokenB) external returns (address pair) {... */\n    tag_30:\n        /* \"v2-core-master/contracts/XeleronFactory_flattened.sol\":21138:21150  address pair */\n      0x00\n        /* \"v2-core-master/contracts/XeleronFactory_flattened.sol\":21180:21186  tokenB */\n      dup2\n        /* \"v2-core-master/contracts/XeleronFactory_flattened.sol\":21170:21186  tokenA != tokenB */\n      0xffffffffffffffffffffffffffffffffffffffff\n      and\n        /* \"v2-core-master/contracts/XeleronFactory_flattened.sol\":21170:21176  tokenA */\n      dup4\n        /* \"v2-core-master/contracts/XeleronFactory_flattened.sol\":21170:21186  tokenA != tokenB */\n      0xffffffffffffffffffffffffffffffffffffffff\n      and\n      eq\n      iszero\n        /* \"v2-core-master/contracts/XeleronFactory_flattened.sol\":21162:21219  require(tokenA != tokenB, 'Xeleron: IDENTICAL_ADDRESSES') */\n      tag_48\n      jumpi\n      0x40\n      dup1\n      mload\n      0x08c379a000000000000000000000000000000000000000000000000000000000\n      dup2\n      mstore\n      0x20\n      0x04\n      dup3\n      add\n      mstore\n      0x1c\n      0x24\n      dup3\n      add\n      mstore\n      0x58656c65726f6e3a204944454e544943414c5f41444452455353455300000000\n      0x44\n      dup3\n      add\n      mstore\n      swap1\n      mload\n      swap1\n      dup2\n      swap1\n      sub\n      0x64\n      add\n      swap1\n      revert\n    tag_48:\n        /* \"v2-core-master/contracts/XeleronFactory_flattened.sol\":21230:21244  address token0 */\n      0x00\n        /* \"v2-core-master/contracts/XeleronFactory_flattened.sol\":21246:21260  address token1 */\n      dup1\n        /* \"v2-core-master/contracts/XeleronFactory_flattened.sol\":21273:21279  tokenB */\n      dup4\n        /* \"v2-core-master/contracts/XeleronFactory_flattened.sol\":21264:21279  tokenA < tokenB */\n      0xffffffffffffffffffffffffffffffffffffffff\n      and\n        /* \"v2-core-master/contracts/XeleronFactory_flattened.sol\":21264:21270  tokenA */\n      dup6\n        /* \"v2-core-master/contracts/XeleronFactory_flattened.sol\":21264:21279  tokenA < tokenB */\n      0xffffffffffffffffffffffffffffffffffffffff\n      and\n      lt\n        /* \"v2-core-master/contracts/XeleronFactory_flattened.sol\":21264:21317  tokenA < tokenB ? (tokenA, tokenB) : (tokenB, tokenA) */\n      tag_49\n      jumpi\n        /* \"v2-core-master/contracts/XeleronFactory_flattened.sol\":21302:21308  tokenB */\n      dup4\n        /* \"v2-core-master/contracts/XeleronFactory_flattened.sol\":21310:21316  tokenA */\n      dup6\n        /* \"v2-core-master/contracts/XeleronFactory_flattened.sol\":21264:21317  tokenA < tokenB ? (tokenA, tokenB) : (tokenB, tokenA) */\n      jump(tag_50)\n    tag_49:\n        /* \"v2-core-master/contracts/XeleronFactory_flattened.sol\":21283:21289  tokenA */\n      dup5\n        /* \"v2-core-master/contracts/XeleronFactory_flattened.sol\":21291:21297  tokenB */\n      dup5\n        /* \"v2-core-master/contracts/XeleronFactory_flattened.sol\":21264:21317  tokenA < tokenB ? (tokenA, tokenB) : (tokenB, tokenA) */\n    tag_50:\n        /* \"v2-core-master/contracts/XeleronFactory_flattened.sol\":21229:21317  (address token0, address token1) = tokenA < tokenB ? (tokenA, tokenB) : (tokenB, tokenA) */\n      swap1\n      swap3\n      pop\n      swap1\n      pop\n        /* \"v2-core-master/contracts/XeleronFactory_flattened.sol\":21335:21355  token0 != address(0) */\n      0xffffffffffffffffffffffffffffffffffffffff\n      dup3\n      and\n        /* \"v2-core-master/contracts/XeleronFactory_flattened.sol\":21327:21381  require(token0 != address(0), 'Xeleron: ZERO_ADDRESS') */\n      tag_51\n      jumpi\n      0x40\n      dup1\n      mload\n      0x08c379a000000000000000000000000000000000000000000000000000000000\n      dup2\n      mstore\n      0x20\n      0x04\n      dup3\n      add\n      mstore\n      0x15\n      0x24\n      dup3\n      add\n      mstore\n      0x58656c65726f6e3a205a45524f5f414444524553530000000000000000000000\n      0x44\n      dup3\n      add\n      mstore\n      swap1\n      mload\n      swap1\n      dup2\n      swap1\n      sub\n      0x64\n      add\n      swap1\n      revert\n    tag_51:\n        /* \"v2-core-master/contracts/XeleronFactory_flattened.sol\":21399:21436  getPair[token0][token1] == address(0) */\n      0xffffffffffffffffffffffffffffffffffffffff\n        /* \"v2-core-master/contracts/XeleronFactory_flattened.sol\":21399:21414  getPair[token0] */\n      dup3\n      dup2\n      and\n        /* \"v2-core-master/contracts/XeleronFactory_flattened.sol\":21434:21435  0 */\n      0x00\n        /* \"v2-core-master/contracts/XeleronFactory_flattened.sol\":21399:21414  getPair[token0] */\n      swap1\n      dup2\n      mstore\n        /* \"v2-core-master/contracts/XeleronFactory_flattened.sol\":21399:21406  getPair */\n      0x02\n        /* \"v2-core-master/contracts/XeleronFactory_flattened.sol\":21399:21414  getPair[token0] */\n      0x20\n      swap1\n      dup2\n      mstore\n      0x40\n      dup1\n      dup4\n      keccak256\n        /* \"v2-core-master/contracts/XeleronFactory_flattened.sol\":21399:21422  getPair[token0][token1] */\n      dup6\n      dup6\n      and\n      dup5\n      mstore\n      swap1\n      swap2\n      mstore\n      swap1\n      keccak256\n      sload\n      and\n        /* \"v2-core-master/contracts/XeleronFactory_flattened.sol\":21399:21436  getPair[token0][token1] == address(0) */\n      iszero\n        /* \"v2-core-master/contracts/XeleronFactory_flattened.sol\":21391:21461  require(getPair[token0][token1] == address(0), 'Xeleron: PAIR_EXISTS') */\n      tag_52\n      jumpi\n      0x40\n      dup1\n      mload\n      0x08c379a000000000000000000000000000000000000000000000000000000000\n      dup2\n      mstore\n      0x20\n      0x04\n      dup3\n      add\n      mstore\n      0x14\n      0x24\n      dup3\n      add\n      mstore\n      0x58656c65726f6e3a20504149525f455849535453000000000000000000000000\n      0x44\n      dup3\n      add\n      mstore\n      swap1\n      mload\n      swap1\n      dup2\n      swap1\n      sub\n      0x64\n      add\n      swap1\n      revert\n    tag_52:\n        /* \"v2-core-master/contracts/XeleronFactory_flattened.sol\":21501:21522  bytes memory bytecode */\n      0x60\n        /* \"v2-core-master/contracts/XeleronFactory_flattened.sol\":21525:21555  type(XeleronPair).creationCode */\n      mload(0x40)\n      dup1\n      0x20\n      add\n      tag_53\n      swap1\n      tag_40\n      jump\t// in\n    tag_53:\n        /* \"--CODEGEN--\":41:45   */\n      0x20\n        /* \"--CODEGEN--\":34:39   */\n      dup3\n        /* \"--CODEGEN--\":30:46   */\n      add\n        /* \"--CODEGEN--\":25:28   */\n      dup2\n        /* \"--CODEGEN--\":21:47   */\n      sub\n        /* \"--CODEGEN--\":14:19   */\n      dup3\n        /* \"--CODEGEN--\":7:48   */\n      mstore\n        /* \"--CODEGEN--\":87:89   */\n      0x1f\n        /* \"--CODEGEN--\":83:90   */\n      not\n        /* \"--CODEGEN--\":78:80   */\n      0x1f\n        /* \"--CODEGEN--\":73:76   */\n      dup3\n        /* \"--CODEGEN--\":69:81   */\n      add\n        /* \"--CODEGEN--\":65:91   */\n      and\n        /* \"--CODEGEN--\":61:63   */\n      0x40\n        /* \"--CODEGEN--\":54:92   */\n      mstore\n        /* \"v2-core-master/contracts/XeleronFactory_flattened.sol\":21525:21555  type(XeleronPair).creationCode */\n      pop\n        /* \"v2-core-master/contracts/XeleronFactory_flattened.sol\":21501:21555  bytes memory bytecode = type(XeleronPair).creationCode */\n      swap1\n      pop\n        /* \"v2-core-master/contracts/XeleronFactory_flattened.sol\":21565:21577  bytes32 salt */\n      0x00\n        /* \"v2-core-master/contracts/XeleronFactory_flattened.sol\":21607:21613  token0 */\n      dup4\n        /* \"v2-core-master/contracts/XeleronFactory_flattened.sol\":21615:21621  token1 */\n      dup4\n        /* \"v2-core-master/contracts/XeleronFactory_flattened.sol\":21590:21622  abi.encodePacked(token0, token1) */\n      add(0x20, mload(0x40))\n      dup1\n      dup4\n      0xffffffffffffffffffffffffffffffffffffffff\n      and\n      0xffffffffffffffffffffffffffffffffffffffff\n      and\n      0x60\n      shl\n      dup2\n      mstore\n      0x14\n      add\n      dup3\n      0xffffffffffffffffffffffffffffffffffffffff\n      and\n      0xffffffffffffffffffffffffffffffffffffffff\n      and\n      0x60\n      shl\n      dup2\n      mstore\n      0x14\n      add\n      swap3\n      pop\n      pop\n      pop\n      mload(0x40)\n        /* \"--CODEGEN--\":49:53   */\n      0x20\n        /* \"--CODEGEN--\":39:46   */\n      dup2\n        /* \"--CODEGEN--\":30:37   */\n      dup4\n        /* \"--CODEGEN--\":26:47   */\n      sub\n        /* \"--CODEGEN--\":22:54   */\n      sub\n        /* \"--CODEGEN--\":13:20   */\n      dup2\n        /* \"--CODEGEN--\":6:55   */\n      mstore\n        /* \"v2-core-master/contracts/XeleronFactory_flattened.sol\":21590:21622  abi.encodePacked(token0, token1) */\n      swap1\n      0x40\n      mstore\n        /* \"v2-core-master/contracts/XeleronFactory_flattened.sol\":21580:21623  keccak256(abi.encodePacked(token0, token1)) */\n      dup1\n      mload\n      swap1\n      0x20\n      add\n      keccak256\n        /* \"v2-core-master/contracts/XeleronFactory_flattened.sol\":21565:21623  bytes32 salt = keccak256(abi.encodePacked(token0, token1)) */\n      swap1\n      pop\n        /* \"v2-core-master/contracts/XeleronFactory_flattened.sol\":21711:21715  salt */\n      dup1\n        /* \"v2-core-master/contracts/XeleronFactory_flattened.sol\":21700:21708  bytecode */\n      dup3\n        /* \"v2-core-master/contracts/XeleronFactory_flattened.sol\":21694:21709  mload(bytecode) */\n      mload\n        /* \"v2-core-master/contracts/XeleronFactory_flattened.sol\":21689:21691  32 */\n      0x20\n        /* \"v2-core-master/contracts/XeleronFactory_flattened.sol\":21679:21687  bytecode */\n      dup5\n        /* \"v2-core-master/contracts/XeleronFactory_flattened.sol\":21675:21692  add(bytecode, 32) */\n      add\n        /* \"v2-core-master/contracts/XeleronFactory_flattened.sol\":21672:21673  0 */\n      0x00\n        /* \"v2-core-master/contracts/XeleronFactory_flattened.sol\":21664:21716  create2(0, add(bytecode, 32), mload(bytecode), salt) */\n      create2\n        /* \"v2-core-master/contracts/XeleronFactory_flattened.sol\":21735:21780  IXeleronPair(pair).initialize(token0, token1) */\n      0x40\n      dup1\n      mload\n      0x485cc95500000000000000000000000000000000000000000000000000000000\n      dup2\n      mstore\n        /* \"v2-core-master/contracts/XeleronFactory_flattened.sol\":21735:21764  IXeleronPair(pair).initialize */\n      0xffffffffffffffffffffffffffffffffffffffff\n        /* \"v2-core-master/contracts/XeleronFactory_flattened.sol\":21735:21780  IXeleronPair(pair).initialize(token0, token1) */\n      dup8\n      dup2\n      and\n      0x04\n      dup4\n      add\n      mstore\n      dup7\n      dup2\n      and\n      0x24\n      dup4\n      add\n      mstore\n      swap2\n      mload\n        /* \"v2-core-master/contracts/XeleronFactory_flattened.sol\":21656:21716  pair := create2(0, add(bytecode, 32), mload(bytecode), salt) */\n      swap3\n      swap8\n      pop\n        /* \"v2-core-master/contracts/XeleronFactory_flattened.sol\":21735:21764  IXeleronPair(pair).initialize */\n      swap1\n      dup8\n      and\n      swap2\n      0x485cc955\n      swap2\n        /* \"v2-core-master/contracts/XeleronFactory_flattened.sol\":21735:21780  IXeleronPair(pair).initialize(token0, token1) */\n      0x44\n      dup1\n      dup3\n      add\n      swap3\n      0x00\n      swap3\n      swap1\n      swap2\n      swap1\n      dup3\n      swap1\n      sub\n      add\n      dup2\n      dup4\n        /* \"v2-core-master/contracts/XeleronFactory_flattened.sol\":21735:21764  IXeleronPair(pair).initialize */\n      dup8\n        /* \"v2-core-master/contracts/XeleronFactory_flattened.sol\":21735:21780  IXeleronPair(pair).initialize(token0, token1) */\n      dup1\n      extcodesize\n      iszero\n        /* \"--CODEGEN--\":5:7   */\n      dup1\n      iszero\n      tag_54\n      jumpi\n        /* \"--CODEGEN--\":30:31   */\n      0x00\n        /* \"--CODEGEN--\":27:28   */\n      dup1\n        /* \"--CODEGEN--\":20:32   */\n      revert\n        /* \"--CODEGEN--\":5:7   */\n    tag_54:\n        /* \"v2-core-master/contracts/XeleronFactory_flattened.sol\":21735:21780  IXeleronPair(pair).initialize(token0, token1) */\n      pop\n      gas\n      call\n      iszero\n        /* \"--CODEGEN--\":8:17   */\n      dup1\n        /* \"--CODEGEN--\":5:7   */\n      iszero\n      tag_55\n      jumpi\n        /* \"--CODEGEN--\":45:61   */\n      returndatasize\n        /* \"--CODEGEN--\":42:43   */\n      0x00\n        /* \"--CODEGEN--\":39:40   */\n      dup1\n        /* \"--CODEGEN--\":24:62   */\n      returndatacopy\n        /* \"--CODEGEN--\":77:93   */\n      returndatasize\n        /* \"--CODEGEN--\":74:75   */\n      0x00\n        /* \"--CODEGEN--\":67:94   */\n      revert\n        /* \"--CODEGEN--\":5:7   */\n    tag_55:\n      pop\n      pop\n      pop\n      pop\n        /* \"v2-core-master/contracts/XeleronFactory_flattened.sol\":21790:21805  getPair[token0] */\n      0xffffffffffffffffffffffffffffffffffffffff\n      dup5\n      dup2\n      and\n      0x00\n      dup2\n      dup2\n      mstore\n        /* \"v2-core-master/contracts/XeleronFactory_flattened.sol\":21790:21797  getPair */\n      0x02\n        /* \"v2-core-master/contracts/XeleronFactory_flattened.sol\":21790:21805  getPair[token0] */\n      0x20\n      dup2\n      dup2\n      mstore\n      0x40\n      dup1\n      dup5\n      keccak256\n        /* \"v2-core-master/contracts/XeleronFactory_flattened.sol\":21790:21813  getPair[token0][token1] */\n      dup10\n      dup8\n      and\n      dup1\n      dup7\n      mstore\n      swap1\n      dup4\n      mstore\n      dup2\n      dup6\n      keccak256\n        /* \"v2-core-master/contracts/XeleronFactory_flattened.sol\":21790:21820  getPair[token0][token1] = pair */\n      dup1\n      sload\n      swap8\n      dup14\n      and\n      0xffffffffffffffffffffffff0000000000000000000000000000000000000000\n      swap9\n      dup10\n      and\n      dup2\n      or\n      swap1\n      swap2\n      sstore\n        /* \"v2-core-master/contracts/XeleronFactory_flattened.sol\":21830:21845  getPair[token1] */\n      swap4\n      dup4\n      mstore\n      dup2\n      dup6\n      keccak256\n        /* \"v2-core-master/contracts/XeleronFactory_flattened.sol\":21830:21853  getPair[token1][token0] */\n      dup7\n      dup7\n      mstore\n      dup4\n      mstore\n      dup2\n      dup6\n      keccak256\n        /* \"v2-core-master/contracts/XeleronFactory_flattened.sol\":21830:21860  getPair[token1][token0] = pair */\n      dup1\n      sload\n      dup9\n      and\n      dup6\n      or\n      swap1\n      sstore\n        /* \"v2-core-master/contracts/XeleronFactory_flattened.sol\":21915:21923  allPairs */\n      0x03\n        /* \"--CODEGEN--\":27:37   */\n      dup1\n      sload\n      0x01\n        /* \"--CODEGEN--\":23:41   */\n      dup2\n      add\n        /* \"--CODEGEN--\":45:68   */\n      dup3\n      sstore\n        /* \"v2-core-master/contracts/XeleronFactory_flattened.sol\":21915:21934  allPairs.push(pair) */\n      swap6\n      dup2\n      swap1\n      mstore\n      0xc2575a0e9e593c00f959f8c92f12db2869c3395a3b0502d05e2516446f71f85b\n      swap1\n      swap6\n      add\n      dup1\n      sload\n      swap1\n      swap8\n      and\n      dup5\n      or\n      swap1\n      swap7\n      sstore\n        /* \"v2-core-master/contracts/XeleronFactory_flattened.sol\":21983:21998  allPairs.length */\n      swap3\n      sload\n        /* \"v2-core-master/contracts/XeleronFactory_flattened.sol\":21949:21999  PairCreated(token0, token1, pair, allPairs.length) */\n      dup4\n      mload\n      swap3\n      dup4\n      mstore\n      swap1\n      dup3\n      add\n      mstore\n      dup2\n      mload\n      0x0d3648bd0f6ba80134a33ba9275ac585d9d315f0ad8355cddefde31afa28d0e9\n      swap3\n      swap2\n      dup2\n      swap1\n      sub\n      swap1\n      swap2\n      add\n      swap1\n      log3\n        /* \"v2-core-master/contracts/XeleronFactory_flattened.sol\":21068:22006  function createPair(address tokenA, address tokenB) external returns (address pair) {... */\n      pop\n      pop\n      pop\n      pop\n      swap3\n      swap2\n      pop\n      pop\n      jump\t// out\n        /* \"v2-core-master/contracts/XeleronFactory_flattened.sol\":20579:20641  mapping(address => mapping(address => address)) public getPair */\n    tag_33:\n      0x02\n      0x20\n      swap1\n      dup2\n      mstore\n      0x00\n      swap3\n      dup4\n      mstore\n      0x40\n      dup1\n      dup5\n      keccak256\n      swap1\n      swap2\n      mstore\n      swap1\n      dup3\n      mstore\n      swap1\n      keccak256\n      sload\n      0xffffffffffffffffffffffffffffffffffffffff\n      and\n      dup2\n      jump\t// out\n        /* \"v2-core-master/contracts/XeleronFactory_flattened.sol\":22012:22152  function setFeeTo(address _feeTo) external {... */\n    tag_36:\n        /* \"v2-core-master/contracts/XeleronFactory_flattened.sol\":22087:22098  feeToSetter */\n      and(0xffffffffffffffffffffffffffffffffffffffff, sload(0x01))\n        /* \"v2-core-master/contracts/XeleronFactory_flattened.sol\":22073:22083  msg.sender */\n      caller\n        /* \"v2-core-master/contracts/XeleronFactory_flattened.sol\":22073:22098  msg.sender == feeToSetter */\n      eq\n        /* \"v2-core-master/contracts/XeleronFactory_flattened.sol\":22065:22121  require(msg.sender == feeToSetter, 'Xeleron: FORBIDDEN') */\n      tag_58\n      jumpi\n      0x40\n      dup1\n      mload\n      0x08c379a000000000000000000000000000000000000000000000000000000000\n      dup2\n      mstore\n      0x20\n      0x04\n      dup3\n      add\n      mstore\n      0x12\n      0x24\n      dup3\n      add\n      mstore\n      0x58656c65726f6e3a20464f5242494444454e0000000000000000000000000000\n      0x44\n      dup3\n      add\n      mstore\n      swap1\n      mload\n      swap1\n      dup2\n      swap1\n      sub\n      0x64\n      add\n      swap1\n      revert\n    tag_58:\n        /* \"v2-core-master/contracts/XeleronFactory_flattened.sol\":22131:22136  feeTo */\n      0x00\n        /* \"v2-core-master/contracts/XeleronFactory_flattened.sol\":22131:22145  feeTo = _feeTo */\n      dup1\n      sload\n      0xffffffffffffffffffffffff0000000000000000000000000000000000000000\n      and\n      0xffffffffffffffffffffffffffffffffffffffff\n      swap3\n      swap1\n      swap3\n      and\n      swap2\n      swap1\n      swap2\n      or\n      swap1\n      sstore\n        /* \"v2-core-master/contracts/XeleronFactory_flattened.sol\":22012:22152  function setFeeTo(address _feeTo) external {... */\n      jump\t// out\n        /* \"v2-core-master/contracts/XeleronFactory_flattened.sol\":20471:22324  contract XeleronFactory is IXeleronFactory {... */\n    tag_40:\n      dataSize(sub_0)\n      dup1\n      dataOffset(sub_0)\n      dup4\n      codecopy\n      add\n      swap1\n      jump\t// out\n    stop\n\n    sub_0: assembly {\n            /* \"v2-core-master/contracts/XeleronFactory_flattened.sol\":10924:20387  contract XeleronPair is IXeleronPair, XeleronERC20 {... */\n          mstore(0x40, 0x80)\n            /* \"v2-core-master/contracts/XeleronFactory_flattened.sol\":11768:11769  1 */\n          0x01\n            /* \"v2-core-master/contracts/XeleronFactory_flattened.sol\":11744:11769  uint private unlocked = 1 */\n          0x0c\n          sstore\n            /* \"v2-core-master/contracts/XeleronFactory_flattened.sol\":12820:12878  constructor() public {... */\n          callvalue\n            /* \"--CODEGEN--\":8:17   */\n          dup1\n            /* \"--CODEGEN--\":5:7   */\n          iszero\n          tag_1\n          jumpi\n            /* \"--CODEGEN--\":30:31   */\n          0x00\n            /* \"--CODEGEN--\":27:28   */\n          dup1\n            /* \"--CODEGEN--\":20:32   */\n          revert\n            /* \"--CODEGEN--\":5:7   */\n        tag_1:\n          pop\n            /* \"v2-core-master/contracts/XeleronFactory_flattened.sol\":5298:5393  keccak256('EIP712Domain(string name,string version,uint256 chainId,address verifyingContract)') */\n          mload(0x40)\n            /* \"v2-core-master/contracts/XeleronFactory_flattened.sol\":5202:5209  chainid */\n          chainid\n          swap1\n            /* \"v2-core-master/contracts/XeleronFactory_flattened.sol\":5298:5393  keccak256('EIP712Domain(string name,string version,uint256 chainId,address verifyingContract)') */\n          dup1\n          0x52\n          data_8b73c3c69bb8fe3d512ecc4cf759cc79239f7b179b0ffacaa9a75d522b39400f\n          dup3\n          codecopy\n          0x40\n          dup1\n          mload\n          swap2\n          dup3\n          swap1\n          sub\n          0x52\n          add\n          dup3\n          keccak256\n            /* \"v2-core-master/contracts/XeleronFactory_flattened.sol\":5427:5431  name */\n          dup3\n          dup3\n          add\n          dup3\n          mstore\n          0x07\n          dup4\n          mstore\n          0x58656c65726f6e00000000000000000000000000000000000000000000000000\n          0x20\n          swap4\n          dup5\n          add\n          mstore\n            /* \"v2-core-master/contracts/XeleronFactory_flattened.sol\":5461:5471  bytes('1') */\n          dup2\n          mload\n          dup1\n          dup4\n          add\n          dup4\n          mstore\n          0x01\n          dup2\n          mstore\n          0x3100000000000000000000000000000000000000000000000000000000000000\n          swap1\n          dup5\n          add\n          mstore\n            /* \"v2-core-master/contracts/XeleronFactory_flattened.sol\":5270:5542  abi.encode(... */\n          dup2\n          mload\n          dup1\n          dup5\n          add\n          swap2\n          swap1\n          swap2\n          mstore\n            /* \"v2-core-master/contracts/XeleronFactory_flattened.sol\":5411:5433  keccak256(bytes(name)) */\n          0xab57fc33064adc5101b2fdd26d0a0df8e2c3a0c96d711d98eabaf3cf78022f46\n            /* \"v2-core-master/contracts/XeleronFactory_flattened.sol\":5270:5542  abi.encode(... */\n          dup2\n          dup4\n          add\n          mstore\n            /* \"v2-core-master/contracts/XeleronFactory_flattened.sol\":5451:5472  keccak256(bytes('1')) */\n          0xc89efdaa54c0f20c7adf612882df0950f5a951637e0307cdcb4c672f298b8bc6\n            /* \"v2-core-master/contracts/XeleronFactory_flattened.sol\":5270:5542  abi.encode(... */\n          0x60\n          dup3\n          add\n          mstore\n          0x80\n          dup2\n          add\n          swap5\n          swap1\n          swap5\n          mstore\n            /* \"v2-core-master/contracts/XeleronFactory_flattened.sol\":5523:5527  this */\n          address\n            /* \"v2-core-master/contracts/XeleronFactory_flattened.sol\":5270:5542  abi.encode(... */\n          0xa0\n          dup1\n          dup7\n          add\n          swap2\n          swap1\n          swap2\n          mstore\n          dup2\n          mload\n            /* \"--CODEGEN--\":26:47   */\n          dup1\n          dup7\n          sub\n            /* \"--CODEGEN--\":22:54   */\n          swap1\n          swap2\n          add\n            /* \"--CODEGEN--\":6:55   */\n          dup2\n          mstore\n            /* \"v2-core-master/contracts/XeleronFactory_flattened.sol\":5270:5542  abi.encode(... */\n          0xc0\n          swap1\n          swap5\n          add\n          swap1\n          mstore\n            /* \"v2-core-master/contracts/XeleronFactory_flattened.sol\":5247:5552  keccak256(... */\n          dup3\n          mload\n          swap3\n          add\n          swap2\n          swap1\n          swap2\n          keccak256\n            /* \"v2-core-master/contracts/XeleronFactory_flattened.sol\":5228:5244  DOMAIN_SEPARATOR */\n          0x03\n            /* \"v2-core-master/contracts/XeleronFactory_flattened.sol\":5228:5552  DOMAIN_SEPARATOR = keccak256(... */\n          sstore\n          pop\n            /* \"v2-core-master/contracts/XeleronFactory_flattened.sol\":12851:12858  factory */\n          0x05\n            /* \"v2-core-master/contracts/XeleronFactory_flattened.sol\":12851:12871  factory = msg.sender */\n          dup1\n          sload\n          0xffffffffffffffffffffffff0000000000000000000000000000000000000000\n          and\n            /* \"v2-core-master/contracts/XeleronFactory_flattened.sol\":12861:12871  msg.sender */\n          caller\n            /* \"v2-core-master/contracts/XeleronFactory_flattened.sol\":12851:12871  factory = msg.sender */\n          or\n          swap1\n          sstore\n          0x2c0a\n          dup1\n            /* \"v2-core-master/contracts/XeleronFactory_flattened.sol\":10924:20387  contract XeleronPair is IXeleronPair, XeleronERC20 {... */\n          dataOffset(sub_0)\n          0x00\n          codecopy\n          0x00\n          return\n        stop\n        data_8b73c3c69bb8fe3d512ecc4cf759cc79239f7b179b0ffacaa9a75d522b39400f 454950373132446f6d61696e28737472696e67206e616d652c737472696e672076657273696f6e2c75696e7432353620636861696e49642c6164647265737320766572696679696e67436f6e747261637429\n\n        sub_0: assembly {\n                /* \"v2-core-master/contracts/XeleronFactory_flattened.sol\":10924:20387  contract XeleronPair is IXeleronPair, XeleronERC20 {... */\n              mstore(0x40, 0x80)\n              callvalue\n                /* \"--CODEGEN--\":8:17   */\n              dup1\n                /* \"--CODEGEN--\":5:7   */\n              iszero\n              tag_1\n              jumpi\n                /* \"--CODEGEN--\":30:31   */\n              0x00\n                /* \"--CODEGEN--\":27:28   */\n              dup1\n                /* \"--CODEGEN--\":20:32   */\n              revert\n                /* \"--CODEGEN--\":5:7   */\n            tag_1:\n                /* \"v2-core-master/contracts/XeleronFactory_flattened.sol\":10924:20387  contract XeleronPair is IXeleronPair, XeleronERC20 {... */\n              pop\n              jumpi(tag_2, lt(calldatasize, 0x04))\n              shr(0xe0, calldataload(0x00))\n              dup1\n              0x6a627842\n              gt\n              tag_30\n              jumpi\n              dup1\n              0xba9a7a56\n              gt\n              tag_31\n              jumpi\n              dup1\n              0xd21220a7\n              gt\n              tag_32\n              jumpi\n              dup1\n              0xd21220a7\n              eq\n              tag_26\n              jumpi\n              dup1\n              0xd505accf\n              eq\n              tag_27\n              jumpi\n              dup1\n              0xdd62ed3e\n              eq\n              tag_28\n              jumpi\n              dup1\n              0xfff6cae9\n              eq\n              tag_29\n              jumpi\n              jump(tag_2)\n            tag_32:\n              dup1\n              0xba9a7a56\n              eq\n              tag_23\n              jumpi\n              dup1\n              0xbc25cf77\n              eq\n              tag_24\n              jumpi\n              dup1\n              0xc45a0155\n              eq\n              tag_25\n              jumpi\n              jump(tag_2)\n            tag_31:\n              dup1\n              0x7ecebe00\n              gt\n              tag_33\n              jumpi\n              dup1\n              0x7ecebe00\n              eq\n              tag_19\n              jumpi\n              dup1\n              0x89afcb44\n              eq\n              tag_20\n              jumpi\n              dup1\n              0x95d89b41\n              eq\n              tag_21\n              jumpi\n              dup1\n              0xa9059cbb\n              eq\n              tag_22\n              jumpi\n              jump(tag_2)\n            tag_33:\n              dup1\n              0x6a627842\n              eq\n              tag_16\n              jumpi\n              dup1\n              0x70a08231\n              eq\n              tag_17\n              jumpi\n              dup1\n              0x7464fc3d\n              eq\n              tag_18\n              jumpi\n              jump(tag_2)\n            tag_30:\n              dup1\n              0x23b872dd\n              gt\n              tag_34\n              jumpi\n              dup1\n              0x3644e515\n              gt\n              tag_35\n              jumpi\n              dup1\n              0x3644e515\n              eq\n              tag_12\n              jumpi\n              dup1\n              0x485cc955\n              eq\n              tag_13\n              jumpi\n              dup1\n              0x5909c0d5\n              eq\n              tag_14\n              jumpi\n              dup1\n              0x5a3d5493\n              eq\n              tag_15\n              jumpi\n              jump(tag_2)\n            tag_35:\n              dup1\n              0x23b872dd\n              eq\n              tag_9\n              jumpi\n              dup1\n              0x30adf81f\n              eq\n              tag_10\n              jumpi\n              dup1\n              0x313ce567\n              eq\n              tag_11\n              jumpi\n              jump(tag_2)\n            tag_34:\n              dup1\n              0x095ea7b3\n              gt\n              tag_36\n              jumpi\n              dup1\n              0x095ea7b3\n              eq\n              tag_6\n              jumpi\n              dup1\n              0x0dfe1681\n              eq\n              tag_7\n              jumpi\n              dup1\n              0x18160ddd\n              eq\n              tag_8\n              jumpi\n              jump(tag_2)\n            tag_36:\n              dup1\n              0x022c0d9f\n              eq\n              tag_3\n              jumpi\n              dup1\n              0x06fdde03\n              eq\n              tag_4\n              jumpi\n              dup1\n              0x0902f1ac\n              eq\n              tag_5\n              jumpi\n            tag_2:\n              0x00\n              dup1\n              revert\n                /* \"v2-core-master/contracts/XeleronFactory_flattened.sol\":17961:19808  function swap(uint amount0Out, uint amount1Out, address to, bytes calldata data) external lock {... */\n            tag_3:\n              tag_37\n              0x04\n              dup1\n              calldatasize\n              sub\n                /* \"--CODEGEN--\":13:16   */\n              0x80\n                /* \"--CODEGEN--\":8:11   */\n              dup2\n                /* \"--CODEGEN--\":5:17   */\n              lt\n                /* \"--CODEGEN--\":2:4   */\n              iszero\n              tag_38\n              jumpi\n                /* \"--CODEGEN--\":30:31   */\n              0x00\n                /* \"--CODEGEN--\":27:28   */\n              dup1\n                /* \"--CODEGEN--\":20:32   */\n              revert\n                /* \"--CODEGEN--\":2:4   */\n            tag_38:\n                /* \"v2-core-master/contracts/XeleronFactory_flattened.sol\":17961:19808  function swap(uint amount0Out, uint amount1Out, address to, bytes calldata data) external lock {... */\n              dup2\n              calldataload\n              swap2\n              0x20\n              dup2\n              add\n              calldataload\n              swap2\n              0xffffffffffffffffffffffffffffffffffffffff\n              0x40\n              dup4\n              add\n              calldataload\n              and\n              swap2\n              swap1\n              dup2\n              add\n              swap1\n              0x80\n              dup2\n              add\n              0x60\n              dup3\n              add\n              calldataload\n                /* \"--CODEGEN--\":21:32   */\n              0x0100000000\n                /* \"--CODEGEN--\":5:33   */\n              dup2\n              gt\n                /* \"--CODEGEN--\":2:4   */\n              iszero\n              tag_39\n              jumpi\n                /* \"--CODEGEN--\":46:47   */\n              0x00\n                /* \"--CODEGEN--\":43:44   */\n              dup1\n                /* \"--CODEGEN--\":36:48   */\n              revert\n                /* \"--CODEGEN--\":2:4   */\n            tag_39:\n                /* \"v2-core-master/contracts/XeleronFactory_flattened.sol\":17961:19808  function swap(uint amount0Out, uint amount1Out, address to, bytes calldata data) external lock {... */\n              dup3\n              add\n                /* \"--CODEGEN--\":35:44   */\n              dup4\n                /* \"--CODEGEN--\":28:32   */\n              0x20\n                /* \"--CODEGEN--\":12:26   */\n              dup3\n                /* \"--CODEGEN--\":8:33   */\n              add\n                /* \"--CODEGEN--\":5:45   */\n              gt\n                /* \"--CODEGEN--\":2:4   */\n              iszero\n              tag_40\n              jumpi\n                /* \"--CODEGEN--\":58:59   */\n              0x00\n                /* \"--CODEGEN--\":55:56   */\n              dup1\n                /* \"--CODEGEN--\":48:60   */\n              revert\n                /* \"--CODEGEN--\":2:4   */\n            tag_40:\n                /* \"v2-core-master/contracts/XeleronFactory_flattened.sol\":17961:19808  function swap(uint amount0Out, uint amount1Out, address to, bytes calldata data) external lock {... */\n              dup1\n              calldataload\n              swap1\n              0x20\n              add\n              swap2\n                /* \"--CODEGEN--\":100:109   */\n              dup5\n                /* \"--CODEGEN--\":95:96   */\n              0x01\n                /* \"--CODEGEN--\":81:93   */\n              dup4\n                /* \"--CODEGEN--\":77:97   */\n              mul\n                /* \"--CODEGEN--\":67:75   */\n              dup5\n                /* \"--CODEGEN--\":63:98   */\n              add\n                /* \"--CODEGEN--\":60:110   */\n              gt\n                /* \"--CODEGEN--\":39:50   */\n              0x0100000000\n                /* \"--CODEGEN--\":25:37   */\n              dup4\n                /* \"--CODEGEN--\":22:51   */\n              gt\n                /* \"--CODEGEN--\":11:118   */\n              or\n                /* \"--CODEGEN--\":8:10   */\n              iszero\n              tag_41\n              jumpi\n                /* \"--CODEGEN--\":131:132   */\n              0x00\n                /* \"--CODEGEN--\":128:129   */\n              dup1\n                /* \"--CODEGEN--\":121:133   */\n              revert\n                /* \"--CODEGEN--\":8:10   */\n            tag_41:\n              pop\n                /* \"v2-core-master/contracts/XeleronFactory_flattened.sol\":17961:19808  function swap(uint amount0Out, uint amount1Out, address to, bytes calldata data) external lock {... */\n              swap1\n              swap3\n              pop\n              swap1\n              pop\n              tag_42\n              jump\t// in\n            tag_37:\n              stop\n                /* \"v2-core-master/contracts/XeleronFactory_flattened.sol\":4386:4425  string public constant name = 'Xeleron' */\n            tag_4:\n              tag_43\n              tag_44\n              jump\t// in\n            tag_43:\n              0x40\n              dup1\n              mload\n              0x20\n              dup1\n              dup3\n              mstore\n              dup4\n              mload\n              dup2\n              dup4\n              add\n              mstore\n              dup4\n              mload\n              swap2\n              swap3\n              dup4\n              swap3\n              swap1\n              dup4\n              add\n              swap2\n              dup6\n              add\n              swap1\n              dup1\n              dup4\n              dup4\n              0x00\n                /* \"--CODEGEN--\":8:108   */\n            tag_45:\n                /* \"--CODEGEN--\":33:36   */\n              dup4\n                /* \"--CODEGEN--\":30:31   */\n              dup2\n                /* \"--CODEGEN--\":27:37   */\n              lt\n                /* \"--CODEGEN--\":8:108   */\n              iszero\n              tag_47\n              jumpi\n                /* \"--CODEGEN--\":90:101   */\n              dup2\n              dup2\n              add\n                /* \"--CODEGEN--\":84:102   */\n              mload\n                /* \"--CODEGEN--\":71:82   */\n              dup4\n              dup3\n              add\n                /* \"--CODEGEN--\":64:103   */\n              mstore\n                /* \"--CODEGEN--\":52:54   */\n              0x20\n                /* \"--CODEGEN--\":45:55   */\n              add\n                /* \"--CODEGEN--\":8:108   */\n              jump(tag_45)\n            tag_47:\n                /* \"--CODEGEN--\":12:26   */\n              pop\n                /* \"v2-core-master/contracts/XeleronFactory_flattened.sol\":4386:4425  string public constant name = 'Xeleron' */\n              pop\n              pop\n              pop\n              swap1\n              pop\n              swap1\n              dup2\n              add\n              swap1\n              0x1f\n              and\n              dup1\n              iszero\n              tag_48\n              jumpi\n              dup1\n              dup3\n              sub\n              dup1\n              mload\n              0x01\n              dup4\n              0x20\n              sub\n              0x0100\n              exp\n              sub\n              not\n              and\n              dup2\n              mstore\n              0x20\n              add\n              swap2\n              pop\n            tag_48:\n              pop\n              swap3\n              pop\n              pop\n              pop\n              mload(0x40)\n              dup1\n              swap2\n              sub\n              swap1\n              return\n                /* \"v2-core-master/contracts/XeleronFactory_flattened.sol\":11910:12137  function getReserves() public view returns (uint112 _reserve0, uint112 _reserve1, uint32 _blockTimestampLast) {... */\n            tag_5:\n              tag_49\n              tag_50\n              jump\t// in\n            tag_49:\n              0x40\n              dup1\n              mload\n              0xffffffffffffffffffffffffffff\n              swap5\n              dup6\n              and\n              dup2\n              mstore\n              swap3\n              swap1\n              swap4\n              and\n              0x20\n              dup4\n              add\n              mstore\n              0xffffffff\n              and\n              dup2\n              dup4\n              add\n              mstore\n              swap1\n              mload\n              swap1\n              dup2\n              swap1\n              sub\n              0x60\n              add\n              swap1\n              return\n                /* \"v2-core-master/contracts/XeleronFactory_flattened.sol\":6373:6517  function approve(address spender, uint value) external returns (bool) {... */\n            tag_6:\n              tag_51\n              0x04\n              dup1\n              calldatasize\n              sub\n                /* \"--CODEGEN--\":13:15   */\n              0x40\n                /* \"--CODEGEN--\":8:11   */\n              dup2\n                /* \"--CODEGEN--\":5:16   */\n              lt\n                /* \"--CODEGEN--\":2:4   */\n              iszero\n              tag_52\n              jumpi\n                /* \"--CODEGEN--\":29:30   */\n              0x00\n                /* \"--CODEGEN--\":26:27   */\n              dup1\n                /* \"--CODEGEN--\":19:31   */\n              revert\n                /* \"--CODEGEN--\":2:4   */\n            tag_52:\n              pop\n                /* \"v2-core-master/contracts/XeleronFactory_flattened.sol\":6373:6517  function approve(address spender, uint value) external returns (bool) {... */\n              0xffffffffffffffffffffffffffffffffffffffff\n              dup2\n              calldataload\n              and\n              swap1\n              0x20\n              add\n              calldataload\n              tag_53\n              jump\t// in\n            tag_51:\n              0x40\n              dup1\n              mload\n              swap2\n              iszero\n              iszero\n              dup3\n              mstore\n              mload\n              swap1\n              dup2\n              swap1\n              sub\n              0x20\n              add\n              swap1\n              return\n                /* \"v2-core-master/contracts/XeleronFactory_flattened.sol\":11220:11241  address public token0 */\n            tag_7:\n              tag_54\n              tag_55\n              jump\t// in\n            tag_54:\n              0x40\n              dup1\n              mload\n              0xffffffffffffffffffffffffffffffffffffffff\n              swap1\n              swap3\n              and\n              dup3\n              mstore\n              mload\n              swap1\n              dup2\n              swap1\n              sub\n              0x20\n              add\n              swap1\n              return\n                /* \"v2-core-master/contracts/XeleronFactory_flattened.sol\":4515:4539  uint  public totalSupply */\n            tag_8:\n              tag_56\n              tag_57\n              jump\t// in\n            tag_56:\n              0x40\n              dup1\n              mload\n              swap2\n              dup3\n              mstore\n              mload\n              swap1\n              dup2\n              swap1\n              sub\n              0x20\n              add\n              swap1\n              return\n                /* \"v2-core-master/contracts/XeleronFactory_flattened.sol\":6665:6960  function transferFrom(address from, address to, uint value) external returns (bool) {... */\n            tag_9:\n              tag_51\n              0x04\n              dup1\n              calldatasize\n              sub\n                /* \"--CODEGEN--\":13:15   */\n              0x60\n                /* \"--CODEGEN--\":8:11   */\n              dup2\n                /* \"--CODEGEN--\":5:16   */\n              lt\n                /* \"--CODEGEN--\":2:4   */\n              iszero\n              tag_59\n              jumpi\n                /* \"--CODEGEN--\":29:30   */\n              0x00\n                /* \"--CODEGEN--\":26:27   */\n              dup1\n                /* \"--CODEGEN--\":19:31   */\n              revert\n                /* \"--CODEGEN--\":2:4   */\n            tag_59:\n              pop\n                /* \"v2-core-master/contracts/XeleronFactory_flattened.sol\":6665:6960  function transferFrom(address from, address to, uint value) external returns (bool) {... */\n              0xffffffffffffffffffffffffffffffffffffffff\n              dup2\n              calldataload\n              dup2\n              and\n              swap2\n              0x20\n              dup2\n              add\n              calldataload\n              swap1\n              swap2\n              and\n              swap1\n              0x40\n              add\n              calldataload\n              tag_60\n              jump\t// in\n                /* \"v2-core-master/contracts/XeleronFactory_flattened.sol\":4801:4909  bytes32 public constant PERMIT_TYPEHASH = 0x6e71edae12b1b97f4d1f60370fef10105fa2faae0126114a169c64845d6126c9 */\n            tag_10:\n              tag_56\n              tag_62\n              jump\t// in\n                /* \"v2-core-master/contracts/XeleronFactory_flattened.sol\":4474:4509  uint8 public constant decimals = 18 */\n            tag_11:\n              tag_63\n              tag_64\n              jump\t// in\n            tag_63:\n              0x40\n              dup1\n              mload\n              0xff\n              swap1\n              swap3\n              and\n              dup3\n              mstore\n              mload\n              swap1\n              dup2\n              swap1\n              sub\n              0x20\n              add\n              swap1\n              return\n                /* \"v2-core-master/contracts/XeleronFactory_flattened.sol\":4660:4691  bytes32 public DOMAIN_SEPARATOR */\n            tag_12:\n              tag_56\n              tag_66\n              jump\t// in\n                /* \"v2-core-master/contracts/XeleronFactory_flattened.sol\":12940:13144  function initialize(address _token0, address _token1) external {... */\n            tag_13:\n              tag_37\n              0x04\n              dup1\n              calldatasize\n              sub\n                /* \"--CODEGEN--\":13:15   */\n              0x40\n                /* \"--CODEGEN--\":8:11   */\n              dup2\n                /* \"--CODEGEN--\":5:16   */\n              lt\n                /* \"--CODEGEN--\":2:4   */\n              iszero\n              tag_68\n              jumpi\n                /* \"--CODEGEN--\":29:30   */\n              0x00\n                /* \"--CODEGEN--\":26:27   */\n              dup1\n                /* \"--CODEGEN--\":19:31   */\n              revert\n                /* \"--CODEGEN--\":2:4   */\n            tag_68:\n              pop\n                /* \"v2-core-master/contracts/XeleronFactory_flattened.sol\":12940:13144  function initialize(address _token0, address _token1) external {... */\n              0xffffffffffffffffffffffffffffffffffffffff\n              dup2\n              calldataload\n              dup2\n              and\n              swap2\n              0x20\n              add\n              calldataload\n              and\n              tag_69\n              jump\t// in\n                /* \"v2-core-master/contracts/XeleronFactory_flattened.sol\":11564:11596  uint public price0CumulativeLast */\n            tag_14:\n              tag_56\n              tag_71\n              jump\t// in\n                /* \"v2-core-master/contracts/XeleronFactory_flattened.sol\":11602:11634  uint public price1CumulativeLast */\n            tag_15:\n              tag_56\n              tag_73\n              jump\t// in\n                /* \"v2-core-master/contracts/XeleronFactory_flattened.sol\":15084:16301  function mint(address to) external lock returns (uint liquidity) {... */\n            tag_16:\n              tag_56\n              0x04\n              dup1\n              calldatasize\n              sub\n                /* \"--CODEGEN--\":13:15   */\n              0x20\n                /* \"--CODEGEN--\":8:11   */\n              dup2\n                /* \"--CODEGEN--\":5:16   */\n              lt\n                /* \"--CODEGEN--\":2:4   */\n              iszero\n              tag_75\n              jumpi\n                /* \"--CODEGEN--\":29:30   */\n              0x00\n                /* \"--CODEGEN--\":26:27   */\n              dup1\n                /* \"--CODEGEN--\":19:31   */\n              revert\n                /* \"--CODEGEN--\":2:4   */\n            tag_75:\n              pop\n                /* \"v2-core-master/contracts/XeleronFactory_flattened.sol\":15084:16301  function mint(address to) external lock returns (uint liquidity) {... */\n              calldataload\n              0xffffffffffffffffffffffffffffffffffffffff\n              and\n              tag_76\n              jump\t// in\n                /* \"v2-core-master/contracts/XeleronFactory_flattened.sol\":4545:4586  mapping(address => uint) public balanceOf */\n            tag_17:\n              tag_56\n              0x04\n              dup1\n              calldatasize\n              sub\n                /* \"--CODEGEN--\":13:15   */\n              0x20\n                /* \"--CODEGEN--\":8:11   */\n              dup2\n                /* \"--CODEGEN--\":5:16   */\n              lt\n                /* \"--CODEGEN--\":2:4   */\n              iszero\n              tag_78\n              jumpi\n                /* \"--CODEGEN--\":29:30   */\n              0x00\n                /* \"--CODEGEN--\":26:27   */\n              dup1\n                /* \"--CODEGEN--\":19:31   */\n              revert\n                /* \"--CODEGEN--\":2:4   */\n            tag_78:\n              pop\n                /* \"v2-core-master/contracts/XeleronFactory_flattened.sol\":4545:4586  mapping(address => uint) public balanceOf */\n              calldataload\n              0xffffffffffffffffffffffffffffffffffffffff\n              and\n              tag_79\n              jump\t// in\n                /* \"v2-core-master/contracts/XeleronFactory_flattened.sol\":11640:11657  uint public kLast */\n            tag_18:\n              tag_56\n              tag_81\n              jump\t// in\n                /* \"v2-core-master/contracts/XeleronFactory_flattened.sol\":4915:4953  mapping(address => uint) public nonces */\n            tag_19:\n              tag_56\n              0x04\n              dup1\n              calldatasize\n              sub\n                /* \"--CODEGEN--\":13:15   */\n              0x20\n                /* \"--CODEGEN--\":8:11   */\n              dup2\n                /* \"--CODEGEN--\":5:16   */\n              lt\n                /* \"--CODEGEN--\":2:4   */\n              iszero\n              tag_83\n              jumpi\n                /* \"--CODEGEN--\":29:30   */\n              0x00\n                /* \"--CODEGEN--\":26:27   */\n              dup1\n                /* \"--CODEGEN--\":19:31   */\n              revert\n                /* \"--CODEGEN--\":2:4   */\n            tag_83:\n              pop\n                /* \"v2-core-master/contracts/XeleronFactory_flattened.sol\":4915:4953  mapping(address => uint) public nonces */\n              calldataload\n              0xffffffffffffffffffffffffffffffffffffffff\n              and\n              tag_84\n              jump\t// in\n                /* \"v2-core-master/contracts/XeleronFactory_flattened.sol\":16410:17852  function burn(address to) external lock returns (uint amount0, uint amount1) {... */\n            tag_20:\n              tag_85\n              0x04\n              dup1\n              calldatasize\n              sub\n                /* \"--CODEGEN--\":13:15   */\n              0x20\n                /* \"--CODEGEN--\":8:11   */\n              dup2\n                /* \"--CODEGEN--\":5:16   */\n              lt\n                /* \"--CODEGEN--\":2:4   */\n              iszero\n              tag_86\n              jumpi\n                /* \"--CODEGEN--\":29:30   */\n              0x00\n                /* \"--CODEGEN--\":26:27   */\n              dup1\n                /* \"--CODEGEN--\":19:31   */\n              revert\n                /* \"--CODEGEN--\":2:4   */\n            tag_86:\n              pop\n                /* \"v2-core-master/contracts/XeleronFactory_flattened.sol\":16410:17852  function burn(address to) external lock returns (uint amount0, uint amount1) {... */\n              calldataload\n              0xffffffffffffffffffffffffffffffffffffffff\n              and\n              tag_87\n              jump\t// in\n            tag_85:\n              0x40\n              dup1\n              mload\n              swap3\n              dup4\n              mstore\n              0x20\n              dup4\n              add\n              swap2\n              swap1\n              swap2\n              mstore\n              dup1\n              mload\n              swap2\n              dup3\n              swap1\n              sub\n              add\n              swap1\n              return\n                /* \"v2-core-master/contracts/XeleronFactory_flattened.sol\":4431:4468  string public constant symbol = 'XLR' */\n            tag_21:\n              tag_43\n              tag_89\n              jump\t// in\n                /* \"v2-core-master/contracts/XeleronFactory_flattened.sol\":6523:6659  function transfer(address to, uint value) external returns (bool) {... */\n            tag_22:\n              tag_51\n              0x04\n              dup1\n              calldatasize\n              sub\n                /* \"--CODEGEN--\":13:15   */\n              0x40\n                /* \"--CODEGEN--\":8:11   */\n              dup2\n                /* \"--CODEGEN--\":5:16   */\n              lt\n                /* \"--CODEGEN--\":2:4   */\n              iszero\n              tag_95\n              jumpi\n                /* \"--CODEGEN--\":29:30   */\n              0x00\n                /* \"--CODEGEN--\":26:27   */\n              dup1\n                /* \"--CODEGEN--\":19:31   */\n              revert\n                /* \"--CODEGEN--\":2:4   */\n            tag_95:\n              pop\n                /* \"v2-core-master/contracts/XeleronFactory_flattened.sol\":6523:6659  function transfer(address to, uint value) external returns (bool) {... */\n              0xffffffffffffffffffffffffffffffffffffffff\n              dup2\n              calldataload\n              and\n              swap1\n              0x20\n              add\n              calldataload\n              tag_96\n              jump\t// in\n                /* \"v2-core-master/contracts/XeleronFactory_flattened.sol\":11045:11091  uint public constant MINIMUM_LIQUIDITY = 10**3 */\n            tag_23:\n              tag_56\n              tag_98\n              jump\t// in\n                /* \"v2-core-master/contracts/XeleronFactory_flattened.sol\":19854:20183  function skim(address to) external lock {... */\n            tag_24:\n              tag_37\n              0x04\n              dup1\n              calldatasize\n              sub\n                /* \"--CODEGEN--\":13:15   */\n              0x20\n                /* \"--CODEGEN--\":8:11   */\n              dup2\n                /* \"--CODEGEN--\":5:16   */\n              lt\n                /* \"--CODEGEN--\":2:4   */\n              iszero\n              tag_100\n              jumpi\n                /* \"--CODEGEN--\":29:30   */\n              0x00\n                /* \"--CODEGEN--\":26:27   */\n              dup1\n                /* \"--CODEGEN--\":19:31   */\n              revert\n                /* \"--CODEGEN--\":2:4   */\n            tag_100:\n              pop\n                /* \"v2-core-master/contracts/XeleronFactory_flattened.sol\":19854:20183  function skim(address to) external lock {... */\n              calldataload\n              0xffffffffffffffffffffffffffffffffffffffff\n              and\n              tag_101\n              jump\t// in\n                /* \"v2-core-master/contracts/XeleronFactory_flattened.sol\":11192:11214  address public factory */\n            tag_25:\n              tag_54\n              tag_103\n              jump\t// in\n                /* \"v2-core-master/contracts/XeleronFactory_flattened.sol\":11247:11268  address public token1 */\n            tag_26:\n              tag_54\n              tag_105\n              jump\t// in\n                /* \"v2-core-master/contracts/XeleronFactory_flattened.sol\":6966:7624  function permit(address owner, address spender, uint value, uint deadline, uint8 v, bytes32 r, bytes32 s) external {... */\n            tag_27:\n              tag_37\n              0x04\n              dup1\n              calldatasize\n              sub\n                /* \"--CODEGEN--\":13:16   */\n              0xe0\n                /* \"--CODEGEN--\":8:11   */\n              dup2\n                /* \"--CODEGEN--\":5:17   */\n              lt\n                /* \"--CODEGEN--\":2:4   */\n              iszero\n              tag_107\n              jumpi\n                /* \"--CODEGEN--\":30:31   */\n              0x00\n                /* \"--CODEGEN--\":27:28   */\n              dup1\n                /* \"--CODEGEN--\":20:32   */\n              revert\n                /* \"--CODEGEN--\":2:4   */\n            tag_107:\n              pop\n                /* \"v2-core-master/contracts/XeleronFactory_flattened.sol\":6966:7624  function permit(address owner, address spender, uint value, uint deadline, uint8 v, bytes32 r, bytes32 s) external {... */\n              0xffffffffffffffffffffffffffffffffffffffff\n              dup2\n              calldataload\n              dup2\n              and\n              swap2\n              0x20\n              dup2\n              add\n              calldataload\n              swap1\n              swap2\n              and\n              swap1\n              0x40\n              dup2\n              add\n              calldataload\n              swap1\n              0x60\n              dup2\n              add\n              calldataload\n              swap1\n              0xff\n              0x80\n              dup3\n              add\n              calldataload\n              and\n              swap1\n              0xa0\n              dup2\n              add\n              calldataload\n              swap1\n              0xc0\n              add\n              calldataload\n              tag_108\n              jump\t// in\n                /* \"v2-core-master/contracts/XeleronFactory_flattened.sol\":4592:4653  mapping(address => mapping(address => uint)) public allowance */\n            tag_28:\n              tag_56\n              0x04\n              dup1\n              calldatasize\n              sub\n                /* \"--CODEGEN--\":13:15   */\n              0x40\n                /* \"--CODEGEN--\":8:11   */\n              dup2\n                /* \"--CODEGEN--\":5:16   */\n              lt\n                /* \"--CODEGEN--\":2:4   */\n              iszero\n              tag_110\n              jumpi\n                /* \"--CODEGEN--\":29:30   */\n              0x00\n                /* \"--CODEGEN--\":26:27   */\n              dup1\n                /* \"--CODEGEN--\":19:31   */\n              revert\n                /* \"--CODEGEN--\":2:4   */\n            tag_110:\n              pop\n                /* \"v2-core-master/contracts/XeleronFactory_flattened.sol\":4592:4653  mapping(address => mapping(address => uint)) public allowance */\n              0xffffffffffffffffffffffffffffffffffffffff\n              dup2\n              calldataload\n              dup2\n              and\n              swap2\n              0x20\n              add\n              calldataload\n              and\n              tag_111\n              jump\t// in\n                /* \"v2-core-master/contracts/XeleronFactory_flattened.sol\":20229:20385  function sync() external lock {... */\n            tag_29:\n              tag_37\n              tag_113\n              jump\t// in\n                /* \"v2-core-master/contracts/XeleronFactory_flattened.sol\":17961:19808  function swap(uint amount0Out, uint amount1Out, address to, bytes calldata data) external lock {... */\n            tag_42:\n                /* \"v2-core-master/contracts/XeleronFactory_flattened.sol\":11809:11817  unlocked */\n              sload(0x0c)\n                /* \"v2-core-master/contracts/XeleronFactory_flattened.sol\":11821:11822  1 */\n              0x01\n                /* \"v2-core-master/contracts/XeleronFactory_flattened.sol\":11809:11822  unlocked == 1 */\n              eq\n                /* \"v2-core-master/contracts/XeleronFactory_flattened.sol\":11801:11842  require(unlocked == 1, 'Xeleron: LOCKED') */\n              tag_115\n              jumpi\n              0x40\n              dup1\n              mload\n              0x08c379a000000000000000000000000000000000000000000000000000000000\n              dup2\n              mstore\n              0x20\n              0x04\n              dup3\n              add\n              mstore\n              0x0f\n              0x24\n              dup3\n              add\n              mstore\n              0x58656c65726f6e3a204c4f434b45440000000000000000000000000000000000\n              0x44\n              dup3\n              add\n              mstore\n              swap1\n              mload\n              swap1\n              dup2\n              swap1\n              sub\n              0x64\n              add\n              swap1\n              revert\n            tag_115:\n                /* \"v2-core-master/contracts/XeleronFactory_flattened.sol\":11863:11864  0 */\n              0x00\n                /* \"v2-core-master/contracts/XeleronFactory_flattened.sol\":11852:11860  unlocked */\n              0x0c\n                /* \"v2-core-master/contracts/XeleronFactory_flattened.sol\":11852:11864  unlocked = 0 */\n              sstore\n                /* \"v2-core-master/contracts/XeleronFactory_flattened.sol\":18074:18088  amount0Out > 0 */\n              dup5\n              iszero\n              iszero\n              dup1\n                /* \"v2-core-master/contracts/XeleronFactory_flattened.sol\":18074:18106  amount0Out > 0 || amount1Out > 0 */\n              tag_117\n              jumpi\n              pop\n                /* \"v2-core-master/contracts/XeleronFactory_flattened.sol\":18105:18106  0 */\n              0x00\n                /* \"v2-core-master/contracts/XeleronFactory_flattened.sol\":18092:18102  amount1Out */\n              dup5\n                /* \"v2-core-master/contracts/XeleronFactory_flattened.sol\":18092:18106  amount1Out > 0 */\n              gt\n                /* \"v2-core-master/contracts/XeleronFactory_flattened.sol\":18074:18106  amount0Out > 0 || amount1Out > 0 */\n            tag_117:\n                /* \"v2-core-master/contracts/XeleronFactory_flattened.sol\":18066:18146  require(amount0Out > 0 || amount1Out > 0, 'Xeleron: INSUFFICIENT_OUTPUT_AMOUNT') */\n              tag_118\n              jumpi\n              mload(0x40)\n              0x08c379a000000000000000000000000000000000000000000000000000000000\n              dup2\n              mstore\n              0x04\n              add\n              dup1\n              dup1\n              0x20\n              add\n              dup3\n              dup2\n              sub\n              dup3\n              mstore\n              0x23\n              dup2\n              mstore\n              0x20\n              add\n              dup1\n              data_a35e814dbc094c9f1a6facd27a7fe48075fb1eae2196cf9b373eebed0f367750\n              0x23\n              swap2\n              codecopy\n              0x40\n              add\n              swap2\n              pop\n              pop\n              mload(0x40)\n              dup1\n              swap2\n              sub\n              swap1\n              revert\n            tag_118:\n                /* \"v2-core-master/contracts/XeleronFactory_flattened.sol\":18157:18174  uint112 _reserve0 */\n              0x00\n                /* \"v2-core-master/contracts/XeleronFactory_flattened.sol\":18176:18193  uint112 _reserve1 */\n              dup1\n                /* \"v2-core-master/contracts/XeleronFactory_flattened.sol\":18198:18211  getReserves() */\n              tag_119\n                /* \"v2-core-master/contracts/XeleronFactory_flattened.sol\":18198:18209  getReserves */\n              tag_50\n                /* \"v2-core-master/contracts/XeleronFactory_flattened.sol\":18198:18211  getReserves() */\n              jump\t// in\n            tag_119:\n                /* \"v2-core-master/contracts/XeleronFactory_flattened.sol\":18156:18211  (uint112 _reserve0, uint112 _reserve1,) = getReserves() */\n              pop\n              swap2\n              pop\n              swap2\n              pop\n                /* \"v2-core-master/contracts/XeleronFactory_flattened.sol\":18257:18266  _reserve0 */\n              dup2\n                /* \"v2-core-master/contracts/XeleronFactory_flattened.sol\":18244:18266  amount0Out < _reserve0 */\n              0xffffffffffffffffffffffffffff\n              and\n                /* \"v2-core-master/contracts/XeleronFactory_flattened.sol\":18244:18254  amount0Out */\n              dup8\n                /* \"v2-core-master/contracts/XeleronFactory_flattened.sol\":18244:18266  amount0Out < _reserve0 */\n              lt\n                /* \"v2-core-master/contracts/XeleronFactory_flattened.sol\":18244:18292  amount0Out < _reserve0 && amount1Out < _reserve1 */\n              dup1\n              iszero\n              tag_120\n              jumpi\n              pop\n                /* \"v2-core-master/contracts/XeleronFactory_flattened.sol\":18283:18292  _reserve1 */\n              dup1\n                /* \"v2-core-master/contracts/XeleronFactory_flattened.sol\":18270:18292  amount1Out < _reserve1 */\n              0xffffffffffffffffffffffffffff\n              and\n                /* \"v2-core-master/contracts/XeleronFactory_flattened.sol\":18270:18280  amount1Out */\n              dup7\n                /* \"v2-core-master/contracts/XeleronFactory_flattened.sol\":18270:18292  amount1Out < _reserve1 */\n              lt\n                /* \"v2-core-master/contracts/XeleronFactory_flattened.sol\":18244:18292  amount0Out < _reserve0 && amount1Out < _reserve1 */\n            tag_120:\n                /* \"v2-core-master/contracts/XeleronFactory_flattened.sol\":18236:18328  require(amount0Out < _reserve0 && amount1Out < _reserve1, 'Xeleron: INSUFFICIENT_LIQUIDITY') */\n              tag_121\n              jumpi\n              0x40\n              dup1\n              mload\n              0x08c379a000000000000000000000000000000000000000000000000000000000\n              dup2\n              mstore\n              0x20\n              0x04\n              dup3\n              add\n              mstore\n              0x1f\n              0x24\n              dup3\n              add\n              mstore\n              0x58656c65726f6e3a20494e53554646494349454e545f4c495155494449545900\n              0x44\n              dup3\n              add\n              mstore\n              swap1\n              mload\n              swap1\n              dup2\n              swap1\n              sub\n              0x64\n              add\n              swap1\n              revert\n            tag_121:\n                /* \"v2-core-master/contracts/XeleronFactory_flattened.sol\":18468:18474  token0 */\n              sload(0x06)\n                /* \"v2-core-master/contracts/XeleronFactory_flattened.sol\":18502:18508  token1 */\n              sload(0x07)\n                /* \"v2-core-master/contracts/XeleronFactory_flattened.sol\":18339:18352  uint balance0 */\n              0x00\n              swap2\n              dup3\n              swap2\n                /* \"v2-core-master/contracts/XeleronFactory_flattened.sol\":18468:18474  token0 */\n              0xffffffffffffffffffffffffffffffffffffffff\n              swap2\n              dup3\n              and\n              swap2\n                /* \"v2-core-master/contracts/XeleronFactory_flattened.sol\":18502:18508  token1 */\n              swap1\n              dup2\n              and\n              swap1\n                /* \"v2-core-master/contracts/XeleronFactory_flattened.sol\":18526:18539  to != _token0 */\n              dup10\n              and\n              dup3\n              eq\n              dup1\n              iszero\n              swap1\n                /* \"v2-core-master/contracts/XeleronFactory_flattened.sol\":18526:18556  to != _token0 && to != _token1 */\n              tag_122\n              jumpi\n              pop\n                /* \"v2-core-master/contracts/XeleronFactory_flattened.sol\":18549:18556  _token1 */\n              dup1\n                /* \"v2-core-master/contracts/XeleronFactory_flattened.sol\":18543:18556  to != _token1 */\n              0xffffffffffffffffffffffffffffffffffffffff\n              and\n                /* \"v2-core-master/contracts/XeleronFactory_flattened.sol\":18543:18545  to */\n              dup10\n                /* \"v2-core-master/contracts/XeleronFactory_flattened.sol\":18543:18556  to != _token1 */\n              0xffffffffffffffffffffffffffffffffffffffff\n              and\n              eq\n              iszero\n                /* \"v2-core-master/contracts/XeleronFactory_flattened.sol\":18526:18556  to != _token0 && to != _token1 */\n            tag_122:\n                /* \"v2-core-master/contracts/XeleronFactory_flattened.sol\":18518:18580  require(to != _token0 && to != _token1, 'Xeleron: INVALID_TO') */\n              tag_123\n              jumpi\n              0x40\n              dup1\n              mload\n              0x08c379a000000000000000000000000000000000000000000000000000000000\n              dup2\n              mstore\n              0x20\n              0x04\n              dup3\n              add\n              mstore\n              0x13\n              0x24\n              dup3\n              add\n              mstore\n              0x58656c65726f6e3a20494e56414c49445f544f00000000000000000000000000\n              0x44\n              dup3\n              add\n              mstore\n              swap1\n              mload\n              swap1\n              dup2\n              swap1\n              sub\n              0x64\n              add\n              swap1\n              revert\n            tag_123:\n                /* \"v2-core-master/contracts/XeleronFactory_flattened.sol\":18594:18608  amount0Out > 0 */\n              dup11\n              iszero\n                /* \"v2-core-master/contracts/XeleronFactory_flattened.sol\":18590:18648  if (amount0Out > 0) _safeTransfer(_token0, to, amount0Out) */\n              tag_125\n              jumpi\n                /* \"v2-core-master/contracts/XeleronFactory_flattened.sol\":18610:18648  _safeTransfer(_token0, to, amount0Out) */\n              tag_125\n                /* \"v2-core-master/contracts/XeleronFactory_flattened.sol\":18624:18631  _token0 */\n              dup3\n                /* \"v2-core-master/contracts/XeleronFactory_flattened.sol\":18633:18635  to */\n              dup11\n                /* \"v2-core-master/contracts/XeleronFactory_flattened.sol\":18637:18647  amount0Out */\n              dup14\n                /* \"v2-core-master/contracts/XeleronFactory_flattened.sol\":18610:18623  _safeTransfer */\n              tag_126\n                /* \"v2-core-master/contracts/XeleronFactory_flattened.sol\":18610:18648  _safeTransfer(_token0, to, amount0Out) */\n              jump\t// in\n            tag_125:\n                /* \"v2-core-master/contracts/XeleronFactory_flattened.sol\":18696:18710  amount1Out > 0 */\n              dup10\n              iszero\n                /* \"v2-core-master/contracts/XeleronFactory_flattened.sol\":18692:18750  if (amount1Out > 0) _safeTransfer(_token1, to, amount1Out) */\n              tag_128\n              jumpi\n                /* \"v2-core-master/contracts/XeleronFactory_flattened.sol\":18712:18750  _safeTransfer(_token1, to, amount1Out) */\n              tag_128\n                /* \"v2-core-master/contracts/XeleronFactory_flattened.sol\":18726:18733  _token1 */\n              dup2\n                /* \"v2-core-master/contracts/XeleronFactory_flattened.sol\":18735:18737  to */\n              dup11\n                /* \"v2-core-master/contracts/XeleronFactory_flattened.sol\":18739:18749  amount1Out */\n              dup13\n                /* \"v2-core-master/contracts/XeleronFactory_flattened.sol\":18712:18725  _safeTransfer */\n              tag_126\n                /* \"v2-core-master/contracts/XeleronFactory_flattened.sol\":18712:18750  _safeTransfer(_token1, to, amount1Out) */\n              jump\t// in\n            tag_128:\n                /* \"v2-core-master/contracts/XeleronFactory_flattened.sol\":18798:18813  data.length > 0 */\n              dup7\n              iszero\n                /* \"v2-core-master/contracts/XeleronFactory_flattened.sol\":18794:18887  if (data.length > 0) IXeleronCallee(to).xeleronCall(msg.sender, amount0Out, amount1Out, data) */\n              tag_129\n              jumpi\n                /* \"v2-core-master/contracts/XeleronFactory_flattened.sol\":18830:18832  to */\n              dup9\n                /* \"v2-core-master/contracts/XeleronFactory_flattened.sol\":18815:18845  IXeleronCallee(to).xeleronCall */\n              0xffffffffffffffffffffffffffffffffffffffff\n              and\n              0x6558e6f7\n                /* \"v2-core-master/contracts/XeleronFactory_flattened.sol\":18846:18856  msg.sender */\n              caller\n                /* \"v2-core-master/contracts/XeleronFactory_flattened.sol\":18858:18868  amount0Out */\n              dup14\n                /* \"v2-core-master/contracts/XeleronFactory_flattened.sol\":18870:18880  amount1Out */\n              dup14\n                /* \"v2-core-master/contracts/XeleronFactory_flattened.sol\":18882:18886  data */\n              dup13\n              dup13\n                /* \"v2-core-master/contracts/XeleronFactory_flattened.sol\":18815:18887  IXeleronCallee(to).xeleronCall(msg.sender, amount0Out, amount1Out, data) */\n              mload(0x40)\n              dup7\n              0xffffffff\n              and\n              0xe0\n              shl\n              dup2\n              mstore\n              0x04\n              add\n              dup1\n              dup7\n              0xffffffffffffffffffffffffffffffffffffffff\n              and\n              0xffffffffffffffffffffffffffffffffffffffff\n              and\n              dup2\n              mstore\n              0x20\n              add\n              dup6\n              dup2\n              mstore\n              0x20\n              add\n              dup5\n              dup2\n              mstore\n              0x20\n              add\n              dup1\n              0x20\n              add\n              dup3\n              dup2\n              sub\n              dup3\n              mstore\n              dup5\n              dup5\n              dup3\n              dup2\n              dup2\n              mstore\n              0x20\n              add\n              swap3\n              pop\n                /* \"--CODEGEN--\":30:33   */\n              dup1\n                /* \"--CODEGEN--\":22:28   */\n              dup3\n                /* \"--CODEGEN--\":14:20   */\n              dup5\n                /* \"--CODEGEN--\":1:34   */\n              calldatacopy\n                /* \"--CODEGEN--\":99:100   */\n              0x00\n                /* \"--CODEGEN--\":93:96   */\n              dup2\n                /* \"--CODEGEN--\":85:91   */\n              dup5\n                /* \"--CODEGEN--\":81:97   */\n              add\n                /* \"--CODEGEN--\":74:101   */\n              mstore\n                /* \"--CODEGEN--\":137:141   */\n              0x1f\n                /* \"--CODEGEN--\":133:142   */\n              not\n                /* \"--CODEGEN--\":126:130   */\n              0x1f\n                /* \"--CODEGEN--\":121:124   */\n              dup3\n                /* \"--CODEGEN--\":117:131   */\n              add\n                /* \"--CODEGEN--\":113:143   */\n              and\n                /* \"--CODEGEN--\":106:143   */\n              swap1\n              pop\n                /* \"--CODEGEN--\":169:172   */\n              dup1\n                /* \"--CODEGEN--\":161:167   */\n              dup4\n                /* \"--CODEGEN--\":157:173   */\n              add\n                /* \"--CODEGEN--\":147:173   */\n              swap3\n              pop\n                /* \"v2-core-master/contracts/XeleronFactory_flattened.sol\":18815:18887  IXeleronCallee(to).xeleronCall(msg.sender, amount0Out, amount1Out, data) */\n              pop\n              pop\n              swap7\n              pop\n              pop\n              pop\n              pop\n              pop\n              pop\n              pop\n              0x00\n              mload(0x40)\n              dup1\n              dup4\n              sub\n              dup2\n              0x00\n              dup8\n              dup1\n              extcodesize\n              iszero\n                /* \"--CODEGEN--\":8:17   */\n              dup1\n                /* \"--CODEGEN--\":5:7   */\n              iszero\n              tag_130\n              jumpi\n                /* \"--CODEGEN--\":30:31   */\n              0x00\n                /* \"--CODEGEN--\":27:28   */\n              dup1\n                /* \"--CODEGEN--\":20:32   */\n              revert\n                /* \"--CODEGEN--\":5:7   */\n            tag_130:\n                /* \"v2-core-master/contracts/XeleronFactory_flattened.sol\":18815:18887  IXeleronCallee(to).xeleronCall(msg.sender, amount0Out, amount1Out, data) */\n              pop\n              gas\n              call\n              iszero\n                /* \"--CODEGEN--\":8:17   */\n              dup1\n                /* \"--CODEGEN--\":5:7   */\n              iszero\n              tag_131\n              jumpi\n                /* \"--CODEGEN--\":45:61   */\n              returndatasize\n                /* \"--CODEGEN--\":42:43   */\n              0x00\n                /* \"--CODEGEN--\":39:40   */\n              dup1\n                /* \"--CODEGEN--\":24:62   */\n              returndatacopy\n                /* \"--CODEGEN--\":77:93   */\n              returndatasize\n                /* \"--CODEGEN--\":74:75   */\n              0x00\n                /* \"--CODEGEN--\":67:94   */\n              revert\n                /* \"--CODEGEN--\":5:7   */\n            tag_131:\n                /* \"v2-core-master/contracts/XeleronFactory_flattened.sol\":18815:18887  IXeleronCallee(to).xeleronCall(msg.sender, amount0Out, amount1Out, data) */\n              pop\n              pop\n              pop\n              pop\n                /* \"v2-core-master/contracts/XeleronFactory_flattened.sol\":18794:18887  if (data.length > 0) IXeleronCallee(to).xeleronCall(msg.sender, amount0Out, amount1Out, data) */\n            tag_129:\n                /* \"v2-core-master/contracts/XeleronFactory_flattened.sol\":18908:18948  IERC20(_token0).balanceOf(address(this)) */\n              0x40\n              dup1\n              mload\n              0x70a0823100000000000000000000000000000000000000000000000000000000\n              dup2\n              mstore\n                /* \"v2-core-master/contracts/XeleronFactory_flattened.sol\":18942:18946  this */\n              address\n                /* \"v2-core-master/contracts/XeleronFactory_flattened.sol\":18908:18948  IERC20(_token0).balanceOf(address(this)) */\n              0x04\n              dup3\n              add\n              mstore\n              swap1\n              mload\n                /* \"v2-core-master/contracts/XeleronFactory_flattened.sol\":18908:18933  IERC20(_token0).balanceOf */\n              0xffffffffffffffffffffffffffffffffffffffff\n              dup5\n              and\n              swap2\n              0x70a08231\n              swap2\n                /* \"v2-core-master/contracts/XeleronFactory_flattened.sol\":18908:18948  IERC20(_token0).balanceOf(address(this)) */\n              0x24\n              dup1\n              dup4\n              add\n              swap3\n              0x20\n              swap3\n              swap2\n              swap1\n              dup3\n              swap1\n              sub\n              add\n              dup2\n                /* \"v2-core-master/contracts/XeleronFactory_flattened.sol\":18908:18933  IERC20(_token0).balanceOf */\n              dup7\n                /* \"v2-core-master/contracts/XeleronFactory_flattened.sol\":18908:18948  IERC20(_token0).balanceOf(address(this)) */\n              dup1\n              extcodesize\n              iszero\n                /* \"--CODEGEN--\":5:7   */\n              dup1\n              iszero\n              tag_132\n              jumpi\n                /* \"--CODEGEN--\":30:31   */\n              0x00\n                /* \"--CODEGEN--\":27:28   */\n              dup1\n                /* \"--CODEGEN--\":20:32   */\n              revert\n                /* \"--CODEGEN--\":5:7   */\n            tag_132:\n                /* \"v2-core-master/contracts/XeleronFactory_flattened.sol\":18908:18948  IERC20(_token0).balanceOf(address(this)) */\n              pop\n              gas\n              staticcall\n              iszero\n                /* \"--CODEGEN--\":8:17   */\n              dup1\n                /* \"--CODEGEN--\":5:7   */\n              iszero\n              tag_133\n              jumpi\n                /* \"--CODEGEN--\":45:61   */\n              returndatasize\n                /* \"--CODEGEN--\":42:43   */\n              0x00\n                /* \"--CODEGEN--\":39:40   */\n              dup1\n                /* \"--CODEGEN--\":24:62   */\n              returndatacopy\n                /* \"--CODEGEN--\":77:93   */\n              returndatasize\n                /* \"--CODEGEN--\":74:75   */\n              0x00\n                /* \"--CODEGEN--\":67:94   */\n              revert\n                /* \"--CODEGEN--\":5:7   */\n            tag_133:\n                /* \"v2-core-master/contracts/XeleronFactory_flattened.sol\":18908:18948  IERC20(_token0).balanceOf(address(this)) */\n              pop\n              pop\n              pop\n              pop\n              mload(0x40)\n              returndatasize\n                /* \"--CODEGEN--\":13:15   */\n              0x20\n                /* \"--CODEGEN--\":8:11   */\n              dup2\n                /* \"--CODEGEN--\":5:16   */\n              lt\n                /* \"--CODEGEN--\":2:4   */\n              iszero\n              tag_134\n              jumpi\n                /* \"--CODEGEN--\":29:30   */\n              0x00\n                /* \"--CODEGEN--\":26:27   */\n              dup1\n                /* \"--CODEGEN--\":19:31   */\n              revert\n                /* \"--CODEGEN--\":2:4   */\n            tag_134:\n              pop\n                /* \"v2-core-master/contracts/XeleronFactory_flattened.sol\":18908:18948  IERC20(_token0).balanceOf(address(this)) */\n              mload\n                /* \"v2-core-master/contracts/XeleronFactory_flattened.sol\":18969:19009  IERC20(_token1).balanceOf(address(this)) */\n              0x40\n              dup1\n              mload\n              0x70a0823100000000000000000000000000000000000000000000000000000000\n              dup2\n              mstore\n                /* \"v2-core-master/contracts/XeleronFactory_flattened.sol\":19003:19007  this */\n              address\n                /* \"v2-core-master/contracts/XeleronFactory_flattened.sol\":18969:19009  IERC20(_token1).balanceOf(address(this)) */\n              0x04\n              dup3\n              add\n              mstore\n              swap1\n              mload\n                /* \"v2-core-master/contracts/XeleronFactory_flattened.sol\":18908:18948  IERC20(_token0).balanceOf(address(this)) */\n              swap2\n              swap6\n              pop\n                /* \"v2-core-master/contracts/XeleronFactory_flattened.sol\":18969:18994  IERC20(_token1).balanceOf */\n              0xffffffffffffffffffffffffffffffffffffffff\n              dup4\n              and\n              swap2\n              0x70a08231\n              swap2\n                /* \"v2-core-master/contracts/XeleronFactory_flattened.sol\":18969:19009  IERC20(_token1).balanceOf(address(this)) */\n              0x24\n              dup1\n              dup3\n              add\n              swap3\n                /* \"v2-core-master/contracts/XeleronFactory_flattened.sol\":18908:18948  IERC20(_token0).balanceOf(address(this)) */\n              0x20\n              swap3\n                /* \"v2-core-master/contracts/XeleronFactory_flattened.sol\":18969:19009  IERC20(_token1).balanceOf(address(this)) */\n              swap1\n              swap2\n              swap1\n              dup3\n              swap1\n              sub\n              add\n              dup2\n                /* \"v2-core-master/contracts/XeleronFactory_flattened.sol\":18969:18994  IERC20(_token1).balanceOf */\n              dup7\n                /* \"v2-core-master/contracts/XeleronFactory_flattened.sol\":18969:19009  IERC20(_token1).balanceOf(address(this)) */\n              dup1\n              extcodesize\n              iszero\n                /* \"--CODEGEN--\":5:7   */\n              dup1\n              iszero\n              tag_135\n              jumpi\n                /* \"--CODEGEN--\":30:31   */\n              0x00\n                /* \"--CODEGEN--\":27:28   */\n              dup1\n                /* \"--CODEGEN--\":20:32   */\n              revert\n                /* \"--CODEGEN--\":5:7   */\n            tag_135:\n                /* \"v2-core-master/contracts/XeleronFactory_flattened.sol\":18969:19009  IERC20(_token1).balanceOf(address(this)) */\n              pop\n              gas\n              staticcall\n              iszero\n                /* \"--CODEGEN--\":8:17   */\n              dup1\n                /* \"--CODEGEN--\":5:7   */\n              iszero\n              tag_136\n              jumpi\n                /* \"--CODEGEN--\":45:61   */\n              returndatasize\n                /* \"--CODEGEN--\":42:43   */\n              0x00\n                /* \"--CODEGEN--\":39:40   */\n              dup1\n                /* \"--CODEGEN--\":24:62   */\n              returndatacopy\n                /* \"--CODEGEN--\":77:93   */\n              returndatasize\n                /* \"--CODEGEN--\":74:75   */\n              0x00\n                /* \"--CODEGEN--\":67:94   */\n              revert\n                /* \"--CODEGEN--\":5:7   */\n            tag_136:\n                /* \"v2-core-master/contracts/XeleronFactory_flattened.sol\":18969:19009  IERC20(_token1).balanceOf(address(this)) */\n              pop\n              pop\n              pop\n              pop\n              mload(0x40)\n              returndatasize\n                /* \"--CODEGEN--\":13:15   */\n              0x20\n                /* \"--CODEGEN--\":8:11   */\n              dup2\n                /* \"--CODEGEN--\":5:16   */\n              lt\n                /* \"--CODEGEN--\":2:4   */\n              iszero\n              tag_137\n              jumpi\n                /* \"--CODEGEN--\":29:30   */\n              0x00\n                /* \"--CODEGEN--\":26:27   */\n              dup1\n                /* \"--CODEGEN--\":19:31   */\n              revert\n                /* \"--CODEGEN--\":2:4   */\n            tag_137:\n              pop\n                /* \"v2-core-master/contracts/XeleronFactory_flattened.sol\":18969:19009  IERC20(_token1).balanceOf(address(this)) */\n              mload\n              swap3\n              pop\n                /* \"v2-core-master/contracts/XeleronFactory_flattened.sol\":19029:19043  uint amount0In */\n              0x00\n              swap2\n              pop\n              pop\n                /* \"v2-core-master/contracts/XeleronFactory_flattened.sol\":19057:19079  _reserve0 - amount0Out */\n              0xffffffffffffffffffffffffffff\n              dup6\n              and\n              dup11\n              swap1\n              sub\n                /* \"v2-core-master/contracts/XeleronFactory_flattened.sol\":19046:19079  balance0 > _reserve0 - amount0Out */\n              dup4\n              gt\n                /* \"v2-core-master/contracts/XeleronFactory_flattened.sol\":19046:19121  balance0 > _reserve0 - amount0Out ? balance0 - (_reserve0 - amount0Out) : 0 */\n              tag_138\n              jumpi\n                /* \"v2-core-master/contracts/XeleronFactory_flattened.sol\":19120:19121  0 */\n              0x00\n                /* \"v2-core-master/contracts/XeleronFactory_flattened.sol\":19046:19121  balance0 > _reserve0 - amount0Out ? balance0 - (_reserve0 - amount0Out) : 0 */\n              jump(tag_139)\n            tag_138:\n                /* \"v2-core-master/contracts/XeleronFactory_flattened.sol\":19106:19116  amount0Out */\n              dup10\n                /* \"v2-core-master/contracts/XeleronFactory_flattened.sol\":19094:19103  _reserve0 */\n              dup6\n                /* \"v2-core-master/contracts/XeleronFactory_flattened.sol\":19094:19116  _reserve0 - amount0Out */\n              0xffffffffffffffffffffffffffff\n              and\n              sub\n                /* \"v2-core-master/contracts/XeleronFactory_flattened.sol\":19082:19090  balance0 */\n              dup4\n                /* \"v2-core-master/contracts/XeleronFactory_flattened.sol\":19082:19117  balance0 - (_reserve0 - amount0Out) */\n              sub\n                /* \"v2-core-master/contracts/XeleronFactory_flattened.sol\":19046:19121  balance0 > _reserve0 - amount0Out ? balance0 - (_reserve0 - amount0Out) : 0 */\n            tag_139:\n                /* \"v2-core-master/contracts/XeleronFactory_flattened.sol\":19029:19121  uint amount0In = balance0 > _reserve0 - amount0Out ? balance0 - (_reserve0 - amount0Out) : 0 */\n              swap1\n              pop\n                /* \"v2-core-master/contracts/XeleronFactory_flattened.sol\":19131:19145  uint amount1In */\n              0x00\n                /* \"v2-core-master/contracts/XeleronFactory_flattened.sol\":19171:19181  amount1Out */\n              dup10\n                /* \"v2-core-master/contracts/XeleronFactory_flattened.sol\":19159:19168  _reserve1 */\n              dup6\n                /* \"v2-core-master/contracts/XeleronFactory_flattened.sol\":19159:19181  _reserve1 - amount1Out */\n              0xffffffffffffffffffffffffffff\n              and\n              sub\n                /* \"v2-core-master/contracts/XeleronFactory_flattened.sol\":19148:19156  balance1 */\n              dup4\n                /* \"v2-core-master/contracts/XeleronFactory_flattened.sol\":19148:19181  balance1 > _reserve1 - amount1Out */\n              gt\n                /* \"v2-core-master/contracts/XeleronFactory_flattened.sol\":19148:19223  balance1 > _reserve1 - amount1Out ? balance1 - (_reserve1 - amount1Out) : 0 */\n              tag_140\n              jumpi\n                /* \"v2-core-master/contracts/XeleronFactory_flattened.sol\":19222:19223  0 */\n              0x00\n                /* \"v2-core-master/contracts/XeleronFactory_flattened.sol\":19148:19223  balance1 > _reserve1 - amount1Out ? balance1 - (_reserve1 - amount1Out) : 0 */\n              jump(tag_141)\n            tag_140:\n                /* \"v2-core-master/contracts/XeleronFactory_flattened.sol\":19208:19218  amount1Out */\n              dup10\n                /* \"v2-core-master/contracts/XeleronFactory_flattened.sol\":19196:19205  _reserve1 */\n              dup6\n                /* \"v2-core-master/contracts/XeleronFactory_flattened.sol\":19196:19218  _reserve1 - amount1Out */\n              0xffffffffffffffffffffffffffff\n              and\n              sub\n                /* \"v2-core-master/contracts/XeleronFactory_flattened.sol\":19184:19192  balance1 */\n              dup4\n                /* \"v2-core-master/contracts/XeleronFactory_flattened.sol\":19184:19219  balance1 - (_reserve1 - amount1Out) */\n              sub\n                /* \"v2-core-master/contracts/XeleronFactory_flattened.sol\":19148:19223  balance1 > _reserve1 - amount1Out ? balance1 - (_reserve1 - amount1Out) : 0 */\n            tag_141:\n                /* \"v2-core-master/contracts/XeleronFactory_flattened.sol\":19131:19223  uint amount1In = balance1 > _reserve1 - amount1Out ? balance1 - (_reserve1 - amount1Out) : 0 */\n              swap1\n              pop\n                /* \"v2-core-master/contracts/XeleronFactory_flattened.sol\":19253:19254  0 */\n              0x00\n                /* \"v2-core-master/contracts/XeleronFactory_flattened.sol\":19241:19250  amount0In */\n              dup3\n                /* \"v2-core-master/contracts/XeleronFactory_flattened.sol\":19241:19254  amount0In > 0 */\n              gt\n                /* \"v2-core-master/contracts/XeleronFactory_flattened.sol\":19241:19271  amount0In > 0 || amount1In > 0 */\n              dup1\n              tag_142\n              jumpi\n              pop\n                /* \"v2-core-master/contracts/XeleronFactory_flattened.sol\":19270:19271  0 */\n              0x00\n                /* \"v2-core-master/contracts/XeleronFactory_flattened.sol\":19258:19267  amount1In */\n              dup2\n                /* \"v2-core-master/contracts/XeleronFactory_flattened.sol\":19258:19271  amount1In > 0 */\n              gt\n                /* \"v2-core-master/contracts/XeleronFactory_flattened.sol\":19241:19271  amount0In > 0 || amount1In > 0 */\n            tag_142:\n                /* \"v2-core-master/contracts/XeleronFactory_flattened.sol\":19233:19310  require(amount0In > 0 || amount1In > 0, 'Xeleron: INSUFFICIENT_INPUT_AMOUNT') */\n              tag_143\n              jumpi\n              mload(0x40)\n              0x08c379a000000000000000000000000000000000000000000000000000000000\n              dup2\n              mstore\n              0x04\n              add\n              dup1\n              dup1\n              0x20\n              add\n              dup3\n              dup2\n              sub\n              dup3\n              mstore\n              0x22\n              dup2\n              mstore\n              0x20\n              add\n              dup1\n              data_22c2651602c581f65512d1fd1b75fd17876224614706888356a92fc2327ffbd6\n              0x22\n              swap2\n              codecopy\n              0x40\n              add\n              swap2\n              pop\n              pop\n              mload(0x40)\n              dup1\n              swap2\n              sub\n              swap1\n              revert\n            tag_143:\n                /* \"v2-core-master/contracts/XeleronFactory_flattened.sol\":19394:19415  uint balance0Adjusted */\n              0x00\n                /* \"v2-core-master/contracts/XeleronFactory_flattened.sol\":19418:19458  balance0.mul(1000).sub(amount0In.mul(3)) */\n              tag_144\n                /* \"v2-core-master/contracts/XeleronFactory_flattened.sol\":19441:19457  amount0In.mul(3) */\n              tag_145\n                /* \"v2-core-master/contracts/XeleronFactory_flattened.sol\":19441:19450  amount0In */\n              dup5\n                /* \"v2-core-master/contracts/XeleronFactory_flattened.sol\":19455:19456  3 */\n              0x03\n                /* \"v2-core-master/contracts/XeleronFactory_flattened.sol\":19441:19457  amount0In.mul(3) */\n              0xffffffff\n                /* \"v2-core-master/contracts/XeleronFactory_flattened.sol\":19441:19454  amount0In.mul */\n              tag_146\n                /* \"v2-core-master/contracts/XeleronFactory_flattened.sol\":19441:19457  amount0In.mul(3) */\n              and\n              jump\t// in\n            tag_145:\n                /* \"v2-core-master/contracts/XeleronFactory_flattened.sol\":19418:19436  balance0.mul(1000) */\n              tag_147\n                /* \"v2-core-master/contracts/XeleronFactory_flattened.sol\":19418:19426  balance0 */\n              dup8\n                /* \"v2-core-master/contracts/XeleronFactory_flattened.sol\":19431:19435  1000 */\n              0x03e8\n                /* \"v2-core-master/contracts/XeleronFactory_flattened.sol\":19418:19436  balance0.mul(1000) */\n              0xffffffff\n                /* \"v2-core-master/contracts/XeleronFactory_flattened.sol\":19418:19430  balance0.mul */\n              tag_146\n                /* \"v2-core-master/contracts/XeleronFactory_flattened.sol\":19418:19436  balance0.mul(1000) */\n              and\n              jump\t// in\n            tag_147:\n                /* \"v2-core-master/contracts/XeleronFactory_flattened.sol\":19418:19440  balance0.mul(1000).sub */\n              swap1\n                /* \"v2-core-master/contracts/XeleronFactory_flattened.sol\":19418:19458  balance0.mul(1000).sub(amount0In.mul(3)) */\n              0xffffffff\n                /* \"v2-core-master/contracts/XeleronFactory_flattened.sol\":19418:19440  balance0.mul(1000).sub */\n              tag_148\n                /* \"v2-core-master/contracts/XeleronFactory_flattened.sol\":19418:19458  balance0.mul(1000).sub(amount0In.mul(3)) */\n              and\n              jump\t// in\n            tag_144:\n                /* \"v2-core-master/contracts/XeleronFactory_flattened.sol\":19394:19458  uint balance0Adjusted = balance0.mul(1000).sub(amount0In.mul(3)) */\n              swap1\n              pop\n                /* \"v2-core-master/contracts/XeleronFactory_flattened.sol\":19468:19489  uint balance1Adjusted */\n              0x00\n                /* \"v2-core-master/contracts/XeleronFactory_flattened.sol\":19492:19532  balance1.mul(1000).sub(amount1In.mul(3)) */\n              tag_149\n                /* \"v2-core-master/contracts/XeleronFactory_flattened.sol\":19515:19531  amount1In.mul(3) */\n              tag_145\n                /* \"v2-core-master/contracts/XeleronFactory_flattened.sol\":19515:19524  amount1In */\n              dup5\n                /* \"v2-core-master/contracts/XeleronFactory_flattened.sol\":19529:19530  3 */\n              0x03\n                /* \"v2-core-master/contracts/XeleronFactory_flattened.sol\":19515:19531  amount1In.mul(3) */\n              0xffffffff\n                /* \"v2-core-master/contracts/XeleronFactory_flattened.sol\":19515:19528  amount1In.mul */\n              tag_146\n                /* \"v2-core-master/contracts/XeleronFactory_flattened.sol\":19515:19531  amount1In.mul(3) */\n              and\n              jump\t// in\n                /* \"v2-core-master/contracts/XeleronFactory_flattened.sol\":19492:19532  balance1.mul(1000).sub(amount1In.mul(3)) */\n            tag_149:\n                /* \"v2-core-master/contracts/XeleronFactory_flattened.sol\":19468:19532  uint balance1Adjusted = balance1.mul(1000).sub(amount1In.mul(3)) */\n              swap1\n              pop\n                /* \"v2-core-master/contracts/XeleronFactory_flattened.sol\":19592:19635  uint(_reserve0).mul(_reserve1).mul(1000**2) */\n              tag_152\n                /* \"v2-core-master/contracts/XeleronFactory_flattened.sol\":19627:19634  1000**2 */\n              0x0f4240\n                /* \"v2-core-master/contracts/XeleronFactory_flattened.sol\":19592:19622  uint(_reserve0).mul(_reserve1) */\n              tag_153\n              0xffffffffffffffffffffffffffff\n                /* \"v2-core-master/contracts/XeleronFactory_flattened.sol\":19592:19607  uint(_reserve0) */\n              dup12\n              dup2\n              and\n              swap1\n                /* \"v2-core-master/contracts/XeleronFactory_flattened.sol\":19592:19622  uint(_reserve0).mul(_reserve1) */\n              dup12\n              and\n              0xffffffff\n                /* \"v2-core-master/contracts/XeleronFactory_flattened.sol\":19592:19611  uint(_reserve0).mul */\n              tag_146\n                /* \"v2-core-master/contracts/XeleronFactory_flattened.sol\":19592:19622  uint(_reserve0).mul(_reserve1) */\n              and\n              jump\t// in\n            tag_153:\n                /* \"v2-core-master/contracts/XeleronFactory_flattened.sol\":19592:19626  uint(_reserve0).mul(_reserve1).mul */\n              swap1\n                /* \"v2-core-master/contracts/XeleronFactory_flattened.sol\":19592:19635  uint(_reserve0).mul(_reserve1).mul(1000**2) */\n              0xffffffff\n                /* \"v2-core-master/contracts/XeleronFactory_flattened.sol\":19592:19626  uint(_reserve0).mul(_reserve1).mul */\n              tag_146\n                /* \"v2-core-master/contracts/XeleronFactory_flattened.sol\":19592:19635  uint(_reserve0).mul(_reserve1).mul(1000**2) */\n              and\n              jump\t// in\n            tag_152:\n                /* \"v2-core-master/contracts/XeleronFactory_flattened.sol\":19550:19588  balance0Adjusted.mul(balance1Adjusted) */\n              tag_154\n                /* \"v2-core-master/contracts/XeleronFactory_flattened.sol\":19550:19566  balance0Adjusted */\n              dup4\n                /* \"v2-core-master/contracts/XeleronFactory_flattened.sol\":19571:19587  balance1Adjusted */\n              dup4\n                /* \"v2-core-master/contracts/XeleronFactory_flattened.sol\":19550:19588  balance0Adjusted.mul(balance1Adjusted) */\n              0xffffffff\n                /* \"v2-core-master/contracts/XeleronFactory_flattened.sol\":19550:19570  balance0Adjusted.mul */\n              tag_146\n                /* \"v2-core-master/contracts/XeleronFactory_flattened.sol\":19550:19588  balance0Adjusted.mul(balance1Adjusted) */\n              and\n              jump\t// in\n            tag_154:\n                /* \"v2-core-master/contracts/XeleronFactory_flattened.sol\":19550:19635  balance0Adjusted.mul(balance1Adjusted) >= uint(_reserve0).mul(_reserve1).mul(1000**2) */\n              lt\n              iszero\n                /* \"v2-core-master/contracts/XeleronFactory_flattened.sol\":19542:19650  require(balance0Adjusted.mul(balance1Adjusted) >= uint(_reserve0).mul(_reserve1).mul(1000**2), 'Xeleron: K') */\n              tag_155\n              jumpi\n              0x40\n              dup1\n              mload\n              0x08c379a000000000000000000000000000000000000000000000000000000000\n              dup2\n              mstore\n              0x20\n              0x04\n              dup3\n              add\n              mstore\n              0x0a\n              0x24\n              dup3\n              add\n              mstore\n              0x58656c65726f6e3a204b00000000000000000000000000000000000000000000\n              0x44\n              dup3\n              add\n              mstore\n              swap1\n              mload\n              swap1\n              dup2\n              swap1\n              sub\n              0x64\n              add\n              swap1\n              revert\n            tag_155:\n                /* \"v2-core-master/contracts/XeleronFactory_flattened.sol\":11874:11875  _ */\n              pop\n              pop\n                /* \"v2-core-master/contracts/XeleronFactory_flattened.sol\":19671:19720  _update(balance0, balance1, _reserve0, _reserve1) */\n              tag_156\n                /* \"v2-core-master/contracts/XeleronFactory_flattened.sol\":19679:19687  balance0 */\n              dup5\n                /* \"v2-core-master/contracts/XeleronFactory_flattened.sol\":19689:19697  balance1 */\n              dup5\n                /* \"v2-core-master/contracts/XeleronFactory_flattened.sol\":19699:19708  _reserve0 */\n              dup9\n                /* \"v2-core-master/contracts/XeleronFactory_flattened.sol\":19710:19719  _reserve1 */\n              dup9\n                /* \"v2-core-master/contracts/XeleronFactory_flattened.sol\":19671:19678  _update */\n              tag_157\n                /* \"v2-core-master/contracts/XeleronFactory_flattened.sol\":19671:19720  _update(balance0, balance1, _reserve0, _reserve1) */\n              jump\t// in\n            tag_156:\n                /* \"v2-core-master/contracts/XeleronFactory_flattened.sol\":19735:19801  Swap(msg.sender, amount0In, amount1In, amount0Out, amount1Out, to) */\n              0x40\n              dup1\n              mload\n              dup4\n              dup2\n              mstore\n              0x20\n              dup2\n              add\n              dup4\n              swap1\n              mstore\n              dup1\n              dup3\n              add\n              dup14\n              swap1\n              mstore\n              0x60\n              dup2\n              add\n              dup13\n              swap1\n              mstore\n              swap1\n              mload\n              0xffffffffffffffffffffffffffffffffffffffff\n              dup12\n              and\n              swap2\n                /* \"v2-core-master/contracts/XeleronFactory_flattened.sol\":19740:19750  msg.sender */\n              caller\n              swap2\n                /* \"v2-core-master/contracts/XeleronFactory_flattened.sol\":19735:19801  Swap(msg.sender, amount0In, amount1In, amount0Out, amount1Out, to) */\n              0xd78ad95fa46c994b6551d0da85fc275fe613ce37657fb8d5e3d130840159d822\n              swap2\n              dup2\n              swap1\n              sub\n              0x80\n              add\n              swap1\n              log3\n              pop\n              pop\n                /* \"v2-core-master/contracts/XeleronFactory_flattened.sol\":11896:11897  1 */\n              0x01\n                /* \"v2-core-master/contracts/XeleronFactory_flattened.sol\":11885:11893  unlocked */\n              0x0c\n                /* \"v2-core-master/contracts/XeleronFactory_flattened.sol\":11885:11897  unlocked = 1 */\n              sstore\n              pop\n              pop\n              pop\n              pop\n              pop\n              pop\n              pop\n              pop\n              pop\n                /* \"v2-core-master/contracts/XeleronFactory_flattened.sol\":17961:19808  function swap(uint amount0Out, uint amount1Out, address to, bytes calldata data) external lock {... */\n              jump\t// out\n                /* \"v2-core-master/contracts/XeleronFactory_flattened.sol\":4386:4425  string public constant name = 'Xeleron' */\n            tag_44:\n              mload(0x40)\n              dup1\n              0x40\n              add\n              0x40\n              mstore\n              dup1\n              0x07\n              dup2\n              mstore\n              0x20\n              add\n              0x58656c65726f6e00000000000000000000000000000000000000000000000000\n              dup2\n              mstore\n              pop\n              dup2\n              jump\t// out\n                /* \"v2-core-master/contracts/XeleronFactory_flattened.sol\":11910:12137  function getReserves() public view returns (uint112 _reserve0, uint112 _reserve1, uint32 _blockTimestampLast) {... */\n            tag_50:\n                /* \"v2-core-master/contracts/XeleronFactory_flattened.sol\":12042:12050  reserve0 */\n              sload(0x08)\n              0xffffffffffffffffffffffffffff\n              dup1\n              dup3\n              and\n              swap3\n                /* \"v2-core-master/contracts/XeleronFactory_flattened.sol\":12072:12080  reserve1 */\n              0x010000000000000000000000000000\n              dup4\n              div\n              swap1\n              swap2\n              and\n              swap2\n                /* \"v2-core-master/contracts/XeleronFactory_flattened.sol\":12112:12130  blockTimestampLast */\n              0x0100000000000000000000000000000000000000000000000000000000\n              swap1\n              div\n              0xffffffff\n              and\n              swap1\n                /* \"v2-core-master/contracts/XeleronFactory_flattened.sol\":11910:12137  function getReserves() public view returns (uint112 _reserve0, uint112 _reserve1, uint32 _blockTimestampLast) {... */\n              jump\t// out\n                /* \"v2-core-master/contracts/XeleronFactory_flattened.sol\":6373:6517  function approve(address spender, uint value) external returns (bool) {... */\n            tag_53:\n                /* \"v2-core-master/contracts/XeleronFactory_flattened.sol\":6437:6441  bool */\n              0x00\n                /* \"v2-core-master/contracts/XeleronFactory_flattened.sol\":6453:6489  _approve(msg.sender, spender, value) */\n              tag_160\n                /* \"v2-core-master/contracts/XeleronFactory_flattened.sol\":6462:6472  msg.sender */\n              caller\n                /* \"v2-core-master/contracts/XeleronFactory_flattened.sol\":6474:6481  spender */\n              dup5\n                /* \"v2-core-master/contracts/XeleronFactory_flattened.sol\":6483:6488  value */\n              dup5\n                /* \"v2-core-master/contracts/XeleronFactory_flattened.sol\":6453:6461  _approve */\n              tag_161\n                /* \"v2-core-master/contracts/XeleronFactory_flattened.sol\":6453:6489  _approve(msg.sender, spender, value) */\n              jump\t// in\n            tag_160:\n              pop\n                /* \"v2-core-master/contracts/XeleronFactory_flattened.sol\":6506:6510  true */\n              0x01\n                /* \"v2-core-master/contracts/XeleronFactory_flattened.sol\":6373:6517  function approve(address spender, uint value) external returns (bool) {... */\n            tag_159:\n              swap3\n              swap2\n              pop\n              pop\n              jump\t// out\n                /* \"v2-core-master/contracts/XeleronFactory_flattened.sol\":11220:11241  address public token0 */\n            tag_55:\n              and(0xffffffffffffffffffffffffffffffffffffffff, sload(0x06))\n              dup2\n              jump\t// out\n                /* \"v2-core-master/contracts/XeleronFactory_flattened.sol\":4515:4539  uint  public totalSupply */\n            tag_57:\n              sload(0x00)\n              dup2\n              jump\t// out\n                /* \"v2-core-master/contracts/XeleronFactory_flattened.sol\":6665:6960  function transferFrom(address from, address to, uint value) external returns (bool) {... */\n            tag_60:\n                /* \"v2-core-master/contracts/XeleronFactory_flattened.sol\":6763:6778  allowance[from] */\n              0xffffffffffffffffffffffffffffffffffffffff\n              dup4\n              and\n                /* \"v2-core-master/contracts/XeleronFactory_flattened.sol\":6743:6747  bool */\n              0x00\n                /* \"v2-core-master/contracts/XeleronFactory_flattened.sol\":6763:6778  allowance[from] */\n              swap1\n              dup2\n              mstore\n                /* \"v2-core-master/contracts/XeleronFactory_flattened.sol\":6763:6772  allowance */\n              0x02\n                /* \"v2-core-master/contracts/XeleronFactory_flattened.sol\":6763:6778  allowance[from] */\n              0x20\n              swap1\n              dup2\n              mstore\n              0x40\n              dup1\n              dup4\n              keccak256\n                /* \"v2-core-master/contracts/XeleronFactory_flattened.sol\":6779:6789  msg.sender */\n              caller\n                /* \"v2-core-master/contracts/XeleronFactory_flattened.sol\":6763:6790  allowance[from][msg.sender] */\n              dup5\n              mstore\n              swap1\n              swap2\n              mstore\n              dup2\n              keccak256\n              sload\n                /* \"v2-core-master/contracts/XeleronFactory_flattened.sol\":6799:6801  -1 */\n              0xffffffffffffffffffffffffffffffffffffffffffffffffffffffffffffffff\n                /* \"v2-core-master/contracts/XeleronFactory_flattened.sol\":6763:6802  allowance[from][msg.sender] != uint(-1) */\n              eq\n                /* \"v2-core-master/contracts/XeleronFactory_flattened.sol\":6759:6897  if (allowance[from][msg.sender] != uint(-1)) {... */\n              tag_163\n              jumpi\n                /* \"v2-core-master/contracts/XeleronFactory_flattened.sol\":6848:6863  allowance[from] */\n              0xffffffffffffffffffffffffffffffffffffffff\n              dup5\n              and\n              0x00\n              swap1\n              dup2\n              mstore\n                /* \"v2-core-master/contracts/XeleronFactory_flattened.sol\":6848:6857  allowance */\n              0x02\n                /* \"v2-core-master/contracts/XeleronFactory_flattened.sol\":6848:6863  allowance[from] */\n              0x20\n              swap1\n              dup2\n              mstore\n              0x40\n              dup1\n              dup4\n              keccak256\n                /* \"v2-core-master/contracts/XeleronFactory_flattened.sol\":6864:6874  msg.sender */\n              caller\n                /* \"v2-core-master/contracts/XeleronFactory_flattened.sol\":6848:6875  allowance[from][msg.sender] */\n              dup5\n              mstore\n              swap1\n              swap2\n              mstore\n              swap1\n              keccak256\n              sload\n                /* \"v2-core-master/contracts/XeleronFactory_flattened.sol\":6848:6886  allowance[from][msg.sender].sub(value) */\n              tag_164\n              swap1\n                /* \"v2-core-master/contracts/XeleronFactory_flattened.sol\":6880:6885  value */\n              dup4\n                /* \"v2-core-master/contracts/XeleronFactory_flattened.sol\":6848:6886  allowance[from][msg.sender].sub(value) */\n              0xffffffff\n                /* \"v2-core-master/contracts/XeleronFactory_flattened.sol\":6848:6879  allowance[from][msg.sender].sub */\n              tag_148\n                /* \"v2-core-master/contracts/XeleronFactory_flattened.sol\":6848:6886  allowance[from][msg.sender].sub(value) */\n              and\n              jump\t// in\n            tag_164:\n                /* \"v2-core-master/contracts/XeleronFactory_flattened.sol\":6818:6833  allowance[from] */\n              0xffffffffffffffffffffffffffffffffffffffff\n              dup6\n              and\n              0x00\n              swap1\n              dup2\n              mstore\n                /* \"v2-core-master/contracts/XeleronFactory_flattened.sol\":6818:6827  allowance */\n              0x02\n                /* \"v2-core-master/contracts/XeleronFactory_flattened.sol\":6818:6833  allowance[from] */\n              0x20\n              swap1\n              dup2\n              mstore\n              0x40\n              dup1\n              dup4\n              keccak256\n                /* \"v2-core-master/contracts/XeleronFactory_flattened.sol\":6834:6844  msg.sender */\n              caller\n                /* \"v2-core-master/contracts/XeleronFactory_flattened.sol\":6818:6845  allowance[from][msg.sender] */\n              dup5\n              mstore\n              swap1\n              swap2\n              mstore\n              swap1\n              keccak256\n                /* \"v2-core-master/contracts/XeleronFactory_flattened.sol\":6818:6886  allowance[from][msg.sender] = allowance[from][msg.sender].sub(value) */\n              sstore\n                /* \"v2-core-master/contracts/XeleronFactory_flattened.sol\":6759:6897  if (allowance[from][msg.sender] != uint(-1)) {... */\n            tag_163:\n                /* \"v2-core-master/contracts/XeleronFactory_flattened.sol\":6906:6932  _transfer(from, to, value) */\n              tag_165\n                /* \"v2-core-master/contracts/XeleronFactory_flattened.sol\":6916:6920  from */\n              dup5\n                /* \"v2-core-master/contracts/XeleronFactory_flattened.sol\":6922:6924  to */\n              dup5\n                /* \"v2-core-master/contracts/XeleronFactory_flattened.sol\":6926:6931  value */\n              dup5\n                /* \"v2-core-master/contracts/XeleronFactory_flattened.sol\":6906:6915  _transfer */\n              tag_166\n                /* \"v2-core-master/contracts/XeleronFactory_flattened.sol\":6906:6932  _transfer(from, to, value) */\n              jump\t// in\n            tag_165:\n              pop\n                /* \"v2-core-master/contracts/XeleronFactory_flattened.sol\":6949:6953  true */\n              0x01\n                /* \"v2-core-master/contracts/XeleronFactory_flattened.sol\":6665:6960  function transferFrom(address from, address to, uint value) external returns (bool) {... */\n              swap4\n              swap3\n              pop\n              pop\n              pop\n              jump\t// out\n                /* \"v2-core-master/contracts/XeleronFactory_flattened.sol\":4801:4909  bytes32 public constant PERMIT_TYPEHASH = 0x6e71edae12b1b97f4d1f60370fef10105fa2faae0126114a169c64845d6126c9 */\n            tag_62:\n                /* \"v2-core-master/contracts/XeleronFactory_flattened.sol\":4843:4909  0x6e71edae12b1b97f4d1f60370fef10105fa2faae0126114a169c64845d6126c9 */\n              0x6e71edae12b1b97f4d1f60370fef10105fa2faae0126114a169c64845d6126c9\n                /* \"v2-core-master/contracts/XeleronFactory_flattened.sol\":4801:4909  bytes32 public constant PERMIT_TYPEHASH = 0x6e71edae12b1b97f4d1f60370fef10105fa2faae0126114a169c64845d6126c9 */\n              dup2\n              jump\t// out\n                /* \"v2-core-master/contracts/XeleronFactory_flattened.sol\":4474:4509  uint8 public constant decimals = 18 */\n            tag_64:\n                /* \"v2-core-master/contracts/XeleronFactory_flattened.sol\":4507:4509  18 */\n              0x12\n                /* \"v2-core-master/contracts/XeleronFactory_flattened.sol\":4474:4509  uint8 public constant decimals = 18 */\n              dup2\n              jump\t// out\n                /* \"v2-core-master/contracts/XeleronFactory_flattened.sol\":4660:4691  bytes32 public DOMAIN_SEPARATOR */\n            tag_66:\n              sload(0x03)\n              dup2\n              jump\t// out\n                /* \"v2-core-master/contracts/XeleronFactory_flattened.sol\":12940:13144  function initialize(address _token0, address _token1) external {... */\n            tag_69:\n                /* \"v2-core-master/contracts/XeleronFactory_flattened.sol\":13035:13042  factory */\n              and(0xffffffffffffffffffffffffffffffffffffffff, sload(0x05))\n                /* \"v2-core-master/contracts/XeleronFactory_flattened.sol\":13021:13031  msg.sender */\n              caller\n                /* \"v2-core-master/contracts/XeleronFactory_flattened.sol\":13021:13042  msg.sender == factory */\n              eq\n                /* \"v2-core-master/contracts/XeleronFactory_flattened.sol\":13013:13065  require(msg.sender == factory, 'Xeleron: FORBIDDEN') */\n              tag_168\n              jumpi\n              0x40\n              dup1\n              mload\n              0x08c379a000000000000000000000000000000000000000000000000000000000\n              dup2\n              mstore\n              0x20\n              0x04\n              dup3\n              add\n              mstore\n              0x12\n              0x24\n              dup3\n              add\n              mstore\n              0x58656c65726f6e3a20464f5242494444454e0000000000000000000000000000\n              0x44\n              dup3\n              add\n              mstore\n              swap1\n              mload\n              swap1\n              dup2\n              swap1\n              sub\n              0x64\n              add\n              swap1\n              revert\n            tag_168:\n                /* \"v2-core-master/contracts/XeleronFactory_flattened.sol\":13095:13101  token0 */\n              0x06\n                /* \"v2-core-master/contracts/XeleronFactory_flattened.sol\":13095:13111  token0 = _token0 */\n              dup1\n              sload\n              0xffffffffffffffffffffffffffffffffffffffff\n              swap4\n              dup5\n              and\n              0xffffffffffffffffffffffff0000000000000000000000000000000000000000\n              swap2\n              dup3\n              and\n              or\n              swap1\n              swap2\n              sstore\n                /* \"v2-core-master/contracts/XeleronFactory_flattened.sol\":13121:13127  token1 */\n              0x07\n                /* \"v2-core-master/contracts/XeleronFactory_flattened.sol\":13121:13137  token1 = _token1 */\n              dup1\n              sload\n              swap3\n              swap1\n              swap4\n              and\n              swap2\n              and\n              or\n              swap1\n              sstore\n                /* \"v2-core-master/contracts/XeleronFactory_flattened.sol\":12940:13144  function initialize(address _token0, address _token1) external {... */\n              jump\t// out\n                /* \"v2-core-master/contracts/XeleronFactory_flattened.sol\":11564:11596  uint public price0CumulativeLast */\n            tag_71:\n              sload(0x09)\n              dup2\n              jump\t// out\n                /* \"v2-core-master/contracts/XeleronFactory_flattened.sol\":11602:11634  uint public price1CumulativeLast */\n            tag_73:\n              sload(0x0a)\n              dup2\n              jump\t// out\n                /* \"v2-core-master/contracts/XeleronFactory_flattened.sol\":15084:16301  function mint(address to) external lock returns (uint liquidity) {... */\n            tag_76:\n                /* \"v2-core-master/contracts/XeleronFactory_flattened.sol\":15133:15147  uint liquidity */\n              0x00\n                /* \"v2-core-master/contracts/XeleronFactory_flattened.sol\":11809:11817  unlocked */\n              sload(0x0c)\n                /* \"v2-core-master/contracts/XeleronFactory_flattened.sol\":11821:11822  1 */\n              0x01\n                /* \"v2-core-master/contracts/XeleronFactory_flattened.sol\":11809:11822  unlocked == 1 */\n              eq\n                /* \"v2-core-master/contracts/XeleronFactory_flattened.sol\":11801:11842  require(unlocked == 1, 'Xeleron: LOCKED') */\n              tag_170\n              jumpi\n              0x40\n              dup1\n              mload\n              0x08c379a000000000000000000000000000000000000000000000000000000000\n              dup2\n              mstore\n              0x20\n              0x04\n              dup3\n              add\n              mstore\n              0x0f\n              0x24\n              dup3\n              add\n              mstore\n              0x58656c65726f6e3a204c4f434b45440000000000000000000000000000000000\n              0x44\n              dup3\n              add\n              mstore\n              swap1\n              mload\n              swap1\n              dup2\n              swap1\n              sub\n              0x64\n              add\n              swap1\n              revert\n            tag_170:\n                /* \"v2-core-master/contracts/XeleronFactory_flattened.sol\":11863:11864  0 */\n              0x00\n                /* \"v2-core-master/contracts/XeleronFactory_flattened.sol\":11852:11860  unlocked */\n              0x0c\n                /* \"v2-core-master/contracts/XeleronFactory_flattened.sol\":11852:11864  unlocked = 0 */\n              dup2\n              swap1\n              sstore\n                /* \"v2-core-master/contracts/XeleronFactory_flattened.sol\":11863:11864  0 */\n              dup1\n                /* \"v2-core-master/contracts/XeleronFactory_flattened.sol\":15201:15214  getReserves() */\n              tag_172\n                /* \"v2-core-master/contracts/XeleronFactory_flattened.sol\":15201:15212  getReserves */\n              tag_50\n                /* \"v2-core-master/contracts/XeleronFactory_flattened.sol\":15201:15214  getReserves() */\n              jump\t// in\n            tag_172:\n              pop\n                /* \"v2-core-master/contracts/XeleronFactory_flattened.sol\":15262:15268  token0 */\n              sload(0x06)\n                /* \"v2-core-master/contracts/XeleronFactory_flattened.sol\":15255:15294  IERC20(token0).balanceOf(address(this)) */\n              0x40\n              dup1\n              mload\n              0x70a0823100000000000000000000000000000000000000000000000000000000\n              dup2\n              mstore\n                /* \"v2-core-master/contracts/XeleronFactory_flattened.sol\":15288:15292  this */\n              address\n                /* \"v2-core-master/contracts/XeleronFactory_flattened.sol\":15255:15294  IERC20(token0).balanceOf(address(this)) */\n              0x04\n              dup3\n              add\n              mstore\n              swap1\n              mload\n                /* \"v2-core-master/contracts/XeleronFactory_flattened.sol\":15159:15214  (uint112 _reserve0, uint112 _reserve1,) = getReserves() */\n              swap4\n              swap6\n              pop\n              swap2\n              swap4\n              pop\n                /* \"v2-core-master/contracts/XeleronFactory_flattened.sol\":15239:15252  uint balance0 */\n              0x00\n              swap3\n                /* \"v2-core-master/contracts/XeleronFactory_flattened.sol\":15262:15268  token0 */\n              0xffffffffffffffffffffffffffffffffffffffff\n              swap1\n              swap2\n              and\n              swap2\n                /* \"v2-core-master/contracts/XeleronFactory_flattened.sol\":15255:15279  IERC20(token0).balanceOf */\n              0x70a08231\n              swap2\n                /* \"v2-core-master/contracts/XeleronFactory_flattened.sol\":15255:15294  IERC20(token0).balanceOf(address(this)) */\n              0x24\n              dup1\n              dup4\n              add\n              swap3\n              0x20\n              swap3\n              swap2\n              swap1\n              dup3\n              swap1\n              sub\n              add\n              dup2\n                /* \"v2-core-master/contracts/XeleronFactory_flattened.sol\":15262:15268  token0 */\n              dup7\n                /* \"v2-core-master/contracts/XeleronFactory_flattened.sol\":15255:15294  IERC20(token0).balanceOf(address(this)) */\n              dup1\n              extcodesize\n              iszero\n                /* \"--CODEGEN--\":5:7   */\n              dup1\n              iszero\n              tag_173\n              jumpi\n                /* \"--CODEGEN--\":30:31   */\n              0x00\n                /* \"--CODEGEN--\":27:28   */\n              dup1\n                /* \"--CODEGEN--\":20:32   */\n              revert\n                /* \"--CODEGEN--\":5:7   */\n            tag_173:\n                /* \"v2-core-master/contracts/XeleronFactory_flattened.sol\":15255:15294  IERC20(token0).balanceOf(address(this)) */\n              pop\n              gas\n              staticcall\n              iszero\n                /* \"--CODEGEN--\":8:17   */\n              dup1\n                /* \"--CODEGEN--\":5:7   */\n              iszero\n              tag_174\n              jumpi\n                /* \"--CODEGEN--\":45:61   */\n              returndatasize\n                /* \"--CODEGEN--\":42:43   */\n              0x00\n                /* \"--CODEGEN--\":39:40   */\n              dup1\n                /* \"--CODEGEN--\":24:62   */\n              returndatacopy\n                /* \"--CODEGEN--\":77:93   */\n              returndatasize\n                /* \"--CODEGEN--\":74:75   */\n              0x00\n                /* \"--CODEGEN--\":67:94   */\n              revert\n                /* \"--CODEGEN--\":5:7   */\n            tag_174:\n                /* \"v2-core-master/contracts/XeleronFactory_flattened.sol\":15255:15294  IERC20(token0).balanceOf(address(this)) */\n              pop\n              pop\n              pop\n              pop\n              mload(0x40)\n              returndatasize\n                /* \"--CODEGEN--\":13:15   */\n              0x20\n                /* \"--CODEGEN--\":8:11   */\n              dup2\n                /* \"--CODEGEN--\":5:16   */\n              lt\n                /* \"--CODEGEN--\":2:4   */\n              iszero\n              tag_175\n              jumpi\n                /* \"--CODEGEN--\":29:30   */\n              0x00\n                /* \"--CODEGEN--\":26:27   */\n              dup1\n                /* \"--CODEGEN--\":19:31   */\n              revert\n                /* \"--CODEGEN--\":2:4   */\n            tag_175:\n              pop\n                /* \"v2-core-master/contracts/XeleronFactory_flattened.sol\":15255:15294  IERC20(token0).balanceOf(address(this)) */\n              mload\n                /* \"v2-core-master/contracts/XeleronFactory_flattened.sol\":15327:15333  token1 */\n              sload(0x07)\n                /* \"v2-core-master/contracts/XeleronFactory_flattened.sol\":15320:15359  IERC20(token1).balanceOf(address(this)) */\n              0x40\n              dup1\n              mload\n              0x70a0823100000000000000000000000000000000000000000000000000000000\n              dup2\n              mstore\n                /* \"v2-core-master/contracts/XeleronFactory_flattened.sol\":15353:15357  this */\n              address\n                /* \"v2-core-master/contracts/XeleronFactory_flattened.sol\":15320:15359  IERC20(token1).balanceOf(address(this)) */\n              0x04\n              dup3\n              add\n              mstore\n              swap1\n              mload\n                /* \"v2-core-master/contracts/XeleronFactory_flattened.sol\":15255:15294  IERC20(token0).balanceOf(address(this)) */\n              swap3\n              swap4\n              pop\n                /* \"v2-core-master/contracts/XeleronFactory_flattened.sol\":15304:15317  uint balance1 */\n              0x00\n              swap3\n                /* \"v2-core-master/contracts/XeleronFactory_flattened.sol\":15327:15333  token1 */\n              0xffffffffffffffffffffffffffffffffffffffff\n              swap1\n              swap3\n              and\n              swap2\n                /* \"v2-core-master/contracts/XeleronFactory_flattened.sol\":15320:15344  IERC20(token1).balanceOf */\n              0x70a08231\n              swap2\n                /* \"v2-core-master/contracts/XeleronFactory_flattened.sol\":15320:15359  IERC20(token1).balanceOf(address(this)) */\n              0x24\n              dup1\n              dup3\n              add\n              swap3\n                /* \"v2-core-master/contracts/XeleronFactory_flattened.sol\":15255:15294  IERC20(token0).balanceOf(address(this)) */\n              0x20\n              swap3\n                /* \"v2-core-master/contracts/XeleronFactory_flattened.sol\":15320:15359  IERC20(token1).balanceOf(address(this)) */\n              swap1\n              swap2\n              swap1\n              dup3\n              swap1\n              sub\n              add\n              dup2\n                /* \"v2-core-master/contracts/XeleronFactory_flattened.sol\":15327:15333  token1 */\n              dup7\n                /* \"v2-core-master/contracts/XeleronFactory_flattened.sol\":15320:15359  IERC20(token1).balanceOf(address(this)) */\n              dup1\n              extcodesize\n              iszero\n                /* \"--CODEGEN--\":5:7   */\n              dup1\n              iszero\n              tag_176\n              jumpi\n                /* \"--CODEGEN--\":30:31   */\n              0x00\n                /* \"--CODEGEN--\":27:28   */\n              dup1\n                /* \"--CODEGEN--\":20:32   */\n              revert\n                /* \"--CODEGEN--\":5:7   */\n            tag_176:\n                /* \"v2-core-master/contracts/XeleronFactory_flattened.sol\":15320:15359  IERC20(token1).balanceOf(address(this)) */\n              pop\n              gas\n              staticcall\n              iszero\n                /* \"--CODEGEN--\":8:17   */\n              dup1\n                /* \"--CODEGEN--\":5:7   */\n              iszero\n              tag_177\n              jumpi\n                /* \"--CODEGEN--\":45:61   */\n              returndatasize\n                /* \"--CODEGEN--\":42:43   */\n              0x00\n                /* \"--CODEGEN--\":39:40   */\n              dup1\n                /* \"--CODEGEN--\":24:62   */\n              returndatacopy\n                /* \"--CODEGEN--\":77:93   */\n              returndatasize\n                /* \"--CODEGEN--\":74:75   */\n              0x00\n                /* \"--CODEGEN--\":67:94   */\n              revert\n                /* \"--CODEGEN--\":5:7   */\n            tag_177:\n                /* \"v2-core-master/contracts/XeleronFactory_flattened.sol\":15320:15359  IERC20(token1).balanceOf(address(this)) */\n              pop\n              pop\n              pop\n              pop\n              mload(0x40)\n              returndatasize\n                /* \"--CODEGEN--\":13:15   */\n              0x20\n                /* \"--CODEGEN--\":8:11   */\n              dup2\n                /* \"--CODEGEN--\":5:16   */\n              lt\n                /* \"--CODEGEN--\":2:4   */\n              iszero\n              tag_178\n              jumpi\n                /* \"--CODEGEN--\":29:30   */\n              0x00\n                /* \"--CODEGEN--\":26:27   */\n              dup1\n                /* \"--CODEGEN--\":19:31   */\n              revert\n                /* \"--CODEGEN--\":2:4   */\n            tag_178:\n              pop\n                /* \"v2-core-master/contracts/XeleronFactory_flattened.sol\":15320:15359  IERC20(token1).balanceOf(address(this)) */\n              mload\n              swap1\n              pop\n                /* \"v2-core-master/contracts/XeleronFactory_flattened.sol\":15369:15381  uint amount0 */\n              0x00\n                /* \"v2-core-master/contracts/XeleronFactory_flattened.sol\":15384:15407  balance0.sub(_reserve0) */\n              tag_179\n                /* \"v2-core-master/contracts/XeleronFactory_flattened.sol\":15384:15392  balance0 */\n              dup4\n                /* \"v2-core-master/contracts/XeleronFactory_flattened.sol\":15384:15407  balance0.sub(_reserve0) */\n              0xffffffffffffffffffffffffffff\n              dup8\n              and\n              0xffffffff\n                /* \"v2-core-master/contracts/XeleronFactory_flattened.sol\":15384:15396  balance0.sub */\n              tag_148\n                /* \"v2-core-master/contracts/XeleronFactory_flattened.sol\":15384:15407  balance0.sub(_reserve0) */\n              and\n              jump\t// in\n            tag_179:\n                /* \"v2-core-master/contracts/XeleronFactory_flattened.sol\":15369:15407  uint amount0 = balance0.sub(_reserve0) */\n              swap1\n              pop\n                /* \"v2-core-master/contracts/XeleronFactory_flattened.sol\":15417:15429  uint amount1 */\n              0x00\n                /* \"v2-core-master/contracts/XeleronFactory_flattened.sol\":15432:15455  balance1.sub(_reserve1) */\n              tag_180\n                /* \"v2-core-master/contracts/XeleronFactory_flattened.sol\":15432:15440  balance1 */\n              dup4\n                /* \"v2-core-master/contracts/XeleronFactory_flattened.sol\":15432:15455  balance1.sub(_reserve1) */\n              0xffffffffffffffffffffffffffff\n              dup8\n              and\n              0xffffffff\n                /* \"v2-core-master/contracts/XeleronFactory_flattened.sol\":15432:15444  balance1.sub */\n              tag_148\n                /* \"v2-core-master/contracts/XeleronFactory_flattened.sol\":15432:15455  balance1.sub(_reserve1) */\n              and\n              jump\t// in\n            tag_180:\n                /* \"v2-core-master/contracts/XeleronFactory_flattened.sol\":15417:15455  uint amount1 = balance1.sub(_reserve1) */\n              swap1\n              pop\n                /* \"v2-core-master/contracts/XeleronFactory_flattened.sol\":15466:15476  bool feeOn */\n              0x00\n                /* \"v2-core-master/contracts/XeleronFactory_flattened.sol\":15479:15509  _mintFee(_reserve0, _reserve1) */\n              tag_181\n                /* \"v2-core-master/contracts/XeleronFactory_flattened.sol\":15488:15497  _reserve0 */\n              dup8\n                /* \"v2-core-master/contracts/XeleronFactory_flattened.sol\":15499:15508  _reserve1 */\n              dup8\n                /* \"v2-core-master/contracts/XeleronFactory_flattened.sol\":15479:15487  _mintFee */\n              tag_182\n                /* \"v2-core-master/contracts/XeleronFactory_flattened.sol\":15479:15509  _mintFee(_reserve0, _reserve1) */\n              jump\t// in\n            tag_181:\n                /* \"v2-core-master/contracts/XeleronFactory_flattened.sol\":15519:15536  uint _totalSupply */\n              0x00\n                /* \"v2-core-master/contracts/XeleronFactory_flattened.sol\":15539:15550  totalSupply */\n              sload\n                /* \"v2-core-master/contracts/XeleronFactory_flattened.sol\":15466:15509  bool feeOn = _mintFee(_reserve0, _reserve1) */\n              swap1\n              swap2\n              pop\n                /* \"v2-core-master/contracts/XeleronFactory_flattened.sol\":15642:15659  _totalSupply == 0 */\n              dup1\n                /* \"v2-core-master/contracts/XeleronFactory_flattened.sol\":15638:15985  if (_totalSupply == 0) {... */\n              tag_183\n              jumpi\n                /* \"v2-core-master/contracts/XeleronFactory_flattened.sol\":15687:15741  Math.sqrt(amount0.mul(amount1)).sub(MINIMUM_LIQUIDITY) */\n              tag_184\n                /* \"v2-core-master/contracts/XeleronFactory_flattened.sol\":11086:11091  10**3 */\n              0x03e8\n                /* \"v2-core-master/contracts/XeleronFactory_flattened.sol\":15687:15718  Math.sqrt(amount0.mul(amount1)) */\n              tag_147\n                /* \"v2-core-master/contracts/XeleronFactory_flattened.sol\":15697:15717  amount0.mul(amount1) */\n              tag_186\n                /* \"v2-core-master/contracts/XeleronFactory_flattened.sol\":15697:15704  amount0 */\n              dup8\n                /* \"v2-core-master/contracts/XeleronFactory_flattened.sol\":15709:15716  amount1 */\n              dup8\n                /* \"v2-core-master/contracts/XeleronFactory_flattened.sol\":15697:15717  amount0.mul(amount1) */\n              0xffffffff\n                /* \"v2-core-master/contracts/XeleronFactory_flattened.sol\":15697:15708  amount0.mul */\n              tag_146\n                /* \"v2-core-master/contracts/XeleronFactory_flattened.sol\":15697:15717  amount0.mul(amount1) */\n              and\n              jump\t// in\n            tag_186:\n                /* \"v2-core-master/contracts/XeleronFactory_flattened.sol\":15687:15696  Math.sqrt */\n              tag_187\n                /* \"v2-core-master/contracts/XeleronFactory_flattened.sol\":15687:15718  Math.sqrt(amount0.mul(amount1)) */\n              jump\t// in\n                /* \"v2-core-master/contracts/XeleronFactory_flattened.sol\":15687:15741  Math.sqrt(amount0.mul(amount1)).sub(MINIMUM_LIQUIDITY) */\n            tag_184:\n                /* \"v2-core-master/contracts/XeleronFactory_flattened.sol\":15675:15741  liquidity = Math.sqrt(amount0.mul(amount1)).sub(MINIMUM_LIQUIDITY) */\n              swap9\n              pop\n                /* \"v2-core-master/contracts/XeleronFactory_flattened.sol\":15754:15790  _mint(address(0), MINIMUM_LIQUIDITY) */\n              tag_188\n                /* \"v2-core-master/contracts/XeleronFactory_flattened.sol\":15768:15769  0 */\n              0x00\n                /* \"v2-core-master/contracts/XeleronFactory_flattened.sol\":11086:11091  10**3 */\n              0x03e8\n                /* \"v2-core-master/contracts/XeleronFactory_flattened.sol\":15754:15759  _mint */\n              tag_189\n                /* \"v2-core-master/contracts/XeleronFactory_flattened.sol\":15754:15790  _mint(address(0), MINIMUM_LIQUIDITY) */\n              jump\t// in\n            tag_188:\n                /* \"v2-core-master/contracts/XeleronFactory_flattened.sol\":15638:15985  if (_totalSupply == 0) {... */\n              jump(tag_190)\n            tag_183:\n                /* \"v2-core-master/contracts/XeleronFactory_flattened.sol\":15888:15974  Math.min(amount0.mul(_totalSupply) / _reserve0, amount1.mul(_totalSupply) / _reserve1) */\n              tag_191\n                /* \"v2-core-master/contracts/XeleronFactory_flattened.sol\":15897:15934  amount0.mul(_totalSupply) / _reserve0 */\n              0xffffffffffffffffffffffffffff\n              dup10\n              and\n                /* \"v2-core-master/contracts/XeleronFactory_flattened.sol\":15897:15922  amount0.mul(_totalSupply) */\n              tag_192\n                /* \"v2-core-master/contracts/XeleronFactory_flattened.sol\":15897:15904  amount0 */\n              dup7\n                /* \"v2-core-master/contracts/XeleronFactory_flattened.sol\":15909:15921  _totalSupply */\n              dup5\n                /* \"v2-core-master/contracts/XeleronFactory_flattened.sol\":15897:15922  amount0.mul(_totalSupply) */\n              0xffffffff\n                /* \"v2-core-master/contracts/XeleronFactory_flattened.sol\":15897:15908  amount0.mul */\n              tag_146\n                /* \"v2-core-master/contracts/XeleronFactory_flattened.sol\":15897:15922  amount0.mul(_totalSupply) */\n              and\n              jump\t// in\n            tag_192:\n                /* \"v2-core-master/contracts/XeleronFactory_flattened.sol\":15897:15934  amount0.mul(_totalSupply) / _reserve0 */\n              dup2\n              tag_193\n              jumpi\n              invalid\n            tag_193:\n              div\n                /* \"v2-core-master/contracts/XeleronFactory_flattened.sol\":15936:15973  amount1.mul(_totalSupply) / _reserve1 */\n              0xffffffffffffffffffffffffffff\n              dup10\n              and\n                /* \"v2-core-master/contracts/XeleronFactory_flattened.sol\":15936:15961  amount1.mul(_totalSupply) */\n              tag_194\n                /* \"v2-core-master/contracts/XeleronFactory_flattened.sol\":15936:15943  amount1 */\n              dup7\n                /* \"v2-core-master/contracts/XeleronFactory_flattened.sol\":15948:15960  _totalSupply */\n              dup6\n                /* \"v2-core-master/contracts/XeleronFactory_flattened.sol\":15936:15961  amount1.mul(_totalSupply) */\n              0xffffffff\n                /* \"v2-core-master/contracts/XeleronFactory_flattened.sol\":15936:15947  amount1.mul */\n              tag_146\n                /* \"v2-core-master/contracts/XeleronFactory_flattened.sol\":15936:15961  amount1.mul(_totalSupply) */\n              and\n              jump\t// in\n            tag_194:\n                /* \"v2-core-master/contracts/XeleronFactory_flattened.sol\":15936:15973  amount1.mul(_totalSupply) / _reserve1 */\n              dup2\n              tag_195\n              jumpi\n              invalid\n            tag_195:\n              div\n                /* \"v2-core-master/contracts/XeleronFactory_flattened.sol\":15888:15896  Math.min */\n              tag_196\n                /* \"v2-core-master/contracts/XeleronFactory_flattened.sol\":15888:15974  Math.min(amount0.mul(_totalSupply) / _reserve0, amount1.mul(_totalSupply) / _reserve1) */\n              jump\t// in\n            tag_191:\n                /* \"v2-core-master/contracts/XeleronFactory_flattened.sol\":15876:15974  liquidity = Math.min(amount0.mul(_totalSupply) / _reserve0, amount1.mul(_totalSupply) / _reserve1) */\n              swap9\n              pop\n                /* \"v2-core-master/contracts/XeleronFactory_flattened.sol\":15638:15985  if (_totalSupply == 0) {... */\n            tag_190:\n                /* \"v2-core-master/contracts/XeleronFactory_flattened.sol\":16014:16015  0 */\n              0x00\n                /* \"v2-core-master/contracts/XeleronFactory_flattened.sol\":16002:16011  liquidity */\n              dup10\n                /* \"v2-core-master/contracts/XeleronFactory_flattened.sol\":16002:16015  liquidity > 0 */\n              gt\n                /* \"v2-core-master/contracts/XeleronFactory_flattened.sol\":15994:16058  require(liquidity > 0, 'Xeleron: INSUFFICIENT_LIQUIDITY_MINTED') */\n              tag_197\n              jumpi\n              mload(0x40)\n              0x08c379a000000000000000000000000000000000000000000000000000000000\n              dup2\n              mstore\n              0x04\n              add\n              dup1\n              dup1\n              0x20\n              add\n              dup3\n              dup2\n              sub\n              dup3\n              mstore\n              0x26\n              dup2\n              mstore\n              0x20\n              add\n              dup1\n              data_74f88baba11428a8b2aa2dc46d0a749f6d7c0e8bd0c415d3967b823dc17b2e57\n              0x26\n              swap2\n              codecopy\n              0x40\n              add\n              swap2\n              pop\n              pop\n              mload(0x40)\n              dup1\n              swap2\n              sub\n              swap1\n              revert\n            tag_197:\n                /* \"v2-core-master/contracts/XeleronFactory_flattened.sol\":16068:16088  _mint(to, liquidity) */\n              tag_198\n                /* \"v2-core-master/contracts/XeleronFactory_flattened.sol\":16074:16076  to */\n              dup11\n                /* \"v2-core-master/contracts/XeleronFactory_flattened.sol\":16078:16087  liquidity */\n              dup11\n                /* \"v2-core-master/contracts/XeleronFactory_flattened.sol\":16068:16073  _mint */\n              tag_189\n                /* \"v2-core-master/contracts/XeleronFactory_flattened.sol\":16068:16088  _mint(to, liquidity) */\n              jump\t// in\n            tag_198:\n                /* \"v2-core-master/contracts/XeleronFactory_flattened.sol\":16099:16148  _update(balance0, balance1, _reserve0, _reserve1) */\n              tag_199\n                /* \"v2-core-master/contracts/XeleronFactory_flattened.sol\":16107:16115  balance0 */\n              dup7\n                /* \"v2-core-master/contracts/XeleronFactory_flattened.sol\":16117:16125  balance1 */\n              dup7\n                /* \"v2-core-master/contracts/XeleronFactory_flattened.sol\":16127:16136  _reserve0 */\n              dup11\n                /* \"v2-core-master/contracts/XeleronFactory_flattened.sol\":16138:16147  _reserve1 */\n              dup11\n                /* \"v2-core-master/contracts/XeleronFactory_flattened.sol\":16099:16106  _update */\n              tag_157\n                /* \"v2-core-master/contracts/XeleronFactory_flattened.sol\":16099:16148  _update(balance0, balance1, _reserve0, _reserve1) */\n              jump\t// in\n            tag_199:\n                /* \"v2-core-master/contracts/XeleronFactory_flattened.sol\":16162:16167  feeOn */\n              dup2\n                /* \"v2-core-master/contracts/XeleronFactory_flattened.sol\":16158:16205  if (feeOn) kLast = uint(reserve0).mul(reserve1) */\n              iszero\n              tag_200\n              jumpi\n                /* \"v2-core-master/contracts/XeleronFactory_flattened.sol\":16196:16204  reserve1 */\n              sload(0x08)\n                /* \"v2-core-master/contracts/XeleronFactory_flattened.sol\":16177:16205  uint(reserve0).mul(reserve1) */\n              tag_201\n              swap1\n                /* \"v2-core-master/contracts/XeleronFactory_flattened.sol\":16196:16204  reserve1 */\n              0xffffffffffffffffffffffffffff\n                /* \"v2-core-master/contracts/XeleronFactory_flattened.sol\":16182:16190  reserve0 */\n              dup1\n              dup3\n              and\n              swap2\n                /* \"v2-core-master/contracts/XeleronFactory_flattened.sol\":16196:16204  reserve1 */\n              0x010000000000000000000000000000\n              swap1\n              div\n              and\n                /* \"v2-core-master/contracts/XeleronFactory_flattened.sol\":16177:16205  uint(reserve0).mul(reserve1) */\n              0xffffffff\n                /* \"v2-core-master/contracts/XeleronFactory_flattened.sol\":16177:16195  uint(reserve0).mul */\n              tag_146\n                /* \"v2-core-master/contracts/XeleronFactory_flattened.sol\":16177:16205  uint(reserve0).mul(reserve1) */\n              and\n              jump\t// in\n            tag_201:\n                /* \"v2-core-master/contracts/XeleronFactory_flattened.sol\":16169:16174  kLast */\n              0x0b\n                /* \"v2-core-master/contracts/XeleronFactory_flattened.sol\":16169:16205  kLast = uint(reserve0).mul(reserve1) */\n              sstore\n                /* \"v2-core-master/contracts/XeleronFactory_flattened.sol\":16158:16205  if (feeOn) kLast = uint(reserve0).mul(reserve1) */\n            tag_200:\n                /* \"v2-core-master/contracts/XeleronFactory_flattened.sol\":16260:16294  Mint(msg.sender, amount0, amount1) */\n              0x40\n              dup1\n              mload\n              dup6\n              dup2\n              mstore\n              0x20\n              dup2\n              add\n              dup6\n              swap1\n              mstore\n              dup2\n              mload\n                /* \"v2-core-master/contracts/XeleronFactory_flattened.sol\":16265:16275  msg.sender */\n              caller\n              swap3\n                /* \"v2-core-master/contracts/XeleronFactory_flattened.sol\":16260:16294  Mint(msg.sender, amount0, amount1) */\n              0x4c209b5fc8ad50758f13e2e1088ba56a560dff690a1c6fef26394f4c03821c4f\n              swap3\n              dup3\n              swap1\n              sub\n              add\n              swap1\n              log2\n              pop\n              pop\n                /* \"v2-core-master/contracts/XeleronFactory_flattened.sol\":11896:11897  1 */\n              0x01\n                /* \"v2-core-master/contracts/XeleronFactory_flattened.sol\":11885:11893  unlocked */\n              0x0c\n                /* \"v2-core-master/contracts/XeleronFactory_flattened.sol\":11885:11897  unlocked = 1 */\n              sstore\n              pop\n                /* \"v2-core-master/contracts/XeleronFactory_flattened.sol\":15084:16301  function mint(address to) external lock returns (uint liquidity) {... */\n              swap5\n              swap7\n              swap6\n              pop\n              pop\n              pop\n              pop\n              pop\n              pop\n              jump\t// out\n                /* \"v2-core-master/contracts/XeleronFactory_flattened.sol\":4545:4586  mapping(address => uint) public balanceOf */\n            tag_79:\n              mstore(0x20, 0x01)\n              0x00\n              swap1\n              dup2\n              mstore\n              0x40\n              swap1\n              keccak256\n              sload\n              dup2\n              jump\t// out\n                /* \"v2-core-master/contracts/XeleronFactory_flattened.sol\":11640:11657  uint public kLast */\n            tag_81:\n              sload(0x0b)\n              dup2\n              jump\t// out\n                /* \"v2-core-master/contracts/XeleronFactory_flattened.sol\":4915:4953  mapping(address => uint) public nonces */\n            tag_84:\n              mstore(0x20, 0x04)\n              0x00\n              swap1\n              dup2\n              mstore\n              0x40\n              swap1\n              keccak256\n              sload\n              dup2\n              jump\t// out\n                /* \"v2-core-master/contracts/XeleronFactory_flattened.sol\":16410:17852  function burn(address to) external lock returns (uint amount0, uint amount1) {... */\n            tag_87:\n                /* \"v2-core-master/contracts/XeleronFactory_flattened.sol\":16459:16471  uint amount0 */\n              0x00\n                /* \"v2-core-master/contracts/XeleronFactory_flattened.sol\":16473:16485  uint amount1 */\n              dup1\n                /* \"v2-core-master/contracts/XeleronFactory_flattened.sol\":11809:11817  unlocked */\n              sload(0x0c)\n                /* \"v2-core-master/contracts/XeleronFactory_flattened.sol\":11821:11822  1 */\n              0x01\n                /* \"v2-core-master/contracts/XeleronFactory_flattened.sol\":11809:11822  unlocked == 1 */\n              eq\n                /* \"v2-core-master/contracts/XeleronFactory_flattened.sol\":11801:11842  require(unlocked == 1, 'Xeleron: LOCKED') */\n              tag_203\n              jumpi\n              0x40\n              dup1\n              mload\n              0x08c379a000000000000000000000000000000000000000000000000000000000\n              dup2\n              mstore\n              0x20\n              0x04\n              dup3\n              add\n              mstore\n              0x0f\n              0x24\n              dup3\n              add\n              mstore\n              0x58656c65726f6e3a204c4f434b45440000000000000000000000000000000000\n              0x44\n              dup3\n              add\n              mstore\n              swap1\n              mload\n              swap1\n              dup2\n              swap1\n              sub\n              0x64\n              add\n              swap1\n              revert\n            tag_203:\n                /* \"v2-core-master/contracts/XeleronFactory_flattened.sol\":11863:11864  0 */\n              0x00\n                /* \"v2-core-master/contracts/XeleronFactory_flattened.sol\":11852:11860  unlocked */\n              0x0c\n                /* \"v2-core-master/contracts/XeleronFactory_flattened.sol\":11852:11864  unlocked = 0 */\n              dup2\n              swap1\n              sstore\n                /* \"v2-core-master/contracts/XeleronFactory_flattened.sol\":11863:11864  0 */\n              dup1\n                /* \"v2-core-master/contracts/XeleronFactory_flattened.sol\":16539:16552  getReserves() */\n              tag_205\n                /* \"v2-core-master/contracts/XeleronFactory_flattened.sol\":16539:16550  getReserves */\n              tag_50\n                /* \"v2-core-master/contracts/XeleronFactory_flattened.sol\":16539:16552  getReserves() */\n              jump\t// in\n            tag_205:\n              pop\n                /* \"v2-core-master/contracts/XeleronFactory_flattened.sol\":16595:16601  token0 */\n              sload(0x06)\n                /* \"v2-core-master/contracts/XeleronFactory_flattened.sol\":16675:16681  token1 */\n              sload(0x07)\n                /* \"v2-core-master/contracts/XeleronFactory_flattened.sol\":16753:16793  IERC20(_token0).balanceOf(address(this)) */\n              0x40\n              dup1\n              mload\n              0x70a0823100000000000000000000000000000000000000000000000000000000\n              dup2\n              mstore\n                /* \"v2-core-master/contracts/XeleronFactory_flattened.sol\":16787:16791  this */\n              address\n                /* \"v2-core-master/contracts/XeleronFactory_flattened.sol\":16753:16793  IERC20(_token0).balanceOf(address(this)) */\n              0x04\n              dup3\n              add\n              mstore\n              swap1\n              mload\n                /* \"v2-core-master/contracts/XeleronFactory_flattened.sol\":16497:16552  (uint112 _reserve0, uint112 _reserve1,) = getReserves() */\n              swap5\n              swap7\n              pop\n              swap3\n              swap5\n              pop\n                /* \"v2-core-master/contracts/XeleronFactory_flattened.sol\":16595:16601  token0 */\n              0xffffffffffffffffffffffffffffffffffffffff\n              swap2\n              dup3\n              and\n              swap4\n                /* \"v2-core-master/contracts/XeleronFactory_flattened.sol\":16675:16681  token1 */\n              swap2\n              and\n              swap2\n                /* \"v2-core-master/contracts/XeleronFactory_flattened.sol\":16577:16592  address _token0 */\n              0x00\n              swap2\n                /* \"v2-core-master/contracts/XeleronFactory_flattened.sol\":16595:16601  token0 */\n              dup5\n              swap2\n                /* \"v2-core-master/contracts/XeleronFactory_flattened.sol\":16753:16778  IERC20(_token0).balanceOf */\n              0x70a08231\n              swap2\n                /* \"v2-core-master/contracts/XeleronFactory_flattened.sol\":16753:16793  IERC20(_token0).balanceOf(address(this)) */\n              0x24\n              dup1\n              dup4\n              add\n              swap3\n              0x20\n              swap3\n              swap2\n              swap1\n              dup3\n              swap1\n              sub\n              add\n              dup2\n                /* \"v2-core-master/contracts/XeleronFactory_flattened.sol\":16595:16601  token0 */\n              dup7\n                /* \"v2-core-master/contracts/XeleronFactory_flattened.sol\":16753:16793  IERC20(_token0).balanceOf(address(this)) */\n              dup1\n              extcodesize\n              iszero\n                /* \"--CODEGEN--\":5:7   */\n              dup1\n              iszero\n              tag_206\n              jumpi\n                /* \"--CODEGEN--\":30:31   */\n              0x00\n                /* \"--CODEGEN--\":27:28   */\n              dup1\n                /* \"--CODEGEN--\":20:32   */\n              revert\n                /* \"--CODEGEN--\":5:7   */\n            tag_206:\n                /* \"v2-core-master/contracts/XeleronFactory_flattened.sol\":16753:16793  IERC20(_token0).balanceOf(address(this)) */\n              pop\n              gas\n              staticcall\n              iszero\n                /* \"--CODEGEN--\":8:17   */\n              dup1\n                /* \"--CODEGEN--\":5:7   */\n              iszero\n              tag_207\n              jumpi\n                /* \"--CODEGEN--\":45:61   */\n              returndatasize\n                /* \"--CODEGEN--\":42:43   */\n              0x00\n                /* \"--CODEGEN--\":39:40   */\n              dup1\n                /* \"--CODEGEN--\":24:62   */\n              returndatacopy\n                /* \"--CODEGEN--\":77:93   */\n              returndatasize\n                /* \"--CODEGEN--\":74:75   */\n              0x00\n                /* \"--CODEGEN--\":67:94   */\n              revert\n                /* \"--CODEGEN--\":5:7   */\n            tag_207:\n                /* \"v2-core-master/contracts/XeleronFactory_flattened.sol\":16753:16793  IERC20(_token0).balanceOf(address(this)) */\n              pop\n              pop\n              pop\n              pop\n              mload(0x40)\n              returndatasize\n                /* \"--CODEGEN--\":13:15   */\n              0x20\n                /* \"--CODEGEN--\":8:11   */\n              dup2\n                /* \"--CODEGEN--\":5:16   */\n              lt\n                /* \"--CODEGEN--\":2:4   */\n              iszero\n              tag_208\n              jumpi\n                /* \"--CODEGEN--\":29:30   */\n              0x00\n                /* \"--CODEGEN--\":26:27   */\n              dup1\n                /* \"--CODEGEN--\":19:31   */\n              revert\n                /* \"--CODEGEN--\":2:4   */\n            tag_208:\n              pop\n                /* \"v2-core-master/contracts/XeleronFactory_flattened.sol\":16753:16793  IERC20(_token0).balanceOf(address(this)) */\n              mload\n                /* \"v2-core-master/contracts/XeleronFactory_flattened.sol\":16819:16859  IERC20(_token1).balanceOf(address(this)) */\n              0x40\n              dup1\n              mload\n              0x70a0823100000000000000000000000000000000000000000000000000000000\n              dup2\n              mstore\n                /* \"v2-core-master/contracts/XeleronFactory_flattened.sol\":16853:16857  this */\n              address\n                /* \"v2-core-master/contracts/XeleronFactory_flattened.sol\":16819:16859  IERC20(_token1).balanceOf(address(this)) */\n              0x04\n              dup3\n              add\n              mstore\n              swap1\n              mload\n                /* \"v2-core-master/contracts/XeleronFactory_flattened.sol\":16753:16793  IERC20(_token0).balanceOf(address(this)) */\n              swap2\n              swap3\n              pop\n                /* \"v2-core-master/contracts/XeleronFactory_flattened.sol\":16803:16816  uint balance1 */\n              0x00\n              swap2\n                /* \"v2-core-master/contracts/XeleronFactory_flattened.sol\":16819:16844  IERC20(_token1).balanceOf */\n              0xffffffffffffffffffffffffffffffffffffffff\n              dup6\n              and\n              swap2\n              0x70a08231\n              swap2\n                /* \"v2-core-master/contracts/XeleronFactory_flattened.sol\":16819:16859  IERC20(_token1).balanceOf(address(this)) */\n              0x24\n              dup1\n              dup4\n              add\n              swap3\n                /* \"v2-core-master/contracts/XeleronFactory_flattened.sol\":16753:16793  IERC20(_token0).balanceOf(address(this)) */\n              0x20\n              swap3\n                /* \"v2-core-master/contracts/XeleronFactory_flattened.sol\":16819:16859  IERC20(_token1).balanceOf(address(this)) */\n              swap2\n              swap1\n              dup3\n              swap1\n              sub\n              add\n              dup2\n                /* \"v2-core-master/contracts/XeleronFactory_flattened.sol\":16819:16844  IERC20(_token1).balanceOf */\n              dup7\n                /* \"v2-core-master/contracts/XeleronFactory_flattened.sol\":16819:16859  IERC20(_token1).balanceOf(address(this)) */\n              dup1\n              extcodesize\n              iszero\n                /* \"--CODEGEN--\":5:7   */\n              dup1\n              iszero\n              tag_209\n              jumpi\n                /* \"--CODEGEN--\":30:31   */\n              0x00\n                /* \"--CODEGEN--\":27:28   */\n              dup1\n                /* \"--CODEGEN--\":20:32   */\n              revert\n                /* \"--CODEGEN--\":5:7   */\n            tag_209:\n                /* \"v2-core-master/contracts/XeleronFactory_flattened.sol\":16819:16859  IERC20(_token1).balanceOf(address(this)) */\n              pop\n              gas\n              staticcall\n              iszero\n                /* \"--CODEGEN--\":8:17   */\n              dup1\n                /* \"--CODEGEN--\":5:7   */\n              iszero\n              tag_210\n              jumpi\n                /* \"--CODEGEN--\":45:61   */\n              returndatasize\n                /* \"--CODEGEN--\":42:43   */\n              0x00\n                /* \"--CODEGEN--\":39:40   */\n              dup1\n                /* \"--CODEGEN--\":24:62   */\n              returndatacopy\n                /* \"--CODEGEN--\":77:93   */\n              returndatasize\n                /* \"--CODEGEN--\":74:75   */\n              0x00\n                /* \"--CODEGEN--\":67:94   */\n              revert\n                /* \"--CODEGEN--\":5:7   */\n            tag_210:\n                /* \"v2-core-master/contracts/XeleronFactory_flattened.sol\":16819:16859  IERC20(_token1).balanceOf(address(this)) */\n              pop\n              pop\n              pop\n              pop\n              mload(0x40)\n              returndatasize\n                /* \"--CODEGEN--\":13:15   */\n              0x20\n                /* \"--CODEGEN--\":8:11   */\n              dup2\n                /* \"--CODEGEN--\":5:16   */\n              lt\n                /* \"--CODEGEN--\":2:4   */\n              iszero\n              tag_211\n              jumpi\n                /* \"--CODEGEN--\":29:30   */\n              0x00\n                /* \"--CODEGEN--\":26:27   */\n              dup1\n                /* \"--CODEGEN--\":19:31   */\n              revert\n                /* \"--CODEGEN--\":2:4   */\n            tag_211:\n              pop\n                /* \"v2-core-master/contracts/XeleronFactory_flattened.sol\":16819:16859  IERC20(_token1).balanceOf(address(this)) */\n              mload\n                /* \"v2-core-master/contracts/XeleronFactory_flattened.sol\":16904:16908  this */\n              address\n                /* \"v2-core-master/contracts/XeleronFactory_flattened.sol\":16869:16883  uint liquidity */\n              0x00\n                /* \"v2-core-master/contracts/XeleronFactory_flattened.sol\":16886:16910  balanceOf[address(this)] */\n              swap1\n              dup2\n              mstore\n                /* \"v2-core-master/contracts/XeleronFactory_flattened.sol\":16886:16895  balanceOf */\n              0x01\n                /* \"v2-core-master/contracts/XeleronFactory_flattened.sol\":16819:16859  IERC20(_token1).balanceOf(address(this)) */\n              0x20\n                /* \"v2-core-master/contracts/XeleronFactory_flattened.sol\":16886:16910  balanceOf[address(this)] */\n              mstore\n              0x40\n              dup2\n              keccak256\n              sload\n                /* \"v2-core-master/contracts/XeleronFactory_flattened.sol\":16819:16859  IERC20(_token1).balanceOf(address(this)) */\n              swap2\n              swap3\n              pop\n                /* \"v2-core-master/contracts/XeleronFactory_flattened.sol\":16934:16964  _mintFee(_reserve0, _reserve1) */\n              tag_212\n                /* \"v2-core-master/contracts/XeleronFactory_flattened.sol\":16943:16952  _reserve0 */\n              dup9\n                /* \"v2-core-master/contracts/XeleronFactory_flattened.sol\":16954:16963  _reserve1 */\n              dup9\n                /* \"v2-core-master/contracts/XeleronFactory_flattened.sol\":16934:16942  _mintFee */\n              tag_182\n                /* \"v2-core-master/contracts/XeleronFactory_flattened.sol\":16934:16964  _mintFee(_reserve0, _reserve1) */\n              jump\t// in\n            tag_212:\n                /* \"v2-core-master/contracts/XeleronFactory_flattened.sol\":16974:16991  uint _totalSupply */\n              0x00\n                /* \"v2-core-master/contracts/XeleronFactory_flattened.sol\":16994:17005  totalSupply */\n              sload\n                /* \"v2-core-master/contracts/XeleronFactory_flattened.sol\":16921:16964  bool feeOn = _mintFee(_reserve0, _reserve1) */\n              swap1\n              swap2\n              pop\n                /* \"v2-core-master/contracts/XeleronFactory_flattened.sol\":16994:17005  totalSupply */\n              dup1\n                /* \"v2-core-master/contracts/XeleronFactory_flattened.sol\":17103:17126  liquidity.mul(balance0) */\n              tag_213\n                /* \"v2-core-master/contracts/XeleronFactory_flattened.sol\":17103:17112  liquidity */\n              dup5\n                /* \"v2-core-master/contracts/XeleronFactory_flattened.sol\":17117:17125  balance0 */\n              dup8\n                /* \"v2-core-master/contracts/XeleronFactory_flattened.sol\":17103:17126  liquidity.mul(balance0) */\n              0xffffffff\n                /* \"v2-core-master/contracts/XeleronFactory_flattened.sol\":17103:17116  liquidity.mul */\n              tag_146\n                /* \"v2-core-master/contracts/XeleronFactory_flattened.sol\":17103:17126  liquidity.mul(balance0) */\n              and\n              jump\t// in\n            tag_213:\n                /* \"v2-core-master/contracts/XeleronFactory_flattened.sol\":17103:17141  liquidity.mul(balance0) / _totalSupply */\n              dup2\n              tag_214\n              jumpi\n              invalid\n            tag_214:\n              div\n              swap11\n              pop\n                /* \"v2-core-master/contracts/XeleronFactory_flattened.sol\":17235:17247  _totalSupply */\n              dup1\n                /* \"v2-core-master/contracts/XeleronFactory_flattened.sol\":17209:17232  liquidity.mul(balance1) */\n              tag_215\n                /* \"v2-core-master/contracts/XeleronFactory_flattened.sol\":17209:17218  liquidity */\n              dup5\n                /* \"v2-core-master/contracts/XeleronFactory_flattened.sol\":17223:17231  balance1 */\n              dup7\n                /* \"v2-core-master/contracts/XeleronFactory_flattened.sol\":17209:17232  liquidity.mul(balance1) */\n              0xffffffff\n                /* \"v2-core-master/contracts/XeleronFactory_flattened.sol\":17209:17222  liquidity.mul */\n              tag_146\n                /* \"v2-core-master/contracts/XeleronFactory_flattened.sol\":17209:17232  liquidity.mul(balance1) */\n              and\n              jump\t// in\n            tag_215:\n                /* \"v2-core-master/contracts/XeleronFactory_flattened.sol\":17209:17247  liquidity.mul(balance1) / _totalSupply */\n              dup2\n              tag_216\n              jumpi\n              invalid\n            tag_216:\n              div\n                /* \"v2-core-master/contracts/XeleronFactory_flattened.sol\":17199:17247  amount1 = liquidity.mul(balance1) / _totalSupply */\n              swap10\n              pop\n                /* \"v2-core-master/contracts/XeleronFactory_flattened.sol\":17323:17324  0 */\n              0x00\n                /* \"v2-core-master/contracts/XeleronFactory_flattened.sol\":17313:17320  amount0 */\n              dup12\n                /* \"v2-core-master/contracts/XeleronFactory_flattened.sol\":17313:17324  amount0 > 0 */\n              gt\n                /* \"v2-core-master/contracts/XeleronFactory_flattened.sol\":17313:17339  amount0 > 0 && amount1 > 0 */\n              dup1\n              iszero\n              tag_217\n              jumpi\n              pop\n                /* \"v2-core-master/contracts/XeleronFactory_flattened.sol\":17338:17339  0 */\n              0x00\n                /* \"v2-core-master/contracts/XeleronFactory_flattened.sol\":17328:17335  amount1 */\n              dup11\n                /* \"v2-core-master/contracts/XeleronFactory_flattened.sol\":17328:17339  amount1 > 0 */\n              gt\n                /* \"v2-core-master/contracts/XeleronFactory_flattened.sol\":17313:17339  amount0 > 0 && amount1 > 0 */\n            tag_217:\n                /* \"v2-core-master/contracts/XeleronFactory_flattened.sol\":17305:17382  require(amount0 > 0 && amount1 > 0, 'Xeleron: INSUFFICIENT_LIQUIDITY_BURNED') */\n              tag_218\n              jumpi\n              mload(0x40)\n              0x08c379a000000000000000000000000000000000000000000000000000000000\n              dup2\n              mstore\n              0x04\n              add\n              dup1\n              dup1\n              0x20\n              add\n              dup3\n              dup2\n              sub\n              dup3\n              mstore\n              0x26\n              dup2\n              mstore\n              0x20\n              add\n              dup1\n              data_f090f3a16a3c91d8127a557871c5c028ffe071b2d66fabe9001aefc3d79ef891\n              0x26\n              swap2\n              codecopy\n              0x40\n              add\n              swap2\n              pop\n              pop\n              mload(0x40)\n              dup1\n              swap2\n              sub\n              swap1\n              revert\n            tag_218:\n                /* \"v2-core-master/contracts/XeleronFactory_flattened.sol\":17392:17423  _burn(address(this), liquidity) */\n              tag_219\n                /* \"v2-core-master/contracts/XeleronFactory_flattened.sol\":17406:17410  this */\n              address\n                /* \"v2-core-master/contracts/XeleronFactory_flattened.sol\":17413:17422  liquidity */\n              dup5\n                /* \"v2-core-master/contracts/XeleronFactory_flattened.sol\":17392:17397  _burn */\n              tag_220\n                /* \"v2-core-master/contracts/XeleronFactory_flattened.sol\":17392:17423  _burn(address(this), liquidity) */\n              jump\t// in\n            tag_219:\n                /* \"v2-core-master/contracts/XeleronFactory_flattened.sol\":17433:17468  _safeTransfer(_token0, to, amount0) */\n              tag_221\n                /* \"v2-core-master/contracts/XeleronFactory_flattened.sol\":17447:17454  _token0 */\n              dup8\n                /* \"v2-core-master/contracts/XeleronFactory_flattened.sol\":17456:17458  to */\n              dup14\n                /* \"v2-core-master/contracts/XeleronFactory_flattened.sol\":17460:17467  amount0 */\n              dup14\n                /* \"v2-core-master/contracts/XeleronFactory_flattened.sol\":17433:17446  _safeTransfer */\n              tag_126\n                /* \"v2-core-master/contracts/XeleronFactory_flattened.sol\":17433:17468  _safeTransfer(_token0, to, amount0) */\n              jump\t// in\n            tag_221:\n                /* \"v2-core-master/contracts/XeleronFactory_flattened.sol\":17478:17513  _safeTransfer(_token1, to, amount1) */\n              tag_222\n                /* \"v2-core-master/contracts/XeleronFactory_flattened.sol\":17492:17499  _token1 */\n              dup7\n                /* \"v2-core-master/contracts/XeleronFactory_flattened.sol\":17501:17503  to */\n              dup14\n                /* \"v2-core-master/contracts/XeleronFactory_flattened.sol\":17505:17512  amount1 */\n              dup13\n                /* \"v2-core-master/contracts/XeleronFactory_flattened.sol\":17478:17491  _safeTransfer */\n              tag_126\n                /* \"v2-core-master/contracts/XeleronFactory_flattened.sol\":17478:17513  _safeTransfer(_token1, to, amount1) */\n              jump\t// in\n            tag_222:\n                /* \"v2-core-master/contracts/XeleronFactory_flattened.sol\":17534:17574  IERC20(_token0).balanceOf(address(this)) */\n              0x40\n              dup1\n              mload\n              0x70a0823100000000000000000000000000000000000000000000000000000000\n              dup2\n              mstore\n                /* \"v2-core-master/contracts/XeleronFactory_flattened.sol\":17568:17572  this */\n              address\n                /* \"v2-core-master/contracts/XeleronFactory_flattened.sol\":17534:17574  IERC20(_token0).balanceOf(address(this)) */\n              0x04\n              dup3\n              add\n              mstore\n              swap1\n              mload\n                /* \"v2-core-master/contracts/XeleronFactory_flattened.sol\":17534:17559  IERC20(_token0).balanceOf */\n              0xffffffffffffffffffffffffffffffffffffffff\n              dup10\n              and\n              swap2\n              0x70a08231\n              swap2\n                /* \"v2-core-master/contracts/XeleronFactory_flattened.sol\":17534:17574  IERC20(_token0).balanceOf(address(this)) */\n              0x24\n              dup1\n              dup4\n              add\n              swap3\n              0x20\n              swap3\n              swap2\n              swap1\n              dup3\n              swap1\n              sub\n              add\n              dup2\n                /* \"v2-core-master/contracts/XeleronFactory_flattened.sol\":17534:17559  IERC20(_token0).balanceOf */\n              dup7\n                /* \"v2-core-master/contracts/XeleronFactory_flattened.sol\":17534:17574  IERC20(_token0).balanceOf(address(this)) */\n              dup1\n              extcodesize\n              iszero\n                /* \"--CODEGEN--\":5:7   */\n              dup1\n              iszero\n              tag_223\n              jumpi\n                /* \"--CODEGEN--\":30:31   */\n              0x00\n                /* \"--CODEGEN--\":27:28   */\n              dup1\n                /* \"--CODEGEN--\":20:32   */\n              revert\n                /* \"--CODEGEN--\":5:7   */\n            tag_223:\n                /* \"v2-core-master/contracts/XeleronFactory_flattened.sol\":17534:17574  IERC20(_token0).balanceOf(address(this)) */\n              pop\n              gas\n              staticcall\n              iszero\n                /* \"--CODEGEN--\":8:17   */\n              dup1\n                /* \"--CODEGEN--\":5:7   */\n              iszero\n              tag_224\n              jumpi\n                /* \"--CODEGEN--\":45:61   */\n              returndatasize\n                /* \"--CODEGEN--\":42:43   */\n              0x00\n                /* \"--CODEGEN--\":39:40   */\n              dup1\n                /* \"--CODEGEN--\":24:62   */\n              returndatacopy\n                /* \"--CODEGEN--\":77:93   */\n              returndatasize\n                /* \"--CODEGEN--\":74:75   */\n              0x00\n                /* \"--CODEGEN--\":67:94   */\n              revert\n                /* \"--CODEGEN--\":5:7   */\n            tag_224:\n                /* \"v2-core-master/contracts/XeleronFactory_flattened.sol\":17534:17574  IERC20(_token0).balanceOf(address(this)) */\n              pop\n              pop\n              pop\n              pop\n              mload(0x40)\n              returndatasize\n                /* \"--CODEGEN--\":13:15   */\n              0x20\n                /* \"--CODEGEN--\":8:11   */\n              dup2\n                /* \"--CODEGEN--\":5:16   */\n              lt\n                /* \"--CODEGEN--\":2:4   */\n              iszero\n              tag_225\n              jumpi\n                /* \"--CODEGEN--\":29:30   */\n              0x00\n                /* \"--CODEGEN--\":26:27   */\n              dup1\n                /* \"--CODEGEN--\":19:31   */\n              revert\n                /* \"--CODEGEN--\":2:4   */\n            tag_225:\n              pop\n                /* \"v2-core-master/contracts/XeleronFactory_flattened.sol\":17534:17574  IERC20(_token0).balanceOf(address(this)) */\n              mload\n                /* \"v2-core-master/contracts/XeleronFactory_flattened.sol\":17595:17635  IERC20(_token1).balanceOf(address(this)) */\n              0x40\n              dup1\n              mload\n              0x70a0823100000000000000000000000000000000000000000000000000000000\n              dup2\n              mstore\n                /* \"v2-core-master/contracts/XeleronFactory_flattened.sol\":17629:17633  this */\n              address\n                /* \"v2-core-master/contracts/XeleronFactory_flattened.sol\":17595:17635  IERC20(_token1).balanceOf(address(this)) */\n              0x04\n              dup3\n              add\n              mstore\n              swap1\n              mload\n                /* \"v2-core-master/contracts/XeleronFactory_flattened.sol\":17534:17574  IERC20(_token0).balanceOf(address(this)) */\n              swap2\n              swap7\n              pop\n                /* \"v2-core-master/contracts/XeleronFactory_flattened.sol\":17595:17620  IERC20(_token1).balanceOf */\n              0xffffffffffffffffffffffffffffffffffffffff\n              dup9\n              and\n              swap2\n              0x70a08231\n              swap2\n                /* \"v2-core-master/contracts/XeleronFactory_flattened.sol\":17595:17635  IERC20(_token1).balanceOf(address(this)) */\n              0x24\n              dup1\n              dup3\n              add\n              swap3\n                /* \"v2-core-master/contracts/XeleronFactory_flattened.sol\":17534:17574  IERC20(_token0).balanceOf(address(this)) */\n              0x20\n              swap3\n                /* \"v2-core-master/contracts/XeleronFactory_flattened.sol\":17595:17635  IERC20(_token1).balanceOf(address(this)) */\n              swap1\n              swap2\n              swap1\n              dup3\n              swap1\n              sub\n              add\n              dup2\n                /* \"v2-core-master/contracts/XeleronFactory_flattened.sol\":17595:17620  IERC20(_token1).balanceOf */\n              dup7\n                /* \"v2-core-master/contracts/XeleronFactory_flattened.sol\":17595:17635  IERC20(_token1).balanceOf(address(this)) */\n              dup1\n              extcodesize\n              iszero\n                /* \"--CODEGEN--\":5:7   */\n              dup1\n              iszero\n              tag_226\n              jumpi\n                /* \"--CODEGEN--\":30:31   */\n              0x00\n                /* \"--CODEGEN--\":27:28   */\n              dup1\n                /* \"--CODEGEN--\":20:32   */\n              revert\n                /* \"--CODEGEN--\":5:7   */\n            tag_226:\n                /* \"v2-core-master/contracts/XeleronFactory_flattened.sol\":17595:17635  IERC20(_token1).balanceOf(address(this)) */\n              pop\n              gas\n              staticcall\n              iszero\n                /* \"--CODEGEN--\":8:17   */\n              dup1\n                /* \"--CODEGEN--\":5:7   */\n              iszero\n              tag_227\n              jumpi\n                /* \"--CODEGEN--\":45:61   */\n              returndatasize\n                /* \"--CODEGEN--\":42:43   */\n              0x00\n                /* \"--CODEGEN--\":39:40   */\n              dup1\n                /* \"--CODEGEN--\":24:62   */\n              returndatacopy\n                /* \"--CODEGEN--\":77:93   */\n              returndatasize\n                /* \"--CODEGEN--\":74:75   */\n              0x00\n                /* \"--CODEGEN--\":67:94   */\n              revert\n                /* \"--CODEGEN--\":5:7   */\n            tag_227:\n                /* \"v2-core-master/contracts/XeleronFactory_flattened.sol\":17595:17635  IERC20(_token1).balanceOf(address(this)) */\n              pop\n              pop\n              pop\n              pop\n              mload(0x40)\n              returndatasize\n                /* \"--CODEGEN--\":13:15   */\n              0x20\n                /* \"--CODEGEN--\":8:11   */\n              dup2\n                /* \"--CODEGEN--\":5:16   */\n              lt\n                /* \"--CODEGEN--\":2:4   */\n              iszero\n              tag_228\n              jumpi\n                /* \"--CODEGEN--\":29:30   */\n              0x00\n                /* \"--CODEGEN--\":26:27   */\n              dup1\n                /* \"--CODEGEN--\":19:31   */\n              revert\n                /* \"--CODEGEN--\":2:4   */\n            tag_228:\n              pop\n                /* \"v2-core-master/contracts/XeleronFactory_flattened.sol\":17595:17635  IERC20(_token1).balanceOf(address(this)) */\n              mload\n              swap4\n              pop\n                /* \"v2-core-master/contracts/XeleronFactory_flattened.sol\":17646:17695  _update(balance0, balance1, _reserve0, _reserve1) */\n              tag_229\n                /* \"v2-core-master/contracts/XeleronFactory_flattened.sol\":17654:17662  balance0 */\n              dup6\n                /* \"v2-core-master/contracts/XeleronFactory_flattened.sol\":17595:17635  IERC20(_token1).balanceOf(address(this)) */\n              dup6\n                /* \"v2-core-master/contracts/XeleronFactory_flattened.sol\":17674:17683  _reserve0 */\n              dup12\n                /* \"v2-core-master/contracts/XeleronFactory_flattened.sol\":17685:17694  _reserve1 */\n              dup12\n                /* \"v2-core-master/contracts/XeleronFactory_flattened.sol\":17646:17653  _update */\n              tag_157\n                /* \"v2-core-master/contracts/XeleronFactory_flattened.sol\":17646:17695  _update(balance0, balance1, _reserve0, _reserve1) */\n              jump\t// in\n            tag_229:\n                /* \"v2-core-master/contracts/XeleronFactory_flattened.sol\":17709:17714  feeOn */\n              dup2\n                /* \"v2-core-master/contracts/XeleronFactory_flattened.sol\":17705:17752  if (feeOn) kLast = uint(reserve0).mul(reserve1) */\n              iszero\n              tag_230\n              jumpi\n                /* \"v2-core-master/contracts/XeleronFactory_flattened.sol\":17743:17751  reserve1 */\n              sload(0x08)\n                /* \"v2-core-master/contracts/XeleronFactory_flattened.sol\":17724:17752  uint(reserve0).mul(reserve1) */\n              tag_231\n              swap1\n                /* \"v2-core-master/contracts/XeleronFactory_flattened.sol\":17743:17751  reserve1 */\n              0xffffffffffffffffffffffffffff\n                /* \"v2-core-master/contracts/XeleronFactory_flattened.sol\":17729:17737  reserve0 */\n              dup1\n              dup3\n              and\n              swap2\n                /* \"v2-core-master/contracts/XeleronFactory_flattened.sol\":17743:17751  reserve1 */\n              0x010000000000000000000000000000\n              swap1\n              div\n              and\n                /* \"v2-core-master/contracts/XeleronFactory_flattened.sol\":17724:17752  uint(reserve0).mul(reserve1) */\n              0xffffffff\n                /* \"v2-core-master/contracts/XeleronFactory_flattened.sol\":17724:17742  uint(reserve0).mul */\n              tag_146\n                /* \"v2-core-master/contracts/XeleronFactory_flattened.sol\":17724:17752  uint(reserve0).mul(reserve1) */\n              and\n              jump\t// in\n            tag_231:\n                /* \"v2-core-master/contracts/XeleronFactory_flattened.sol\":17716:17721  kLast */\n              0x0b\n                /* \"v2-core-master/contracts/XeleronFactory_flattened.sol\":17716:17752  kLast = uint(reserve0).mul(reserve1) */\n              sstore\n                /* \"v2-core-master/contracts/XeleronFactory_flattened.sol\":17705:17752  if (feeOn) kLast = uint(reserve0).mul(reserve1) */\n            tag_230:\n                /* \"v2-core-master/contracts/XeleronFactory_flattened.sol\":17807:17845  Burn(msg.sender, amount0, amount1, to) */\n              0x40\n              dup1\n              mload\n              dup13\n              dup2\n              mstore\n              0x20\n              dup2\n              add\n              dup13\n              swap1\n              mstore\n              dup2\n              mload\n              0xffffffffffffffffffffffffffffffffffffffff\n              dup16\n              and\n              swap3\n                /* \"v2-core-master/contracts/XeleronFactory_flattened.sol\":17812:17822  msg.sender */\n              caller\n              swap3\n                /* \"v2-core-master/contracts/XeleronFactory_flattened.sol\":17807:17845  Burn(msg.sender, amount0, amount1, to) */\n              0xdccd412f0b1252819cb1fd330b93224ca42612892bb3f4f789976e6d81936496\n              swap3\n              swap1\n              dup2\n              swap1\n              sub\n              swap1\n              swap2\n              add\n              swap1\n              log3\n                /* \"v2-core-master/contracts/XeleronFactory_flattened.sol\":11874:11875  _ */\n              pop\n              pop\n              pop\n              pop\n              pop\n              pop\n              pop\n              pop\n              pop\n                /* \"v2-core-master/contracts/XeleronFactory_flattened.sol\":11896:11897  1 */\n              0x01\n                /* \"v2-core-master/contracts/XeleronFactory_flattened.sol\":11885:11893  unlocked */\n              0x0c\n                /* \"v2-core-master/contracts/XeleronFactory_flattened.sol\":11885:11897  unlocked = 1 */\n              dup2\n              swap1\n              sstore\n              pop\n                /* \"v2-core-master/contracts/XeleronFactory_flattened.sol\":16410:17852  function burn(address to) external lock returns (uint amount0, uint amount1) {... */\n              swap2\n              pop\n              swap2\n              jump\t// out\n                /* \"v2-core-master/contracts/XeleronFactory_flattened.sol\":4431:4468  string public constant symbol = 'XLR' */\n            tag_89:\n              mload(0x40)\n              dup1\n              0x40\n              add\n              0x40\n              mstore\n              dup1\n              0x03\n              dup2\n              mstore\n              0x20\n              add\n              0x584c520000000000000000000000000000000000000000000000000000000000\n              dup2\n              mstore\n              pop\n              dup2\n              jump\t// out\n                /* \"v2-core-master/contracts/XeleronFactory_flattened.sol\":6523:6659  function transfer(address to, uint value) external returns (bool) {... */\n            tag_96:\n                /* \"v2-core-master/contracts/XeleronFactory_flattened.sol\":6583:6587  bool */\n              0x00\n                /* \"v2-core-master/contracts/XeleronFactory_flattened.sol\":6599:6631  _transfer(msg.sender, to, value) */\n              tag_160\n                /* \"v2-core-master/contracts/XeleronFactory_flattened.sol\":6609:6619  msg.sender */\n              caller\n                /* \"v2-core-master/contracts/XeleronFactory_flattened.sol\":6621:6623  to */\n              dup5\n                /* \"v2-core-master/contracts/XeleronFactory_flattened.sol\":6625:6630  value */\n              dup5\n                /* \"v2-core-master/contracts/XeleronFactory_flattened.sol\":6599:6608  _transfer */\n              tag_166\n                /* \"v2-core-master/contracts/XeleronFactory_flattened.sol\":6599:6631  _transfer(msg.sender, to, value) */\n              jump\t// in\n                /* \"v2-core-master/contracts/XeleronFactory_flattened.sol\":11045:11091  uint public constant MINIMUM_LIQUIDITY = 10**3 */\n            tag_98:\n                /* \"v2-core-master/contracts/XeleronFactory_flattened.sol\":11086:11091  10**3 */\n              0x03e8\n                /* \"v2-core-master/contracts/XeleronFactory_flattened.sol\":11045:11091  uint public constant MINIMUM_LIQUIDITY = 10**3 */\n              dup2\n              jump\t// out\n                /* \"v2-core-master/contracts/XeleronFactory_flattened.sol\":19854:20183  function skim(address to) external lock {... */\n            tag_101:\n                /* \"v2-core-master/contracts/XeleronFactory_flattened.sol\":11809:11817  unlocked */\n              sload(0x0c)\n                /* \"v2-core-master/contracts/XeleronFactory_flattened.sol\":11821:11822  1 */\n              0x01\n                /* \"v2-core-master/contracts/XeleronFactory_flattened.sol\":11809:11822  unlocked == 1 */\n              eq\n                /* \"v2-core-master/contracts/XeleronFactory_flattened.sol\":11801:11842  require(unlocked == 1, 'Xeleron: LOCKED') */\n              tag_235\n              jumpi\n              0x40\n              dup1\n              mload\n              0x08c379a000000000000000000000000000000000000000000000000000000000\n              dup2\n              mstore\n              0x20\n              0x04\n              dup3\n              add\n              mstore\n              0x0f\n              0x24\n              dup3\n              add\n              mstore\n              0x58656c65726f6e3a204c4f434b45440000000000000000000000000000000000\n              0x44\n              dup3\n              add\n              mstore\n              swap1\n              mload\n              swap1\n              dup2\n              swap1\n              sub\n              0x64\n              add\n              swap1\n              revert\n            tag_235:\n                /* \"v2-core-master/contracts/XeleronFactory_flattened.sol\":11863:11864  0 */\n              0x00\n                /* \"v2-core-master/contracts/XeleronFactory_flattened.sol\":11852:11860  unlocked */\n              0x0c\n                /* \"v2-core-master/contracts/XeleronFactory_flattened.sol\":11852:11864  unlocked = 0 */\n              sstore\n                /* \"v2-core-master/contracts/XeleronFactory_flattened.sol\":19922:19928  token0 */\n              sload(0x06)\n                /* \"v2-core-master/contracts/XeleronFactory_flattened.sol\":19971:19977  token1 */\n              sload(0x07)\n                /* \"v2-core-master/contracts/XeleronFactory_flattened.sol\":20074:20082  reserve0 */\n              sload(0x08)\n                /* \"v2-core-master/contracts/XeleronFactory_flattened.sol\":20029:20069  IERC20(_token0).balanceOf(address(this)) */\n              0x40\n              dup1\n              mload\n              0x70a0823100000000000000000000000000000000000000000000000000000000\n              dup2\n              mstore\n                /* \"v2-core-master/contracts/XeleronFactory_flattened.sol\":20063:20067  this */\n              address\n                /* \"v2-core-master/contracts/XeleronFactory_flattened.sol\":20029:20069  IERC20(_token0).balanceOf(address(this)) */\n              0x04\n              dup3\n              add\n              mstore\n              swap1\n              mload\n                /* \"v2-core-master/contracts/XeleronFactory_flattened.sol\":19922:19928  token0 */\n              0xffffffffffffffffffffffffffffffffffffffff\n              swap5\n              dup6\n              and\n              swap5\n                /* \"v2-core-master/contracts/XeleronFactory_flattened.sol\":19971:19977  token1 */\n              swap1\n              swap4\n              and\n              swap3\n                /* \"v2-core-master/contracts/XeleronFactory_flattened.sol\":20002:20084  _safeTransfer(_token0, to, IERC20(_token0).balanceOf(address(this)).sub(reserve0)) */\n              tag_237\n              swap3\n                /* \"v2-core-master/contracts/XeleronFactory_flattened.sol\":19922:19928  token0 */\n              dup6\n              swap3\n                /* \"v2-core-master/contracts/XeleronFactory_flattened.sol\":20025:20027  to */\n              dup8\n              swap3\n                /* \"v2-core-master/contracts/XeleronFactory_flattened.sol\":20029:20083  IERC20(_token0).balanceOf(address(this)).sub(reserve0) */\n              tag_238\n              swap3\n                /* \"v2-core-master/contracts/XeleronFactory_flattened.sol\":20074:20082  reserve0 */\n              0xffffffffffffffffffffffffffff\n              and\n              swap2\n                /* \"v2-core-master/contracts/XeleronFactory_flattened.sol\":19922:19928  token0 */\n              dup6\n              swap2\n                /* \"v2-core-master/contracts/XeleronFactory_flattened.sol\":20029:20054  IERC20(_token0).balanceOf */\n              0x70a08231\n              swap2\n                /* \"v2-core-master/contracts/XeleronFactory_flattened.sol\":20029:20069  IERC20(_token0).balanceOf(address(this)) */\n              0x24\n              dup1\n              dup3\n              add\n              swap3\n              0x20\n              swap3\n              swap1\n              swap2\n              swap1\n              dup3\n              swap1\n              sub\n              add\n              dup2\n                /* \"v2-core-master/contracts/XeleronFactory_flattened.sol\":19922:19928  token0 */\n              dup7\n                /* \"v2-core-master/contracts/XeleronFactory_flattened.sol\":20029:20069  IERC20(_token0).balanceOf(address(this)) */\n              dup1\n              extcodesize\n              iszero\n                /* \"--CODEGEN--\":5:7   */\n              dup1\n              iszero\n              tag_239\n              jumpi\n                /* \"--CODEGEN--\":30:31   */\n              0x00\n                /* \"--CODEGEN--\":27:28   */\n              dup1\n                /* \"--CODEGEN--\":20:32   */\n              revert\n                /* \"--CODEGEN--\":5:7   */\n            tag_239:\n                /* \"v2-core-master/contracts/XeleronFactory_flattened.sol\":20029:20069  IERC20(_token0).balanceOf(address(this)) */\n              pop\n              gas\n              staticcall\n              iszero\n                /* \"--CODEGEN--\":8:17   */\n              dup1\n                /* \"--CODEGEN--\":5:7   */\n              iszero\n              tag_240\n              jumpi\n                /* \"--CODEGEN--\":45:61   */\n              returndatasize\n                /* \"--CODEGEN--\":42:43   */\n              0x00\n                /* \"--CODEGEN--\":39:40   */\n              dup1\n                /* \"--CODEGEN--\":24:62   */\n              returndatacopy\n                /* \"--CODEGEN--\":77:93   */\n              returndatasize\n                /* \"--CODEGEN--\":74:75   */\n              0x00\n                /* \"--CODEGEN--\":67:94   */\n              revert\n                /* \"--CODEGEN--\":5:7   */\n            tag_240:\n                /* \"v2-core-master/contracts/XeleronFactory_flattened.sol\":20029:20069  IERC20(_token0).balanceOf(address(this)) */\n              pop\n              pop\n              pop\n              pop\n              mload(0x40)\n              returndatasize\n                /* \"--CODEGEN--\":13:15   */\n              0x20\n                /* \"--CODEGEN--\":8:11   */\n              dup2\n                /* \"--CODEGEN--\":5:16   */\n              lt\n                /* \"--CODEGEN--\":2:4   */\n              iszero\n              tag_241\n              jumpi\n                /* \"--CODEGEN--\":29:30   */\n              0x00\n                /* \"--CODEGEN--\":26:27   */\n              dup1\n                /* \"--CODEGEN--\":19:31   */\n              revert\n                /* \"--CODEGEN--\":2:4   */\n            tag_241:\n              pop\n                /* \"v2-core-master/contracts/XeleronFactory_flattened.sol\":20029:20069  IERC20(_token0).balanceOf(address(this)) */\n              mload\n              swap1\n                /* \"v2-core-master/contracts/XeleronFactory_flattened.sol\":20029:20083  IERC20(_token0).balanceOf(address(this)).sub(reserve0) */\n              0xffffffff\n                /* \"v2-core-master/contracts/XeleronFactory_flattened.sol\":20029:20073  IERC20(_token0).balanceOf(address(this)).sub */\n              tag_148\n                /* \"v2-core-master/contracts/XeleronFactory_flattened.sol\":20029:20083  IERC20(_token0).balanceOf(address(this)).sub(reserve0) */\n              and\n              jump\t// in\n            tag_238:\n                /* \"v2-core-master/contracts/XeleronFactory_flattened.sol\":20002:20015  _safeTransfer */\n              tag_126\n                /* \"v2-core-master/contracts/XeleronFactory_flattened.sol\":20002:20084  _safeTransfer(_token0, to, IERC20(_token0).balanceOf(address(this)).sub(reserve0)) */\n              jump\t// in\n            tag_237:\n                /* \"v2-core-master/contracts/XeleronFactory_flattened.sol\":20166:20174  reserve1 */\n              sload(0x08)\n                /* \"v2-core-master/contracts/XeleronFactory_flattened.sol\":20121:20161  IERC20(_token1).balanceOf(address(this)) */\n              0x40\n              dup1\n              mload\n              0x70a0823100000000000000000000000000000000000000000000000000000000\n              dup2\n              mstore\n                /* \"v2-core-master/contracts/XeleronFactory_flattened.sol\":20155:20159  this */\n              address\n                /* \"v2-core-master/contracts/XeleronFactory_flattened.sol\":20121:20161  IERC20(_token1).balanceOf(address(this)) */\n              0x04\n              dup3\n              add\n              mstore\n              swap1\n              mload\n                /* \"v2-core-master/contracts/XeleronFactory_flattened.sol\":20094:20176  _safeTransfer(_token1, to, IERC20(_token1).balanceOf(address(this)).sub(reserve1)) */\n              tag_242\n              swap3\n                /* \"v2-core-master/contracts/XeleronFactory_flattened.sol\":20108:20115  _token1 */\n              dup5\n              swap3\n                /* \"v2-core-master/contracts/XeleronFactory_flattened.sol\":20117:20119  to */\n              dup8\n              swap3\n                /* \"v2-core-master/contracts/XeleronFactory_flattened.sol\":20121:20175  IERC20(_token1).balanceOf(address(this)).sub(reserve1) */\n              tag_238\n              swap3\n                /* \"v2-core-master/contracts/XeleronFactory_flattened.sol\":20166:20174  reserve1 */\n              0x010000000000000000000000000000\n              swap1\n              div\n              0xffffffffffffffffffffffffffff\n              and\n              swap2\n                /* \"v2-core-master/contracts/XeleronFactory_flattened.sol\":20121:20146  IERC20(_token1).balanceOf */\n              0xffffffffffffffffffffffffffffffffffffffff\n              dup7\n              and\n              swap2\n              0x70a08231\n              swap2\n                /* \"v2-core-master/contracts/XeleronFactory_flattened.sol\":20121:20161  IERC20(_token1).balanceOf(address(this)) */\n              0x24\n              dup1\n              dup3\n              add\n              swap3\n              0x20\n              swap3\n              swap1\n              swap2\n              swap1\n              dup3\n              swap1\n              sub\n              add\n              dup2\n                /* \"v2-core-master/contracts/XeleronFactory_flattened.sol\":20121:20146  IERC20(_token1).balanceOf */\n              dup7\n                /* \"v2-core-master/contracts/XeleronFactory_flattened.sol\":20121:20161  IERC20(_token1).balanceOf(address(this)) */\n              dup1\n              extcodesize\n              iszero\n                /* \"--CODEGEN--\":5:7   */\n              dup1\n              iszero\n              tag_239\n              jumpi\n                /* \"--CODEGEN--\":30:31   */\n              0x00\n                /* \"--CODEGEN--\":27:28   */\n              dup1\n                /* \"--CODEGEN--\":20:32   */\n              revert\n                /* \"v2-core-master/contracts/XeleronFactory_flattened.sol\":20094:20176  _safeTransfer(_token1, to, IERC20(_token1).balanceOf(address(this)).sub(reserve1)) */\n            tag_242:\n              pop\n              pop\n                /* \"v2-core-master/contracts/XeleronFactory_flattened.sol\":11896:11897  1 */\n              0x01\n                /* \"v2-core-master/contracts/XeleronFactory_flattened.sol\":11885:11893  unlocked */\n              0x0c\n                /* \"v2-core-master/contracts/XeleronFactory_flattened.sol\":11885:11897  unlocked = 1 */\n              sstore\n              pop\n                /* \"v2-core-master/contracts/XeleronFactory_flattened.sol\":19854:20183  function skim(address to) external lock {... */\n              jump\t// out\n                /* \"v2-core-master/contracts/XeleronFactory_flattened.sol\":11192:11214  address public factory */\n            tag_103:\n              and(0xffffffffffffffffffffffffffffffffffffffff, sload(0x05))\n              dup2\n              jump\t// out\n                /* \"v2-core-master/contracts/XeleronFactory_flattened.sol\":11247:11268  address public token1 */\n            tag_105:\n              and(0xffffffffffffffffffffffffffffffffffffffff, sload(0x07))\n              dup2\n              jump\t// out\n                /* \"v2-core-master/contracts/XeleronFactory_flattened.sol\":6966:7624  function permit(address owner, address spender, uint value, uint deadline, uint8 v, bytes32 r, bytes32 s) external {... */\n            tag_108:\n                /* \"v2-core-master/contracts/XeleronFactory_flattened.sol\":7111:7126  block.timestamp */\n              timestamp\n                /* \"v2-core-master/contracts/XeleronFactory_flattened.sol\":7099:7107  deadline */\n              dup5\n                /* \"v2-core-master/contracts/XeleronFactory_flattened.sol\":7099:7126  deadline >= block.timestamp */\n              lt\n              iszero\n                /* \"v2-core-master/contracts/XeleronFactory_flattened.sol\":7091:7147  require(deadline >= block.timestamp, 'Xeleron: EXPIRED') */\n              tag_248\n              jumpi\n              0x40\n              dup1\n              mload\n              0x08c379a000000000000000000000000000000000000000000000000000000000\n              dup2\n              mstore\n              0x20\n              0x04\n              dup3\n              add\n              mstore\n              0x10\n              0x24\n              dup3\n              add\n              mstore\n              0x58656c65726f6e3a204558504952454400000000000000000000000000000000\n              0x44\n              dup3\n              add\n              mstore\n              swap1\n              mload\n              swap1\n              dup2\n              swap1\n              sub\n              0x64\n              add\n              swap1\n              revert\n            tag_248:\n                /* \"v2-core-master/contracts/XeleronFactory_flattened.sol\":7259:7275  DOMAIN_SEPARATOR */\n              sload(0x03)\n                /* \"v2-core-master/contracts/XeleronFactory_flattened.sol\":7354:7367  nonces[owner] */\n              0xffffffffffffffffffffffffffffffffffffffff\n              dup1\n              dup10\n              and\n                /* \"v2-core-master/contracts/XeleronFactory_flattened.sol\":7157:7171  bytes32 digest */\n              0x00\n                /* \"v2-core-master/contracts/XeleronFactory_flattened.sol\":7354:7367  nonces[owner] */\n              dup2\n              dup2\n              mstore\n                /* \"v2-core-master/contracts/XeleronFactory_flattened.sol\":7354:7360  nonces */\n              0x04\n                /* \"v2-core-master/contracts/XeleronFactory_flattened.sol\":7354:7367  nonces[owner] */\n              0x20\n              swap1\n              dup2\n              mstore\n              0x40\n              dup1\n              dup4\n              keccak256\n                /* \"v2-core-master/contracts/XeleronFactory_flattened.sol\":7354:7369  nonces[owner]++ */\n              dup1\n              sload\n              0x01\n              dup1\n              dup3\n              add\n              swap1\n              swap3\n              sstore\n                /* \"v2-core-master/contracts/XeleronFactory_flattened.sol\":7303:7380  abi.encode(PERMIT_TYPEHASH, owner, spender, value, nonces[owner]++, deadline) */\n              dup3\n              mload\n                /* \"v2-core-master/contracts/XeleronFactory_flattened.sol\":4843:4909  0x6e71edae12b1b97f4d1f60370fef10105fa2faae0126114a169c64845d6126c9 */\n              0x6e71edae12b1b97f4d1f60370fef10105fa2faae0126114a169c64845d6126c9\n                /* \"v2-core-master/contracts/XeleronFactory_flattened.sol\":7303:7380  abi.encode(PERMIT_TYPEHASH, owner, spender, value, nonces[owner]++, deadline) */\n              dup2\n              dup7\n              add\n              mstore\n              dup1\n              dup5\n              add\n              swap7\n              swap1\n              swap7\n              mstore\n              swap6\n              dup14\n              and\n              0x60\n              dup7\n              add\n              mstore\n              0x80\n              dup6\n              add\n              dup13\n              swap1\n              mstore\n              0xa0\n              dup6\n              add\n              swap6\n              swap1\n              swap6\n              mstore\n              0xc0\n              dup1\n              dup6\n              add\n              dup12\n              swap1\n              mstore\n              dup2\n              mload\n                /* \"--CODEGEN--\":26:47   */\n              dup1\n              dup7\n              sub\n                /* \"--CODEGEN--\":22:54   */\n              swap1\n              swap2\n              add\n                /* \"--CODEGEN--\":6:55   */\n              dup2\n              mstore\n                /* \"v2-core-master/contracts/XeleronFactory_flattened.sol\":7303:7380  abi.encode(PERMIT_TYPEHASH, owner, spender, value, nonces[owner]++, deadline) */\n              0xe0\n              dup6\n              add\n              dup3\n              mstore\n                /* \"v2-core-master/contracts/XeleronFactory_flattened.sol\":7293:7381  keccak256(abi.encode(PERMIT_TYPEHASH, owner, spender, value, nonces[owner]++, deadline)) */\n              dup1\n              mload\n              swap1\n              dup4\n              add\n              keccak256\n                /* \"v2-core-master/contracts/XeleronFactory_flattened.sol\":7197:7395  abi.encodePacked(... */\n              0x1901000000000000000000000000000000000000000000000000000000000000\n              0x0100\n              dup7\n              add\n              mstore\n              0x0102\n              dup6\n              add\n              swap7\n              swap1\n              swap7\n              mstore\n              0x0122\n              dup1\n              dup6\n              add\n              swap7\n              swap1\n              swap7\n              mstore\n              dup1\n              mload\n                /* \"--CODEGEN--\":26:47   */\n              dup1\n              dup6\n              sub\n                /* \"--CODEGEN--\":22:54   */\n              swap1\n              swap7\n              add\n                /* \"--CODEGEN--\":6:55   */\n              dup7\n              mstore\n                /* \"v2-core-master/contracts/XeleronFactory_flattened.sol\":7197:7395  abi.encodePacked(... */\n              0x0142\n              dup5\n              add\n              dup1\n              dup3\n              mstore\n                /* \"v2-core-master/contracts/XeleronFactory_flattened.sol\":7174:7405  keccak256(... */\n              dup7\n              mload\n              swap7\n              dup4\n              add\n              swap7\n              swap1\n              swap7\n              keccak256\n                /* \"v2-core-master/contracts/XeleronFactory_flattened.sol\":7442:7468  ecrecover(digest, v, r, s) */\n              swap6\n              dup4\n              swap1\n              mstore\n              0x0162\n              dup5\n              add\n              dup1\n              dup3\n              mstore\n              dup7\n              swap1\n              mstore\n              0xff\n              dup10\n              and\n              0x0182\n              dup6\n              add\n              mstore\n              0x01a2\n              dup5\n              add\n              dup9\n              swap1\n              mstore\n              0x01c2\n              dup5\n              add\n              dup8\n              swap1\n              mstore\n              mload\n                /* \"v2-core-master/contracts/XeleronFactory_flattened.sol\":7157:7171  bytes32 digest */\n              swap2\n              swap4\n                /* \"v2-core-master/contracts/XeleronFactory_flattened.sol\":7354:7369  nonces[owner]++ */\n              swap3\n                /* \"v2-core-master/contracts/XeleronFactory_flattened.sol\":7442:7468  ecrecover(digest, v, r, s) */\n              0x01e2\n              dup1\n              dup3\n              add\n              swap4\n              0xffffffffffffffffffffffffffffffffffffffffffffffffffffffffffffffe0\n              dup2\n              add\n              swap3\n              dup2\n              swap1\n              sub\n              swap1\n              swap2\n              add\n              swap1\n                /* \"v2-core-master/contracts/XeleronFactory_flattened.sol\":7354:7369  nonces[owner]++ */\n              dup6\n                /* \"v2-core-master/contracts/XeleronFactory_flattened.sol\":7442:7468  ecrecover(digest, v, r, s) */\n              gas\n              staticcall\n              iszero\n                /* \"--CODEGEN--\":8:17   */\n              dup1\n                /* \"--CODEGEN--\":5:7   */\n              iszero\n              tag_249\n              jumpi\n                /* \"--CODEGEN--\":45:61   */\n              returndatasize\n                /* \"--CODEGEN--\":42:43   */\n              0x00\n                /* \"--CODEGEN--\":39:40   */\n              dup1\n                /* \"--CODEGEN--\":24:62   */\n              returndatacopy\n                /* \"--CODEGEN--\":77:93   */\n              returndatasize\n                /* \"--CODEGEN--\":74:75   */\n              0x00\n                /* \"--CODEGEN--\":67:94   */\n              revert\n                /* \"--CODEGEN--\":5:7   */\n            tag_249:\n              pop\n              pop\n                /* \"v2-core-master/contracts/XeleronFactory_flattened.sol\":7442:7468  ecrecover(digest, v, r, s) */\n              mload(add(0xffffffffffffffffffffffffffffffffffffffffffffffffffffffffffffffe0, mload(0x40)))\n              swap2\n              pop\n              pop\n                /* \"v2-core-master/contracts/XeleronFactory_flattened.sol\":7486:7516  recoveredAddress != address(0) */\n              0xffffffffffffffffffffffffffffffffffffffff\n              dup2\n              and\n              iszero\n              dup1\n              iszero\n              swap1\n                /* \"v2-core-master/contracts/XeleronFactory_flattened.sol\":7486:7545  recoveredAddress != address(0) && recoveredAddress == owner */\n              tag_250\n              jumpi\n              pop\n                /* \"v2-core-master/contracts/XeleronFactory_flattened.sol\":7540:7545  owner */\n              dup9\n                /* \"v2-core-master/contracts/XeleronFactory_flattened.sol\":7520:7545  recoveredAddress == owner */\n              0xffffffffffffffffffffffffffffffffffffffff\n              and\n                /* \"v2-core-master/contracts/XeleronFactory_flattened.sol\":7520:7536  recoveredAddress */\n              dup2\n                /* \"v2-core-master/contracts/XeleronFactory_flattened.sol\":7520:7545  recoveredAddress == owner */\n              0xffffffffffffffffffffffffffffffffffffffff\n              and\n              eq\n                /* \"v2-core-master/contracts/XeleronFactory_flattened.sol\":7486:7545  recoveredAddress != address(0) && recoveredAddress == owner */\n            tag_250:\n                /* \"v2-core-master/contracts/XeleronFactory_flattened.sol\":7478:7576  require(recoveredAddress != address(0) && recoveredAddress == owner, 'Xeleron: INVALID_SIGNATURE') */\n              tag_251\n              jumpi\n              0x40\n              dup1\n              mload\n              0x08c379a000000000000000000000000000000000000000000000000000000000\n              dup2\n              mstore\n              0x20\n              0x04\n              dup3\n              add\n              mstore\n              0x1a\n              0x24\n              dup3\n              add\n              mstore\n              0x58656c65726f6e3a20494e56414c49445f5349474e4154555245000000000000\n              0x44\n              dup3\n              add\n              mstore\n              swap1\n              mload\n              swap1\n              dup2\n              swap1\n              sub\n              0x64\n              add\n              swap1\n              revert\n            tag_251:\n                /* \"v2-core-master/contracts/XeleronFactory_flattened.sol\":7586:7617  _approve(owner, spender, value) */\n              tag_252\n                /* \"v2-core-master/contracts/XeleronFactory_flattened.sol\":7595:7600  owner */\n              dup10\n                /* \"v2-core-master/contracts/XeleronFactory_flattened.sol\":7602:7609  spender */\n              dup10\n                /* \"v2-core-master/contracts/XeleronFactory_flattened.sol\":7611:7616  value */\n              dup10\n                /* \"v2-core-master/contracts/XeleronFactory_flattened.sol\":7586:7594  _approve */\n              tag_161\n                /* \"v2-core-master/contracts/XeleronFactory_flattened.sol\":7586:7617  _approve(owner, spender, value) */\n              jump\t// in\n            tag_252:\n                /* \"v2-core-master/contracts/XeleronFactory_flattened.sol\":6966:7624  function permit(address owner, address spender, uint value, uint deadline, uint8 v, bytes32 r, bytes32 s) external {... */\n              pop\n              pop\n              pop\n              pop\n              pop\n              pop\n              pop\n              pop\n              pop\n              jump\t// out\n                /* \"v2-core-master/contracts/XeleronFactory_flattened.sol\":4592:4653  mapping(address => mapping(address => uint)) public allowance */\n            tag_111:\n              0x02\n              0x20\n              swap1\n              dup2\n              mstore\n              0x00\n              swap3\n              dup4\n              mstore\n              0x40\n              dup1\n              dup5\n              keccak256\n              swap1\n              swap2\n              mstore\n              swap1\n              dup3\n              mstore\n              swap1\n              keccak256\n              sload\n              dup2\n              jump\t// out\n                /* \"v2-core-master/contracts/XeleronFactory_flattened.sol\":20229:20385  function sync() external lock {... */\n            tag_113:\n                /* \"v2-core-master/contracts/XeleronFactory_flattened.sol\":11809:11817  unlocked */\n              sload(0x0c)\n                /* \"v2-core-master/contracts/XeleronFactory_flattened.sol\":11821:11822  1 */\n              0x01\n                /* \"v2-core-master/contracts/XeleronFactory_flattened.sol\":11809:11822  unlocked == 1 */\n              eq\n                /* \"v2-core-master/contracts/XeleronFactory_flattened.sol\":11801:11842  require(unlocked == 1, 'Xeleron: LOCKED') */\n              tag_254\n              jumpi\n              0x40\n              dup1\n              mload\n              0x08c379a000000000000000000000000000000000000000000000000000000000\n              dup2\n              mstore\n              0x20\n              0x04\n              dup3\n              add\n              mstore\n              0x0f\n              0x24\n              dup3\n              add\n              mstore\n              0x58656c65726f6e3a204c4f434b45440000000000000000000000000000000000\n              0x44\n              dup3\n              add\n              mstore\n              swap1\n              mload\n              swap1\n              dup2\n              swap1\n              sub\n              0x64\n              add\n              swap1\n              revert\n            tag_254:\n                /* \"v2-core-master/contracts/XeleronFactory_flattened.sol\":11863:11864  0 */\n              0x00\n                /* \"v2-core-master/contracts/XeleronFactory_flattened.sol\":11852:11860  unlocked */\n              0x0c\n                /* \"v2-core-master/contracts/XeleronFactory_flattened.sol\":11852:11864  unlocked = 0 */\n              sstore\n                /* \"v2-core-master/contracts/XeleronFactory_flattened.sol\":20284:20290  token0 */\n              sload(0x06)\n                /* \"v2-core-master/contracts/XeleronFactory_flattened.sol\":20277:20316  IERC20(token0).balanceOf(address(this)) */\n              0x40\n              dup1\n              mload\n              0x70a0823100000000000000000000000000000000000000000000000000000000\n              dup2\n              mstore\n                /* \"v2-core-master/contracts/XeleronFactory_flattened.sol\":20310:20314  this */\n              address\n                /* \"v2-core-master/contracts/XeleronFactory_flattened.sol\":20277:20316  IERC20(token0).balanceOf(address(this)) */\n              0x04\n              dup3\n              add\n              mstore\n              swap1\n              mload\n                /* \"v2-core-master/contracts/XeleronFactory_flattened.sol\":20269:20378  _update(IERC20(token0).balanceOf(address(this)), IERC20(token1).balanceOf(address(this)), reserve0, reserve1) */\n              tag_256\n              swap3\n                /* \"v2-core-master/contracts/XeleronFactory_flattened.sol\":20284:20290  token0 */\n              0xffffffffffffffffffffffffffffffffffffffff\n              and\n              swap2\n                /* \"v2-core-master/contracts/XeleronFactory_flattened.sol\":20277:20301  IERC20(token0).balanceOf */\n              0x70a08231\n              swap2\n                /* \"v2-core-master/contracts/XeleronFactory_flattened.sol\":20277:20316  IERC20(token0).balanceOf(address(this)) */\n              0x24\n              dup1\n              dup4\n              add\n              swap3\n              0x20\n              swap3\n              swap2\n              swap1\n              dup3\n              swap1\n              sub\n              add\n              dup2\n                /* \"v2-core-master/contracts/XeleronFactory_flattened.sol\":20284:20290  token0 */\n              dup7\n                /* \"v2-core-master/contracts/XeleronFactory_flattened.sol\":20277:20316  IERC20(token0).balanceOf(address(this)) */\n              dup1\n              extcodesize\n              iszero\n                /* \"--CODEGEN--\":5:7   */\n              dup1\n              iszero\n              tag_257\n              jumpi\n                /* \"--CODEGEN--\":30:31   */\n              0x00\n                /* \"--CODEGEN--\":27:28   */\n              dup1\n                /* \"--CODEGEN--\":20:32   */\n              revert\n                /* \"--CODEGEN--\":5:7   */\n            tag_257:\n                /* \"v2-core-master/contracts/XeleronFactory_flattened.sol\":20277:20316  IERC20(token0).balanceOf(address(this)) */\n              pop\n              gas\n              staticcall\n              iszero\n                /* \"--CODEGEN--\":8:17   */\n              dup1\n                /* \"--CODEGEN--\":5:7   */\n              iszero\n              tag_258\n              jumpi\n                /* \"--CODEGEN--\":45:61   */\n              returndatasize\n                /* \"--CODEGEN--\":42:43   */\n              0x00\n                /* \"--CODEGEN--\":39:40   */\n              dup1\n                /* \"--CODEGEN--\":24:62   */\n              returndatacopy\n                /* \"--CODEGEN--\":77:93   */\n              returndatasize\n                /* \"--CODEGEN--\":74:75   */\n              0x00\n                /* \"--CODEGEN--\":67:94   */\n              revert\n                /* \"--CODEGEN--\":5:7   */\n            tag_258:\n                /* \"v2-core-master/contracts/XeleronFactory_flattened.sol\":20277:20316  IERC20(token0).balanceOf(address(this)) */\n              pop\n              pop\n              pop\n              pop\n              mload(0x40)\n              returndatasize\n                /* \"--CODEGEN--\":13:15   */\n              0x20\n                /* \"--CODEGEN--\":8:11   */\n              dup2\n                /* \"--CODEGEN--\":5:16   */\n              lt\n                /* \"--CODEGEN--\":2:4   */\n              iszero\n              tag_259\n              jumpi\n                /* \"--CODEGEN--\":29:30   */\n              0x00\n                /* \"--CODEGEN--\":26:27   */\n              dup1\n                /* \"--CODEGEN--\":19:31   */\n              revert\n                /* \"--CODEGEN--\":2:4   */\n            tag_259:\n              pop\n                /* \"v2-core-master/contracts/XeleronFactory_flattened.sol\":20277:20316  IERC20(token0).balanceOf(address(this)) */\n              mload\n                /* \"v2-core-master/contracts/XeleronFactory_flattened.sol\":20325:20331  token1 */\n              sload(0x07)\n                /* \"v2-core-master/contracts/XeleronFactory_flattened.sol\":20318:20357  IERC20(token1).balanceOf(address(this)) */\n              0x40\n              dup1\n              mload\n              0x70a0823100000000000000000000000000000000000000000000000000000000\n              dup2\n              mstore\n                /* \"v2-core-master/contracts/XeleronFactory_flattened.sol\":20351:20355  this */\n              address\n                /* \"v2-core-master/contracts/XeleronFactory_flattened.sol\":20318:20357  IERC20(token1).balanceOf(address(this)) */\n              0x04\n              dup3\n              add\n              mstore\n              swap1\n              mload\n                /* \"v2-core-master/contracts/XeleronFactory_flattened.sol\":20325:20331  token1 */\n              0xffffffffffffffffffffffffffffffffffffffff\n              swap1\n              swap3\n              and\n              swap2\n                /* \"v2-core-master/contracts/XeleronFactory_flattened.sol\":20318:20342  IERC20(token1).balanceOf */\n              0x70a08231\n              swap2\n                /* \"v2-core-master/contracts/XeleronFactory_flattened.sol\":20318:20357  IERC20(token1).balanceOf(address(this)) */\n              0x24\n              dup1\n              dup3\n              add\n              swap3\n                /* \"v2-core-master/contracts/XeleronFactory_flattened.sol\":20277:20316  IERC20(token0).balanceOf(address(this)) */\n              0x20\n              swap3\n                /* \"v2-core-master/contracts/XeleronFactory_flattened.sol\":20318:20357  IERC20(token1).balanceOf(address(this)) */\n              swap1\n              swap2\n              swap1\n              dup3\n              swap1\n              sub\n              add\n              dup2\n                /* \"v2-core-master/contracts/XeleronFactory_flattened.sol\":20325:20331  token1 */\n              dup7\n                /* \"v2-core-master/contracts/XeleronFactory_flattened.sol\":20318:20357  IERC20(token1).balanceOf(address(this)) */\n              dup1\n              extcodesize\n              iszero\n                /* \"--CODEGEN--\":5:7   */\n              dup1\n              iszero\n              tag_260\n              jumpi\n                /* \"--CODEGEN--\":30:31   */\n              0x00\n                /* \"--CODEGEN--\":27:28   */\n              dup1\n                /* \"--CODEGEN--\":20:32   */\n              revert\n                /* \"--CODEGEN--\":5:7   */\n            tag_260:\n                /* \"v2-core-master/contracts/XeleronFactory_flattened.sol\":20318:20357  IERC20(token1).balanceOf(address(this)) */\n              pop\n              gas\n              staticcall\n              iszero\n                /* \"--CODEGEN--\":8:17   */\n              dup1\n                /* \"--CODEGEN--\":5:7   */\n              iszero\n              tag_261\n              jumpi\n                /* \"--CODEGEN--\":45:61   */\n              returndatasize\n                /* \"--CODEGEN--\":42:43   */\n              0x00\n                /* \"--CODEGEN--\":39:40   */\n              dup1\n                /* \"--CODEGEN--\":24:62   */\n              returndatacopy\n                /* \"--CODEGEN--\":77:93   */\n              returndatasize\n                /* \"--CODEGEN--\":74:75   */\n              0x00\n                /* \"--CODEGEN--\":67:94   */\n              revert\n                /* \"--CODEGEN--\":5:7   */\n            tag_261:\n                /* \"v2-core-master/contracts/XeleronFactory_flattened.sol\":20318:20357  IERC20(token1).balanceOf(address(this)) */\n              pop\n              pop\n              pop\n              pop\n              mload(0x40)\n              returndatasize\n                /* \"--CODEGEN--\":13:15   */\n              0x20\n                /* \"--CODEGEN--\":8:11   */\n              dup2\n                /* \"--CODEGEN--\":5:16   */\n              lt\n                /* \"--CODEGEN--\":2:4   */\n              iszero\n              tag_262\n              jumpi\n                /* \"--CODEGEN--\":29:30   */\n              0x00\n                /* \"--CODEGEN--\":26:27   */\n              dup1\n                /* \"--CODEGEN--\":19:31   */\n              revert\n                /* \"--CODEGEN--\":2:4   */\n            tag_262:\n              pop\n                /* \"v2-core-master/contracts/XeleronFactory_flattened.sol\":20318:20357  IERC20(token1).balanceOf(address(this)) */\n              mload\n                /* \"v2-core-master/contracts/XeleronFactory_flattened.sol\":20359:20367  reserve0 */\n              sload(0x08)\n              0xffffffffffffffffffffffffffff\n              dup1\n              dup3\n              and\n              swap2\n                /* \"v2-core-master/contracts/XeleronFactory_flattened.sol\":20369:20377  reserve1 */\n              0x010000000000000000000000000000\n              swap1\n              div\n              and\n                /* \"v2-core-master/contracts/XeleronFactory_flattened.sol\":20269:20276  _update */\n              tag_157\n                /* \"v2-core-master/contracts/XeleronFactory_flattened.sol\":20269:20378  _update(IERC20(token0).balanceOf(address(this)), IERC20(token1).balanceOf(address(this)), reserve0, reserve1) */\n              jump\t// in\n            tag_256:\n                /* \"v2-core-master/contracts/XeleronFactory_flattened.sol\":11896:11897  1 */\n              0x01\n                /* \"v2-core-master/contracts/XeleronFactory_flattened.sol\":11885:11893  unlocked */\n              0x0c\n                /* \"v2-core-master/contracts/XeleronFactory_flattened.sol\":11885:11897  unlocked = 1 */\n              sstore\n                /* \"v2-core-master/contracts/XeleronFactory_flattened.sol\":20229:20385  function sync() external lock {... */\n              jump\t// out\n                /* \"v2-core-master/contracts/XeleronFactory_flattened.sol\":12143:12425  function _safeTransfer(address token, address to, uint value) private {... */\n            tag_126:\n                /* \"v2-core-master/contracts/XeleronFactory_flattened.sol\":11149:11183  bytes('transfer(address,uint256)') */\n              0x40\n              dup1\n              mload\n              dup1\n              dup3\n              add\n              dup3\n              mstore\n              0x19\n              dup2\n              mstore\n              0x7472616e7366657228616464726573732c75696e743235362900000000000000\n              0x20\n              swap2\n              dup3\n              add\n              mstore\n                /* \"v2-core-master/contracts/XeleronFactory_flattened.sol\":12270:12313  abi.encodeWithSelector(SELECTOR, to, value) */\n              dup2\n              mload\n                /* \"v2-core-master/contracts/XeleronFactory_flattened.sol\":12259:12269  token.call */\n              0xffffffffffffffffffffffffffffffffffffffff\n                /* \"v2-core-master/contracts/XeleronFactory_flattened.sol\":12270:12313  abi.encodeWithSelector(SELECTOR, to, value) */\n              dup6\n              dup2\n              and\n              0x24\n              dup4\n              add\n              mstore\n              0x44\n              dup1\n              dup4\n              add\n              dup7\n              swap1\n              mstore\n              dup5\n              mload\n                /* \"--CODEGEN--\":26:47   */\n              dup1\n              dup5\n              sub\n                /* \"--CODEGEN--\":22:54   */\n              swap1\n              swap2\n              add\n                /* \"--CODEGEN--\":6:55   */\n              dup2\n              mstore\n                /* \"v2-core-master/contracts/XeleronFactory_flattened.sol\":12270:12313  abi.encodeWithSelector(SELECTOR, to, value) */\n              0x64\n              swap1\n              swap3\n              add\n              dup5\n              mstore\n                /* \"--CODEGEN--\":25:43   */\n              swap2\n              dup2\n              add\n                /* \"--CODEGEN--\":61:78   */\n              dup1\n              mload\n                /* \"v2-core-master/contracts/XeleronFactory_flattened.sol\":12270:12313  abi.encodeWithSelector(SELECTOR, to, value) */\n              0xffffffffffffffffffffffffffffffffffffffffffffffffffffffff\n                /* \"--CODEGEN--\":182:197   */\n              and\n                /* \"v2-core-master/contracts/XeleronFactory_flattened.sol\":12270:12313  abi.encodeWithSelector(SELECTOR, to, value) */\n              0xa9059cbb00000000000000000000000000000000000000000000000000000000\n                /* \"--CODEGEN--\":179:208   */\n              or\n                /* \"--CODEGEN--\":160:209   */\n              dup2\n              mstore\n                /* \"v2-core-master/contracts/XeleronFactory_flattened.sol\":12259:12314  token.call(abi.encodeWithSelector(SELECTOR, to, value)) */\n              swap3\n              mload\n              dup2\n              mload\n                /* \"v2-core-master/contracts/XeleronFactory_flattened.sol\":12224:12236  bool success */\n              0x00\n              swap5\n                /* \"v2-core-master/contracts/XeleronFactory_flattened.sol\":12238:12255  bytes memory data */\n              0x60\n              swap5\n                /* \"v2-core-master/contracts/XeleronFactory_flattened.sol\":12259:12269  token.call */\n              dup10\n              and\n              swap4\n                /* \"v2-core-master/contracts/XeleronFactory_flattened.sol\":12270:12313  abi.encodeWithSelector(SELECTOR, to, value) */\n              swap3\n                /* \"v2-core-master/contracts/XeleronFactory_flattened.sol\":12259:12314  token.call(abi.encodeWithSelector(SELECTOR, to, value)) */\n              swap2\n              dup3\n              swap2\n                /* \"--CODEGEN--\":25:43   */\n              swap1\n                /* \"v2-core-master/contracts/XeleronFactory_flattened.sol\":12259:12314  token.call(abi.encodeWithSelector(SELECTOR, to, value)) */\n              dup1\n              dup4\n                /* \"--CODEGEN--\":25:43   */\n              dup4\n                /* \"--CODEGEN--\":36:189   */\n            tag_264:\n                /* \"--CODEGEN--\":66:68   */\n              0x20\n                /* \"--CODEGEN--\":61:64   */\n              dup4\n                /* \"--CODEGEN--\":58:69   */\n              lt\n                /* \"--CODEGEN--\":36:189   */\n              tag_266\n              jumpi\n                /* \"--CODEGEN--\":176:186   */\n              dup1\n              mload\n                /* \"--CODEGEN--\":164:187   */\n              dup3\n              mstore\n                /* \"--CODEGEN--\":139:151   */\n              0xffffffffffffffffffffffffffffffffffffffffffffffffffffffffffffffe0\n              swap1\n              swap3\n              add\n              swap2\n                /* \"--CODEGEN--\":98:100   */\n              0x20\n                /* \"--CODEGEN--\":89:101   */\n              swap2\n              dup3\n              add\n              swap2\n                /* \"--CODEGEN--\":114:126   */\n              add\n                /* \"--CODEGEN--\":36:189   */\n              jump(tag_264)\n            tag_266:\n                /* \"--CODEGEN--\":274:275   */\n              0x01\n                /* \"--CODEGEN--\":267:270   */\n              dup4\n                /* \"--CODEGEN--\":263:265   */\n              0x20\n                /* \"--CODEGEN--\":259:271   */\n              sub\n                /* \"--CODEGEN--\":254:257   */\n              0x0100\n                /* \"--CODEGEN--\":250:272   */\n              exp\n                /* \"--CODEGEN--\":246:276   */\n              sub\n                /* \"--CODEGEN--\":315:319   */\n              dup1\n                /* \"--CODEGEN--\":311:320   */\n              not\n                /* \"--CODEGEN--\":305:308   */\n              dup3\n                /* \"--CODEGEN--\":299:309   */\n              mload\n                /* \"--CODEGEN--\":295:321   */\n              and\n                /* \"--CODEGEN--\":356:360   */\n              dup2\n                /* \"--CODEGEN--\":350:353   */\n              dup5\n                /* \"--CODEGEN--\":344:354   */\n              mload\n                /* \"--CODEGEN--\":340:361   */\n              and\n                /* \"--CODEGEN--\":389:396   */\n              dup1\n                /* \"--CODEGEN--\":380:387   */\n              dup3\n                /* \"--CODEGEN--\":377:397   */\n              or\n                /* \"--CODEGEN--\":372:375   */\n              dup6\n                /* \"--CODEGEN--\":365:398   */\n              mstore\n                /* \"--CODEGEN--\":3:402   */\n              pop\n              pop\n              pop\n                /* \"v2-core-master/contracts/XeleronFactory_flattened.sol\":12259:12314  token.call(abi.encodeWithSelector(SELECTOR, to, value)) */\n              pop\n              pop\n              pop\n              swap1\n              pop\n              add\n              swap2\n              pop\n              pop\n              0x00\n              mload(0x40)\n              dup1\n              dup4\n              sub\n              dup2\n              0x00\n              dup7\n              gas\n              call\n              swap2\n              pop\n              pop\n              returndatasize\n                /* \"--CODEGEN--\":14:15   */\n              dup1\n                /* \"--CODEGEN--\":21:22   */\n              0x00\n                /* \"--CODEGEN--\":16:47   */\n              dup2\n              eq\n              tag_268\n              jumpi\n                /* \"--CODEGEN--\":75:79   */\n              0x40\n                /* \"--CODEGEN--\":69:80   */\n              mload\n                /* \"--CODEGEN--\":64:80   */\n              swap2\n              pop\n                /* \"--CODEGEN--\":144:148   */\n              0x1f\n                /* \"--CODEGEN--\":140:149   */\n              not\n                /* \"--CODEGEN--\":133:137   */\n              0x3f\n                /* \"--CODEGEN--\":115:131   */\n              returndatasize\n                /* \"--CODEGEN--\":111:138   */\n              add\n                /* \"--CODEGEN--\":107:150   */\n              and\n                /* \"--CODEGEN--\":104:105   */\n              dup3\n                /* \"--CODEGEN--\":100:151   */\n              add\n                /* \"--CODEGEN--\":94:98   */\n              0x40\n                /* \"--CODEGEN--\":87:152   */\n              mstore\n                /* \"--CODEGEN--\":169:185   */\n              returndatasize\n                /* \"--CODEGEN--\":166:167   */\n              dup3\n                /* \"--CODEGEN--\":159:186   */\n              mstore\n                /* \"--CODEGEN--\":225:241   */\n              returndatasize\n                /* \"--CODEGEN--\":222:223   */\n              0x00\n                /* \"--CODEGEN--\":215:219   */\n              0x20\n                /* \"--CODEGEN--\":212:213   */\n              dup5\n                /* \"--CODEGEN--\":208:220   */\n              add\n                /* \"--CODEGEN--\":193:242   */\n              returndatacopy\n                /* \"--CODEGEN--\":7:249   */\n              jump(tag_267)\n                /* \"--CODEGEN--\":16:47   */\n            tag_268:\n                /* \"--CODEGEN--\":36:40   */\n              0x60\n                /* \"--CODEGEN--\":31:40   */\n              swap2\n              pop\n                /* \"--CODEGEN--\":7:249   */\n            tag_267:\n              pop\n                /* \"v2-core-master/contracts/XeleronFactory_flattened.sol\":12223:12314  (bool success, bytes memory data) = token.call(abi.encodeWithSelector(SELECTOR, to, value)) */\n              swap2\n              pop\n              swap2\n              pop\n                /* \"v2-core-master/contracts/XeleronFactory_flattened.sol\":12332:12339  success */\n              dup2\n                /* \"v2-core-master/contracts/XeleronFactory_flattened.sol\":12332:12389  success && (data.length == 0 || abi.decode(data, (bool))) */\n              dup1\n              iszero\n              tag_270\n              jumpi\n              pop\n                /* \"v2-core-master/contracts/XeleronFactory_flattened.sol\":12344:12355  data.length */\n              dup1\n              mload\n                /* \"v2-core-master/contracts/XeleronFactory_flattened.sol\":12344:12360  data.length == 0 */\n              iszero\n              dup1\n                /* \"v2-core-master/contracts/XeleronFactory_flattened.sol\":12344:12388  data.length == 0 || abi.decode(data, (bool)) */\n              tag_270\n              jumpi\n              pop\n                /* \"v2-core-master/contracts/XeleronFactory_flattened.sol\":12375:12379  data */\n              dup1\n                /* \"v2-core-master/contracts/XeleronFactory_flattened.sol\":12364:12388  abi.decode(data, (bool)) */\n              dup1\n              0x20\n              add\n              swap1\n              mload\n                /* \"--CODEGEN--\":13:15   */\n              0x20\n                /* \"--CODEGEN--\":8:11   */\n              dup2\n                /* \"--CODEGEN--\":5:16   */\n              lt\n                /* \"--CODEGEN--\":2:4   */\n              iszero\n              tag_271\n              jumpi\n                /* \"--CODEGEN--\":29:30   */\n              0x00\n                /* \"--CODEGEN--\":26:27   */\n              dup1\n                /* \"--CODEGEN--\":19:31   */\n              revert\n                /* \"--CODEGEN--\":2:4   */\n            tag_271:\n              pop\n                /* \"v2-core-master/contracts/XeleronFactory_flattened.sol\":12364:12388  abi.decode(data, (bool)) */\n              mload\n                /* \"v2-core-master/contracts/XeleronFactory_flattened.sol\":12344:12388  data.length == 0 || abi.decode(data, (bool)) */\n            tag_270:\n                /* \"v2-core-master/contracts/XeleronFactory_flattened.sol\":12324:12418  require(success && (data.length == 0 || abi.decode(data, (bool))), 'Xeleron: TRANSFER_FAILED') */\n              tag_272\n              jumpi\n              0x40\n              dup1\n              mload\n              0x08c379a000000000000000000000000000000000000000000000000000000000\n              dup2\n              mstore\n              0x20\n              0x04\n              dup3\n              add\n              mstore\n              0x18\n              0x24\n              dup3\n              add\n              mstore\n              0x58656c65726f6e3a205452414e534645525f4641494c45440000000000000000\n              0x44\n              dup3\n              add\n              mstore\n              swap1\n              mload\n              swap1\n              dup2\n              swap1\n              sub\n              0x64\n              add\n              swap1\n              revert\n            tag_272:\n                /* \"v2-core-master/contracts/XeleronFactory_flattened.sol\":12143:12425  function _safeTransfer(address token, address to, uint value) private {... */\n              pop\n              pop\n              pop\n              pop\n              pop\n              jump\t// out\n                /* \"v2-core-master/contracts/XeleronFactory_flattened.sol\":2876:3016  function mul(uint x, uint y) internal pure returns (uint z) {... */\n            tag_146:\n                /* \"v2-core-master/contracts/XeleronFactory_flattened.sol\":2928:2934  uint z */\n              0x00\n                /* \"v2-core-master/contracts/XeleronFactory_flattened.sol\":2954:2960  y == 0 */\n              dup2\n              iszero\n              dup1\n                /* \"v2-core-master/contracts/XeleronFactory_flattened.sol\":2954:2984  y == 0 || (z = x * y) / y == x */\n              tag_274\n              jumpi\n              pop\n              pop\n                /* \"v2-core-master/contracts/XeleronFactory_flattened.sol\":2969:2974  x * y */\n              dup1\n              dup3\n              mul\n                /* \"v2-core-master/contracts/XeleronFactory_flattened.sol\":2983:2984  x */\n              dup3\n                /* \"v2-core-master/contracts/XeleronFactory_flattened.sol\":2978:2979  y */\n              dup3\n                /* \"v2-core-master/contracts/XeleronFactory_flattened.sol\":2969:2974  x * y */\n              dup3\n                /* \"v2-core-master/contracts/XeleronFactory_flattened.sol\":2978:2979  y */\n              dup2\n                /* \"v2-core-master/contracts/XeleronFactory_flattened.sol\":2964:2979  (z = x * y) / y */\n              tag_275\n              jumpi\n              invalid\n            tag_275:\n              div\n                /* \"v2-core-master/contracts/XeleronFactory_flattened.sol\":2964:2984  (z = x * y) / y == x */\n              eq\n                /* \"v2-core-master/contracts/XeleronFactory_flattened.sol\":2954:2984  y == 0 || (z = x * y) / y == x */\n            tag_274:\n                /* \"v2-core-master/contracts/XeleronFactory_flattened.sol\":2946:3009  require(y == 0 || (z = x * y) / y == x, 'ds-math-mul-overflow') */\n              tag_159\n              jumpi\n              0x40\n              dup1\n              mload\n              0x08c379a000000000000000000000000000000000000000000000000000000000\n              dup2\n              mstore\n              0x20\n              0x04\n              dup3\n              add\n              mstore\n              0x14\n              0x24\n              dup3\n              add\n              mstore\n              0x64732d6d6174682d6d756c2d6f766572666c6f77000000000000000000000000\n              0x44\n              dup3\n              add\n              mstore\n              swap1\n              mload\n              swap1\n              dup2\n              swap1\n              sub\n              0x64\n              add\n              swap1\n              revert\n                /* \"v2-core-master/contracts/XeleronFactory_flattened.sol\":2743:2870  function sub(uint x, uint y) internal pure returns (uint z) {... */\n            tag_148:\n                /* \"v2-core-master/contracts/XeleronFactory_flattened.sol\":2826:2831  x - y */\n              dup1\n              dup3\n              sub\n                /* \"v2-core-master/contracts/XeleronFactory_flattened.sol\":2821:2837  (z = x - y) <= x */\n              dup3\n              dup2\n              gt\n              iszero\n                /* \"v2-core-master/contracts/XeleronFactory_flattened.sol\":2813:2863  require((z = x - y) <= x, 'ds-math-sub-underflow') */\n              tag_159\n              jumpi\n              0x40\n              dup1\n              mload\n              0x08c379a000000000000000000000000000000000000000000000000000000000\n              dup2\n              mstore\n              0x20\n              0x04\n              dup3\n              add\n              mstore\n              0x15\n              0x24\n              dup3\n              add\n              mstore\n              0x64732d6d6174682d7375622d756e646572666c6f770000000000000000000000\n              0x44\n              dup3\n              add\n              mstore\n              swap1\n              mload\n              swap1\n              dup2\n              swap1\n              sub\n              0x64\n              add\n              swap1\n              revert\n                /* \"v2-core-master/contracts/XeleronFactory_flattened.sol\":13226:14071  function _update(uint balance0, uint balance1, uint112 _reserve0, uint112 _reserve1) private {... */\n            tag_157:\n                /* \"v2-core-master/contracts/XeleronFactory_flattened.sol\":13337:13360  balance0 <= uint112(-1) */\n              0xffffffffffffffffffffffffffff\n              dup5\n              gt\n              dup1\n              iszero\n              swap1\n                /* \"v2-core-master/contracts/XeleronFactory_flattened.sol\":13337:13387  balance0 <= uint112(-1) && balance1 <= uint112(-1) */\n              tag_280\n              jumpi\n              pop\n                /* \"v2-core-master/contracts/XeleronFactory_flattened.sol\":13364:13387  balance1 <= uint112(-1) */\n              0xffffffffffffffffffffffffffff\n              dup4\n              gt\n              iszero\n                /* \"v2-core-master/contracts/XeleronFactory_flattened.sol\":13337:13387  balance0 <= uint112(-1) && balance1 <= uint112(-1) */\n            tag_280:\n                /* \"v2-core-master/contracts/XeleronFactory_flattened.sol\":13329:13409  require(balance0 <= uint112(-1) && balance1 <= uint112(-1), 'Xeleron: OVERFLOW') */\n              tag_281\n              jumpi\n              0x40\n              dup1\n              mload\n              0x08c379a000000000000000000000000000000000000000000000000000000000\n              dup2\n              mstore\n              0x20\n              0x04\n              dup3\n              add\n              mstore\n              0x11\n              0x24\n              dup3\n              add\n              mstore\n              0x58656c65726f6e3a204f564552464c4f57000000000000000000000000000000\n              0x44\n              dup3\n              add\n              mstore\n              swap1\n              mload\n              swap1\n              dup2\n              swap1\n              sub\n              0x64\n              add\n              swap1\n              revert\n            tag_281:\n                /* \"v2-core-master/contracts/XeleronFactory_flattened.sol\":13522:13540  blockTimestampLast */\n              sload(0x08)\n                /* \"v2-core-master/contracts/XeleronFactory_flattened.sol\":13450:13473  block.timestamp % 2**32 */\n              0xffffffff\n                /* \"v2-core-master/contracts/XeleronFactory_flattened.sol\":13450:13465  block.timestamp */\n              timestamp\n                /* \"v2-core-master/contracts/XeleronFactory_flattened.sol\":13450:13473  block.timestamp % 2**32 */\n              dup2\n              and\n              swap2\n                /* \"v2-core-master/contracts/XeleronFactory_flattened.sol\":13522:13540  blockTimestampLast */\n              0x0100000000000000000000000000000000000000000000000000000000\n              swap1\n              div\n              dup2\n              and\n                /* \"v2-core-master/contracts/XeleronFactory_flattened.sol\":13505:13540  blockTimestamp - blockTimestampLast */\n              dup3\n              sub\n              swap1\n                /* \"v2-core-master/contracts/XeleronFactory_flattened.sol\":13577:13592  timeElapsed > 0 */\n              dup2\n              and\n              iszero\n              dup1\n              iszero\n              swap1\n                /* \"v2-core-master/contracts/XeleronFactory_flattened.sol\":13577:13610  timeElapsed > 0 && _reserve0 != 0 */\n              tag_283\n              jumpi\n              pop\n                /* \"v2-core-master/contracts/XeleronFactory_flattened.sol\":13596:13610  _reserve0 != 0 */\n              0xffffffffffffffffffffffffffff\n              dup5\n              and\n              iszero\n              iszero\n                /* \"v2-core-master/contracts/XeleronFactory_flattened.sol\":13577:13610  timeElapsed > 0 && _reserve0 != 0 */\n            tag_283:\n                /* \"v2-core-master/contracts/XeleronFactory_flattened.sol\":13577:13628  timeElapsed > 0 && _reserve0 != 0 && _reserve1 != 0 */\n              dup1\n              iszero\n              tag_284\n              jumpi\n              pop\n                /* \"v2-core-master/contracts/XeleronFactory_flattened.sol\":13614:13628  _reserve1 != 0 */\n              0xffffffffffffffffffffffffffff\n              dup4\n              and\n              iszero\n              iszero\n                /* \"v2-core-master/contracts/XeleronFactory_flattened.sol\":13577:13628  timeElapsed > 0 && _reserve0 != 0 && _reserve1 != 0 */\n            tag_284:\n                /* \"v2-core-master/contracts/XeleronFactory_flattened.sol\":13573:13905  if (timeElapsed > 0 && _reserve0 != 0 && _reserve1 != 0) {... */\n              iszero\n              tag_285\n              jumpi\n                /* \"v2-core-master/contracts/XeleronFactory_flattened.sol\":13781:13792  timeElapsed */\n              dup1\n                /* \"v2-core-master/contracts/XeleronFactory_flattened.sol\":13728:13792  uint(UQ112x112.encode(_reserve1).uqdiv(_reserve0)) * timeElapsed */\n              0xffffffff\n              and\n                /* \"v2-core-master/contracts/XeleronFactory_flattened.sol\":13733:13777  UQ112x112.encode(_reserve1).uqdiv(_reserve0) */\n              tag_286\n                /* \"v2-core-master/contracts/XeleronFactory_flattened.sol\":13767:13776  _reserve0 */\n              dup6\n                /* \"v2-core-master/contracts/XeleronFactory_flattened.sol\":13733:13760  UQ112x112.encode(_reserve1) */\n              tag_287\n                /* \"v2-core-master/contracts/XeleronFactory_flattened.sol\":13750:13759  _reserve1 */\n              dup7\n                /* \"v2-core-master/contracts/XeleronFactory_flattened.sol\":13733:13749  UQ112x112.encode */\n              tag_288\n                /* \"v2-core-master/contracts/XeleronFactory_flattened.sol\":13733:13760  UQ112x112.encode(_reserve1) */\n              jump\t// in\n            tag_287:\n                /* \"v2-core-master/contracts/XeleronFactory_flattened.sol\":13733:13766  UQ112x112.encode(_reserve1).uqdiv */\n              0xffffffffffffffffffffffffffffffffffffffffffffffffffffffff\n              and\n              swap1\n                /* \"v2-core-master/contracts/XeleronFactory_flattened.sol\":13733:13777  UQ112x112.encode(_reserve1).uqdiv(_reserve0) */\n              0xffffffff\n                /* \"v2-core-master/contracts/XeleronFactory_flattened.sol\":13733:13766  UQ112x112.encode(_reserve1).uqdiv */\n              tag_289\n                /* \"v2-core-master/contracts/XeleronFactory_flattened.sol\":13733:13777  UQ112x112.encode(_reserve1).uqdiv(_reserve0) */\n              and\n              jump\t// in\n            tag_286:\n                /* \"v2-core-master/contracts/XeleronFactory_flattened.sol\":13704:13724  price0CumulativeLast */\n              0x09\n                /* \"v2-core-master/contracts/XeleronFactory_flattened.sol\":13704:13792  price0CumulativeLast += uint(UQ112x112.encode(_reserve1).uqdiv(_reserve0)) * timeElapsed */\n              dup1\n              sload\n                /* \"v2-core-master/contracts/XeleronFactory_flattened.sol\":13728:13778  uint(UQ112x112.encode(_reserve1).uqdiv(_reserve0)) */\n              0xffffffffffffffffffffffffffffffffffffffffffffffffffffffff\n              swap3\n              swap1\n              swap3\n              and\n                /* \"v2-core-master/contracts/XeleronFactory_flattened.sol\":13728:13792  uint(UQ112x112.encode(_reserve1).uqdiv(_reserve0)) * timeElapsed */\n              swap3\n              swap1\n              swap3\n              mul\n                /* \"v2-core-master/contracts/XeleronFactory_flattened.sol\":13704:13792  price0CumulativeLast += uint(UQ112x112.encode(_reserve1).uqdiv(_reserve0)) * timeElapsed */\n              add\n              swap1\n              sstore\n                /* \"v2-core-master/contracts/XeleronFactory_flattened.sol\":13830:13894  uint(UQ112x112.encode(_reserve0).uqdiv(_reserve1)) * timeElapsed */\n              0xffffffff\n              dup2\n              and\n                /* \"v2-core-master/contracts/XeleronFactory_flattened.sol\":13835:13879  UQ112x112.encode(_reserve0).uqdiv(_reserve1) */\n              tag_290\n                /* \"v2-core-master/contracts/XeleronFactory_flattened.sol\":13869:13878  _reserve1 */\n              dup5\n                /* \"v2-core-master/contracts/XeleronFactory_flattened.sol\":13835:13862  UQ112x112.encode(_reserve0) */\n              tag_287\n                /* \"v2-core-master/contracts/XeleronFactory_flattened.sol\":13852:13861  _reserve0 */\n              dup8\n                /* \"v2-core-master/contracts/XeleronFactory_flattened.sol\":13835:13851  UQ112x112.encode */\n              tag_288\n                /* \"v2-core-master/contracts/XeleronFactory_flattened.sol\":13835:13862  UQ112x112.encode(_reserve0) */\n              jump\t// in\n                /* \"v2-core-master/contracts/XeleronFactory_flattened.sol\":13835:13879  UQ112x112.encode(_reserve0).uqdiv(_reserve1) */\n            tag_290:\n                /* \"v2-core-master/contracts/XeleronFactory_flattened.sol\":13806:13826  price1CumulativeLast */\n              0x0a\n                /* \"v2-core-master/contracts/XeleronFactory_flattened.sol\":13806:13894  price1CumulativeLast += uint(UQ112x112.encode(_reserve0).uqdiv(_reserve1)) * timeElapsed */\n              dup1\n              sload\n                /* \"v2-core-master/contracts/XeleronFactory_flattened.sol\":13830:13880  uint(UQ112x112.encode(_reserve0).uqdiv(_reserve1)) */\n              0xffffffffffffffffffffffffffffffffffffffffffffffffffffffff\n              swap3\n              swap1\n              swap3\n              and\n                /* \"v2-core-master/contracts/XeleronFactory_flattened.sol\":13830:13894  uint(UQ112x112.encode(_reserve0).uqdiv(_reserve1)) * timeElapsed */\n              swap3\n              swap1\n              swap3\n              mul\n                /* \"v2-core-master/contracts/XeleronFactory_flattened.sol\":13806:13894  price1CumulativeLast += uint(UQ112x112.encode(_reserve0).uqdiv(_reserve1)) * timeElapsed */\n              add\n              swap1\n              sstore\n                /* \"v2-core-master/contracts/XeleronFactory_flattened.sol\":13573:13905  if (timeElapsed > 0 && _reserve0 != 0 && _reserve1 != 0) {... */\n            tag_285:\n                /* \"v2-core-master/contracts/XeleronFactory_flattened.sol\":13914:13922  reserve0 */\n              0x08\n                /* \"v2-core-master/contracts/XeleronFactory_flattened.sol\":13914:13942  reserve0 = uint112(balance0) */\n              dup1\n              sload\n              0xffffffffffffffffffffffffffffffffffff0000000000000000000000000000\n              and\n              0xffffffffffffffffffffffffffff\n              dup9\n              dup2\n              and\n              swap2\n              swap1\n              swap2\n              or\n                /* \"v2-core-master/contracts/XeleronFactory_flattened.sol\":13952:13980  reserve1 = uint112(balance1) */\n              0xffffffff0000000000000000000000000000ffffffffffffffffffffffffffff\n              and\n              0x010000000000000000000000000000\n              dup9\n              dup4\n              and\n              dup2\n              mul\n              swap2\n              swap1\n              swap2\n              or\n                /* \"v2-core-master/contracts/XeleronFactory_flattened.sol\":13990:14025  blockTimestampLast = blockTimestamp */\n              0xffffffffffffffffffffffffffffffffffffffffffffffffffffffff\n              and\n              0x0100000000000000000000000000000000000000000000000000000000\n              0xffffffff\n              dup8\n              and\n              mul\n              or\n              swap3\n              dup4\n              swap1\n              sstore\n                /* \"v2-core-master/contracts/XeleronFactory_flattened.sol\":14040:14064  Sync(reserve0, reserve1) */\n              0x40\n              dup1\n              mload\n                /* \"v2-core-master/contracts/XeleronFactory_flattened.sol\":14045:14053  reserve0 */\n              dup5\n              dup5\n              and\n                /* \"v2-core-master/contracts/XeleronFactory_flattened.sol\":14040:14064  Sync(reserve0, reserve1) */\n              dup2\n              mstore\n                /* \"v2-core-master/contracts/XeleronFactory_flattened.sol\":14055:14063  reserve1 */\n              swap2\n              swap1\n              swap4\n              div\n              swap1\n              swap2\n              and\n                /* \"v2-core-master/contracts/XeleronFactory_flattened.sol\":14040:14064  Sync(reserve0, reserve1) */\n              0x20\n              dup3\n              add\n              mstore\n              dup2\n              mload\n              0x1c411e9a96e071241c2f21f7726b17ae89e3cab4c78be50e062b03a9fffbbad1\n              swap3\n              swap2\n              dup2\n              swap1\n              sub\n              swap1\n              swap2\n              add\n              swap1\n              log1\n                /* \"v2-core-master/contracts/XeleronFactory_flattened.sol\":13226:14071  function _update(uint balance0, uint balance1, uint112 _reserve0, uint112 _reserve1) private {... */\n              pop\n              pop\n              pop\n              pop\n              pop\n              pop\n              jump\t// out\n                /* \"v2-core-master/contracts/XeleronFactory_flattened.sol\":5979:6145  function _approve(address owner, address spender, uint value) private {... */\n            tag_161:\n                /* \"v2-core-master/contracts/XeleronFactory_flattened.sol\":6059:6075  allowance[owner] */\n              0xffffffffffffffffffffffffffffffffffffffff\n              dup1\n              dup5\n              and\n              0x00\n              dup2\n              dup2\n              mstore\n                /* \"v2-core-master/contracts/XeleronFactory_flattened.sol\":6059:6068  allowance */\n              0x02\n                /* \"v2-core-master/contracts/XeleronFactory_flattened.sol\":6059:6075  allowance[owner] */\n              0x20\n              swap1\n              dup2\n              mstore\n              0x40\n              dup1\n              dup4\n              keccak256\n                /* \"v2-core-master/contracts/XeleronFactory_flattened.sol\":6059:6084  allowance[owner][spender] */\n              swap5\n              dup8\n              and\n              dup1\n              dup5\n              mstore\n              swap5\n              dup3\n              mstore\n              swap2\n              dup3\n              swap1\n              keccak256\n                /* \"v2-core-master/contracts/XeleronFactory_flattened.sol\":6059:6092  allowance[owner][spender] = value */\n              dup6\n              swap1\n              sstore\n                /* \"v2-core-master/contracts/XeleronFactory_flattened.sol\":6107:6138  Approval(owner, spender, value) */\n              dup2\n              mload\n              dup6\n              dup2\n              mstore\n              swap2\n              mload\n              0x8c5be1e5ebec7d5bd14f71427d1e84f3dd0314c0f7b2291e5b200ac8c7c3b925\n              swap3\n              dup2\n              swap1\n              sub\n              swap1\n              swap2\n              add\n              swap1\n              log3\n                /* \"v2-core-master/contracts/XeleronFactory_flattened.sol\":5979:6145  function _approve(address owner, address spender, uint value) private {... */\n              pop\n              pop\n              pop\n              jump\t// out\n                /* \"v2-core-master/contracts/XeleronFactory_flattened.sol\":6151:6367  function _transfer(address from, address to, uint value) private {... */\n            tag_166:\n                /* \"v2-core-master/contracts/XeleronFactory_flattened.sol\":6244:6259  balanceOf[from] */\n              0xffffffffffffffffffffffffffffffffffffffff\n              dup4\n              and\n              0x00\n              swap1\n              dup2\n              mstore\n                /* \"v2-core-master/contracts/XeleronFactory_flattened.sol\":6244:6253  balanceOf */\n              0x01\n                /* \"v2-core-master/contracts/XeleronFactory_flattened.sol\":6244:6259  balanceOf[from] */\n              0x20\n              mstore\n              0x40\n              swap1\n              keccak256\n              sload\n                /* \"v2-core-master/contracts/XeleronFactory_flattened.sol\":6244:6270  balanceOf[from].sub(value) */\n              tag_294\n              swap1\n                /* \"v2-core-master/contracts/XeleronFactory_flattened.sol\":6264:6269  value */\n              dup3\n                /* \"v2-core-master/contracts/XeleronFactory_flattened.sol\":6244:6270  balanceOf[from].sub(value) */\n              0xffffffff\n                /* \"v2-core-master/contracts/XeleronFactory_flattened.sol\":6244:6263  balanceOf[from].sub */\n              tag_148\n                /* \"v2-core-master/contracts/XeleronFactory_flattened.sol\":6244:6270  balanceOf[from].sub(value) */\n              and\n              jump\t// in\n            tag_294:\n                /* \"v2-core-master/contracts/XeleronFactory_flattened.sol\":6226:6241  balanceOf[from] */\n              0xffffffffffffffffffffffffffffffffffffffff\n              dup1\n              dup6\n              and\n              0x00\n              swap1\n              dup2\n              mstore\n                /* \"v2-core-master/contracts/XeleronFactory_flattened.sol\":6226:6235  balanceOf */\n              0x01\n                /* \"v2-core-master/contracts/XeleronFactory_flattened.sol\":6226:6241  balanceOf[from] */\n              0x20\n              mstore\n              0x40\n              dup1\n              dup3\n              keccak256\n                /* \"v2-core-master/contracts/XeleronFactory_flattened.sol\":6226:6270  balanceOf[from] = balanceOf[from].sub(value) */\n              swap4\n              swap1\n              swap4\n              sstore\n                /* \"v2-core-master/contracts/XeleronFactory_flattened.sol\":6296:6309  balanceOf[to] */\n              swap1\n              dup5\n              and\n              dup2\n              mstore\n              keccak256\n              sload\n                /* \"v2-core-master/contracts/XeleronFactory_flattened.sol\":6296:6320  balanceOf[to].add(value) */\n              tag_295\n              swap1\n                /* \"v2-core-master/contracts/XeleronFactory_flattened.sol\":6314:6319  value */\n              dup3\n                /* \"v2-core-master/contracts/XeleronFactory_flattened.sol\":6296:6320  balanceOf[to].add(value) */\n              0xffffffff\n                /* \"v2-core-master/contracts/XeleronFactory_flattened.sol\":6296:6313  balanceOf[to].add */\n              tag_296\n                /* \"v2-core-master/contracts/XeleronFactory_flattened.sol\":6296:6320  balanceOf[to].add(value) */\n              and\n              jump\t// in\n            tag_295:\n                /* \"v2-core-master/contracts/XeleronFactory_flattened.sol\":6280:6293  balanceOf[to] */\n              0xffffffffffffffffffffffffffffffffffffffff\n              dup1\n              dup5\n              and\n              0x00\n              dup2\n              dup2\n              mstore\n                /* \"v2-core-master/contracts/XeleronFactory_flattened.sol\":6280:6289  balanceOf */\n              0x01\n                /* \"v2-core-master/contracts/XeleronFactory_flattened.sol\":6280:6293  balanceOf[to] */\n              0x20\n              swap1\n              dup2\n              mstore\n              0x40\n              swap2\n              dup3\n              swap1\n              keccak256\n                /* \"v2-core-master/contracts/XeleronFactory_flattened.sol\":6280:6320  balanceOf[to] = balanceOf[to].add(value) */\n              swap5\n              swap1\n              swap5\n              sstore\n                /* \"v2-core-master/contracts/XeleronFactory_flattened.sol\":6335:6360  Transfer(from, to, value) */\n              dup1\n              mload\n              dup6\n              dup2\n              mstore\n              swap1\n              mload\n                /* \"v2-core-master/contracts/XeleronFactory_flattened.sol\":6280:6293  balanceOf[to] */\n              swap2\n              swap4\n                /* \"v2-core-master/contracts/XeleronFactory_flattened.sol\":6335:6360  Transfer(from, to, value) */\n              swap3\n              dup8\n              and\n              swap3\n              0xddf252ad1be2c89b69c2b068fc378daa952ba7f163c4a11628f55a4df523b3ef\n              swap3\n              swap2\n              dup3\n              swap1\n              sub\n              add\n              swap1\n              log3\n                /* \"v2-core-master/contracts/XeleronFactory_flattened.sol\":6151:6367  function _transfer(address from, address to, uint value) private {... */\n              pop\n              pop\n              pop\n              jump\t// out\n                /* \"v2-core-master/contracts/XeleronFactory_flattened.sol\":14158:14975  function _mintFee(uint112 _reserve0, uint112 _reserve1) private returns (bool feeOn) {... */\n            tag_182:\n                /* \"v2-core-master/contracts/XeleronFactory_flattened.sol\":14231:14241  bool feeOn */\n              0x00\n                /* \"v2-core-master/contracts/XeleronFactory_flattened.sol\":14253:14266  address feeTo */\n              dup1\n                /* \"v2-core-master/contracts/XeleronFactory_flattened.sol\":14285:14292  factory */\n              0x05\n              0x00\n              swap1\n              sload\n              swap1\n              0x0100\n              exp\n              swap1\n              div\n              0xffffffffffffffffffffffffffffffffffffffff\n              and\n                /* \"v2-core-master/contracts/XeleronFactory_flattened.sol\":14269:14299  IXeleronFactory(factory).feeTo */\n              0xffffffffffffffffffffffffffffffffffffffff\n              and\n              0x017e7e58\n                /* \"v2-core-master/contracts/XeleronFactory_flattened.sol\":14269:14301  IXeleronFactory(factory).feeTo() */\n              mload(0x40)\n              dup2\n              0xffffffff\n              and\n              0xe0\n              shl\n              dup2\n              mstore\n              0x04\n              add\n              0x20\n              mload(0x40)\n              dup1\n              dup4\n              sub\n              dup2\n              dup7\n              dup1\n              extcodesize\n              iszero\n                /* \"--CODEGEN--\":8:17   */\n              dup1\n                /* \"--CODEGEN--\":5:7   */\n              iszero\n              tag_298\n              jumpi\n                /* \"--CODEGEN--\":30:31   */\n              0x00\n                /* \"--CODEGEN--\":27:28   */\n              dup1\n                /* \"--CODEGEN--\":20:32   */\n              revert\n                /* \"--CODEGEN--\":5:7   */\n            tag_298:\n                /* \"v2-core-master/contracts/XeleronFactory_flattened.sol\":14269:14301  IXeleronFactory(factory).feeTo() */\n              pop\n              gas\n              staticcall\n              iszero\n                /* \"--CODEGEN--\":8:17   */\n              dup1\n                /* \"--CODEGEN--\":5:7   */\n              iszero\n              tag_299\n              jumpi\n                /* \"--CODEGEN--\":45:61   */\n              returndatasize\n                /* \"--CODEGEN--\":42:43   */\n              0x00\n                /* \"--CODEGEN--\":39:40   */\n              dup1\n                /* \"--CODEGEN--\":24:62   */\n              returndatacopy\n                /* \"--CODEGEN--\":77:93   */\n              returndatasize\n                /* \"--CODEGEN--\":74:75   */\n              0x00\n                /* \"--CODEGEN--\":67:94   */\n              revert\n                /* \"--CODEGEN--\":5:7   */\n            tag_299:\n                /* \"v2-core-master/contracts/XeleronFactory_flattened.sol\":14269:14301  IXeleronFactory(factory).feeTo() */\n              pop\n              pop\n              pop\n              pop\n              mload(0x40)\n              returndatasize\n                /* \"--CODEGEN--\":13:15   */\n              0x20\n                /* \"--CODEGEN--\":8:11   */\n              dup2\n                /* \"--CODEGEN--\":5:16   */\n              lt\n                /* \"--CODEGEN--\":2:4   */\n              iszero\n              tag_300\n              jumpi\n                /* \"--CODEGEN--\":29:30   */\n              0x00\n                /* \"--CODEGEN--\":26:27   */\n              dup1\n                /* \"--CODEGEN--\":19:31   */\n              revert\n                /* \"--CODEGEN--\":2:4   */\n            tag_300:\n              pop\n                /* \"v2-core-master/contracts/XeleronFactory_flattened.sol\":14269:14301  IXeleronFactory(factory).feeTo() */\n              mload\n                /* \"v2-core-master/contracts/XeleronFactory_flattened.sol\":14362:14367  kLast */\n              sload(0x0b)\n                /* \"v2-core-master/contracts/XeleronFactory_flattened.sol\":14319:14338  feeTo != address(0) */\n              0xffffffffffffffffffffffffffffffffffffffff\n              dup3\n              and\n              iszero\n              dup1\n              iszero\n              swap5\n              pop\n                /* \"v2-core-master/contracts/XeleronFactory_flattened.sol\":14269:14301  IXeleronFactory(factory).feeTo() */\n              swap2\n              swap3\n              pop\n                /* \"v2-core-master/contracts/XeleronFactory_flattened.sol\":14362:14367  kLast */\n              swap1\n                /* \"v2-core-master/contracts/XeleronFactory_flattened.sol\":14392:14969  if (feeOn) {... */\n              tag_301\n              jumpi\n                /* \"v2-core-master/contracts/XeleronFactory_flattened.sol\":14421:14432  _kLast != 0 */\n              dup1\n              iszero\n                /* \"v2-core-master/contracts/XeleronFactory_flattened.sol\":14417:14902  if (_kLast != 0) {... */\n              tag_302\n              jumpi\n                /* \"v2-core-master/contracts/XeleronFactory_flattened.sol\":14452:14462  uint rootK */\n              0x00\n                /* \"v2-core-master/contracts/XeleronFactory_flattened.sol\":14465:14506  Math.sqrt(uint(_reserve0).mul(_reserve1)) */\n              tag_303\n                /* \"v2-core-master/contracts/XeleronFactory_flattened.sol\":14475:14505  uint(_reserve0).mul(_reserve1) */\n              tag_186\n              0xffffffffffffffffffffffffffff\n                /* \"v2-core-master/contracts/XeleronFactory_flattened.sol\":14475:14490  uint(_reserve0) */\n              dup9\n              dup2\n              and\n              swap1\n                /* \"v2-core-master/contracts/XeleronFactory_flattened.sol\":14475:14505  uint(_reserve0).mul(_reserve1) */\n              dup9\n              and\n              0xffffffff\n                /* \"v2-core-master/contracts/XeleronFactory_flattened.sol\":14475:14494  uint(_reserve0).mul */\n              tag_146\n                /* \"v2-core-master/contracts/XeleronFactory_flattened.sol\":14475:14505  uint(_reserve0).mul(_reserve1) */\n              and\n              jump\t// in\n                /* \"v2-core-master/contracts/XeleronFactory_flattened.sol\":14465:14506  Math.sqrt(uint(_reserve0).mul(_reserve1)) */\n            tag_303:\n                /* \"v2-core-master/contracts/XeleronFactory_flattened.sol\":14452:14506  uint rootK = Math.sqrt(uint(_reserve0).mul(_reserve1)) */\n              swap1\n              pop\n                /* \"v2-core-master/contracts/XeleronFactory_flattened.sol\":14524:14538  uint rootKLast */\n              0x00\n                /* \"v2-core-master/contracts/XeleronFactory_flattened.sol\":14541:14558  Math.sqrt(_kLast) */\n              tag_305\n                /* \"v2-core-master/contracts/XeleronFactory_flattened.sol\":14551:14557  _kLast */\n              dup4\n                /* \"v2-core-master/contracts/XeleronFactory_flattened.sol\":14541:14550  Math.sqrt */\n              tag_187\n                /* \"v2-core-master/contracts/XeleronFactory_flattened.sol\":14541:14558  Math.sqrt(_kLast) */\n              jump\t// in\n            tag_305:\n                /* \"v2-core-master/contracts/XeleronFactory_flattened.sol\":14524:14558  uint rootKLast = Math.sqrt(_kLast) */\n              swap1\n              pop\n                /* \"v2-core-master/contracts/XeleronFactory_flattened.sol\":14588:14597  rootKLast */\n              dup1\n                /* \"v2-core-master/contracts/XeleronFactory_flattened.sol\":14580:14585  rootK */\n              dup3\n                /* \"v2-core-master/contracts/XeleronFactory_flattened.sol\":14580:14597  rootK > rootKLast */\n              gt\n                /* \"v2-core-master/contracts/XeleronFactory_flattened.sol\":14576:14888  if (rootK > rootKLast) {... */\n              iszero\n              tag_306\n              jumpi\n                /* \"v2-core-master/contracts/XeleronFactory_flattened.sol\":14621:14635  uint numerator */\n              0x00\n                /* \"v2-core-master/contracts/XeleronFactory_flattened.sol\":14638:14675  totalSupply.mul(rootK.sub(rootKLast)) */\n              tag_307\n                /* \"v2-core-master/contracts/XeleronFactory_flattened.sol\":14654:14674  rootK.sub(rootKLast) */\n              tag_308\n                /* \"v2-core-master/contracts/XeleronFactory_flattened.sol\":14654:14659  rootK */\n              dup5\n                /* \"v2-core-master/contracts/XeleronFactory_flattened.sol\":14664:14673  rootKLast */\n              dup5\n                /* \"v2-core-master/contracts/XeleronFactory_flattened.sol\":14654:14674  rootK.sub(rootKLast) */\n              0xffffffff\n                /* \"v2-core-master/contracts/XeleronFactory_flattened.sol\":14654:14663  rootK.sub */\n              tag_148\n                /* \"v2-core-master/contracts/XeleronFactory_flattened.sol\":14654:14674  rootK.sub(rootKLast) */\n              and\n              jump\t// in\n            tag_308:\n                /* \"v2-core-master/contracts/XeleronFactory_flattened.sol\":14638:14649  totalSupply */\n              sload(0x00)\n              swap1\n                /* \"v2-core-master/contracts/XeleronFactory_flattened.sol\":14638:14675  totalSupply.mul(rootK.sub(rootKLast)) */\n              0xffffffff\n                /* \"v2-core-master/contracts/XeleronFactory_flattened.sol\":14638:14653  totalSupply.mul */\n              tag_146\n                /* \"v2-core-master/contracts/XeleronFactory_flattened.sol\":14638:14675  totalSupply.mul(rootK.sub(rootKLast)) */\n              and\n              jump\t// in\n            tag_307:\n                /* \"v2-core-master/contracts/XeleronFactory_flattened.sol\":14621:14675  uint numerator = totalSupply.mul(rootK.sub(rootKLast)) */\n              swap1\n              pop\n                /* \"v2-core-master/contracts/XeleronFactory_flattened.sol\":14697:14713  uint denominator */\n              0x00\n                /* \"v2-core-master/contracts/XeleronFactory_flattened.sol\":14716:14743  rootK.mul(5).add(rootKLast) */\n              tag_309\n                /* \"v2-core-master/contracts/XeleronFactory_flattened.sol\":14733:14742  rootKLast */\n              dup4\n                /* \"v2-core-master/contracts/XeleronFactory_flattened.sol\":14716:14728  rootK.mul(5) */\n              tag_310\n                /* \"v2-core-master/contracts/XeleronFactory_flattened.sol\":14716:14721  rootK */\n              dup7\n                /* \"v2-core-master/contracts/XeleronFactory_flattened.sol\":14726:14727  5 */\n              0x05\n                /* \"v2-core-master/contracts/XeleronFactory_flattened.sol\":14716:14728  rootK.mul(5) */\n              0xffffffff\n                /* \"v2-core-master/contracts/XeleronFactory_flattened.sol\":14716:14725  rootK.mul */\n              tag_146\n                /* \"v2-core-master/contracts/XeleronFactory_flattened.sol\":14716:14728  rootK.mul(5) */\n              and\n              jump\t// in\n            tag_310:\n                /* \"v2-core-master/contracts/XeleronFactory_flattened.sol\":14716:14732  rootK.mul(5).add */\n              swap1\n                /* \"v2-core-master/contracts/XeleronFactory_flattened.sol\":14716:14743  rootK.mul(5).add(rootKLast) */\n              0xffffffff\n                /* \"v2-core-master/contracts/XeleronFactory_flattened.sol\":14716:14732  rootK.mul(5).add */\n              tag_296\n                /* \"v2-core-master/contracts/XeleronFactory_flattened.sol\":14716:14743  rootK.mul(5).add(rootKLast) */\n              and\n              jump\t// in\n            tag_309:\n                /* \"v2-core-master/contracts/XeleronFactory_flattened.sol\":14697:14743  uint denominator = rootK.mul(5).add(rootKLast) */\n              swap1\n              pop\n                /* \"v2-core-master/contracts/XeleronFactory_flattened.sol\":14765:14779  uint liquidity */\n              0x00\n                /* \"v2-core-master/contracts/XeleronFactory_flattened.sol\":14794:14805  denominator */\n              dup2\n                /* \"v2-core-master/contracts/XeleronFactory_flattened.sol\":14782:14791  numerator */\n              dup4\n                /* \"v2-core-master/contracts/XeleronFactory_flattened.sol\":14782:14805  numerator / denominator */\n              dup2\n              tag_311\n              jumpi\n              invalid\n            tag_311:\n              div\n              swap1\n              pop\n                /* \"v2-core-master/contracts/XeleronFactory_flattened.sol\":14831:14844  liquidity > 0 */\n              dup1\n              iszero\n                /* \"v2-core-master/contracts/XeleronFactory_flattened.sol\":14827:14869  if (liquidity > 0) _mint(feeTo, liquidity) */\n              tag_313\n              jumpi\n                /* \"v2-core-master/contracts/XeleronFactory_flattened.sol\":14846:14869  _mint(feeTo, liquidity) */\n              tag_313\n                /* \"v2-core-master/contracts/XeleronFactory_flattened.sol\":14852:14857  feeTo */\n              dup8\n                /* \"v2-core-master/contracts/XeleronFactory_flattened.sol\":14859:14868  liquidity */\n              dup3\n                /* \"v2-core-master/contracts/XeleronFactory_flattened.sol\":14846:14851  _mint */\n              tag_189\n                /* \"v2-core-master/contracts/XeleronFactory_flattened.sol\":14846:14869  _mint(feeTo, liquidity) */\n              jump\t// in\n            tag_313:\n                /* \"v2-core-master/contracts/XeleronFactory_flattened.sol\":14576:14888  if (rootK > rootKLast) {... */\n              pop\n              pop\n              pop\n            tag_306:\n                /* \"v2-core-master/contracts/XeleronFactory_flattened.sol\":14417:14902  if (_kLast != 0) {... */\n              pop\n              pop\n            tag_302:\n                /* \"v2-core-master/contracts/XeleronFactory_flattened.sol\":14392:14969  if (feeOn) {... */\n              jump(tag_315)\n            tag_301:\n                /* \"v2-core-master/contracts/XeleronFactory_flattened.sol\":14922:14933  _kLast != 0 */\n              dup1\n              iszero\n                /* \"v2-core-master/contracts/XeleronFactory_flattened.sol\":14918:14969  if (_kLast != 0) {... */\n              tag_315\n              jumpi\n                /* \"v2-core-master/contracts/XeleronFactory_flattened.sol\":14957:14958  0 */\n              0x00\n                /* \"v2-core-master/contracts/XeleronFactory_flattened.sol\":14949:14954  kLast */\n              0x0b\n                /* \"v2-core-master/contracts/XeleronFactory_flattened.sol\":14949:14958  kLast = 0 */\n              sstore\n                /* \"v2-core-master/contracts/XeleronFactory_flattened.sol\":14918:14969  if (_kLast != 0) {... */\n            tag_315:\n                /* \"v2-core-master/contracts/XeleronFactory_flattened.sol\":14158:14975  function _mintFee(uint112 _reserve0, uint112 _reserve1) private returns (bool feeOn) {... */\n              pop\n              pop\n              swap3\n              swap2\n              pop\n              pop\n              jump\t// out\n                /* \"v2-core-master/contracts/XeleronFactory_flattened.sol\":2102:2394  function sqrt(uint y) internal pure returns (uint z) {... */\n            tag_187:\n                /* \"v2-core-master/contracts/XeleronFactory_flattened.sol\":2147:2153  uint z */\n              0x00\n                /* \"v2-core-master/contracts/XeleronFactory_flattened.sol\":2173:2174  3 */\n              0x03\n                /* \"v2-core-master/contracts/XeleronFactory_flattened.sol\":2169:2170  y */\n              dup3\n                /* \"v2-core-master/contracts/XeleronFactory_flattened.sol\":2169:2174  y > 3 */\n              gt\n                /* \"v2-core-master/contracts/XeleronFactory_flattened.sol\":2165:2388  if (y > 3) {... */\n              iszero\n              tag_317\n              jumpi\n              pop\n                /* \"v2-core-master/contracts/XeleronFactory_flattened.sol\":2194:2195  y */\n              dup1\n                /* \"v2-core-master/contracts/XeleronFactory_flattened.sol\":2226:2227  1 */\n              0x01\n                /* \"v2-core-master/contracts/XeleronFactory_flattened.sol\":2222:2223  2 */\n              0x02\n                /* \"v2-core-master/contracts/XeleronFactory_flattened.sol\":2218:2223  y / 2 */\n              dup3\n              div\n                /* \"v2-core-master/contracts/XeleronFactory_flattened.sol\":2218:2227  y / 2 + 1 */\n              add\n                /* \"v2-core-master/contracts/XeleronFactory_flattened.sol\":2241:2330  while (x < z) {... */\n            tag_319:\n                /* \"v2-core-master/contracts/XeleronFactory_flattened.sol\":2252:2253  z */\n              dup2\n                /* \"v2-core-master/contracts/XeleronFactory_flattened.sol\":2248:2249  x */\n              dup2\n                /* \"v2-core-master/contracts/XeleronFactory_flattened.sol\":2248:2253  x < z */\n              lt\n                /* \"v2-core-master/contracts/XeleronFactory_flattened.sol\":2241:2330  while (x < z) {... */\n              iszero\n              tag_320\n              jumpi\n                /* \"v2-core-master/contracts/XeleronFactory_flattened.sol\":2277:2278  x */\n              dup1\n                /* \"v2-core-master/contracts/XeleronFactory_flattened.sol\":2273:2278  z = x */\n              swap2\n              pop\n                /* \"v2-core-master/contracts/XeleronFactory_flattened.sol\":2314:2315  2 */\n              0x02\n                /* \"v2-core-master/contracts/XeleronFactory_flattened.sol\":2309:2310  x */\n              dup2\n                /* \"v2-core-master/contracts/XeleronFactory_flattened.sol\":2305:2306  x */\n              dup3\n                /* \"v2-core-master/contracts/XeleronFactory_flattened.sol\":2301:2302  y */\n              dup6\n                /* \"v2-core-master/contracts/XeleronFactory_flattened.sol\":2301:2306  y / x */\n              dup2\n              tag_321\n              jumpi\n              invalid\n            tag_321:\n              div\n                /* \"v2-core-master/contracts/XeleronFactory_flattened.sol\":2301:2310  y / x + x */\n              add\n                /* \"v2-core-master/contracts/XeleronFactory_flattened.sol\":2300:2315  (y / x + x) / 2 */\n              dup2\n              tag_322\n              jumpi\n              invalid\n            tag_322:\n              div\n                /* \"v2-core-master/contracts/XeleronFactory_flattened.sol\":2296:2315  x = (y / x + x) / 2 */\n              swap1\n              pop\n                /* \"v2-core-master/contracts/XeleronFactory_flattened.sol\":2241:2330  while (x < z) {... */\n              jump(tag_319)\n            tag_320:\n                /* \"v2-core-master/contracts/XeleronFactory_flattened.sol\":2165:2388  if (y > 3) {... */\n              pop\n              jump(tag_324)\n            tag_317:\n                /* \"v2-core-master/contracts/XeleronFactory_flattened.sol\":2350:2356  y != 0 */\n              dup2\n              iszero\n                /* \"v2-core-master/contracts/XeleronFactory_flattened.sol\":2346:2388  if (y != 0) {... */\n              tag_324\n              jumpi\n              pop\n                /* \"v2-core-master/contracts/XeleronFactory_flattened.sol\":2376:2377  1 */\n              0x01\n                /* \"v2-core-master/contracts/XeleronFactory_flattened.sol\":2346:2388  if (y != 0) {... */\n            tag_324:\n                /* \"v2-core-master/contracts/XeleronFactory_flattened.sol\":2102:2394  function sqrt(uint y) internal pure returns (uint z) {... */\n              swap2\n              swap1\n              pop\n              jump\t// out\n                /* \"v2-core-master/contracts/XeleronFactory_flattened.sol\":5565:5762  function _mint(address to, uint value) internal {... */\n            tag_189:\n                /* \"v2-core-master/contracts/XeleronFactory_flattened.sol\":5637:5648  totalSupply */\n              sload(0x00)\n                /* \"v2-core-master/contracts/XeleronFactory_flattened.sol\":5637:5659  totalSupply.add(value) */\n              tag_326\n              swap1\n                /* \"v2-core-master/contracts/XeleronFactory_flattened.sol\":5653:5658  value */\n              dup3\n                /* \"v2-core-master/contracts/XeleronFactory_flattened.sol\":5637:5659  totalSupply.add(value) */\n              0xffffffff\n                /* \"v2-core-master/contracts/XeleronFactory_flattened.sol\":5637:5652  totalSupply.add */\n              tag_296\n                /* \"v2-core-master/contracts/XeleronFactory_flattened.sol\":5637:5659  totalSupply.add(value) */\n              and\n              jump\t// in\n            tag_326:\n                /* \"v2-core-master/contracts/XeleronFactory_flattened.sol\":5623:5634  totalSupply */\n              0x00\n                /* \"v2-core-master/contracts/XeleronFactory_flattened.sol\":5623:5659  totalSupply = totalSupply.add(value) */\n              swap1\n              dup2\n              sstore\n                /* \"v2-core-master/contracts/XeleronFactory_flattened.sol\":5685:5698  balanceOf[to] */\n              0xffffffffffffffffffffffffffffffffffffffff\n              dup4\n              and\n              dup2\n              mstore\n                /* \"v2-core-master/contracts/XeleronFactory_flattened.sol\":5685:5694  balanceOf */\n              0x01\n                /* \"v2-core-master/contracts/XeleronFactory_flattened.sol\":5685:5698  balanceOf[to] */\n              0x20\n              mstore\n              0x40\n              swap1\n              keccak256\n              sload\n                /* \"v2-core-master/contracts/XeleronFactory_flattened.sol\":5685:5709  balanceOf[to].add(value) */\n              tag_327\n              swap1\n                /* \"v2-core-master/contracts/XeleronFactory_flattened.sol\":5703:5708  value */\n              dup3\n                /* \"v2-core-master/contracts/XeleronFactory_flattened.sol\":5685:5709  balanceOf[to].add(value) */\n              0xffffffff\n                /* \"v2-core-master/contracts/XeleronFactory_flattened.sol\":5685:5702  balanceOf[to].add */\n              tag_296\n                /* \"v2-core-master/contracts/XeleronFactory_flattened.sol\":5685:5709  balanceOf[to].add(value) */\n              and\n              jump\t// in\n            tag_327:\n                /* \"v2-core-master/contracts/XeleronFactory_flattened.sol\":5669:5682  balanceOf[to] */\n              0xffffffffffffffffffffffffffffffffffffffff\n              dup4\n              and\n              0x00\n              dup2\n              dup2\n              mstore\n                /* \"v2-core-master/contracts/XeleronFactory_flattened.sol\":5669:5678  balanceOf */\n              0x01\n                /* \"v2-core-master/contracts/XeleronFactory_flattened.sol\":5669:5682  balanceOf[to] */\n              0x20\n              swap1\n              dup2\n              mstore\n              0x40\n              dup1\n              dup4\n              keccak256\n                /* \"v2-core-master/contracts/XeleronFactory_flattened.sol\":5669:5709  balanceOf[to] = balanceOf[to].add(value) */\n              swap5\n              swap1\n              swap5\n              sstore\n                /* \"v2-core-master/contracts/XeleronFactory_flattened.sol\":5724:5755  Transfer(address(0), to, value) */\n              dup4\n              mload\n              dup6\n              dup2\n              mstore\n              swap4\n              mload\n                /* \"v2-core-master/contracts/XeleronFactory_flattened.sol\":5669:5682  balanceOf[to] */\n              swap3\n              swap4\n              swap2\n              swap3\n                /* \"v2-core-master/contracts/XeleronFactory_flattened.sol\":5724:5755  Transfer(address(0), to, value) */\n              0xddf252ad1be2c89b69c2b068fc378daa952ba7f163c4a11628f55a4df523b3ef\n              swap3\n              dup2\n              swap1\n              sub\n              swap1\n              swap2\n              add\n              swap1\n              log3\n                /* \"v2-core-master/contracts/XeleronFactory_flattened.sol\":5565:5762  function _mint(address to, uint value) internal {... */\n              pop\n              pop\n              jump\t// out\n                /* \"v2-core-master/contracts/XeleronFactory_flattened.sol\":1893:1987  function min(uint x, uint y) internal pure returns (uint z) {... */\n            tag_196:\n                /* \"v2-core-master/contracts/XeleronFactory_flattened.sol\":1945:1951  uint z */\n              0x00\n                /* \"v2-core-master/contracts/XeleronFactory_flattened.sol\":1971:1972  y */\n              dup2\n                /* \"v2-core-master/contracts/XeleronFactory_flattened.sol\":1967:1968  x */\n              dup4\n                /* \"v2-core-master/contracts/XeleronFactory_flattened.sol\":1967:1972  x < y */\n              lt\n                /* \"v2-core-master/contracts/XeleronFactory_flattened.sol\":1967:1980  x < y ? x : y */\n              tag_329\n              jumpi\n                /* \"v2-core-master/contracts/XeleronFactory_flattened.sol\":1979:1980  y */\n              dup2\n                /* \"v2-core-master/contracts/XeleronFactory_flattened.sol\":1967:1980  x < y ? x : y */\n              jump(tag_330)\n            tag_329:\n                /* \"v2-core-master/contracts/XeleronFactory_flattened.sol\":1975:1976  x */\n              dup3\n                /* \"v2-core-master/contracts/XeleronFactory_flattened.sol\":1967:1980  x < y ? x : y */\n            tag_330:\n                /* \"v2-core-master/contracts/XeleronFactory_flattened.sol\":1963:1980  z = x < y ? x : y */\n              swap4\n                /* \"v2-core-master/contracts/XeleronFactory_flattened.sol\":1893:1987  function min(uint x, uint y) internal pure returns (uint z) {... */\n              swap3\n              pop\n              pop\n              pop\n              jump\t// out\n                /* \"v2-core-master/contracts/XeleronFactory_flattened.sol\":5768:5973  function _burn(address from, uint value) internal {... */\n            tag_220:\n                /* \"v2-core-master/contracts/XeleronFactory_flattened.sol\":5846:5861  balanceOf[from] */\n              0xffffffffffffffffffffffffffffffffffffffff\n              dup3\n              and\n              0x00\n              swap1\n              dup2\n              mstore\n                /* \"v2-core-master/contracts/XeleronFactory_flattened.sol\":5846:5855  balanceOf */\n              0x01\n                /* \"v2-core-master/contracts/XeleronFactory_flattened.sol\":5846:5861  balanceOf[from] */\n              0x20\n              mstore\n              0x40\n              swap1\n              keccak256\n              sload\n                /* \"v2-core-master/contracts/XeleronFactory_flattened.sol\":5846:5872  balanceOf[from].sub(value) */\n              tag_332\n              swap1\n                /* \"v2-core-master/contracts/XeleronFactory_flattened.sol\":5866:5871  value */\n              dup3\n                /* \"v2-core-master/contracts/XeleronFactory_flattened.sol\":5846:5872  balanceOf[from].sub(value) */\n              0xffffffff\n                /* \"v2-core-master/contracts/XeleronFactory_flattened.sol\":5846:5865  balanceOf[from].sub */\n              tag_148\n                /* \"v2-core-master/contracts/XeleronFactory_flattened.sol\":5846:5872  balanceOf[from].sub(value) */\n              and\n              jump\t// in\n            tag_332:\n                /* \"v2-core-master/contracts/XeleronFactory_flattened.sol\":5828:5843  balanceOf[from] */\n              0xffffffffffffffffffffffffffffffffffffffff\n              dup4\n              and\n              0x00\n              swap1\n              dup2\n              mstore\n                /* \"v2-core-master/contracts/XeleronFactory_flattened.sol\":5828:5837  balanceOf */\n              0x01\n                /* \"v2-core-master/contracts/XeleronFactory_flattened.sol\":5828:5843  balanceOf[from] */\n              0x20\n              mstore\n              0x40\n              dup2\n              keccak256\n                /* \"v2-core-master/contracts/XeleronFactory_flattened.sol\":5828:5872  balanceOf[from] = balanceOf[from].sub(value) */\n              swap2\n              swap1\n              swap2\n              sstore\n                /* \"v2-core-master/contracts/XeleronFactory_flattened.sol\":5896:5907  totalSupply */\n              sload\n                /* \"v2-core-master/contracts/XeleronFactory_flattened.sol\":5896:5918  totalSupply.sub(value) */\n              tag_333\n              swap1\n                /* \"v2-core-master/contracts/XeleronFactory_flattened.sol\":5912:5917  value */\n              dup3\n                /* \"v2-core-master/contracts/XeleronFactory_flattened.sol\":5896:5918  totalSupply.sub(value) */\n              0xffffffff\n                /* \"v2-core-master/contracts/XeleronFactory_flattened.sol\":5896:5911  totalSupply.sub */\n              tag_148\n                /* \"v2-core-master/contracts/XeleronFactory_flattened.sol\":5896:5918  totalSupply.sub(value) */\n              and\n              jump\t// in\n            tag_333:\n                /* \"v2-core-master/contracts/XeleronFactory_flattened.sol\":5882:5893  totalSupply */\n              0x00\n                /* \"v2-core-master/contracts/XeleronFactory_flattened.sol\":5882:5918  totalSupply = totalSupply.sub(value) */\n              swap1\n              dup2\n              sstore\n                /* \"v2-core-master/contracts/XeleronFactory_flattened.sol\":5933:5966  Transfer(from, address(0), value) */\n              0x40\n              dup1\n              mload\n              dup4\n              dup2\n              mstore\n              swap1\n              mload\n              0xffffffffffffffffffffffffffffffffffffffff\n              dup6\n              and\n              swap2\n              0xddf252ad1be2c89b69c2b068fc378daa952ba7f163c4a11628f55a4df523b3ef\n              swap2\n              swap1\n              dup2\n              swap1\n              sub\n              0x20\n              add\n              swap1\n              log3\n                /* \"v2-core-master/contracts/XeleronFactory_flattened.sol\":5768:5973  function _burn(address from, uint value) internal {... */\n              pop\n              pop\n              jump\t// out\n                /* \"v2-core-master/contracts/XeleronFactory_flattened.sol\":1445:1563  function encode(uint112 y) internal pure returns (uint224 z) {... */\n            tag_288:\n                /* \"v2-core-master/contracts/XeleronFactory_flattened.sol\":1520:1530  uint224(y) */\n              0xffffffffffffffffffffffffffff\n              and\n                /* \"v2-core-master/contracts/XeleronFactory_flattened.sol\":1393:1399  2**112 */\n              0x010000000000000000000000000000\n                /* \"v2-core-master/contracts/XeleronFactory_flattened.sol\":1520:1537  uint224(y) * Q112 */\n              mul\n              swap1\n                /* \"v2-core-master/contracts/XeleronFactory_flattened.sol\":1445:1563  function encode(uint112 y) internal pure returns (uint224 z) {... */\n              jump\t// out\n                /* \"v2-core-master/contracts/XeleronFactory_flattened.sol\":1631:1737  function uqdiv(uint224 x, uint112 y) internal pure returns (uint224 z) {... */\n            tag_289:\n                /* \"v2-core-master/contracts/XeleronFactory_flattened.sol\":1691:1700  uint224 z */\n              0x00\n                /* \"v2-core-master/contracts/XeleronFactory_flattened.sol\":1720:1730  uint224(y) */\n              0xffffffffffffffffffffffffffff\n              dup3\n              and\n                /* \"v2-core-master/contracts/XeleronFactory_flattened.sol\":1716:1730  x / uint224(y) */\n              0xffffffffffffffffffffffffffffffffffffffffffffffffffffffff\n              dup5\n              and\n                /* \"v2-core-master/contracts/XeleronFactory_flattened.sol\":1720:1730  uint224(y) */\n              dup2\n                /* \"v2-core-master/contracts/XeleronFactory_flattened.sol\":1716:1730  x / uint224(y) */\n              tag_336\n              jumpi\n              invalid\n            tag_336:\n              div\n              swap4\n                /* \"v2-core-master/contracts/XeleronFactory_flattened.sol\":1631:1737  function uqdiv(uint224 x, uint112 y) internal pure returns (uint224 z) {... */\n              swap3\n              pop\n              pop\n              pop\n              jump\t// out\n                /* \"v2-core-master/contracts/XeleronFactory_flattened.sol\":2611:2737  function add(uint x, uint y) internal pure returns (uint z) {... */\n            tag_296:\n                /* \"v2-core-master/contracts/XeleronFactory_flattened.sol\":2694:2699  x + y */\n              dup1\n              dup3\n              add\n                /* \"v2-core-master/contracts/XeleronFactory_flattened.sol\":2689:2705  (z = x + y) >= x */\n              dup3\n              dup2\n              lt\n              iszero\n                /* \"v2-core-master/contracts/XeleronFactory_flattened.sol\":2681:2730  require((z = x + y) >= x, 'ds-math-add-overflow') */\n              tag_159\n              jumpi\n              0x40\n              dup1\n              mload\n              0x08c379a000000000000000000000000000000000000000000000000000000000\n              dup2\n              mstore\n              0x20\n              0x04\n              dup3\n              add\n              mstore\n              0x14\n              0x24\n              dup3\n              add\n              mstore\n              0x64732d6d6174682d6164642d6f766572666c6f77000000000000000000000000\n              0x44\n              dup3\n              add\n              mstore\n              swap1\n              mload\n              swap1\n              dup2\n              swap1\n              sub\n              0x64\n              add\n              swap1\n              revert\n            stop\n            data_22c2651602c581f65512d1fd1b75fd17876224614706888356a92fc2327ffbd6 58656c65726f6e3a20494e53554646494349454e545f494e5055545f414d4f554e54\n            data_74f88baba11428a8b2aa2dc46d0a749f6d7c0e8bd0c415d3967b823dc17b2e57 58656c65726f6e3a20494e53554646494349454e545f4c49515549444954595f4d494e544544\n            data_a35e814dbc094c9f1a6facd27a7fe48075fb1eae2196cf9b373eebed0f367750 58656c65726f6e3a20494e53554646494349454e545f4f55545055545f414d4f554e54\n            data_f090f3a16a3c91d8127a557871c5c028ffe071b2d66fabe9001aefc3d79ef891 58656c65726f6e3a20494e53554646494349454e545f4c49515549444954595f4255524e4544\n\n            auxdata: 0xa265627a7a72315820c2e05c0edf917472128b05a754cef0e360c4a9fe3a8a5c6297b1caba9a49405264736f6c63430005100032\n        }\n    }\n\n    auxdata: 0xa265627a7a723158206388e8a11a0c6d1856365930de3421a8ba40cfe24e8c903b9e266fb939a12a6564736f6c63430005100032\n}\n",
				"bytecode": {
					"linkReferences": {},
					"object": "608060405234801561001057600080fd5b506040516137443803806137448339818101604052602081101561003357600080fd5b5051600180546001600160a01b0319166001600160a01b039092169190911790556136e1806100636000396000f3fe608060405234801561001057600080fd5b50600436106100a35760003560e01c8063574f2ba311610076578063c9c653961161005b578063c9c6539614610155578063e6a4390514610190578063f46901ed146101cb576100a3565b8063574f2ba314610118578063a2e74af614610120576100a3565b8063017e7e58146100a8578063094b7415146100d95780631e3dd18b146100e1578063257671f5146100fe575b600080fd5b6100b06101fe565b6040805173ffffffffffffffffffffffffffffffffffffffff9092168252519081900360200190f35b6100b061021a565b6100b0600480360360208110156100f757600080fd5b5035610236565b61010661026a565b60408051918252519081900360200190f35b61010661031b565b6101536004803603602081101561013657600080fd5b503573ffffffffffffffffffffffffffffffffffffffff16610321565b005b6100b06004803603604081101561016b57600080fd5b5073ffffffffffffffffffffffffffffffffffffffff813581169160200135166103ee565b6100b0600480360360408110156101a657600080fd5b5073ffffffffffffffffffffffffffffffffffffffff81358116916020013516610841565b610153600480360360208110156101e157600080fd5b503573ffffffffffffffffffffffffffffffffffffffff16610874565b60005473ffffffffffffffffffffffffffffffffffffffff1681565b60015473ffffffffffffffffffffffffffffffffffffffff1681565b6003818154811061024357fe5b60009182526020909120015473ffffffffffffffffffffffffffffffffffffffff16905081565b60405161027960208201610941565b6020820181038252601f19601f820116604052506040516020018082805190602001908083835b602083106102dd57805182527fffffffffffffffffffffffffffffffffffffffffffffffffffffffffffffffe090920191602091820191016102a0565b6001836020036101000a0380198251168184511680821785525050505050509050019150506040516020818303038152906040528051906020012081565b60035490565b60015473ffffffffffffffffffffffffffffffffffffffff1633146103a757604080517f08c379a000000000000000000000000000000000000000000000000000000000815260206004820152601260248201527f58656c65726f6e3a20464f5242494444454e0000000000000000000000000000604482015290519081900360640190fd5b600180547fffffffffffffffffffffffff00000000000000000000000000000000000000001673ffffffffffffffffffffffffffffffffffffffff92909216919091179055565b60008173ffffffffffffffffffffffffffffffffffffffff168373ffffffffffffffffffffffffffffffffffffffff16141561048b57604080517f08c379a000000000000000000000000000000000000000000000000000000000815260206004820152601c60248201527f58656c65726f6e3a204944454e544943414c5f41444452455353455300000000604482015290519081900360640190fd5b6000808373ffffffffffffffffffffffffffffffffffffffff168573ffffffffffffffffffffffffffffffffffffffff16106104c85783856104cb565b84845b909250905073ffffffffffffffffffffffffffffffffffffffff821661055257604080517f08c379a000000000000000000000000000000000000000000000000000000000815260206004820152601560248201527f58656c65726f6e3a205a45524f5f414444524553530000000000000000000000604482015290519081900360640190fd5b73ffffffffffffffffffffffffffffffffffffffff8281166000908152600260209081526040808320858516845290915290205416156105f357604080517f08c379a000000000000000000000000000000000000000000000000000000000815260206004820152601460248201527f58656c65726f6e3a20504149525f455849535453000000000000000000000000604482015290519081900360640190fd5b60606040518060200161060590610941565b6020820181038252601f19601f82011660405250905060008383604051602001808373ffffffffffffffffffffffffffffffffffffffff1673ffffffffffffffffffffffffffffffffffffffff1660601b81526014018273ffffffffffffffffffffffffffffffffffffffff1673ffffffffffffffffffffffffffffffffffffffff1660601b815260140192505050604051602081830303815290604052805190602001209050808251602084016000f5604080517f485cc95500000000000000000000000000000000000000000000000000000000815273ffffffffffffffffffffffffffffffffffffffff8781166004830152868116602483015291519297509087169163485cc9559160448082019260009290919082900301818387803b15801561073257600080fd5b505af1158015610746573d6000803e3d6000fd5b5050505073ffffffffffffffffffffffffffffffffffffffff84811660008181526002602081815260408084208987168086529083528185208054978d167fffffffffffffffffffffffff000000000000000000000000000000000000000098891681179091559383528185208686528352818520805488168517905560038054600181018255958190527fc2575a0e9e593c00f959f8c92f12db2869c3395a3b0502d05e2516446f71f85b90950180549097168417909655925483519283529082015281517f0d3648bd0f6ba80134a33ba9275ac585d9d315f0ad8355cddefde31afa28d0e9929181900390910190a35050505092915050565b600260209081526000928352604080842090915290825290205473ffffffffffffffffffffffffffffffffffffffff1681565b60015473ffffffffffffffffffffffffffffffffffffffff1633146108fa57604080517f08c379a000000000000000000000000000000000000000000000000000000000815260206004820152601260248201527f58656c65726f6e3a20464f5242494444454e0000000000000000000000000000604482015290519081900360640190fd5b600080547fffffffffffffffffffffffff00000000000000000000000000000000000000001673ffffffffffffffffffffffffffffffffffffffff92909216919091179055565b612d5e8061094f8339019056fe60806040526001600c5534801561001557600080fd5b506040514690806052612d0c823960408051918290036052018220828201825260078352662c32b632b937b760c91b6020938401528151808301835260018152603160f81b908401528151808401919091527fab57fc33064adc5101b2fdd26d0a0df8e2c3a0c96d711d98eabaf3cf78022f46818301527fc89efdaa54c0f20c7adf612882df0950f5a951637e0307cdcb4c672f298b8bc6606082015260808101949094523060a0808601919091528151808603909101815260c09094019052825192019190912060035550600580546001600160a01b03191633179055612c0a806101026000396000f3fe608060405234801561001057600080fd5b50600436106101b95760003560e01c80636a627842116100f9578063ba9a7a5611610097578063d21220a711610071578063d21220a7146105da578063d505accf146105e2578063dd62ed3e14610640578063fff6cae91461067b576101b9565b8063ba9a7a5614610597578063bc25cf771461059f578063c45a0155146105d2576101b9565b80637ecebe00116100d35780637ecebe00146104d757806389afcb441461050a57806395d89b4114610556578063a9059cbb1461055e576101b9565b80636a6278421461046957806370a082311461049c5780637464fc3d146104cf576101b9565b806323b872dd116101665780633644e515116101405780633644e51514610416578063485cc9551461041e5780635909c0d5146104595780635a3d549314610461576101b9565b806323b872dd146103ad57806330adf81f146103f0578063313ce567146103f8576101b9565b8063095ea7b311610197578063095ea7b3146103155780630dfe16811461036257806318160ddd14610393576101b9565b8063022c0d9f146101be57806306fdde03146102595780630902f1ac146102d6575b600080fd5b610257600480360360808110156101d457600080fd5b81359160208101359173ffffffffffffffffffffffffffffffffffffffff604083013516919081019060808101606082013564010000000081111561021857600080fd5b82018360208201111561022a57600080fd5b8035906020019184600183028401116401000000008311171561024c57600080fd5b509092509050610683565b005b610261610d6d565b6040805160208082528351818301528351919283929083019185019080838360005b8381101561029b578181015183820152602001610283565b50505050905090810190601f1680156102c85780820380516001836020036101000a031916815260200191505b509250505060405180910390f35b6102de610da6565b604080516dffffffffffffffffffffffffffff948516815292909316602083015263ffffffff168183015290519081900360600190f35b61034e6004803603604081101561032b57600080fd5b5073ffffffffffffffffffffffffffffffffffffffff8135169060200135610dfb565b604080519115158252519081900360200190f35b61036a610e12565b6040805173ffffffffffffffffffffffffffffffffffffffff9092168252519081900360200190f35b61039b610e2e565b60408051918252519081900360200190f35b61034e600480360360608110156103c357600080fd5b5073ffffffffffffffffffffffffffffffffffffffff813581169160208101359091169060400135610e34565b61039b610f13565b610400610f37565b6040805160ff9092168252519081900360200190f35b61039b610f3c565b6102576004803603604081101561043457600080fd5b5073ffffffffffffffffffffffffffffffffffffffff81358116916020013516610f42565b61039b61101b565b61039b611021565b61039b6004803603602081101561047f57600080fd5b503573ffffffffffffffffffffffffffffffffffffffff16611027565b61039b600480360360208110156104b257600080fd5b503573ffffffffffffffffffffffffffffffffffffffff166113e1565b61039b6113f3565b61039b600480360360208110156104ed57600080fd5b503573ffffffffffffffffffffffffffffffffffffffff166113f9565b61053d6004803603602081101561052057600080fd5b503573ffffffffffffffffffffffffffffffffffffffff1661140b565b6040805192835260208301919091528051918290030190f35b6102616118a8565b61034e6004803603604081101561057457600080fd5b5073ffffffffffffffffffffffffffffffffffffffff81351690602001356118e1565b61039b6118ee565b610257600480360360208110156105b557600080fd5b503573ffffffffffffffffffffffffffffffffffffffff166118f4565b61036a611aea565b61036a611b06565b610257600480360360e08110156105f857600080fd5b5073ffffffffffffffffffffffffffffffffffffffff813581169160208101359091169060408101359060608101359060ff6080820135169060a08101359060c00135611b22565b61039b6004803603604081101561065657600080fd5b5073ffffffffffffffffffffffffffffffffffffffff81358116916020013516611dee565b610257611e0b565b600c546001146106f457604080517f08c379a000000000000000000000000000000000000000000000000000000000815260206004820152600f60248201527f58656c65726f6e3a204c4f434b45440000000000000000000000000000000000604482015290519081900360640190fd5b6000600c55841515806107075750600084115b61075c576040517f08c379a0000000000000000000000000000000000000000000000000000000008152600401808060200182810382526023815260200180612b8d6023913960400191505060405180910390fd5b600080610767610da6565b5091509150816dffffffffffffffffffffffffffff168710801561079a5750806dffffffffffffffffffffffffffff1686105b61080557604080517f08c379a000000000000000000000000000000000000000000000000000000000815260206004820152601f60248201527f58656c65726f6e3a20494e53554646494349454e545f4c495155494449545900604482015290519081900360640190fd5b600654600754600091829173ffffffffffffffffffffffffffffffffffffffff91821691908116908916821480159061086a57508073ffffffffffffffffffffffffffffffffffffffff168973ffffffffffffffffffffffffffffffffffffffff1614155b6108d557604080517f08c379a000000000000000000000000000000000000000000000000000000000815260206004820152601360248201527f58656c65726f6e3a20494e56414c49445f544f00000000000000000000000000604482015290519081900360640190fd5b8a156108e6576108e6828a8d611ff1565b89156108f7576108f7818a8c611ff1565b86156109d9578873ffffffffffffffffffffffffffffffffffffffff16636558e6f7338d8d8c8c6040518663ffffffff1660e01b8152600401808673ffffffffffffffffffffffffffffffffffffffff1673ffffffffffffffffffffffffffffffffffffffff168152602001858152602001848152602001806020018281038252848482818152602001925080828437600081840152601f19601f8201169050808301925050509650505050505050600060405180830381600087803b1580156109c057600080fd5b505af11580156109d4573d6000803e3d6000fd5b505050505b604080517f70a08231000000000000000000000000000000000000000000000000000000008152306004820152905173ffffffffffffffffffffffffffffffffffffffff8416916370a08231916024808301926020929190829003018186803b158015610a4557600080fd5b505afa158015610a59573d6000803e3d6000fd5b505050506040513d6020811015610a6f57600080fd5b5051604080517f70a08231000000000000000000000000000000000000000000000000000000008152306004820152905191955073ffffffffffffffffffffffffffffffffffffffff8316916370a0823191602480820192602092909190829003018186803b158015610ae157600080fd5b505afa158015610af5573d6000803e3d6000fd5b505050506040513d6020811015610b0b57600080fd5b5051925060009150506dffffffffffffffffffffffffffff85168a90038311610b35576000610b4b565b89856dffffffffffffffffffffffffffff160383035b9050600089856dffffffffffffffffffffffffffff16038311610b6f576000610b85565b89856dffffffffffffffffffffffffffff160383035b90506000821180610b965750600081115b610beb576040517f08c379a0000000000000000000000000000000000000000000000000000000008152600401808060200182810382526022815260200180612b456022913960400191505060405180910390fd5b6000610c1f610c0184600363ffffffff6121fe16565b610c13876103e863ffffffff6121fe16565b9063ffffffff61228416565b90506000610c37610c0184600363ffffffff6121fe16565b9050610c6f620f4240610c636dffffffffffffffffffffffffffff8b8116908b1663ffffffff6121fe16565b9063ffffffff6121fe16565b610c7f838363ffffffff6121fe16565b1015610cec57604080517f08c379a000000000000000000000000000000000000000000000000000000000815260206004820152600a60248201527f58656c65726f6e3a204b00000000000000000000000000000000000000000000604482015290519081900360640190fd5b5050610cfa848488886122f6565b60408051838152602081018390528082018d9052606081018c9052905173ffffffffffffffffffffffffffffffffffffffff8b169133917fd78ad95fa46c994b6551d0da85fc275fe613ce37657fb8d5e3d130840159d8229181900360800190a350506001600c55505050505050505050565b6040518060400160405280600781526020017f58656c65726f6e0000000000000000000000000000000000000000000000000081525081565b6008546dffffffffffffffffffffffffffff808216926e0100000000000000000000000000008304909116917c0100000000000000000000000000000000000000000000000000000000900463ffffffff1690565b6000610e083384846125b2565b5060015b92915050565b60065473ffffffffffffffffffffffffffffffffffffffff1681565b60005481565b73ffffffffffffffffffffffffffffffffffffffff831660009081526002602090815260408083203384529091528120547fffffffffffffffffffffffffffffffffffffffffffffffffffffffffffffffff14610efe5773ffffffffffffffffffffffffffffffffffffffff84166000908152600260209081526040808320338452909152902054610ecc908363ffffffff61228416565b73ffffffffffffffffffffffffffffffffffffffff851660009081526002602090815260408083203384529091529020555b610f09848484612621565b5060019392505050565b7f6e71edae12b1b97f4d1f60370fef10105fa2faae0126114a169c64845d6126c981565b601281565b60035481565b60055473ffffffffffffffffffffffffffffffffffffffff163314610fc857604080517f08c379a000000000000000000000000000000000000000000000000000000000815260206004820152601260248201527f58656c65726f6e3a20464f5242494444454e0000000000000000000000000000604482015290519081900360640190fd5b6006805473ffffffffffffffffffffffffffffffffffffffff9384167fffffffffffffffffffffffff00000000000000000000000000000000000000009182161790915560078054929093169116179055565b60095481565b600a5481565b6000600c5460011461109a57604080517f08c379a000000000000000000000000000000000000000000000000000000000815260206004820152600f60248201527f58656c65726f6e3a204c4f434b45440000000000000000000000000000000000604482015290519081900360640190fd5b6000600c819055806110aa610da6565b50600654604080517f70a08231000000000000000000000000000000000000000000000000000000008152306004820152905193955091935060009273ffffffffffffffffffffffffffffffffffffffff909116916370a08231916024808301926020929190829003018186803b15801561112457600080fd5b505afa158015611138573d6000803e3d6000fd5b505050506040513d602081101561114e57600080fd5b5051600754604080517f70a08231000000000000000000000000000000000000000000000000000000008152306004820152905192935060009273ffffffffffffffffffffffffffffffffffffffff909216916370a0823191602480820192602092909190829003018186803b1580156111c757600080fd5b505afa1580156111db573d6000803e3d6000fd5b505050506040513d60208110156111f157600080fd5b505190506000611217836dffffffffffffffffffffffffffff871663ffffffff61228416565b9050600061123b836dffffffffffffffffffffffffffff871663ffffffff61228416565b905060006112498787612702565b60005490915080611286576112726103e8610c1361126d878763ffffffff6121fe16565b61288e565b985061128160006103e86128e0565b6112e3565b6112e06dffffffffffffffffffffffffffff89166112aa868463ffffffff6121fe16565b816112b157fe5b046dffffffffffffffffffffffffffff89166112d3868563ffffffff6121fe16565b816112da57fe5b04612990565b98505b6000891161133c576040517f08c379a0000000000000000000000000000000000000000000000000000000008152600401808060200182810382526026815260200180612b676026913960400191505060405180910390fd5b6113468a8a6128e0565b61135286868a8a6122f6565b811561139457600854611390906dffffffffffffffffffffffffffff808216916e01000000000000000000000000000090041663ffffffff6121fe16565b600b555b6040805185815260208101859052815133927f4c209b5fc8ad50758f13e2e1088ba56a560dff690a1c6fef26394f4c03821c4f928290030190a250506001600c5550949695505050505050565b60016020526000908152604090205481565b600b5481565b60046020526000908152604090205481565b600080600c5460011461147f57604080517f08c379a000000000000000000000000000000000000000000000000000000000815260206004820152600f60248201527f58656c65726f6e3a204c4f434b45440000000000000000000000000000000000604482015290519081900360640190fd5b6000600c8190558061148f610da6565b50600654600754604080517f70a08231000000000000000000000000000000000000000000000000000000008152306004820152905194965092945073ffffffffffffffffffffffffffffffffffffffff9182169391169160009184916370a08231916024808301926020929190829003018186803b15801561151157600080fd5b505afa158015611525573d6000803e3d6000fd5b505050506040513d602081101561153b57600080fd5b5051604080517f70a08231000000000000000000000000000000000000000000000000000000008152306004820152905191925060009173ffffffffffffffffffffffffffffffffffffffff8516916370a08231916024808301926020929190829003018186803b1580156115af57600080fd5b505afa1580156115c3573d6000803e3d6000fd5b505050506040513d60208110156115d957600080fd5b5051306000908152600160205260408120549192506115f88888612702565b6000549091508061160f848763ffffffff6121fe16565b8161161657fe5b049a508061162a848663ffffffff6121fe16565b8161163157fe5b04995060008b118015611644575060008a115b611699576040517f08c379a0000000000000000000000000000000000000000000000000000000008152600401808060200182810382526026815260200180612bb06026913960400191505060405180910390fd5b6116a330846129a8565b6116ae878d8d611ff1565b6116b9868d8c611ff1565b604080517f70a08231000000000000000000000000000000000000000000000000000000008152306004820152905173ffffffffffffffffffffffffffffffffffffffff8916916370a08231916024808301926020929190829003018186803b15801561172557600080fd5b505afa158015611739573d6000803e3d6000fd5b505050506040513d602081101561174f57600080fd5b5051604080517f70a08231000000000000000000000000000000000000000000000000000000008152306004820152905191965073ffffffffffffffffffffffffffffffffffffffff8816916370a0823191602480820192602092909190829003018186803b1580156117c157600080fd5b505afa1580156117d5573d6000803e3d6000fd5b505050506040513d60208110156117eb57600080fd5b505193506117fb85858b8b6122f6565b811561183d57600854611839906dffffffffffffffffffffffffffff808216916e01000000000000000000000000000090041663ffffffff6121fe16565b600b555b604080518c8152602081018c9052815173ffffffffffffffffffffffffffffffffffffffff8f169233927fdccd412f0b1252819cb1fd330b93224ca42612892bb3f4f789976e6d81936496929081900390910190a35050505050505050506001600c81905550915091565b6040518060400160405280600381526020017f584c52000000000000000000000000000000000000000000000000000000000081525081565b6000610e08338484612621565b6103e881565b600c5460011461196557604080517f08c379a000000000000000000000000000000000000000000000000000000000815260206004820152600f60248201527f58656c65726f6e3a204c4f434b45440000000000000000000000000000000000604482015290519081900360640190fd5b6000600c55600654600754600854604080517f70a08231000000000000000000000000000000000000000000000000000000008152306004820152905173ffffffffffffffffffffffffffffffffffffffff9485169490931692611a419285928792611a3c926dffffffffffffffffffffffffffff169185916370a0823191602480820192602092909190829003018186803b158015611a0457600080fd5b505afa158015611a18573d6000803e3d6000fd5b505050506040513d6020811015611a2e57600080fd5b50519063ffffffff61228416565b611ff1565b600854604080517f70a082310000000000000000000000000000000000000000000000000000000081523060048201529051611ae09284928792611a3c926e01000000000000000000000000000090046dffffffffffffffffffffffffffff169173ffffffffffffffffffffffffffffffffffffffff8616916370a0823191602480820192602092909190829003018186803b158015611a0457600080fd5b50506001600c5550565b60055473ffffffffffffffffffffffffffffffffffffffff1681565b60075473ffffffffffffffffffffffffffffffffffffffff1681565b42841015611b9157604080517f08c379a000000000000000000000000000000000000000000000000000000000815260206004820152601060248201527f58656c65726f6e3a204558504952454400000000000000000000000000000000604482015290519081900360640190fd5b60035473ffffffffffffffffffffffffffffffffffffffff80891660008181526004602090815260408083208054600180820190925582517f6e71edae12b1b97f4d1f60370fef10105fa2faae0126114a169c64845d6126c98186015280840196909652958d166060860152608085018c905260a085019590955260c08085018b90528151808603909101815260e0850182528051908301207f19010000000000000000000000000000000000000000000000000000000000006101008601526101028501969096526101228085019690965280518085039096018652610142840180825286519683019690962095839052610162840180825286905260ff89166101828501526101a284018890526101c28401879052519193926101e2808201937fffffffffffffffffffffffffffffffffffffffffffffffffffffffffffffffe081019281900390910190855afa158015611cf2573d6000803e3d6000fd5b50506040517fffffffffffffffffffffffffffffffffffffffffffffffffffffffffffffffe0015191505073ffffffffffffffffffffffffffffffffffffffff811615801590611d6d57508873ffffffffffffffffffffffffffffffffffffffff168173ffffffffffffffffffffffffffffffffffffffff16145b611dd857604080517f08c379a000000000000000000000000000000000000000000000000000000000815260206004820152601a60248201527f58656c65726f6e3a20494e56414c49445f5349474e4154555245000000000000604482015290519081900360640190fd5b611de38989896125b2565b505050505050505050565b600260209081526000928352604080842090915290825290205481565b600c54600114611e7c57604080517f08c379a000000000000000000000000000000000000000000000000000000000815260206004820152600f60248201527f58656c65726f6e3a204c4f434b45440000000000000000000000000000000000604482015290519081900360640190fd5b6000600c55600654604080517f70a082310000000000000000000000000000000000000000000000000000000081523060048201529051611fea9273ffffffffffffffffffffffffffffffffffffffff16916370a08231916024808301926020929190829003018186803b158015611ef357600080fd5b505afa158015611f07573d6000803e3d6000fd5b505050506040513d6020811015611f1d57600080fd5b5051600754604080517f70a08231000000000000000000000000000000000000000000000000000000008152306004820152905173ffffffffffffffffffffffffffffffffffffffff909216916370a0823191602480820192602092909190829003018186803b158015611f9057600080fd5b505afa158015611fa4573d6000803e3d6000fd5b505050506040513d6020811015611fba57600080fd5b50516008546dffffffffffffffffffffffffffff808216916e0100000000000000000000000000009004166122f6565b6001600c55565b604080518082018252601981527f7472616e7366657228616464726573732c75696e743235362900000000000000602091820152815173ffffffffffffffffffffffffffffffffffffffff85811660248301526044808301869052845180840390910181526064909201845291810180517bffffffffffffffffffffffffffffffffffffffffffffffffffffffff167fa9059cbb000000000000000000000000000000000000000000000000000000001781529251815160009460609489169392918291908083835b602083106120f757805182527fffffffffffffffffffffffffffffffffffffffffffffffffffffffffffffffe090920191602091820191016120ba565b6001836020036101000a0380198251168184511680821785525050505050509050019150506000604051808303816000865af19150503d8060008114612159576040519150601f19603f3d011682016040523d82523d6000602084013e61215e565b606091505b509150915081801561218c57508051158061218c575080806020019051602081101561218957600080fd5b50515b6121f757604080517f08c379a000000000000000000000000000000000000000000000000000000000815260206004820152601860248201527f58656c65726f6e3a205452414e534645525f4641494c45440000000000000000604482015290519081900360640190fd5b5050505050565b60008115806122195750508082028282828161221657fe5b04145b610e0c57604080517f08c379a000000000000000000000000000000000000000000000000000000000815260206004820152601460248201527f64732d6d6174682d6d756c2d6f766572666c6f77000000000000000000000000604482015290519081900360640190fd5b80820382811115610e0c57604080517f08c379a000000000000000000000000000000000000000000000000000000000815260206004820152601560248201527f64732d6d6174682d7375622d756e646572666c6f770000000000000000000000604482015290519081900360640190fd5b6dffffffffffffffffffffffffffff841180159061232257506dffffffffffffffffffffffffffff8311155b61238d57604080517f08c379a000000000000000000000000000000000000000000000000000000000815260206004820152601160248201527f58656c65726f6e3a204f564552464c4f57000000000000000000000000000000604482015290519081900360640190fd5b60085463ffffffff428116917c0100000000000000000000000000000000000000000000000000000000900481168203908116158015906123dd57506dffffffffffffffffffffffffffff841615155b80156123f857506dffffffffffffffffffffffffffff831615155b156124a8578063ffffffff1661243b8561241186612a6d565b7bffffffffffffffffffffffffffffffffffffffffffffffffffffffff169063ffffffff612a9116565b600980547bffffffffffffffffffffffffffffffffffffffffffffffffffffffff929092169290920201905563ffffffff811661247b8461241187612a6d565b600a80547bffffffffffffffffffffffffffffffffffffffffffffffffffffffff92909216929092020190555b600880547fffffffffffffffffffffffffffffffffffff0000000000000000000000000000166dffffffffffffffffffffffffffff888116919091177fffffffff0000000000000000000000000000ffffffffffffffffffffffffffff166e0100000000000000000000000000008883168102919091177bffffffffffffffffffffffffffffffffffffffffffffffffffffffff167c010000000000000000000000000000000000000000000000000000000063ffffffff871602179283905560408051848416815291909304909116602082015281517f1c411e9a96e071241c2f21f7726b17ae89e3cab4c78be50e062b03a9fffbbad1929181900390910190a1505050505050565b73ffffffffffffffffffffffffffffffffffffffff808416600081815260026020908152604080832094871680845294825291829020859055815185815291517f8c5be1e5ebec7d5bd14f71427d1e84f3dd0314c0f7b2291e5b200ac8c7c3b9259281900390910190a3505050565b73ffffffffffffffffffffffffffffffffffffffff8316600090815260016020526040902054612657908263ffffffff61228416565b73ffffffffffffffffffffffffffffffffffffffff8085166000908152600160205260408082209390935590841681522054612699908263ffffffff612ad216565b73ffffffffffffffffffffffffffffffffffffffff80841660008181526001602090815260409182902094909455805185815290519193928716927fddf252ad1be2c89b69c2b068fc378daa952ba7f163c4a11628f55a4df523b3ef92918290030190a3505050565b600080600560009054906101000a900473ffffffffffffffffffffffffffffffffffffffff1673ffffffffffffffffffffffffffffffffffffffff1663017e7e586040518163ffffffff1660e01b815260040160206040518083038186803b15801561276d57600080fd5b505afa158015612781573d6000803e3d6000fd5b505050506040513d602081101561279757600080fd5b5051600b5473ffffffffffffffffffffffffffffffffffffffff821615801594509192509061287a5780156128755760006127ee61126d6dffffffffffffffffffffffffffff88811690881663ffffffff6121fe16565b905060006127fb8361288e565b90508082111561287257600061282961281a848463ffffffff61228416565b6000549063ffffffff6121fe16565b9050600061284e8361284286600563ffffffff6121fe16565b9063ffffffff612ad216565b9050600081838161285b57fe5b049050801561286e5761286e87826128e0565b5050505b50505b612886565b8015612886576000600b555b505092915050565b600060038211156128d1575080600160028204015b818110156128cb578091506002818285816128ba57fe5b0401816128c357fe5b0490506128a3565b506128db565b81156128db575060015b919050565b6000546128f3908263ffffffff612ad216565b600090815573ffffffffffffffffffffffffffffffffffffffff831681526001602052604090205461292b908263ffffffff612ad216565b73ffffffffffffffffffffffffffffffffffffffff831660008181526001602090815260408083209490945583518581529351929391927fddf252ad1be2c89b69c2b068fc378daa952ba7f163c4a11628f55a4df523b3ef9281900390910190a35050565b600081831061299f57816129a1565b825b9392505050565b73ffffffffffffffffffffffffffffffffffffffff82166000908152600160205260409020546129de908263ffffffff61228416565b73ffffffffffffffffffffffffffffffffffffffff831660009081526001602052604081209190915554612a18908263ffffffff61228416565b600090815560408051838152905173ffffffffffffffffffffffffffffffffffffffff8516917fddf252ad1be2c89b69c2b068fc378daa952ba7f163c4a11628f55a4df523b3ef919081900360200190a35050565b6dffffffffffffffffffffffffffff166e0100000000000000000000000000000290565b60006dffffffffffffffffffffffffffff82167bffffffffffffffffffffffffffffffffffffffffffffffffffffffff841681612aca57fe5b049392505050565b80820182811015610e0c57604080517f08c379a000000000000000000000000000000000000000000000000000000000815260206004820152601460248201527f64732d6d6174682d6164642d6f766572666c6f77000000000000000000000000604482015290519081900360640190fdfe58656c65726f6e3a20494e53554646494349454e545f494e5055545f414d4f554e5458656c65726f6e3a20494e53554646494349454e545f4c49515549444954595f4d494e54454458656c65726f6e3a20494e53554646494349454e545f4f55545055545f414d4f554e5458656c65726f6e3a20494e53554646494349454e545f4c49515549444954595f4255524e4544a265627a7a72315820c2e05c0edf917472128b05a754cef0e360c4a9fe3a8a5c6297b1caba9a49405264736f6c63430005100032454950373132446f6d61696e28737472696e67206e616d652c737472696e672076657273696f6e2c75696e7432353620636861696e49642c6164647265737320766572696679696e67436f6e747261637429a265627a7a723158206388e8a11a0c6d1856365930de3421a8ba40cfe24e8c903b9e266fb939a12a6564736f6c63430005100032",
					"opcodes": "PUSH1 0x80 PUSH1 0x40 MSTORE CALLVALUE DUP1 ISZERO PUSH2 0x10 JUMPI PUSH1 0x0 DUP1 REVERT JUMPDEST POP PUSH1 0x40 MLOAD PUSH2 0x3744 CODESIZE SUB DUP1 PUSH2 0x3744 DUP4 CODECOPY DUP2 DUP2 ADD PUSH1 0x40 MSTORE PUSH1 0x20 DUP2 LT ISZERO PUSH2 0x33 JUMPI PUSH1 0x0 DUP1 REVERT JUMPDEST POP MLOAD PUSH1 0x1 DUP1 SLOAD PUSH1 0x1 PUSH1 0x1 PUSH1 0xA0 SHL SUB NOT AND PUSH1 0x1 PUSH1 0x1 PUSH1 0xA0 SHL SUB SWAP1 SWAP3 AND SWAP2 SWAP1 SWAP2 OR SWAP1 SSTORE PUSH2 0x36E1 DUP1 PUSH2 0x63 PUSH1 0x0 CODECOPY PUSH1 0x0 RETURN INVALID PUSH1 0x80 PUSH1 0x40 MSTORE CALLVALUE DUP1 ISZERO PUSH2 0x10 JUMPI PUSH1 0x0 DUP1 REVERT JUMPDEST POP PUSH1 0x4 CALLDATASIZE LT PUSH2 0xA3 JUMPI PUSH1 0x0 CALLDATALOAD PUSH1 0xE0 SHR DUP1 PUSH4 0x574F2BA3 GT PUSH2 0x76 JUMPI DUP1 PUSH4 0xC9C65396 GT PUSH2 0x5B JUMPI DUP1 PUSH4 0xC9C65396 EQ PUSH2 0x155 JUMPI DUP1 PUSH4 0xE6A43905 EQ PUSH2 0x190 JUMPI DUP1 PUSH4 0xF46901ED EQ PUSH2 0x1CB JUMPI PUSH2 0xA3 JUMP JUMPDEST DUP1 PUSH4 0x574F2BA3 EQ PUSH2 0x118 JUMPI DUP1 PUSH4 0xA2E74AF6 EQ PUSH2 0x120 JUMPI PUSH2 0xA3 JUMP JUMPDEST DUP1 PUSH4 0x17E7E58 EQ PUSH2 0xA8 JUMPI DUP1 PUSH4 0x94B7415 EQ PUSH2 0xD9 JUMPI DUP1 PUSH4 0x1E3DD18B EQ PUSH2 0xE1 JUMPI DUP1 PUSH4 0x257671F5 EQ PUSH2 0xFE JUMPI JUMPDEST PUSH1 0x0 DUP1 REVERT JUMPDEST PUSH2 0xB0 PUSH2 0x1FE JUMP JUMPDEST PUSH1 0x40 DUP1 MLOAD PUSH20 0xFFFFFFFFFFFFFFFFFFFFFFFFFFFFFFFFFFFFFFFF SWAP1 SWAP3 AND DUP3 MSTORE MLOAD SWAP1 DUP2 SWAP1 SUB PUSH1 0x20 ADD SWAP1 RETURN JUMPDEST PUSH2 0xB0 PUSH2 0x21A JUMP JUMPDEST PUSH2 0xB0 PUSH1 0x4 DUP1 CALLDATASIZE SUB PUSH1 0x20 DUP2 LT ISZERO PUSH2 0xF7 JUMPI PUSH1 0x0 DUP1 REVERT JUMPDEST POP CALLDATALOAD PUSH2 0x236 JUMP JUMPDEST PUSH2 0x106 PUSH2 0x26A JUMP JUMPDEST PUSH1 0x40 DUP1 MLOAD SWAP2 DUP3 MSTORE MLOAD SWAP1 DUP2 SWAP1 SUB PUSH1 0x20 ADD SWAP1 RETURN JUMPDEST PUSH2 0x106 PUSH2 0x31B JUMP JUMPDEST PUSH2 0x153 PUSH1 0x4 DUP1 CALLDATASIZE SUB PUSH1 0x20 DUP2 LT ISZERO PUSH2 0x136 JUMPI PUSH1 0x0 DUP1 REVERT JUMPDEST POP CALLDATALOAD PUSH20 0xFFFFFFFFFFFFFFFFFFFFFFFFFFFFFFFFFFFFFFFF AND PUSH2 0x321 JUMP JUMPDEST STOP JUMPDEST PUSH2 0xB0 PUSH1 0x4 DUP1 CALLDATASIZE SUB PUSH1 0x40 DUP2 LT ISZERO PUSH2 0x16B JUMPI PUSH1 0x0 DUP1 REVERT JUMPDEST POP PUSH20 0xFFFFFFFFFFFFFFFFFFFFFFFFFFFFFFFFFFFFFFFF DUP2 CALLDATALOAD DUP2 AND SWAP2 PUSH1 0x20 ADD CALLDATALOAD AND PUSH2 0x3EE JUMP JUMPDEST PUSH2 0xB0 PUSH1 0x4 DUP1 CALLDATASIZE SUB PUSH1 0x40 DUP2 LT ISZERO PUSH2 0x1A6 JUMPI PUSH1 0x0 DUP1 REVERT JUMPDEST POP PUSH20 0xFFFFFFFFFFFFFFFFFFFFFFFFFFFFFFFFFFFFFFFF DUP2 CALLDATALOAD DUP2 AND SWAP2 PUSH1 0x20 ADD CALLDATALOAD AND PUSH2 0x841 JUMP JUMPDEST PUSH2 0x153 PUSH1 0x4 DUP1 CALLDATASIZE SUB PUSH1 0x20 DUP2 LT ISZERO PUSH2 0x1E1 JUMPI PUSH1 0x0 DUP1 REVERT JUMPDEST POP CALLDATALOAD PUSH20 0xFFFFFFFFFFFFFFFFFFFFFFFFFFFFFFFFFFFFFFFF AND PUSH2 0x874 JUMP JUMPDEST PUSH1 0x0 SLOAD PUSH20 0xFFFFFFFFFFFFFFFFFFFFFFFFFFFFFFFFFFFFFFFF AND DUP2 JUMP JUMPDEST PUSH1 0x1 SLOAD PUSH20 0xFFFFFFFFFFFFFFFFFFFFFFFFFFFFFFFFFFFFFFFF AND DUP2 JUMP JUMPDEST PUSH1 0x3 DUP2 DUP2 SLOAD DUP2 LT PUSH2 0x243 JUMPI INVALID JUMPDEST PUSH1 0x0 SWAP2 DUP3 MSTORE PUSH1 0x20 SWAP1 SWAP2 KECCAK256 ADD SLOAD PUSH20 0xFFFFFFFFFFFFFFFFFFFFFFFFFFFFFFFFFFFFFFFF AND SWAP1 POP DUP2 JUMP JUMPDEST PUSH1 0x40 MLOAD PUSH2 0x279 PUSH1 0x20 DUP3 ADD PUSH2 0x941 JUMP JUMPDEST PUSH1 0x20 DUP3 ADD DUP2 SUB DUP3 MSTORE PUSH1 0x1F NOT PUSH1 0x1F DUP3 ADD AND PUSH1 0x40 MSTORE POP PUSH1 0x40 MLOAD PUSH1 0x20 ADD DUP1 DUP3 DUP1 MLOAD SWAP1 PUSH1 0x20 ADD SWAP1 DUP1 DUP4 DUP4 JUMPDEST PUSH1 0x20 DUP4 LT PUSH2 0x2DD JUMPI DUP1 MLOAD DUP3 MSTORE PUSH32 0xFFFFFFFFFFFFFFFFFFFFFFFFFFFFFFFFFFFFFFFFFFFFFFFFFFFFFFFFFFFFFFE0 SWAP1 SWAP3 ADD SWAP2 PUSH1 0x20 SWAP2 DUP3 ADD SWAP2 ADD PUSH2 0x2A0 JUMP JUMPDEST PUSH1 0x1 DUP4 PUSH1 0x20 SUB PUSH2 0x100 EXP SUB DUP1 NOT DUP3 MLOAD AND DUP2 DUP5 MLOAD AND DUP1 DUP3 OR DUP6 MSTORE POP POP POP POP POP POP SWAP1 POP ADD SWAP2 POP POP PUSH1 0x40 MLOAD PUSH1 0x20 DUP2 DUP4 SUB SUB DUP2 MSTORE SWAP1 PUSH1 0x40 MSTORE DUP1 MLOAD SWAP1 PUSH1 0x20 ADD KECCAK256 DUP2 JUMP JUMPDEST PUSH1 0x3 SLOAD SWAP1 JUMP JUMPDEST PUSH1 0x1 SLOAD PUSH20 0xFFFFFFFFFFFFFFFFFFFFFFFFFFFFFFFFFFFFFFFF AND CALLER EQ PUSH2 0x3A7 JUMPI PUSH1 0x40 DUP1 MLOAD PUSH32 0x8C379A000000000000000000000000000000000000000000000000000000000 DUP2 MSTORE PUSH1 0x20 PUSH1 0x4 DUP3 ADD MSTORE PUSH1 0x12 PUSH1 0x24 DUP3 ADD MSTORE PUSH32 0x58656C65726F6E3A20464F5242494444454E0000000000000000000000000000 PUSH1 0x44 DUP3 ADD MSTORE SWAP1 MLOAD SWAP1 DUP2 SWAP1 SUB PUSH1 0x64 ADD SWAP1 REVERT JUMPDEST PUSH1 0x1 DUP1 SLOAD PUSH32 0xFFFFFFFFFFFFFFFFFFFFFFFF0000000000000000000000000000000000000000 AND PUSH20 0xFFFFFFFFFFFFFFFFFFFFFFFFFFFFFFFFFFFFFFFF SWAP3 SWAP1 SWAP3 AND SWAP2 SWAP1 SWAP2 OR SWAP1 SSTORE JUMP JUMPDEST PUSH1 0x0 DUP2 PUSH20 0xFFFFFFFFFFFFFFFFFFFFFFFFFFFFFFFFFFFFFFFF AND DUP4 PUSH20 0xFFFFFFFFFFFFFFFFFFFFFFFFFFFFFFFFFFFFFFFF AND EQ ISZERO PUSH2 0x48B JUMPI PUSH1 0x40 DUP1 MLOAD PUSH32 0x8C379A000000000000000000000000000000000000000000000000000000000 DUP2 MSTORE PUSH1 0x20 PUSH1 0x4 DUP3 ADD MSTORE PUSH1 0x1C PUSH1 0x24 DUP3 ADD MSTORE PUSH32 0x58656C65726F6E3A204944454E544943414C5F41444452455353455300000000 PUSH1 0x44 DUP3 ADD MSTORE SWAP1 MLOAD SWAP1 DUP2 SWAP1 SUB PUSH1 0x64 ADD SWAP1 REVERT JUMPDEST PUSH1 0x0 DUP1 DUP4 PUSH20 0xFFFFFFFFFFFFFFFFFFFFFFFFFFFFFFFFFFFFFFFF AND DUP6 PUSH20 0xFFFFFFFFFFFFFFFFFFFFFFFFFFFFFFFFFFFFFFFF AND LT PUSH2 0x4C8 JUMPI DUP4 DUP6 PUSH2 0x4CB JUMP JUMPDEST DUP5 DUP5 JUMPDEST SWAP1 SWAP3 POP SWAP1 POP PUSH20 0xFFFFFFFFFFFFFFFFFFFFFFFFFFFFFFFFFFFFFFFF DUP3 AND PUSH2 0x552 JUMPI PUSH1 0x40 DUP1 MLOAD PUSH32 0x8C379A000000000000000000000000000000000000000000000000000000000 DUP2 MSTORE PUSH1 0x20 PUSH1 0x4 DUP3 ADD MSTORE PUSH1 0x15 PUSH1 0x24 DUP3 ADD MSTORE PUSH32 0x58656C65726F6E3A205A45524F5F414444524553530000000000000000000000 PUSH1 0x44 DUP3 ADD MSTORE SWAP1 MLOAD SWAP1 DUP2 SWAP1 SUB PUSH1 0x64 ADD SWAP1 REVERT JUMPDEST PUSH20 0xFFFFFFFFFFFFFFFFFFFFFFFFFFFFFFFFFFFFFFFF DUP3 DUP2 AND PUSH1 0x0 SWAP1 DUP2 MSTORE PUSH1 0x2 PUSH1 0x20 SWAP1 DUP2 MSTORE PUSH1 0x40 DUP1 DUP4 KECCAK256 DUP6 DUP6 AND DUP5 MSTORE SWAP1 SWAP2 MSTORE SWAP1 KECCAK256 SLOAD AND ISZERO PUSH2 0x5F3 JUMPI PUSH1 0x40 DUP1 MLOAD PUSH32 0x8C379A000000000000000000000000000000000000000000000000000000000 DUP2 MSTORE PUSH1 0x20 PUSH1 0x4 DUP3 ADD MSTORE PUSH1 0x14 PUSH1 0x24 DUP3 ADD MSTORE PUSH32 0x58656C65726F6E3A20504149525F455849535453000000000000000000000000 PUSH1 0x44 DUP3 ADD MSTORE SWAP1 MLOAD SWAP1 DUP2 SWAP1 SUB PUSH1 0x64 ADD SWAP1 REVERT JUMPDEST PUSH1 0x60 PUSH1 0x40 MLOAD DUP1 PUSH1 0x20 ADD PUSH2 0x605 SWAP1 PUSH2 0x941 JUMP JUMPDEST PUSH1 0x20 DUP3 ADD DUP2 SUB DUP3 MSTORE PUSH1 0x1F NOT PUSH1 0x1F DUP3 ADD AND PUSH1 0x40 MSTORE POP SWAP1 POP PUSH1 0x0 DUP4 DUP4 PUSH1 0x40 MLOAD PUSH1 0x20 ADD DUP1 DUP4 PUSH20 0xFFFFFFFFFFFFFFFFFFFFFFFFFFFFFFFFFFFFFFFF AND PUSH20 0xFFFFFFFFFFFFFFFFFFFFFFFFFFFFFFFFFFFFFFFF AND PUSH1 0x60 SHL DUP2 MSTORE PUSH1 0x14 ADD DUP3 PUSH20 0xFFFFFFFFFFFFFFFFFFFFFFFFFFFFFFFFFFFFFFFF AND PUSH20 0xFFFFFFFFFFFFFFFFFFFFFFFFFFFFFFFFFFFFFFFF AND PUSH1 0x60 SHL DUP2 MSTORE PUSH1 0x14 ADD SWAP3 POP POP POP PUSH1 0x40 MLOAD PUSH1 0x20 DUP2 DUP4 SUB SUB DUP2 MSTORE SWAP1 PUSH1 0x40 MSTORE DUP1 MLOAD SWAP1 PUSH1 0x20 ADD KECCAK256 SWAP1 POP DUP1 DUP3 MLOAD PUSH1 0x20 DUP5 ADD PUSH1 0x0 CREATE2 PUSH1 0x40 DUP1 MLOAD PUSH32 0x485CC95500000000000000000000000000000000000000000000000000000000 DUP2 MSTORE PUSH20 0xFFFFFFFFFFFFFFFFFFFFFFFFFFFFFFFFFFFFFFFF DUP8 DUP2 AND PUSH1 0x4 DUP4 ADD MSTORE DUP7 DUP2 AND PUSH1 0x24 DUP4 ADD MSTORE SWAP2 MLOAD SWAP3 SWAP8 POP SWAP1 DUP8 AND SWAP2 PUSH4 0x485CC955 SWAP2 PUSH1 0x44 DUP1 DUP3 ADD SWAP3 PUSH1 0x0 SWAP3 SWAP1 SWAP2 SWAP1 DUP3 SWAP1 SUB ADD DUP2 DUP4 DUP8 DUP1 EXTCODESIZE ISZERO DUP1 ISZERO PUSH2 0x732 JUMPI PUSH1 0x0 DUP1 REVERT JUMPDEST POP GAS CALL ISZERO DUP1 ISZERO PUSH2 0x746 JUMPI RETURNDATASIZE PUSH1 0x0 DUP1 RETURNDATACOPY RETURNDATASIZE PUSH1 0x0 REVERT JUMPDEST POP POP POP POP PUSH20 0xFFFFFFFFFFFFFFFFFFFFFFFFFFFFFFFFFFFFFFFF DUP5 DUP2 AND PUSH1 0x0 DUP2 DUP2 MSTORE PUSH1 0x2 PUSH1 0x20 DUP2 DUP2 MSTORE PUSH1 0x40 DUP1 DUP5 KECCAK256 DUP10 DUP8 AND DUP1 DUP7 MSTORE SWAP1 DUP4 MSTORE DUP2 DUP6 KECCAK256 DUP1 SLOAD SWAP8 DUP14 AND PUSH32 0xFFFFFFFFFFFFFFFFFFFFFFFF0000000000000000000000000000000000000000 SWAP9 DUP10 AND DUP2 OR SWAP1 SWAP2 SSTORE SWAP4 DUP4 MSTORE DUP2 DUP6 KECCAK256 DUP7 DUP7 MSTORE DUP4 MSTORE DUP2 DUP6 KECCAK256 DUP1 SLOAD DUP9 AND DUP6 OR SWAP1 SSTORE PUSH1 0x3 DUP1 SLOAD PUSH1 0x1 DUP2 ADD DUP3 SSTORE SWAP6 DUP2 SWAP1 MSTORE PUSH32 0xC2575A0E9E593C00F959F8C92F12DB2869C3395A3B0502D05E2516446F71F85B SWAP1 SWAP6 ADD DUP1 SLOAD SWAP1 SWAP8 AND DUP5 OR SWAP1 SWAP7 SSTORE SWAP3 SLOAD DUP4 MLOAD SWAP3 DUP4 MSTORE SWAP1 DUP3 ADD MSTORE DUP2 MLOAD PUSH32 0xD3648BD0F6BA80134A33BA9275AC585D9D315F0AD8355CDDEFDE31AFA28D0E9 SWAP3 SWAP2 DUP2 SWAP1 SUB SWAP1 SWAP2 ADD SWAP1 LOG3 POP POP POP POP SWAP3 SWAP2 POP POP JUMP JUMPDEST PUSH1 0x2 PUSH1 0x20 SWAP1 DUP2 MSTORE PUSH1 0x0 SWAP3 DUP4 MSTORE PUSH1 0x40 DUP1 DUP5 KECCAK256 SWAP1 SWAP2 MSTORE SWAP1 DUP3 MSTORE SWAP1 KECCAK256 SLOAD PUSH20 0xFFFFFFFFFFFFFFFFFFFFFFFFFFFFFFFFFFFFFFFF AND DUP2 JUMP JUMPDEST PUSH1 0x1 SLOAD PUSH20 0xFFFFFFFFFFFFFFFFFFFFFFFFFFFFFFFFFFFFFFFF AND CALLER EQ PUSH2 0x8FA JUMPI PUSH1 0x40 DUP1 MLOAD PUSH32 0x8C379A000000000000000000000000000000000000000000000000000000000 DUP2 MSTORE PUSH1 0x20 PUSH1 0x4 DUP3 ADD MSTORE PUSH1 0x12 PUSH1 0x24 DUP3 ADD MSTORE PUSH32 0x58656C65726F6E3A20464F5242494444454E0000000000000000000000000000 PUSH1 0x44 DUP3 ADD MSTORE SWAP1 MLOAD SWAP1 DUP2 SWAP1 SUB PUSH1 0x64 ADD SWAP1 REVERT JUMPDEST PUSH1 0x0 DUP1 SLOAD PUSH32 0xFFFFFFFFFFFFFFFFFFFFFFFF0000000000000000000000000000000000000000 AND PUSH20 0xFFFFFFFFFFFFFFFFFFFFFFFFFFFFFFFFFFFFFFFF SWAP3 SWAP1 SWAP3 AND SWAP2 SWAP1 SWAP2 OR SWAP1 SSTORE JUMP JUMPDEST PUSH2 0x2D5E DUP1 PUSH2 0x94F DUP4 CODECOPY ADD SWAP1 JUMP INVALID PUSH1 0x80 PUSH1 0x40 MSTORE PUSH1 0x1 PUSH1 0xC SSTORE CALLVALUE DUP1 ISZERO PUSH2 0x15 JUMPI PUSH1 0x0 DUP1 REVERT JUMPDEST POP PUSH1 0x40 MLOAD CHAINID SWAP1 DUP1 PUSH1 0x52 PUSH2 0x2D0C DUP3 CODECOPY PUSH1 0x40 DUP1 MLOAD SWAP2 DUP3 SWAP1 SUB PUSH1 0x52 ADD DUP3 KECCAK256 DUP3 DUP3 ADD DUP3 MSTORE PUSH1 0x7 DUP4 MSTORE PUSH7 0x2C32B632B937B7 PUSH1 0xC9 SHL PUSH1 0x20 SWAP4 DUP5 ADD MSTORE DUP2 MLOAD DUP1 DUP4 ADD DUP4 MSTORE PUSH1 0x1 DUP2 MSTORE PUSH1 0x31 PUSH1 0xF8 SHL SWAP1 DUP5 ADD MSTORE DUP2 MLOAD DUP1 DUP5 ADD SWAP2 SWAP1 SWAP2 MSTORE PUSH32 0xAB57FC33064ADC5101B2FDD26D0A0DF8E2C3A0C96D711D98EABAF3CF78022F46 DUP2 DUP4 ADD MSTORE PUSH32 0xC89EFDAA54C0F20C7ADF612882DF0950F5A951637E0307CDCB4C672F298B8BC6 PUSH1 0x60 DUP3 ADD MSTORE PUSH1 0x80 DUP2 ADD SWAP5 SWAP1 SWAP5 MSTORE ADDRESS PUSH1 0xA0 DUP1 DUP7 ADD SWAP2 SWAP1 SWAP2 MSTORE DUP2 MLOAD DUP1 DUP7 SUB SWAP1 SWAP2 ADD DUP2 MSTORE PUSH1 0xC0 SWAP1 SWAP5 ADD SWAP1 MSTORE DUP3 MLOAD SWAP3 ADD SWAP2 SWAP1 SWAP2 KECCAK256 PUSH1 0x3 SSTORE POP PUSH1 0x5 DUP1 SLOAD PUSH1 0x1 PUSH1 0x1 PUSH1 0xA0 SHL SUB NOT AND CALLER OR SWAP1 SSTORE PUSH2 0x2C0A DUP1 PUSH2 0x102 PUSH1 0x0 CODECOPY PUSH1 0x0 RETURN INVALID PUSH1 0x80 PUSH1 0x40 MSTORE CALLVALUE DUP1 ISZERO PUSH2 0x10 JUMPI PUSH1 0x0 DUP1 REVERT JUMPDEST POP PUSH1 0x4 CALLDATASIZE LT PUSH2 0x1B9 JUMPI PUSH1 0x0 CALLDATALOAD PUSH1 0xE0 SHR DUP1 PUSH4 0x6A627842 GT PUSH2 0xF9 JUMPI DUP1 PUSH4 0xBA9A7A56 GT PUSH2 0x97 JUMPI DUP1 PUSH4 0xD21220A7 GT PUSH2 0x71 JUMPI DUP1 PUSH4 0xD21220A7 EQ PUSH2 0x5DA JUMPI DUP1 PUSH4 0xD505ACCF EQ PUSH2 0x5E2 JUMPI DUP1 PUSH4 0xDD62ED3E EQ PUSH2 0x640 JUMPI DUP1 PUSH4 0xFFF6CAE9 EQ PUSH2 0x67B JUMPI PUSH2 0x1B9 JUMP JUMPDEST DUP1 PUSH4 0xBA9A7A56 EQ PUSH2 0x597 JUMPI DUP1 PUSH4 0xBC25CF77 EQ PUSH2 0x59F JUMPI DUP1 PUSH4 0xC45A0155 EQ PUSH2 0x5D2 JUMPI PUSH2 0x1B9 JUMP JUMPDEST DUP1 PUSH4 0x7ECEBE00 GT PUSH2 0xD3 JUMPI DUP1 PUSH4 0x7ECEBE00 EQ PUSH2 0x4D7 JUMPI DUP1 PUSH4 0x89AFCB44 EQ PUSH2 0x50A JUMPI DUP1 PUSH4 0x95D89B41 EQ PUSH2 0x556 JUMPI DUP1 PUSH4 0xA9059CBB EQ PUSH2 0x55E JUMPI PUSH2 0x1B9 JUMP JUMPDEST DUP1 PUSH4 0x6A627842 EQ PUSH2 0x469 JUMPI DUP1 PUSH4 0x70A08231 EQ PUSH2 0x49C JUMPI DUP1 PUSH4 0x7464FC3D EQ PUSH2 0x4CF JUMPI PUSH2 0x1B9 JUMP JUMPDEST DUP1 PUSH4 0x23B872DD GT PUSH2 0x166 JUMPI DUP1 PUSH4 0x3644E515 GT PUSH2 0x140 JUMPI DUP1 PUSH4 0x3644E515 EQ PUSH2 0x416 JUMPI DUP1 PUSH4 0x485CC955 EQ PUSH2 0x41E JUMPI DUP1 PUSH4 0x5909C0D5 EQ PUSH2 0x459 JUMPI DUP1 PUSH4 0x5A3D5493 EQ PUSH2 0x461 JUMPI PUSH2 0x1B9 JUMP JUMPDEST DUP1 PUSH4 0x23B872DD EQ PUSH2 0x3AD JUMPI DUP1 PUSH4 0x30ADF81F EQ PUSH2 0x3F0 JUMPI DUP1 PUSH4 0x313CE567 EQ PUSH2 0x3F8 JUMPI PUSH2 0x1B9 JUMP JUMPDEST DUP1 PUSH4 0x95EA7B3 GT PUSH2 0x197 JUMPI DUP1 PUSH4 0x95EA7B3 EQ PUSH2 0x315 JUMPI DUP1 PUSH4 0xDFE1681 EQ PUSH2 0x362 JUMPI DUP1 PUSH4 0x18160DDD EQ PUSH2 0x393 JUMPI PUSH2 0x1B9 JUMP JUMPDEST DUP1 PUSH4 0x22C0D9F EQ PUSH2 0x1BE JUMPI DUP1 PUSH4 0x6FDDE03 EQ PUSH2 0x259 JUMPI DUP1 PUSH4 0x902F1AC EQ PUSH2 0x2D6 JUMPI JUMPDEST PUSH1 0x0 DUP1 REVERT JUMPDEST PUSH2 0x257 PUSH1 0x4 DUP1 CALLDATASIZE SUB PUSH1 0x80 DUP2 LT ISZERO PUSH2 0x1D4 JUMPI PUSH1 0x0 DUP1 REVERT JUMPDEST DUP2 CALLDATALOAD SWAP2 PUSH1 0x20 DUP2 ADD CALLDATALOAD SWAP2 PUSH20 0xFFFFFFFFFFFFFFFFFFFFFFFFFFFFFFFFFFFFFFFF PUSH1 0x40 DUP4 ADD CALLDATALOAD AND SWAP2 SWAP1 DUP2 ADD SWAP1 PUSH1 0x80 DUP2 ADD PUSH1 0x60 DUP3 ADD CALLDATALOAD PUSH5 0x100000000 DUP2 GT ISZERO PUSH2 0x218 JUMPI PUSH1 0x0 DUP1 REVERT JUMPDEST DUP3 ADD DUP4 PUSH1 0x20 DUP3 ADD GT ISZERO PUSH2 0x22A JUMPI PUSH1 0x0 DUP1 REVERT JUMPDEST DUP1 CALLDATALOAD SWAP1 PUSH1 0x20 ADD SWAP2 DUP5 PUSH1 0x1 DUP4 MUL DUP5 ADD GT PUSH5 0x100000000 DUP4 GT OR ISZERO PUSH2 0x24C JUMPI PUSH1 0x0 DUP1 REVERT JUMPDEST POP SWAP1 SWAP3 POP SWAP1 POP PUSH2 0x683 JUMP JUMPDEST STOP JUMPDEST PUSH2 0x261 PUSH2 0xD6D JUMP JUMPDEST PUSH1 0x40 DUP1 MLOAD PUSH1 0x20 DUP1 DUP3 MSTORE DUP4 MLOAD DUP2 DUP4 ADD MSTORE DUP4 MLOAD SWAP2 SWAP3 DUP4 SWAP3 SWAP1 DUP4 ADD SWAP2 DUP6 ADD SWAP1 DUP1 DUP4 DUP4 PUSH1 0x0 JUMPDEST DUP4 DUP2 LT ISZERO PUSH2 0x29B JUMPI DUP2 DUP2 ADD MLOAD DUP4 DUP3 ADD MSTORE PUSH1 0x20 ADD PUSH2 0x283 JUMP JUMPDEST POP POP POP POP SWAP1 POP SWAP1 DUP2 ADD SWAP1 PUSH1 0x1F AND DUP1 ISZERO PUSH2 0x2C8 JUMPI DUP1 DUP3 SUB DUP1 MLOAD PUSH1 0x1 DUP4 PUSH1 0x20 SUB PUSH2 0x100 EXP SUB NOT AND DUP2 MSTORE PUSH1 0x20 ADD SWAP2 POP JUMPDEST POP SWAP3 POP POP POP PUSH1 0x40 MLOAD DUP1 SWAP2 SUB SWAP1 RETURN JUMPDEST PUSH2 0x2DE PUSH2 0xDA6 JUMP JUMPDEST PUSH1 0x40 DUP1 MLOAD PUSH14 0xFFFFFFFFFFFFFFFFFFFFFFFFFFFF SWAP5 DUP6 AND DUP2 MSTORE SWAP3 SWAP1 SWAP4 AND PUSH1 0x20 DUP4 ADD MSTORE PUSH4 0xFFFFFFFF AND DUP2 DUP4 ADD MSTORE SWAP1 MLOAD SWAP1 DUP2 SWAP1 SUB PUSH1 0x60 ADD SWAP1 RETURN JUMPDEST PUSH2 0x34E PUSH1 0x4 DUP1 CALLDATASIZE SUB PUSH1 0x40 DUP2 LT ISZERO PUSH2 0x32B JUMPI PUSH1 0x0 DUP1 REVERT JUMPDEST POP PUSH20 0xFFFFFFFFFFFFFFFFFFFFFFFFFFFFFFFFFFFFFFFF DUP2 CALLDATALOAD AND SWAP1 PUSH1 0x20 ADD CALLDATALOAD PUSH2 0xDFB JUMP JUMPDEST PUSH1 0x40 DUP1 MLOAD SWAP2 ISZERO ISZERO DUP3 MSTORE MLOAD SWAP1 DUP2 SWAP1 SUB PUSH1 0x20 ADD SWAP1 RETURN JUMPDEST PUSH2 0x36A PUSH2 0xE12 JUMP JUMPDEST PUSH1 0x40 DUP1 MLOAD PUSH20 0xFFFFFFFFFFFFFFFFFFFFFFFFFFFFFFFFFFFFFFFF SWAP1 SWAP3 AND DUP3 MSTORE MLOAD SWAP1 DUP2 SWAP1 SUB PUSH1 0x20 ADD SWAP1 RETURN JUMPDEST PUSH2 0x39B PUSH2 0xE2E JUMP JUMPDEST PUSH1 0x40 DUP1 MLOAD SWAP2 DUP3 MSTORE MLOAD SWAP1 DUP2 SWAP1 SUB PUSH1 0x20 ADD SWAP1 RETURN JUMPDEST PUSH2 0x34E PUSH1 0x4 DUP1 CALLDATASIZE SUB PUSH1 0x60 DUP2 LT ISZERO PUSH2 0x3C3 JUMPI PUSH1 0x0 DUP1 REVERT JUMPDEST POP PUSH20 0xFFFFFFFFFFFFFFFFFFFFFFFFFFFFFFFFFFFFFFFF DUP2 CALLDATALOAD DUP2 AND SWAP2 PUSH1 0x20 DUP2 ADD CALLDATALOAD SWAP1 SWAP2 AND SWAP1 PUSH1 0x40 ADD CALLDATALOAD PUSH2 0xE34 JUMP JUMPDEST PUSH2 0x39B PUSH2 0xF13 JUMP JUMPDEST PUSH2 0x400 PUSH2 0xF37 JUMP JUMPDEST PUSH1 0x40 DUP1 MLOAD PUSH1 0xFF SWAP1 SWAP3 AND DUP3 MSTORE MLOAD SWAP1 DUP2 SWAP1 SUB PUSH1 0x20 ADD SWAP1 RETURN JUMPDEST PUSH2 0x39B PUSH2 0xF3C JUMP JUMPDEST PUSH2 0x257 PUSH1 0x4 DUP1 CALLDATASIZE SUB PUSH1 0x40 DUP2 LT ISZERO PUSH2 0x434 JUMPI PUSH1 0x0 DUP1 REVERT JUMPDEST POP PUSH20 0xFFFFFFFFFFFFFFFFFFFFFFFFFFFFFFFFFFFFFFFF DUP2 CALLDATALOAD DUP2 AND SWAP2 PUSH1 0x20 ADD CALLDATALOAD AND PUSH2 0xF42 JUMP JUMPDEST PUSH2 0x39B PUSH2 0x101B JUMP JUMPDEST PUSH2 0x39B PUSH2 0x1021 JUMP JUMPDEST PUSH2 0x39B PUSH1 0x4 DUP1 CALLDATASIZE SUB PUSH1 0x20 DUP2 LT ISZERO PUSH2 0x47F JUMPI PUSH1 0x0 DUP1 REVERT JUMPDEST POP CALLDATALOAD PUSH20 0xFFFFFFFFFFFFFFFFFFFFFFFFFFFFFFFFFFFFFFFF AND PUSH2 0x1027 JUMP JUMPDEST PUSH2 0x39B PUSH1 0x4 DUP1 CALLDATASIZE SUB PUSH1 0x20 DUP2 LT ISZERO PUSH2 0x4B2 JUMPI PUSH1 0x0 DUP1 REVERT JUMPDEST POP CALLDATALOAD PUSH20 0xFFFFFFFFFFFFFFFFFFFFFFFFFFFFFFFFFFFFFFFF AND PUSH2 0x13E1 JUMP JUMPDEST PUSH2 0x39B PUSH2 0x13F3 JUMP JUMPDEST PUSH2 0x39B PUSH1 0x4 DUP1 CALLDATASIZE SUB PUSH1 0x20 DUP2 LT ISZERO PUSH2 0x4ED JUMPI PUSH1 0x0 DUP1 REVERT JUMPDEST POP CALLDATALOAD PUSH20 0xFFFFFFFFFFFFFFFFFFFFFFFFFFFFFFFFFFFFFFFF AND PUSH2 0x13F9 JUMP JUMPDEST PUSH2 0x53D PUSH1 0x4 DUP1 CALLDATASIZE SUB PUSH1 0x20 DUP2 LT ISZERO PUSH2 0x520 JUMPI PUSH1 0x0 DUP1 REVERT JUMPDEST POP CALLDATALOAD PUSH20 0xFFFFFFFFFFFFFFFFFFFFFFFFFFFFFFFFFFFFFFFF AND PUSH2 0x140B JUMP JUMPDEST PUSH1 0x40 DUP1 MLOAD SWAP3 DUP4 MSTORE PUSH1 0x20 DUP4 ADD SWAP2 SWAP1 SWAP2 MSTORE DUP1 MLOAD SWAP2 DUP3 SWAP1 SUB ADD SWAP1 RETURN JUMPDEST PUSH2 0x261 PUSH2 0x18A8 JUMP JUMPDEST PUSH2 0x34E PUSH1 0x4 DUP1 CALLDATASIZE SUB PUSH1 0x40 DUP2 LT ISZERO PUSH2 0x574 JUMPI PUSH1 0x0 DUP1 REVERT JUMPDEST POP PUSH20 0xFFFFFFFFFFFFFFFFFFFFFFFFFFFFFFFFFFFFFFFF DUP2 CALLDATALOAD AND SWAP1 PUSH1 0x20 ADD CALLDATALOAD PUSH2 0x18E1 JUMP JUMPDEST PUSH2 0x39B PUSH2 0x18EE JUMP JUMPDEST PUSH2 0x257 PUSH1 0x4 DUP1 CALLDATASIZE SUB PUSH1 0x20 DUP2 LT ISZERO PUSH2 0x5B5 JUMPI PUSH1 0x0 DUP1 REVERT JUMPDEST POP CALLDATALOAD PUSH20 0xFFFFFFFFFFFFFFFFFFFFFFFFFFFFFFFFFFFFFFFF AND PUSH2 0x18F4 JUMP JUMPDEST PUSH2 0x36A PUSH2 0x1AEA JUMP JUMPDEST PUSH2 0x36A PUSH2 0x1B06 JUMP JUMPDEST PUSH2 0x257 PUSH1 0x4 DUP1 CALLDATASIZE SUB PUSH1 0xE0 DUP2 LT ISZERO PUSH2 0x5F8 JUMPI PUSH1 0x0 DUP1 REVERT JUMPDEST POP PUSH20 0xFFFFFFFFFFFFFFFFFFFFFFFFFFFFFFFFFFFFFFFF DUP2 CALLDATALOAD DUP2 AND SWAP2 PUSH1 0x20 DUP2 ADD CALLDATALOAD SWAP1 SWAP2 AND SWAP1 PUSH1 0x40 DUP2 ADD CALLDATALOAD SWAP1 PUSH1 0x60 DUP2 ADD CALLDATALOAD SWAP1 PUSH1 0xFF PUSH1 0x80 DUP3 ADD CALLDATALOAD AND SWAP1 PUSH1 0xA0 DUP2 ADD CALLDATALOAD SWAP1 PUSH1 0xC0 ADD CALLDATALOAD PUSH2 0x1B22 JUMP JUMPDEST PUSH2 0x39B PUSH1 0x4 DUP1 CALLDATASIZE SUB PUSH1 0x40 DUP2 LT ISZERO PUSH2 0x656 JUMPI PUSH1 0x0 DUP1 REVERT JUMPDEST POP PUSH20 0xFFFFFFFFFFFFFFFFFFFFFFFFFFFFFFFFFFFFFFFF DUP2 CALLDATALOAD DUP2 AND SWAP2 PUSH1 0x20 ADD CALLDATALOAD AND PUSH2 0x1DEE JUMP JUMPDEST PUSH2 0x257 PUSH2 0x1E0B JUMP JUMPDEST PUSH1 0xC SLOAD PUSH1 0x1 EQ PUSH2 0x6F4 JUMPI PUSH1 0x40 DUP1 MLOAD PUSH32 0x8C379A000000000000000000000000000000000000000000000000000000000 DUP2 MSTORE PUSH1 0x20 PUSH1 0x4 DUP3 ADD MSTORE PUSH1 0xF PUSH1 0x24 DUP3 ADD MSTORE PUSH32 0x58656C65726F6E3A204C4F434B45440000000000000000000000000000000000 PUSH1 0x44 DUP3 ADD MSTORE SWAP1 MLOAD SWAP1 DUP2 SWAP1 SUB PUSH1 0x64 ADD SWAP1 REVERT JUMPDEST PUSH1 0x0 PUSH1 0xC SSTORE DUP5 ISZERO ISZERO DUP1 PUSH2 0x707 JUMPI POP PUSH1 0x0 DUP5 GT JUMPDEST PUSH2 0x75C JUMPI PUSH1 0x40 MLOAD PUSH32 0x8C379A000000000000000000000000000000000000000000000000000000000 DUP2 MSTORE PUSH1 0x4 ADD DUP1 DUP1 PUSH1 0x20 ADD DUP3 DUP2 SUB DUP3 MSTORE PUSH1 0x23 DUP2 MSTORE PUSH1 0x20 ADD DUP1 PUSH2 0x2B8D PUSH1 0x23 SWAP2 CODECOPY PUSH1 0x40 ADD SWAP2 POP POP PUSH1 0x40 MLOAD DUP1 SWAP2 SUB SWAP1 REVERT JUMPDEST PUSH1 0x0 DUP1 PUSH2 0x767 PUSH2 0xDA6 JUMP JUMPDEST POP SWAP2 POP SWAP2 POP DUP2 PUSH14 0xFFFFFFFFFFFFFFFFFFFFFFFFFFFF AND DUP8 LT DUP1 ISZERO PUSH2 0x79A JUMPI POP DUP1 PUSH14 0xFFFFFFFFFFFFFFFFFFFFFFFFFFFF AND DUP7 LT JUMPDEST PUSH2 0x805 JUMPI PUSH1 0x40 DUP1 MLOAD PUSH32 0x8C379A000000000000000000000000000000000000000000000000000000000 DUP2 MSTORE PUSH1 0x20 PUSH1 0x4 DUP3 ADD MSTORE PUSH1 0x1F PUSH1 0x24 DUP3 ADD MSTORE PUSH32 0x58656C65726F6E3A20494E53554646494349454E545F4C495155494449545900 PUSH1 0x44 DUP3 ADD MSTORE SWAP1 MLOAD SWAP1 DUP2 SWAP1 SUB PUSH1 0x64 ADD SWAP1 REVERT JUMPDEST PUSH1 0x6 SLOAD PUSH1 0x7 SLOAD PUSH1 0x0 SWAP2 DUP3 SWAP2 PUSH20 0xFFFFFFFFFFFFFFFFFFFFFFFFFFFFFFFFFFFFFFFF SWAP2 DUP3 AND SWAP2 SWAP1 DUP2 AND SWAP1 DUP10 AND DUP3 EQ DUP1 ISZERO SWAP1 PUSH2 0x86A JUMPI POP DUP1 PUSH20 0xFFFFFFFFFFFFFFFFFFFFFFFFFFFFFFFFFFFFFFFF AND DUP10 PUSH20 0xFFFFFFFFFFFFFFFFFFFFFFFFFFFFFFFFFFFFFFFF AND EQ ISZERO JUMPDEST PUSH2 0x8D5 JUMPI PUSH1 0x40 DUP1 MLOAD PUSH32 0x8C379A000000000000000000000000000000000000000000000000000000000 DUP2 MSTORE PUSH1 0x20 PUSH1 0x4 DUP3 ADD MSTORE PUSH1 0x13 PUSH1 0x24 DUP3 ADD MSTORE PUSH32 0x58656C65726F6E3A20494E56414C49445F544F00000000000000000000000000 PUSH1 0x44 DUP3 ADD MSTORE SWAP1 MLOAD SWAP1 DUP2 SWAP1 SUB PUSH1 0x64 ADD SWAP1 REVERT JUMPDEST DUP11 ISZERO PUSH2 0x8E6 JUMPI PUSH2 0x8E6 DUP3 DUP11 DUP14 PUSH2 0x1FF1 JUMP JUMPDEST DUP10 ISZERO PUSH2 0x8F7 JUMPI PUSH2 0x8F7 DUP2 DUP11 DUP13 PUSH2 0x1FF1 JUMP JUMPDEST DUP7 ISZERO PUSH2 0x9D9 JUMPI DUP9 PUSH20 0xFFFFFFFFFFFFFFFFFFFFFFFFFFFFFFFFFFFFFFFF AND PUSH4 0x6558E6F7 CALLER DUP14 DUP14 DUP13 DUP13 PUSH1 0x40 MLOAD DUP7 PUSH4 0xFFFFFFFF AND PUSH1 0xE0 SHL DUP2 MSTORE PUSH1 0x4 ADD DUP1 DUP7 PUSH20 0xFFFFFFFFFFFFFFFFFFFFFFFFFFFFFFFFFFFFFFFF AND PUSH20 0xFFFFFFFFFFFFFFFFFFFFFFFFFFFFFFFFFFFFFFFF AND DUP2 MSTORE PUSH1 0x20 ADD DUP6 DUP2 MSTORE PUSH1 0x20 ADD DUP5 DUP2 MSTORE PUSH1 0x20 ADD DUP1 PUSH1 0x20 ADD DUP3 DUP2 SUB DUP3 MSTORE DUP5 DUP5 DUP3 DUP2 DUP2 MSTORE PUSH1 0x20 ADD SWAP3 POP DUP1 DUP3 DUP5 CALLDATACOPY PUSH1 0x0 DUP2 DUP5 ADD MSTORE PUSH1 0x1F NOT PUSH1 0x1F DUP3 ADD AND SWAP1 POP DUP1 DUP4 ADD SWAP3 POP POP POP SWAP7 POP POP POP POP POP POP POP PUSH1 0x0 PUSH1 0x40 MLOAD DUP1 DUP4 SUB DUP2 PUSH1 0x0 DUP8 DUP1 EXTCODESIZE ISZERO DUP1 ISZERO PUSH2 0x9C0 JUMPI PUSH1 0x0 DUP1 REVERT JUMPDEST POP GAS CALL ISZERO DUP1 ISZERO PUSH2 0x9D4 JUMPI RETURNDATASIZE PUSH1 0x0 DUP1 RETURNDATACOPY RETURNDATASIZE PUSH1 0x0 REVERT JUMPDEST POP POP POP POP JUMPDEST PUSH1 0x40 DUP1 MLOAD PUSH32 0x70A0823100000000000000000000000000000000000000000000000000000000 DUP2 MSTORE ADDRESS PUSH1 0x4 DUP3 ADD MSTORE SWAP1 MLOAD PUSH20 0xFFFFFFFFFFFFFFFFFFFFFFFFFFFFFFFFFFFFFFFF DUP5 AND SWAP2 PUSH4 0x70A08231 SWAP2 PUSH1 0x24 DUP1 DUP4 ADD SWAP3 PUSH1 0x20 SWAP3 SWAP2 SWAP1 DUP3 SWAP1 SUB ADD DUP2 DUP7 DUP1 EXTCODESIZE ISZERO DUP1 ISZERO PUSH2 0xA45 JUMPI PUSH1 0x0 DUP1 REVERT JUMPDEST POP GAS STATICCALL ISZERO DUP1 ISZERO PUSH2 0xA59 JUMPI RETURNDATASIZE PUSH1 0x0 DUP1 RETURNDATACOPY RETURNDATASIZE PUSH1 0x0 REVERT JUMPDEST POP POP POP POP PUSH1 0x40 MLOAD RETURNDATASIZE PUSH1 0x20 DUP2 LT ISZERO PUSH2 0xA6F JUMPI PUSH1 0x0 DUP1 REVERT JUMPDEST POP MLOAD PUSH1 0x40 DUP1 MLOAD PUSH32 0x70A0823100000000000000000000000000000000000000000000000000000000 DUP2 MSTORE ADDRESS PUSH1 0x4 DUP3 ADD MSTORE SWAP1 MLOAD SWAP2 SWAP6 POP PUSH20 0xFFFFFFFFFFFFFFFFFFFFFFFFFFFFFFFFFFFFFFFF DUP4 AND SWAP2 PUSH4 0x70A08231 SWAP2 PUSH1 0x24 DUP1 DUP3 ADD SWAP3 PUSH1 0x20 SWAP3 SWAP1 SWAP2 SWAP1 DUP3 SWAP1 SUB ADD DUP2 DUP7 DUP1 EXTCODESIZE ISZERO DUP1 ISZERO PUSH2 0xAE1 JUMPI PUSH1 0x0 DUP1 REVERT JUMPDEST POP GAS STATICCALL ISZERO DUP1 ISZERO PUSH2 0xAF5 JUMPI RETURNDATASIZE PUSH1 0x0 DUP1 RETURNDATACOPY RETURNDATASIZE PUSH1 0x0 REVERT JUMPDEST POP POP POP POP PUSH1 0x40 MLOAD RETURNDATASIZE PUSH1 0x20 DUP2 LT ISZERO PUSH2 0xB0B JUMPI PUSH1 0x0 DUP1 REVERT JUMPDEST POP MLOAD SWAP3 POP PUSH1 0x0 SWAP2 POP POP PUSH14 0xFFFFFFFFFFFFFFFFFFFFFFFFFFFF DUP6 AND DUP11 SWAP1 SUB DUP4 GT PUSH2 0xB35 JUMPI PUSH1 0x0 PUSH2 0xB4B JUMP JUMPDEST DUP10 DUP6 PUSH14 0xFFFFFFFFFFFFFFFFFFFFFFFFFFFF AND SUB DUP4 SUB JUMPDEST SWAP1 POP PUSH1 0x0 DUP10 DUP6 PUSH14 0xFFFFFFFFFFFFFFFFFFFFFFFFFFFF AND SUB DUP4 GT PUSH2 0xB6F JUMPI PUSH1 0x0 PUSH2 0xB85 JUMP JUMPDEST DUP10 DUP6 PUSH14 0xFFFFFFFFFFFFFFFFFFFFFFFFFFFF AND SUB DUP4 SUB JUMPDEST SWAP1 POP PUSH1 0x0 DUP3 GT DUP1 PUSH2 0xB96 JUMPI POP PUSH1 0x0 DUP2 GT JUMPDEST PUSH2 0xBEB JUMPI PUSH1 0x40 MLOAD PUSH32 0x8C379A000000000000000000000000000000000000000000000000000000000 DUP2 MSTORE PUSH1 0x4 ADD DUP1 DUP1 PUSH1 0x20 ADD DUP3 DUP2 SUB DUP3 MSTORE PUSH1 0x22 DUP2 MSTORE PUSH1 0x20 ADD DUP1 PUSH2 0x2B45 PUSH1 0x22 SWAP2 CODECOPY PUSH1 0x40 ADD SWAP2 POP POP PUSH1 0x40 MLOAD DUP1 SWAP2 SUB SWAP1 REVERT JUMPDEST PUSH1 0x0 PUSH2 0xC1F PUSH2 0xC01 DUP5 PUSH1 0x3 PUSH4 0xFFFFFFFF PUSH2 0x21FE AND JUMP JUMPDEST PUSH2 0xC13 DUP8 PUSH2 0x3E8 PUSH4 0xFFFFFFFF PUSH2 0x21FE AND JUMP JUMPDEST SWAP1 PUSH4 0xFFFFFFFF PUSH2 0x2284 AND JUMP JUMPDEST SWAP1 POP PUSH1 0x0 PUSH2 0xC37 PUSH2 0xC01 DUP5 PUSH1 0x3 PUSH4 0xFFFFFFFF PUSH2 0x21FE AND JUMP JUMPDEST SWAP1 POP PUSH2 0xC6F PUSH3 0xF4240 PUSH2 0xC63 PUSH14 0xFFFFFFFFFFFFFFFFFFFFFFFFFFFF DUP12 DUP2 AND SWAP1 DUP12 AND PUSH4 0xFFFFFFFF PUSH2 0x21FE AND JUMP JUMPDEST SWAP1 PUSH4 0xFFFFFFFF PUSH2 0x21FE AND JUMP JUMPDEST PUSH2 0xC7F DUP4 DUP4 PUSH4 0xFFFFFFFF PUSH2 0x21FE AND JUMP JUMPDEST LT ISZERO PUSH2 0xCEC JUMPI PUSH1 0x40 DUP1 MLOAD PUSH32 0x8C379A000000000000000000000000000000000000000000000000000000000 DUP2 MSTORE PUSH1 0x20 PUSH1 0x4 DUP3 ADD MSTORE PUSH1 0xA PUSH1 0x24 DUP3 ADD MSTORE PUSH32 0x58656C65726F6E3A204B00000000000000000000000000000000000000000000 PUSH1 0x44 DUP3 ADD MSTORE SWAP1 MLOAD SWAP1 DUP2 SWAP1 SUB PUSH1 0x64 ADD SWAP1 REVERT JUMPDEST POP POP PUSH2 0xCFA DUP5 DUP5 DUP9 DUP9 PUSH2 0x22F6 JUMP JUMPDEST PUSH1 0x40 DUP1 MLOAD DUP4 DUP2 MSTORE PUSH1 0x20 DUP2 ADD DUP4 SWAP1 MSTORE DUP1 DUP3 ADD DUP14 SWAP1 MSTORE PUSH1 0x60 DUP2 ADD DUP13 SWAP1 MSTORE SWAP1 MLOAD PUSH20 0xFFFFFFFFFFFFFFFFFFFFFFFFFFFFFFFFFFFFFFFF DUP12 AND SWAP2 CALLER SWAP2 PUSH32 0xD78AD95FA46C994B6551D0DA85FC275FE613CE37657FB8D5E3D130840159D822 SWAP2 DUP2 SWAP1 SUB PUSH1 0x80 ADD SWAP1 LOG3 POP POP PUSH1 0x1 PUSH1 0xC SSTORE POP POP POP POP POP POP POP POP POP JUMP JUMPDEST PUSH1 0x40 MLOAD DUP1 PUSH1 0x40 ADD PUSH1 0x40 MSTORE DUP1 PUSH1 0x7 DUP2 MSTORE PUSH1 0x20 ADD PUSH32 0x58656C65726F6E00000000000000000000000000000000000000000000000000 DUP2 MSTORE POP DUP2 JUMP JUMPDEST PUSH1 0x8 SLOAD PUSH14 0xFFFFFFFFFFFFFFFFFFFFFFFFFFFF DUP1 DUP3 AND SWAP3 PUSH15 0x10000000000000000000000000000 DUP4 DIV SWAP1 SWAP2 AND SWAP2 PUSH29 0x100000000000000000000000000000000000000000000000000000000 SWAP1 DIV PUSH4 0xFFFFFFFF AND SWAP1 JUMP JUMPDEST PUSH1 0x0 PUSH2 0xE08 CALLER DUP5 DUP5 PUSH2 0x25B2 JUMP JUMPDEST POP PUSH1 0x1 JUMPDEST SWAP3 SWAP2 POP POP JUMP JUMPDEST PUSH1 0x6 SLOAD PUSH20 0xFFFFFFFFFFFFFFFFFFFFFFFFFFFFFFFFFFFFFFFF AND DUP2 JUMP JUMPDEST PUSH1 0x0 SLOAD DUP2 JUMP JUMPDEST PUSH20 0xFFFFFFFFFFFFFFFFFFFFFFFFFFFFFFFFFFFFFFFF DUP4 AND PUSH1 0x0 SWAP1 DUP2 MSTORE PUSH1 0x2 PUSH1 0x20 SWAP1 DUP2 MSTORE PUSH1 0x40 DUP1 DUP4 KECCAK256 CALLER DUP5 MSTORE SWAP1 SWAP2 MSTORE DUP2 KECCAK256 SLOAD PUSH32 0xFFFFFFFFFFFFFFFFFFFFFFFFFFFFFFFFFFFFFFFFFFFFFFFFFFFFFFFFFFFFFFFF EQ PUSH2 0xEFE JUMPI PUSH20 0xFFFFFFFFFFFFFFFFFFFFFFFFFFFFFFFFFFFFFFFF DUP5 AND PUSH1 0x0 SWAP1 DUP2 MSTORE PUSH1 0x2 PUSH1 0x20 SWAP1 DUP2 MSTORE PUSH1 0x40 DUP1 DUP4 KECCAK256 CALLER DUP5 MSTORE SWAP1 SWAP2 MSTORE SWAP1 KECCAK256 SLOAD PUSH2 0xECC SWAP1 DUP4 PUSH4 0xFFFFFFFF PUSH2 0x2284 AND JUMP JUMPDEST PUSH20 0xFFFFFFFFFFFFFFFFFFFFFFFFFFFFFFFFFFFFFFFF DUP6 AND PUSH1 0x0 SWAP1 DUP2 MSTORE PUSH1 0x2 PUSH1 0x20 SWAP1 DUP2 MSTORE PUSH1 0x40 DUP1 DUP4 KECCAK256 CALLER DUP5 MSTORE SWAP1 SWAP2 MSTORE SWAP1 KECCAK256 SSTORE JUMPDEST PUSH2 0xF09 DUP5 DUP5 DUP5 PUSH2 0x2621 JUMP JUMPDEST POP PUSH1 0x1 SWAP4 SWAP3 POP POP POP JUMP JUMPDEST PUSH32 0x6E71EDAE12B1B97F4D1F60370FEF10105FA2FAAE0126114A169C64845D6126C9 DUP2 JUMP JUMPDEST PUSH1 0x12 DUP2 JUMP JUMPDEST PUSH1 0x3 SLOAD DUP2 JUMP JUMPDEST PUSH1 0x5 SLOAD PUSH20 0xFFFFFFFFFFFFFFFFFFFFFFFFFFFFFFFFFFFFFFFF AND CALLER EQ PUSH2 0xFC8 JUMPI PUSH1 0x40 DUP1 MLOAD PUSH32 0x8C379A000000000000000000000000000000000000000000000000000000000 DUP2 MSTORE PUSH1 0x20 PUSH1 0x4 DUP3 ADD MSTORE PUSH1 0x12 PUSH1 0x24 DUP3 ADD MSTORE PUSH32 0x58656C65726F6E3A20464F5242494444454E0000000000000000000000000000 PUSH1 0x44 DUP3 ADD MSTORE SWAP1 MLOAD SWAP1 DUP2 SWAP1 SUB PUSH1 0x64 ADD SWAP1 REVERT JUMPDEST PUSH1 0x6 DUP1 SLOAD PUSH20 0xFFFFFFFFFFFFFFFFFFFFFFFFFFFFFFFFFFFFFFFF SWAP4 DUP5 AND PUSH32 0xFFFFFFFFFFFFFFFFFFFFFFFF0000000000000000000000000000000000000000 SWAP2 DUP3 AND OR SWAP1 SWAP2 SSTORE PUSH1 0x7 DUP1 SLOAD SWAP3 SWAP1 SWAP4 AND SWAP2 AND OR SWAP1 SSTORE JUMP JUMPDEST PUSH1 0x9 SLOAD DUP2 JUMP JUMPDEST PUSH1 0xA SLOAD DUP2 JUMP JUMPDEST PUSH1 0x0 PUSH1 0xC SLOAD PUSH1 0x1 EQ PUSH2 0x109A JUMPI PUSH1 0x40 DUP1 MLOAD PUSH32 0x8C379A000000000000000000000000000000000000000000000000000000000 DUP2 MSTORE PUSH1 0x20 PUSH1 0x4 DUP3 ADD MSTORE PUSH1 0xF PUSH1 0x24 DUP3 ADD MSTORE PUSH32 0x58656C65726F6E3A204C4F434B45440000000000000000000000000000000000 PUSH1 0x44 DUP3 ADD MSTORE SWAP1 MLOAD SWAP1 DUP2 SWAP1 SUB PUSH1 0x64 ADD SWAP1 REVERT JUMPDEST PUSH1 0x0 PUSH1 0xC DUP2 SWAP1 SSTORE DUP1 PUSH2 0x10AA PUSH2 0xDA6 JUMP JUMPDEST POP PUSH1 0x6 SLOAD PUSH1 0x40 DUP1 MLOAD PUSH32 0x70A0823100000000000000000000000000000000000000000000000000000000 DUP2 MSTORE ADDRESS PUSH1 0x4 DUP3 ADD MSTORE SWAP1 MLOAD SWAP4 SWAP6 POP SWAP2 SWAP4 POP PUSH1 0x0 SWAP3 PUSH20 0xFFFFFFFFFFFFFFFFFFFFFFFFFFFFFFFFFFFFFFFF SWAP1 SWAP2 AND SWAP2 PUSH4 0x70A08231 SWAP2 PUSH1 0x24 DUP1 DUP4 ADD SWAP3 PUSH1 0x20 SWAP3 SWAP2 SWAP1 DUP3 SWAP1 SUB ADD DUP2 DUP7 DUP1 EXTCODESIZE ISZERO DUP1 ISZERO PUSH2 0x1124 JUMPI PUSH1 0x0 DUP1 REVERT JUMPDEST POP GAS STATICCALL ISZERO DUP1 ISZERO PUSH2 0x1138 JUMPI RETURNDATASIZE PUSH1 0x0 DUP1 RETURNDATACOPY RETURNDATASIZE PUSH1 0x0 REVERT JUMPDEST POP POP POP POP PUSH1 0x40 MLOAD RETURNDATASIZE PUSH1 0x20 DUP2 LT ISZERO PUSH2 0x114E JUMPI PUSH1 0x0 DUP1 REVERT JUMPDEST POP MLOAD PUSH1 0x7 SLOAD PUSH1 0x40 DUP1 MLOAD PUSH32 0x70A0823100000000000000000000000000000000000000000000000000000000 DUP2 MSTORE ADDRESS PUSH1 0x4 DUP3 ADD MSTORE SWAP1 MLOAD SWAP3 SWAP4 POP PUSH1 0x0 SWAP3 PUSH20 0xFFFFFFFFFFFFFFFFFFFFFFFFFFFFFFFFFFFFFFFF SWAP1 SWAP3 AND SWAP2 PUSH4 0x70A08231 SWAP2 PUSH1 0x24 DUP1 DUP3 ADD SWAP3 PUSH1 0x20 SWAP3 SWAP1 SWAP2 SWAP1 DUP3 SWAP1 SUB ADD DUP2 DUP7 DUP1 EXTCODESIZE ISZERO DUP1 ISZERO PUSH2 0x11C7 JUMPI PUSH1 0x0 DUP1 REVERT JUMPDEST POP GAS STATICCALL ISZERO DUP1 ISZERO PUSH2 0x11DB JUMPI RETURNDATASIZE PUSH1 0x0 DUP1 RETURNDATACOPY RETURNDATASIZE PUSH1 0x0 REVERT JUMPDEST POP POP POP POP PUSH1 0x40 MLOAD RETURNDATASIZE PUSH1 0x20 DUP2 LT ISZERO PUSH2 0x11F1 JUMPI PUSH1 0x0 DUP1 REVERT JUMPDEST POP MLOAD SWAP1 POP PUSH1 0x0 PUSH2 0x1217 DUP4 PUSH14 0xFFFFFFFFFFFFFFFFFFFFFFFFFFFF DUP8 AND PUSH4 0xFFFFFFFF PUSH2 0x2284 AND JUMP JUMPDEST SWAP1 POP PUSH1 0x0 PUSH2 0x123B DUP4 PUSH14 0xFFFFFFFFFFFFFFFFFFFFFFFFFFFF DUP8 AND PUSH4 0xFFFFFFFF PUSH2 0x2284 AND JUMP JUMPDEST SWAP1 POP PUSH1 0x0 PUSH2 0x1249 DUP8 DUP8 PUSH2 0x2702 JUMP JUMPDEST PUSH1 0x0 SLOAD SWAP1 SWAP2 POP DUP1 PUSH2 0x1286 JUMPI PUSH2 0x1272 PUSH2 0x3E8 PUSH2 0xC13 PUSH2 0x126D DUP8 DUP8 PUSH4 0xFFFFFFFF PUSH2 0x21FE AND JUMP JUMPDEST PUSH2 0x288E JUMP JUMPDEST SWAP9 POP PUSH2 0x1281 PUSH1 0x0 PUSH2 0x3E8 PUSH2 0x28E0 JUMP JUMPDEST PUSH2 0x12E3 JUMP JUMPDEST PUSH2 0x12E0 PUSH14 0xFFFFFFFFFFFFFFFFFFFFFFFFFFFF DUP10 AND PUSH2 0x12AA DUP7 DUP5 PUSH4 0xFFFFFFFF PUSH2 0x21FE AND JUMP JUMPDEST DUP2 PUSH2 0x12B1 JUMPI INVALID JUMPDEST DIV PUSH14 0xFFFFFFFFFFFFFFFFFFFFFFFFFFFF DUP10 AND PUSH2 0x12D3 DUP7 DUP6 PUSH4 0xFFFFFFFF PUSH2 0x21FE AND JUMP JUMPDEST DUP2 PUSH2 0x12DA JUMPI INVALID JUMPDEST DIV PUSH2 0x2990 JUMP JUMPDEST SWAP9 POP JUMPDEST PUSH1 0x0 DUP10 GT PUSH2 0x133C JUMPI PUSH1 0x40 MLOAD PUSH32 0x8C379A000000000000000000000000000000000000000000000000000000000 DUP2 MSTORE PUSH1 0x4 ADD DUP1 DUP1 PUSH1 0x20 ADD DUP3 DUP2 SUB DUP3 MSTORE PUSH1 0x26 DUP2 MSTORE PUSH1 0x20 ADD DUP1 PUSH2 0x2B67 PUSH1 0x26 SWAP2 CODECOPY PUSH1 0x40 ADD SWAP2 POP POP PUSH1 0x40 MLOAD DUP1 SWAP2 SUB SWAP1 REVERT JUMPDEST PUSH2 0x1346 DUP11 DUP11 PUSH2 0x28E0 JUMP JUMPDEST PUSH2 0x1352 DUP7 DUP7 DUP11 DUP11 PUSH2 0x22F6 JUMP JUMPDEST DUP2 ISZERO PUSH2 0x1394 JUMPI PUSH1 0x8 SLOAD PUSH2 0x1390 SWAP1 PUSH14 0xFFFFFFFFFFFFFFFFFFFFFFFFFFFF DUP1 DUP3 AND SWAP2 PUSH15 0x10000000000000000000000000000 SWAP1 DIV AND PUSH4 0xFFFFFFFF PUSH2 0x21FE AND JUMP JUMPDEST PUSH1 0xB SSTORE JUMPDEST PUSH1 0x40 DUP1 MLOAD DUP6 DUP2 MSTORE PUSH1 0x20 DUP2 ADD DUP6 SWAP1 MSTORE DUP2 MLOAD CALLER SWAP3 PUSH32 0x4C209B5FC8AD50758F13E2E1088BA56A560DFF690A1C6FEF26394F4C03821C4F SWAP3 DUP3 SWAP1 SUB ADD SWAP1 LOG2 POP POP PUSH1 0x1 PUSH1 0xC SSTORE POP SWAP5 SWAP7 SWAP6 POP POP POP POP POP POP JUMP JUMPDEST PUSH1 0x1 PUSH1 0x20 MSTORE PUSH1 0x0 SWAP1 DUP2 MSTORE PUSH1 0x40 SWAP1 KECCAK256 SLOAD DUP2 JUMP JUMPDEST PUSH1 0xB SLOAD DUP2 JUMP JUMPDEST PUSH1 0x4 PUSH1 0x20 MSTORE PUSH1 0x0 SWAP1 DUP2 MSTORE PUSH1 0x40 SWAP1 KECCAK256 SLOAD DUP2 JUMP JUMPDEST PUSH1 0x0 DUP1 PUSH1 0xC SLOAD PUSH1 0x1 EQ PUSH2 0x147F JUMPI PUSH1 0x40 DUP1 MLOAD PUSH32 0x8C379A000000000000000000000000000000000000000000000000000000000 DUP2 MSTORE PUSH1 0x20 PUSH1 0x4 DUP3 ADD MSTORE PUSH1 0xF PUSH1 0x24 DUP3 ADD MSTORE PUSH32 0x58656C65726F6E3A204C4F434B45440000000000000000000000000000000000 PUSH1 0x44 DUP3 ADD MSTORE SWAP1 MLOAD SWAP1 DUP2 SWAP1 SUB PUSH1 0x64 ADD SWAP1 REVERT JUMPDEST PUSH1 0x0 PUSH1 0xC DUP2 SWAP1 SSTORE DUP1 PUSH2 0x148F PUSH2 0xDA6 JUMP JUMPDEST POP PUSH1 0x6 SLOAD PUSH1 0x7 SLOAD PUSH1 0x40 DUP1 MLOAD PUSH32 0x70A0823100000000000000000000000000000000000000000000000000000000 DUP2 MSTORE ADDRESS PUSH1 0x4 DUP3 ADD MSTORE SWAP1 MLOAD SWAP5 SWAP7 POP SWAP3 SWAP5 POP PUSH20 0xFFFFFFFFFFFFFFFFFFFFFFFFFFFFFFFFFFFFFFFF SWAP2 DUP3 AND SWAP4 SWAP2 AND SWAP2 PUSH1 0x0 SWAP2 DUP5 SWAP2 PUSH4 0x70A08231 SWAP2 PUSH1 0x24 DUP1 DUP4 ADD SWAP3 PUSH1 0x20 SWAP3 SWAP2 SWAP1 DUP3 SWAP1 SUB ADD DUP2 DUP7 DUP1 EXTCODESIZE ISZERO DUP1 ISZERO PUSH2 0x1511 JUMPI PUSH1 0x0 DUP1 REVERT JUMPDEST POP GAS STATICCALL ISZERO DUP1 ISZERO PUSH2 0x1525 JUMPI RETURNDATASIZE PUSH1 0x0 DUP1 RETURNDATACOPY RETURNDATASIZE PUSH1 0x0 REVERT JUMPDEST POP POP POP POP PUSH1 0x40 MLOAD RETURNDATASIZE PUSH1 0x20 DUP2 LT ISZERO PUSH2 0x153B JUMPI PUSH1 0x0 DUP1 REVERT JUMPDEST POP MLOAD PUSH1 0x40 DUP1 MLOAD PUSH32 0x70A0823100000000000000000000000000000000000000000000000000000000 DUP2 MSTORE ADDRESS PUSH1 0x4 DUP3 ADD MSTORE SWAP1 MLOAD SWAP2 SWAP3 POP PUSH1 0x0 SWAP2 PUSH20 0xFFFFFFFFFFFFFFFFFFFFFFFFFFFFFFFFFFFFFFFF DUP6 AND SWAP2 PUSH4 0x70A08231 SWAP2 PUSH1 0x24 DUP1 DUP4 ADD SWAP3 PUSH1 0x20 SWAP3 SWAP2 SWAP1 DUP3 SWAP1 SUB ADD DUP2 DUP7 DUP1 EXTCODESIZE ISZERO DUP1 ISZERO PUSH2 0x15AF JUMPI PUSH1 0x0 DUP1 REVERT JUMPDEST POP GAS STATICCALL ISZERO DUP1 ISZERO PUSH2 0x15C3 JUMPI RETURNDATASIZE PUSH1 0x0 DUP1 RETURNDATACOPY RETURNDATASIZE PUSH1 0x0 REVERT JUMPDEST POP POP POP POP PUSH1 0x40 MLOAD RETURNDATASIZE PUSH1 0x20 DUP2 LT ISZERO PUSH2 0x15D9 JUMPI PUSH1 0x0 DUP1 REVERT JUMPDEST POP MLOAD ADDRESS PUSH1 0x0 SWAP1 DUP2 MSTORE PUSH1 0x1 PUSH1 0x20 MSTORE PUSH1 0x40 DUP2 KECCAK256 SLOAD SWAP2 SWAP3 POP PUSH2 0x15F8 DUP9 DUP9 PUSH2 0x2702 JUMP JUMPDEST PUSH1 0x0 SLOAD SWAP1 SWAP2 POP DUP1 PUSH2 0x160F DUP5 DUP8 PUSH4 0xFFFFFFFF PUSH2 0x21FE AND JUMP JUMPDEST DUP2 PUSH2 0x1616 JUMPI INVALID JUMPDEST DIV SWAP11 POP DUP1 PUSH2 0x162A DUP5 DUP7 PUSH4 0xFFFFFFFF PUSH2 0x21FE AND JUMP JUMPDEST DUP2 PUSH2 0x1631 JUMPI INVALID JUMPDEST DIV SWAP10 POP PUSH1 0x0 DUP12 GT DUP1 ISZERO PUSH2 0x1644 JUMPI POP PUSH1 0x0 DUP11 GT JUMPDEST PUSH2 0x1699 JUMPI PUSH1 0x40 MLOAD PUSH32 0x8C379A000000000000000000000000000000000000000000000000000000000 DUP2 MSTORE PUSH1 0x4 ADD DUP1 DUP1 PUSH1 0x20 ADD DUP3 DUP2 SUB DUP3 MSTORE PUSH1 0x26 DUP2 MSTORE PUSH1 0x20 ADD DUP1 PUSH2 0x2BB0 PUSH1 0x26 SWAP2 CODECOPY PUSH1 0x40 ADD SWAP2 POP POP PUSH1 0x40 MLOAD DUP1 SWAP2 SUB SWAP1 REVERT JUMPDEST PUSH2 0x16A3 ADDRESS DUP5 PUSH2 0x29A8 JUMP JUMPDEST PUSH2 0x16AE DUP8 DUP14 DUP14 PUSH2 0x1FF1 JUMP JUMPDEST PUSH2 0x16B9 DUP7 DUP14 DUP13 PUSH2 0x1FF1 JUMP JUMPDEST PUSH1 0x40 DUP1 MLOAD PUSH32 0x70A0823100000000000000000000000000000000000000000000000000000000 DUP2 MSTORE ADDRESS PUSH1 0x4 DUP3 ADD MSTORE SWAP1 MLOAD PUSH20 0xFFFFFFFFFFFFFFFFFFFFFFFFFFFFFFFFFFFFFFFF DUP10 AND SWAP2 PUSH4 0x70A08231 SWAP2 PUSH1 0x24 DUP1 DUP4 ADD SWAP3 PUSH1 0x20 SWAP3 SWAP2 SWAP1 DUP3 SWAP1 SUB ADD DUP2 DUP7 DUP1 EXTCODESIZE ISZERO DUP1 ISZERO PUSH2 0x1725 JUMPI PUSH1 0x0 DUP1 REVERT JUMPDEST POP GAS STATICCALL ISZERO DUP1 ISZERO PUSH2 0x1739 JUMPI RETURNDATASIZE PUSH1 0x0 DUP1 RETURNDATACOPY RETURNDATASIZE PUSH1 0x0 REVERT JUMPDEST POP POP POP POP PUSH1 0x40 MLOAD RETURNDATASIZE PUSH1 0x20 DUP2 LT ISZERO PUSH2 0x174F JUMPI PUSH1 0x0 DUP1 REVERT JUMPDEST POP MLOAD PUSH1 0x40 DUP1 MLOAD PUSH32 0x70A0823100000000000000000000000000000000000000000000000000000000 DUP2 MSTORE ADDRESS PUSH1 0x4 DUP3 ADD MSTORE SWAP1 MLOAD SWAP2 SWAP7 POP PUSH20 0xFFFFFFFFFFFFFFFFFFFFFFFFFFFFFFFFFFFFFFFF DUP9 AND SWAP2 PUSH4 0x70A08231 SWAP2 PUSH1 0x24 DUP1 DUP3 ADD SWAP3 PUSH1 0x20 SWAP3 SWAP1 SWAP2 SWAP1 DUP3 SWAP1 SUB ADD DUP2 DUP7 DUP1 EXTCODESIZE ISZERO DUP1 ISZERO PUSH2 0x17C1 JUMPI PUSH1 0x0 DUP1 REVERT JUMPDEST POP GAS STATICCALL ISZERO DUP1 ISZERO PUSH2 0x17D5 JUMPI RETURNDATASIZE PUSH1 0x0 DUP1 RETURNDATACOPY RETURNDATASIZE PUSH1 0x0 REVERT JUMPDEST POP POP POP POP PUSH1 0x40 MLOAD RETURNDATASIZE PUSH1 0x20 DUP2 LT ISZERO PUSH2 0x17EB JUMPI PUSH1 0x0 DUP1 REVERT JUMPDEST POP MLOAD SWAP4 POP PUSH2 0x17FB DUP6 DUP6 DUP12 DUP12 PUSH2 0x22F6 JUMP JUMPDEST DUP2 ISZERO PUSH2 0x183D JUMPI PUSH1 0x8 SLOAD PUSH2 0x1839 SWAP1 PUSH14 0xFFFFFFFFFFFFFFFFFFFFFFFFFFFF DUP1 DUP3 AND SWAP2 PUSH15 0x10000000000000000000000000000 SWAP1 DIV AND PUSH4 0xFFFFFFFF PUSH2 0x21FE AND JUMP JUMPDEST PUSH1 0xB SSTORE JUMPDEST PUSH1 0x40 DUP1 MLOAD DUP13 DUP2 MSTORE PUSH1 0x20 DUP2 ADD DUP13 SWAP1 MSTORE DUP2 MLOAD PUSH20 0xFFFFFFFFFFFFFFFFFFFFFFFFFFFFFFFFFFFFFFFF DUP16 AND SWAP3 CALLER SWAP3 PUSH32 0xDCCD412F0B1252819CB1FD330B93224CA42612892BB3F4F789976E6D81936496 SWAP3 SWAP1 DUP2 SWAP1 SUB SWAP1 SWAP2 ADD SWAP1 LOG3 POP POP POP POP POP POP POP POP POP PUSH1 0x1 PUSH1 0xC DUP2 SWAP1 SSTORE POP SWAP2 POP SWAP2 JUMP JUMPDEST PUSH1 0x40 MLOAD DUP1 PUSH1 0x40 ADD PUSH1 0x40 MSTORE DUP1 PUSH1 0x3 DUP2 MSTORE PUSH1 0x20 ADD PUSH32 0x584C520000000000000000000000000000000000000000000000000000000000 DUP2 MSTORE POP DUP2 JUMP JUMPDEST PUSH1 0x0 PUSH2 0xE08 CALLER DUP5 DUP5 PUSH2 0x2621 JUMP JUMPDEST PUSH2 0x3E8 DUP2 JUMP JUMPDEST PUSH1 0xC SLOAD PUSH1 0x1 EQ PUSH2 0x1965 JUMPI PUSH1 0x40 DUP1 MLOAD PUSH32 0x8C379A000000000000000000000000000000000000000000000000000000000 DUP2 MSTORE PUSH1 0x20 PUSH1 0x4 DUP3 ADD MSTORE PUSH1 0xF PUSH1 0x24 DUP3 ADD MSTORE PUSH32 0x58656C65726F6E3A204C4F434B45440000000000000000000000000000000000 PUSH1 0x44 DUP3 ADD MSTORE SWAP1 MLOAD SWAP1 DUP2 SWAP1 SUB PUSH1 0x64 ADD SWAP1 REVERT JUMPDEST PUSH1 0x0 PUSH1 0xC SSTORE PUSH1 0x6 SLOAD PUSH1 0x7 SLOAD PUSH1 0x8 SLOAD PUSH1 0x40 DUP1 MLOAD PUSH32 0x70A0823100000000000000000000000000000000000000000000000000000000 DUP2 MSTORE ADDRESS PUSH1 0x4 DUP3 ADD MSTORE SWAP1 MLOAD PUSH20 0xFFFFFFFFFFFFFFFFFFFFFFFFFFFFFFFFFFFFFFFF SWAP5 DUP6 AND SWAP5 SWAP1 SWAP4 AND SWAP3 PUSH2 0x1A41 SWAP3 DUP6 SWAP3 DUP8 SWAP3 PUSH2 0x1A3C SWAP3 PUSH14 0xFFFFFFFFFFFFFFFFFFFFFFFFFFFF AND SWAP2 DUP6 SWAP2 PUSH4 0x70A08231 SWAP2 PUSH1 0x24 DUP1 DUP3 ADD SWAP3 PUSH1 0x20 SWAP3 SWAP1 SWAP2 SWAP1 DUP3 SWAP1 SUB ADD DUP2 DUP7 DUP1 EXTCODESIZE ISZERO DUP1 ISZERO PUSH2 0x1A04 JUMPI PUSH1 0x0 DUP1 REVERT JUMPDEST POP GAS STATICCALL ISZERO DUP1 ISZERO PUSH2 0x1A18 JUMPI RETURNDATASIZE PUSH1 0x0 DUP1 RETURNDATACOPY RETURNDATASIZE PUSH1 0x0 REVERT JUMPDEST POP POP POP POP PUSH1 0x40 MLOAD RETURNDATASIZE PUSH1 0x20 DUP2 LT ISZERO PUSH2 0x1A2E JUMPI PUSH1 0x0 DUP1 REVERT JUMPDEST POP MLOAD SWAP1 PUSH4 0xFFFFFFFF PUSH2 0x2284 AND JUMP JUMPDEST PUSH2 0x1FF1 JUMP JUMPDEST PUSH1 0x8 SLOAD PUSH1 0x40 DUP1 MLOAD PUSH32 0x70A0823100000000000000000000000000000000000000000000000000000000 DUP2 MSTORE ADDRESS PUSH1 0x4 DUP3 ADD MSTORE SWAP1 MLOAD PUSH2 0x1AE0 SWAP3 DUP5 SWAP3 DUP8 SWAP3 PUSH2 0x1A3C SWAP3 PUSH15 0x10000000000000000000000000000 SWAP1 DIV PUSH14 0xFFFFFFFFFFFFFFFFFFFFFFFFFFFF AND SWAP2 PUSH20 0xFFFFFFFFFFFFFFFFFFFFFFFFFFFFFFFFFFFFFFFF DUP7 AND SWAP2 PUSH4 0x70A08231 SWAP2 PUSH1 0x24 DUP1 DUP3 ADD SWAP3 PUSH1 0x20 SWAP3 SWAP1 SWAP2 SWAP1 DUP3 SWAP1 SUB ADD DUP2 DUP7 DUP1 EXTCODESIZE ISZERO DUP1 ISZERO PUSH2 0x1A04 JUMPI PUSH1 0x0 DUP1 REVERT JUMPDEST POP POP PUSH1 0x1 PUSH1 0xC SSTORE POP JUMP JUMPDEST PUSH1 0x5 SLOAD PUSH20 0xFFFFFFFFFFFFFFFFFFFFFFFFFFFFFFFFFFFFFFFF AND DUP2 JUMP JUMPDEST PUSH1 0x7 SLOAD PUSH20 0xFFFFFFFFFFFFFFFFFFFFFFFFFFFFFFFFFFFFFFFF AND DUP2 JUMP JUMPDEST TIMESTAMP DUP5 LT ISZERO PUSH2 0x1B91 JUMPI PUSH1 0x40 DUP1 MLOAD PUSH32 0x8C379A000000000000000000000000000000000000000000000000000000000 DUP2 MSTORE PUSH1 0x20 PUSH1 0x4 DUP3 ADD MSTORE PUSH1 0x10 PUSH1 0x24 DUP3 ADD MSTORE PUSH32 0x58656C65726F6E3A204558504952454400000000000000000000000000000000 PUSH1 0x44 DUP3 ADD MSTORE SWAP1 MLOAD SWAP1 DUP2 SWAP1 SUB PUSH1 0x64 ADD SWAP1 REVERT JUMPDEST PUSH1 0x3 SLOAD PUSH20 0xFFFFFFFFFFFFFFFFFFFFFFFFFFFFFFFFFFFFFFFF DUP1 DUP10 AND PUSH1 0x0 DUP2 DUP2 MSTORE PUSH1 0x4 PUSH1 0x20 SWAP1 DUP2 MSTORE PUSH1 0x40 DUP1 DUP4 KECCAK256 DUP1 SLOAD PUSH1 0x1 DUP1 DUP3 ADD SWAP1 SWAP3 SSTORE DUP3 MLOAD PUSH32 0x6E71EDAE12B1B97F4D1F60370FEF10105FA2FAAE0126114A169C64845D6126C9 DUP2 DUP7 ADD MSTORE DUP1 DUP5 ADD SWAP7 SWAP1 SWAP7 MSTORE SWAP6 DUP14 AND PUSH1 0x60 DUP7 ADD MSTORE PUSH1 0x80 DUP6 ADD DUP13 SWAP1 MSTORE PUSH1 0xA0 DUP6 ADD SWAP6 SWAP1 SWAP6 MSTORE PUSH1 0xC0 DUP1 DUP6 ADD DUP12 SWAP1 MSTORE DUP2 MLOAD DUP1 DUP7 SUB SWAP1 SWAP2 ADD DUP2 MSTORE PUSH1 0xE0 DUP6 ADD DUP3 MSTORE DUP1 MLOAD SWAP1 DUP4 ADD KECCAK256 PUSH32 0x1901000000000000000000000000000000000000000000000000000000000000 PUSH2 0x100 DUP7 ADD MSTORE PUSH2 0x102 DUP6 ADD SWAP7 SWAP1 SWAP7 MSTORE PUSH2 0x122 DUP1 DUP6 ADD SWAP7 SWAP1 SWAP7 MSTORE DUP1 MLOAD DUP1 DUP6 SUB SWAP1 SWAP7 ADD DUP7 MSTORE PUSH2 0x142 DUP5 ADD DUP1 DUP3 MSTORE DUP7 MLOAD SWAP7 DUP4 ADD SWAP7 SWAP1 SWAP7 KECCAK256 SWAP6 DUP4 SWAP1 MSTORE PUSH2 0x162 DUP5 ADD DUP1 DUP3 MSTORE DUP7 SWAP1 MSTORE PUSH1 0xFF DUP10 AND PUSH2 0x182 DUP6 ADD MSTORE PUSH2 0x1A2 DUP5 ADD DUP9 SWAP1 MSTORE PUSH2 0x1C2 DUP5 ADD DUP8 SWAP1 MSTORE MLOAD SWAP2 SWAP4 SWAP3 PUSH2 0x1E2 DUP1 DUP3 ADD SWAP4 PUSH32 0xFFFFFFFFFFFFFFFFFFFFFFFFFFFFFFFFFFFFFFFFFFFFFFFFFFFFFFFFFFFFFFE0 DUP2 ADD SWAP3 DUP2 SWAP1 SUB SWAP1 SWAP2 ADD SWAP1 DUP6 GAS STATICCALL ISZERO DUP1 ISZERO PUSH2 0x1CF2 JUMPI RETURNDATASIZE PUSH1 0x0 DUP1 RETURNDATACOPY RETURNDATASIZE PUSH1 0x0 REVERT JUMPDEST POP POP PUSH1 0x40 MLOAD PUSH32 0xFFFFFFFFFFFFFFFFFFFFFFFFFFFFFFFFFFFFFFFFFFFFFFFFFFFFFFFFFFFFFFE0 ADD MLOAD SWAP2 POP POP PUSH20 0xFFFFFFFFFFFFFFFFFFFFFFFFFFFFFFFFFFFFFFFF DUP2 AND ISZERO DUP1 ISZERO SWAP1 PUSH2 0x1D6D JUMPI POP DUP9 PUSH20 0xFFFFFFFFFFFFFFFFFFFFFFFFFFFFFFFFFFFFFFFF AND DUP2 PUSH20 0xFFFFFFFFFFFFFFFFFFFFFFFFFFFFFFFFFFFFFFFF AND EQ JUMPDEST PUSH2 0x1DD8 JUMPI PUSH1 0x40 DUP1 MLOAD PUSH32 0x8C379A000000000000000000000000000000000000000000000000000000000 DUP2 MSTORE PUSH1 0x20 PUSH1 0x4 DUP3 ADD MSTORE PUSH1 0x1A PUSH1 0x24 DUP3 ADD MSTORE PUSH32 0x58656C65726F6E3A20494E56414C49445F5349474E4154555245000000000000 PUSH1 0x44 DUP3 ADD MSTORE SWAP1 MLOAD SWAP1 DUP2 SWAP1 SUB PUSH1 0x64 ADD SWAP1 REVERT JUMPDEST PUSH2 0x1DE3 DUP10 DUP10 DUP10 PUSH2 0x25B2 JUMP JUMPDEST POP POP POP POP POP POP POP POP POP JUMP JUMPDEST PUSH1 0x2 PUSH1 0x20 SWAP1 DUP2 MSTORE PUSH1 0x0 SWAP3 DUP4 MSTORE PUSH1 0x40 DUP1 DUP5 KECCAK256 SWAP1 SWAP2 MSTORE SWAP1 DUP3 MSTORE SWAP1 KECCAK256 SLOAD DUP2 JUMP JUMPDEST PUSH1 0xC SLOAD PUSH1 0x1 EQ PUSH2 0x1E7C JUMPI PUSH1 0x40 DUP1 MLOAD PUSH32 0x8C379A000000000000000000000000000000000000000000000000000000000 DUP2 MSTORE PUSH1 0x20 PUSH1 0x4 DUP3 ADD MSTORE PUSH1 0xF PUSH1 0x24 DUP3 ADD MSTORE PUSH32 0x58656C65726F6E3A204C4F434B45440000000000000000000000000000000000 PUSH1 0x44 DUP3 ADD MSTORE SWAP1 MLOAD SWAP1 DUP2 SWAP1 SUB PUSH1 0x64 ADD SWAP1 REVERT JUMPDEST PUSH1 0x0 PUSH1 0xC SSTORE PUSH1 0x6 SLOAD PUSH1 0x40 DUP1 MLOAD PUSH32 0x70A0823100000000000000000000000000000000000000000000000000000000 DUP2 MSTORE ADDRESS PUSH1 0x4 DUP3 ADD MSTORE SWAP1 MLOAD PUSH2 0x1FEA SWAP3 PUSH20 0xFFFFFFFFFFFFFFFFFFFFFFFFFFFFFFFFFFFFFFFF AND SWAP2 PUSH4 0x70A08231 SWAP2 PUSH1 0x24 DUP1 DUP4 ADD SWAP3 PUSH1 0x20 SWAP3 SWAP2 SWAP1 DUP3 SWAP1 SUB ADD DUP2 DUP7 DUP1 EXTCODESIZE ISZERO DUP1 ISZERO PUSH2 0x1EF3 JUMPI PUSH1 0x0 DUP1 REVERT JUMPDEST POP GAS STATICCALL ISZERO DUP1 ISZERO PUSH2 0x1F07 JUMPI RETURNDATASIZE PUSH1 0x0 DUP1 RETURNDATACOPY RETURNDATASIZE PUSH1 0x0 REVERT JUMPDEST POP POP POP POP PUSH1 0x40 MLOAD RETURNDATASIZE PUSH1 0x20 DUP2 LT ISZERO PUSH2 0x1F1D JUMPI PUSH1 0x0 DUP1 REVERT JUMPDEST POP MLOAD PUSH1 0x7 SLOAD PUSH1 0x40 DUP1 MLOAD PUSH32 0x70A0823100000000000000000000000000000000000000000000000000000000 DUP2 MSTORE ADDRESS PUSH1 0x4 DUP3 ADD MSTORE SWAP1 MLOAD PUSH20 0xFFFFFFFFFFFFFFFFFFFFFFFFFFFFFFFFFFFFFFFF SWAP1 SWAP3 AND SWAP2 PUSH4 0x70A08231 SWAP2 PUSH1 0x24 DUP1 DUP3 ADD SWAP3 PUSH1 0x20 SWAP3 SWAP1 SWAP2 SWAP1 DUP3 SWAP1 SUB ADD DUP2 DUP7 DUP1 EXTCODESIZE ISZERO DUP1 ISZERO PUSH2 0x1F90 JUMPI PUSH1 0x0 DUP1 REVERT JUMPDEST POP GAS STATICCALL ISZERO DUP1 ISZERO PUSH2 0x1FA4 JUMPI RETURNDATASIZE PUSH1 0x0 DUP1 RETURNDATACOPY RETURNDATASIZE PUSH1 0x0 REVERT JUMPDEST POP POP POP POP PUSH1 0x40 MLOAD RETURNDATASIZE PUSH1 0x20 DUP2 LT ISZERO PUSH2 0x1FBA JUMPI PUSH1 0x0 DUP1 REVERT JUMPDEST POP MLOAD PUSH1 0x8 SLOAD PUSH14 0xFFFFFFFFFFFFFFFFFFFFFFFFFFFF DUP1 DUP3 AND SWAP2 PUSH15 0x10000000000000000000000000000 SWAP1 DIV AND PUSH2 0x22F6 JUMP JUMPDEST PUSH1 0x1 PUSH1 0xC SSTORE JUMP JUMPDEST PUSH1 0x40 DUP1 MLOAD DUP1 DUP3 ADD DUP3 MSTORE PUSH1 0x19 DUP2 MSTORE PUSH32 0x7472616E7366657228616464726573732C75696E743235362900000000000000 PUSH1 0x20 SWAP2 DUP3 ADD MSTORE DUP2 MLOAD PUSH20 0xFFFFFFFFFFFFFFFFFFFFFFFFFFFFFFFFFFFFFFFF DUP6 DUP2 AND PUSH1 0x24 DUP4 ADD MSTORE PUSH1 0x44 DUP1 DUP4 ADD DUP7 SWAP1 MSTORE DUP5 MLOAD DUP1 DUP5 SUB SWAP1 SWAP2 ADD DUP2 MSTORE PUSH1 0x64 SWAP1 SWAP3 ADD DUP5 MSTORE SWAP2 DUP2 ADD DUP1 MLOAD PUSH28 0xFFFFFFFFFFFFFFFFFFFFFFFFFFFFFFFFFFFFFFFFFFFFFFFFFFFFFFFF AND PUSH32 0xA9059CBB00000000000000000000000000000000000000000000000000000000 OR DUP2 MSTORE SWAP3 MLOAD DUP2 MLOAD PUSH1 0x0 SWAP5 PUSH1 0x60 SWAP5 DUP10 AND SWAP4 SWAP3 SWAP2 DUP3 SWAP2 SWAP1 DUP1 DUP4 DUP4 JUMPDEST PUSH1 0x20 DUP4 LT PUSH2 0x20F7 JUMPI DUP1 MLOAD DUP3 MSTORE PUSH32 0xFFFFFFFFFFFFFFFFFFFFFFFFFFFFFFFFFFFFFFFFFFFFFFFFFFFFFFFFFFFFFFE0 SWAP1 SWAP3 ADD SWAP2 PUSH1 0x20 SWAP2 DUP3 ADD SWAP2 ADD PUSH2 0x20BA JUMP JUMPDEST PUSH1 0x1 DUP4 PUSH1 0x20 SUB PUSH2 0x100 EXP SUB DUP1 NOT DUP3 MLOAD AND DUP2 DUP5 MLOAD AND DUP1 DUP3 OR DUP6 MSTORE POP POP POP POP POP POP SWAP1 POP ADD SWAP2 POP POP PUSH1 0x0 PUSH1 0x40 MLOAD DUP1 DUP4 SUB DUP2 PUSH1 0x0 DUP7 GAS CALL SWAP2 POP POP RETURNDATASIZE DUP1 PUSH1 0x0 DUP2 EQ PUSH2 0x2159 JUMPI PUSH1 0x40 MLOAD SWAP2 POP PUSH1 0x1F NOT PUSH1 0x3F RETURNDATASIZE ADD AND DUP3 ADD PUSH1 0x40 MSTORE RETURNDATASIZE DUP3 MSTORE RETURNDATASIZE PUSH1 0x0 PUSH1 0x20 DUP5 ADD RETURNDATACOPY PUSH2 0x215E JUMP JUMPDEST PUSH1 0x60 SWAP2 POP JUMPDEST POP SWAP2 POP SWAP2 POP DUP2 DUP1 ISZERO PUSH2 0x218C JUMPI POP DUP1 MLOAD ISZERO DUP1 PUSH2 0x218C JUMPI POP DUP1 DUP1 PUSH1 0x20 ADD SWAP1 MLOAD PUSH1 0x20 DUP2 LT ISZERO PUSH2 0x2189 JUMPI PUSH1 0x0 DUP1 REVERT JUMPDEST POP MLOAD JUMPDEST PUSH2 0x21F7 JUMPI PUSH1 0x40 DUP1 MLOAD PUSH32 0x8C379A000000000000000000000000000000000000000000000000000000000 DUP2 MSTORE PUSH1 0x20 PUSH1 0x4 DUP3 ADD MSTORE PUSH1 0x18 PUSH1 0x24 DUP3 ADD MSTORE PUSH32 0x58656C65726F6E3A205452414E534645525F4641494C45440000000000000000 PUSH1 0x44 DUP3 ADD MSTORE SWAP1 MLOAD SWAP1 DUP2 SWAP1 SUB PUSH1 0x64 ADD SWAP1 REVERT JUMPDEST POP POP POP POP POP JUMP JUMPDEST PUSH1 0x0 DUP2 ISZERO DUP1 PUSH2 0x2219 JUMPI POP POP DUP1 DUP3 MUL DUP3 DUP3 DUP3 DUP2 PUSH2 0x2216 JUMPI INVALID JUMPDEST DIV EQ JUMPDEST PUSH2 0xE0C JUMPI PUSH1 0x40 DUP1 MLOAD PUSH32 0x8C379A000000000000000000000000000000000000000000000000000000000 DUP2 MSTORE PUSH1 0x20 PUSH1 0x4 DUP3 ADD MSTORE PUSH1 0x14 PUSH1 0x24 DUP3 ADD MSTORE PUSH32 0x64732D6D6174682D6D756C2D6F766572666C6F77000000000000000000000000 PUSH1 0x44 DUP3 ADD MSTORE SWAP1 MLOAD SWAP1 DUP2 SWAP1 SUB PUSH1 0x64 ADD SWAP1 REVERT JUMPDEST DUP1 DUP3 SUB DUP3 DUP2 GT ISZERO PUSH2 0xE0C JUMPI PUSH1 0x40 DUP1 MLOAD PUSH32 0x8C379A000000000000000000000000000000000000000000000000000000000 DUP2 MSTORE PUSH1 0x20 PUSH1 0x4 DUP3 ADD MSTORE PUSH1 0x15 PUSH1 0x24 DUP3 ADD MSTORE PUSH32 0x64732D6D6174682D7375622D756E646572666C6F770000000000000000000000 PUSH1 0x44 DUP3 ADD MSTORE SWAP1 MLOAD SWAP1 DUP2 SWAP1 SUB PUSH1 0x64 ADD SWAP1 REVERT JUMPDEST PUSH14 0xFFFFFFFFFFFFFFFFFFFFFFFFFFFF DUP5 GT DUP1 ISZERO SWAP1 PUSH2 0x2322 JUMPI POP PUSH14 0xFFFFFFFFFFFFFFFFFFFFFFFFFFFF DUP4 GT ISZERO JUMPDEST PUSH2 0x238D JUMPI PUSH1 0x40 DUP1 MLOAD PUSH32 0x8C379A000000000000000000000000000000000000000000000000000000000 DUP2 MSTORE PUSH1 0x20 PUSH1 0x4 DUP3 ADD MSTORE PUSH1 0x11 PUSH1 0x24 DUP3 ADD MSTORE PUSH32 0x58656C65726F6E3A204F564552464C4F57000000000000000000000000000000 PUSH1 0x44 DUP3 ADD MSTORE SWAP1 MLOAD SWAP1 DUP2 SWAP1 SUB PUSH1 0x64 ADD SWAP1 REVERT JUMPDEST PUSH1 0x8 SLOAD PUSH4 0xFFFFFFFF TIMESTAMP DUP2 AND SWAP2 PUSH29 0x100000000000000000000000000000000000000000000000000000000 SWAP1 DIV DUP2 AND DUP3 SUB SWAP1 DUP2 AND ISZERO DUP1 ISZERO SWAP1 PUSH2 0x23DD JUMPI POP PUSH14 0xFFFFFFFFFFFFFFFFFFFFFFFFFFFF DUP5 AND ISZERO ISZERO JUMPDEST DUP1 ISZERO PUSH2 0x23F8 JUMPI POP PUSH14 0xFFFFFFFFFFFFFFFFFFFFFFFFFFFF DUP4 AND ISZERO ISZERO JUMPDEST ISZERO PUSH2 0x24A8 JUMPI DUP1 PUSH4 0xFFFFFFFF AND PUSH2 0x243B DUP6 PUSH2 0x2411 DUP7 PUSH2 0x2A6D JUMP JUMPDEST PUSH28 0xFFFFFFFFFFFFFFFFFFFFFFFFFFFFFFFFFFFFFFFFFFFFFFFFFFFFFFFF AND SWAP1 PUSH4 0xFFFFFFFF PUSH2 0x2A91 AND JUMP JUMPDEST PUSH1 0x9 DUP1 SLOAD PUSH28 0xFFFFFFFFFFFFFFFFFFFFFFFFFFFFFFFFFFFFFFFFFFFFFFFFFFFFFFFF SWAP3 SWAP1 SWAP3 AND SWAP3 SWAP1 SWAP3 MUL ADD SWAP1 SSTORE PUSH4 0xFFFFFFFF DUP2 AND PUSH2 0x247B DUP5 PUSH2 0x2411 DUP8 PUSH2 0x2A6D JUMP JUMPDEST PUSH1 0xA DUP1 SLOAD PUSH28 0xFFFFFFFFFFFFFFFFFFFFFFFFFFFFFFFFFFFFFFFFFFFFFFFFFFFFFFFF SWAP3 SWAP1 SWAP3 AND SWAP3 SWAP1 SWAP3 MUL ADD SWAP1 SSTORE JUMPDEST PUSH1 0x8 DUP1 SLOAD PUSH32 0xFFFFFFFFFFFFFFFFFFFFFFFFFFFFFFFFFFFF0000000000000000000000000000 AND PUSH14 0xFFFFFFFFFFFFFFFFFFFFFFFFFFFF DUP9 DUP2 AND SWAP2 SWAP1 SWAP2 OR PUSH32 0xFFFFFFFF0000000000000000000000000000FFFFFFFFFFFFFFFFFFFFFFFFFFFF AND PUSH15 0x10000000000000000000000000000 DUP9 DUP4 AND DUP2 MUL SWAP2 SWAP1 SWAP2 OR PUSH28 0xFFFFFFFFFFFFFFFFFFFFFFFFFFFFFFFFFFFFFFFFFFFFFFFFFFFFFFFF AND PUSH29 0x100000000000000000000000000000000000000000000000000000000 PUSH4 0xFFFFFFFF DUP8 AND MUL OR SWAP3 DUP4 SWAP1 SSTORE PUSH1 0x40 DUP1 MLOAD DUP5 DUP5 AND DUP2 MSTORE SWAP2 SWAP1 SWAP4 DIV SWAP1 SWAP2 AND PUSH1 0x20 DUP3 ADD MSTORE DUP2 MLOAD PUSH32 0x1C411E9A96E071241C2F21F7726B17AE89E3CAB4C78BE50E062B03A9FFFBBAD1 SWAP3 SWAP2 DUP2 SWAP1 SUB SWAP1 SWAP2 ADD SWAP1 LOG1 POP POP POP POP POP POP JUMP JUMPDEST PUSH20 0xFFFFFFFFFFFFFFFFFFFFFFFFFFFFFFFFFFFFFFFF DUP1 DUP5 AND PUSH1 0x0 DUP2 DUP2 MSTORE PUSH1 0x2 PUSH1 0x20 SWAP1 DUP2 MSTORE PUSH1 0x40 DUP1 DUP4 KECCAK256 SWAP5 DUP8 AND DUP1 DUP5 MSTORE SWAP5 DUP3 MSTORE SWAP2 DUP3 SWAP1 KECCAK256 DUP6 SWAP1 SSTORE DUP2 MLOAD DUP6 DUP2 MSTORE SWAP2 MLOAD PUSH32 0x8C5BE1E5EBEC7D5BD14F71427D1E84F3DD0314C0F7B2291E5B200AC8C7C3B925 SWAP3 DUP2 SWAP1 SUB SWAP1 SWAP2 ADD SWAP1 LOG3 POP POP POP JUMP JUMPDEST PUSH20 0xFFFFFFFFFFFFFFFFFFFFFFFFFFFFFFFFFFFFFFFF DUP4 AND PUSH1 0x0 SWAP1 DUP2 MSTORE PUSH1 0x1 PUSH1 0x20 MSTORE PUSH1 0x40 SWAP1 KECCAK256 SLOAD PUSH2 0x2657 SWAP1 DUP3 PUSH4 0xFFFFFFFF PUSH2 0x2284 AND JUMP JUMPDEST PUSH20 0xFFFFFFFFFFFFFFFFFFFFFFFFFFFFFFFFFFFFFFFF DUP1 DUP6 AND PUSH1 0x0 SWAP1 DUP2 MSTORE PUSH1 0x1 PUSH1 0x20 MSTORE PUSH1 0x40 DUP1 DUP3 KECCAK256 SWAP4 SWAP1 SWAP4 SSTORE SWAP1 DUP5 AND DUP2 MSTORE KECCAK256 SLOAD PUSH2 0x2699 SWAP1 DUP3 PUSH4 0xFFFFFFFF PUSH2 0x2AD2 AND JUMP JUMPDEST PUSH20 0xFFFFFFFFFFFFFFFFFFFFFFFFFFFFFFFFFFFFFFFF DUP1 DUP5 AND PUSH1 0x0 DUP2 DUP2 MSTORE PUSH1 0x1 PUSH1 0x20 SWAP1 DUP2 MSTORE PUSH1 0x40 SWAP2 DUP3 SWAP1 KECCAK256 SWAP5 SWAP1 SWAP5 SSTORE DUP1 MLOAD DUP6 DUP2 MSTORE SWAP1 MLOAD SWAP2 SWAP4 SWAP3 DUP8 AND SWAP3 PUSH32 0xDDF252AD1BE2C89B69C2B068FC378DAA952BA7F163C4A11628F55A4DF523B3EF SWAP3 SWAP2 DUP3 SWAP1 SUB ADD SWAP1 LOG3 POP POP POP JUMP JUMPDEST PUSH1 0x0 DUP1 PUSH1 0x5 PUSH1 0x0 SWAP1 SLOAD SWAP1 PUSH2 0x100 EXP SWAP1 DIV PUSH20 0xFFFFFFFFFFFFFFFFFFFFFFFFFFFFFFFFFFFFFFFF AND PUSH20 0xFFFFFFFFFFFFFFFFFFFFFFFFFFFFFFFFFFFFFFFF AND PUSH4 0x17E7E58 PUSH1 0x40 MLOAD DUP2 PUSH4 0xFFFFFFFF AND PUSH1 0xE0 SHL DUP2 MSTORE PUSH1 0x4 ADD PUSH1 0x20 PUSH1 0x40 MLOAD DUP1 DUP4 SUB DUP2 DUP7 DUP1 EXTCODESIZE ISZERO DUP1 ISZERO PUSH2 0x276D JUMPI PUSH1 0x0 DUP1 REVERT JUMPDEST POP GAS STATICCALL ISZERO DUP1 ISZERO PUSH2 0x2781 JUMPI RETURNDATASIZE PUSH1 0x0 DUP1 RETURNDATACOPY RETURNDATASIZE PUSH1 0x0 REVERT JUMPDEST POP POP POP POP PUSH1 0x40 MLOAD RETURNDATASIZE PUSH1 0x20 DUP2 LT ISZERO PUSH2 0x2797 JUMPI PUSH1 0x0 DUP1 REVERT JUMPDEST POP MLOAD PUSH1 0xB SLOAD PUSH20 0xFFFFFFFFFFFFFFFFFFFFFFFFFFFFFFFFFFFFFFFF DUP3 AND ISZERO DUP1 ISZERO SWAP5 POP SWAP2 SWAP3 POP SWAP1 PUSH2 0x287A JUMPI DUP1 ISZERO PUSH2 0x2875 JUMPI PUSH1 0x0 PUSH2 0x27EE PUSH2 0x126D PUSH14 0xFFFFFFFFFFFFFFFFFFFFFFFFFFFF DUP9 DUP2 AND SWAP1 DUP9 AND PUSH4 0xFFFFFFFF PUSH2 0x21FE AND JUMP JUMPDEST SWAP1 POP PUSH1 0x0 PUSH2 0x27FB DUP4 PUSH2 0x288E JUMP JUMPDEST SWAP1 POP DUP1 DUP3 GT ISZERO PUSH2 0x2872 JUMPI PUSH1 0x0 PUSH2 0x2829 PUSH2 0x281A DUP5 DUP5 PUSH4 0xFFFFFFFF PUSH2 0x2284 AND JUMP JUMPDEST PUSH1 0x0 SLOAD SWAP1 PUSH4 0xFFFFFFFF PUSH2 0x21FE AND JUMP JUMPDEST SWAP1 POP PUSH1 0x0 PUSH2 0x284E DUP4 PUSH2 0x2842 DUP7 PUSH1 0x5 PUSH4 0xFFFFFFFF PUSH2 0x21FE AND JUMP JUMPDEST SWAP1 PUSH4 0xFFFFFFFF PUSH2 0x2AD2 AND JUMP JUMPDEST SWAP1 POP PUSH1 0x0 DUP2 DUP4 DUP2 PUSH2 0x285B JUMPI INVALID JUMPDEST DIV SWAP1 POP DUP1 ISZERO PUSH2 0x286E JUMPI PUSH2 0x286E DUP8 DUP3 PUSH2 0x28E0 JUMP JUMPDEST POP POP POP JUMPDEST POP POP JUMPDEST PUSH2 0x2886 JUMP JUMPDEST DUP1 ISZERO PUSH2 0x2886 JUMPI PUSH1 0x0 PUSH1 0xB SSTORE JUMPDEST POP POP SWAP3 SWAP2 POP POP JUMP JUMPDEST PUSH1 0x0 PUSH1 0x3 DUP3 GT ISZERO PUSH2 0x28D1 JUMPI POP DUP1 PUSH1 0x1 PUSH1 0x2 DUP3 DIV ADD JUMPDEST DUP2 DUP2 LT ISZERO PUSH2 0x28CB JUMPI DUP1 SWAP2 POP PUSH1 0x2 DUP2 DUP3 DUP6 DUP2 PUSH2 0x28BA JUMPI INVALID JUMPDEST DIV ADD DUP2 PUSH2 0x28C3 JUMPI INVALID JUMPDEST DIV SWAP1 POP PUSH2 0x28A3 JUMP JUMPDEST POP PUSH2 0x28DB JUMP JUMPDEST DUP2 ISZERO PUSH2 0x28DB JUMPI POP PUSH1 0x1 JUMPDEST SWAP2 SWAP1 POP JUMP JUMPDEST PUSH1 0x0 SLOAD PUSH2 0x28F3 SWAP1 DUP3 PUSH4 0xFFFFFFFF PUSH2 0x2AD2 AND JUMP JUMPDEST PUSH1 0x0 SWAP1 DUP2 SSTORE PUSH20 0xFFFFFFFFFFFFFFFFFFFFFFFFFFFFFFFFFFFFFFFF DUP4 AND DUP2 MSTORE PUSH1 0x1 PUSH1 0x20 MSTORE PUSH1 0x40 SWAP1 KECCAK256 SLOAD PUSH2 0x292B SWAP1 DUP3 PUSH4 0xFFFFFFFF PUSH2 0x2AD2 AND JUMP JUMPDEST PUSH20 0xFFFFFFFFFFFFFFFFFFFFFFFFFFFFFFFFFFFFFFFF DUP4 AND PUSH1 0x0 DUP2 DUP2 MSTORE PUSH1 0x1 PUSH1 0x20 SWAP1 DUP2 MSTORE PUSH1 0x40 DUP1 DUP4 KECCAK256 SWAP5 SWAP1 SWAP5 SSTORE DUP4 MLOAD DUP6 DUP2 MSTORE SWAP4 MLOAD SWAP3 SWAP4 SWAP2 SWAP3 PUSH32 0xDDF252AD1BE2C89B69C2B068FC378DAA952BA7F163C4A11628F55A4DF523B3EF SWAP3 DUP2 SWAP1 SUB SWAP1 SWAP2 ADD SWAP1 LOG3 POP POP JUMP JUMPDEST PUSH1 0x0 DUP2 DUP4 LT PUSH2 0x299F JUMPI DUP2 PUSH2 0x29A1 JUMP JUMPDEST DUP3 JUMPDEST SWAP4 SWAP3 POP POP POP JUMP JUMPDEST PUSH20 0xFFFFFFFFFFFFFFFFFFFFFFFFFFFFFFFFFFFFFFFF DUP3 AND PUSH1 0x0 SWAP1 DUP2 MSTORE PUSH1 0x1 PUSH1 0x20 MSTORE PUSH1 0x40 SWAP1 KECCAK256 SLOAD PUSH2 0x29DE SWAP1 DUP3 PUSH4 0xFFFFFFFF PUSH2 0x2284 AND JUMP JUMPDEST PUSH20 0xFFFFFFFFFFFFFFFFFFFFFFFFFFFFFFFFFFFFFFFF DUP4 AND PUSH1 0x0 SWAP1 DUP2 MSTORE PUSH1 0x1 PUSH1 0x20 MSTORE PUSH1 0x40 DUP2 KECCAK256 SWAP2 SWAP1 SWAP2 SSTORE SLOAD PUSH2 0x2A18 SWAP1 DUP3 PUSH4 0xFFFFFFFF PUSH2 0x2284 AND JUMP JUMPDEST PUSH1 0x0 SWAP1 DUP2 SSTORE PUSH1 0x40 DUP1 MLOAD DUP4 DUP2 MSTORE SWAP1 MLOAD PUSH20 0xFFFFFFFFFFFFFFFFFFFFFFFFFFFFFFFFFFFFFFFF DUP6 AND SWAP2 PUSH32 0xDDF252AD1BE2C89B69C2B068FC378DAA952BA7F163C4A11628F55A4DF523B3EF SWAP2 SWAP1 DUP2 SWAP1 SUB PUSH1 0x20 ADD SWAP1 LOG3 POP POP JUMP JUMPDEST PUSH14 0xFFFFFFFFFFFFFFFFFFFFFFFFFFFF AND PUSH15 0x10000000000000000000000000000 MUL SWAP1 JUMP JUMPDEST PUSH1 0x0 PUSH14 0xFFFFFFFFFFFFFFFFFFFFFFFFFFFF DUP3 AND PUSH28 0xFFFFFFFFFFFFFFFFFFFFFFFFFFFFFFFFFFFFFFFFFFFFFFFFFFFFFFFF DUP5 AND DUP2 PUSH2 0x2ACA JUMPI INVALID JUMPDEST DIV SWAP4 SWAP3 POP POP POP JUMP JUMPDEST DUP1 DUP3 ADD DUP3 DUP2 LT ISZERO PUSH2 0xE0C JUMPI PUSH1 0x40 DUP1 MLOAD PUSH32 0x8C379A000000000000000000000000000000000000000000000000000000000 DUP2 MSTORE PUSH1 0x20 PUSH1 0x4 DUP3 ADD MSTORE PUSH1 0x14 PUSH1 0x24 DUP3 ADD MSTORE PUSH32 0x64732D6D6174682D6164642D6F766572666C6F77000000000000000000000000 PUSH1 0x44 DUP3 ADD MSTORE SWAP1 MLOAD SWAP1 DUP2 SWAP1 SUB PUSH1 0x64 ADD SWAP1 REVERT INVALID PC PUSH6 0x6C65726F6E3A KECCAK256 0x49 0x4E MSTORE8 SSTORE CHAINID CHAINID 0x49 NUMBER 0x49 GASLIMIT 0x4E SLOAD 0x5F 0x49 0x4E POP SSTORE SLOAD 0x5F COINBASE 0x4D 0x4F SSTORE 0x4E SLOAD PC PUSH6 0x6C65726F6E3A KECCAK256 0x49 0x4E MSTORE8 SSTORE CHAINID CHAINID 0x49 NUMBER 0x49 GASLIMIT 0x4E SLOAD 0x5F 0x4C 0x49 MLOAD SSTORE 0x49 DIFFICULTY 0x49 SLOAD MSIZE 0x5F 0x4D 0x49 0x4E SLOAD GASLIMIT DIFFICULTY PC PUSH6 0x6C65726F6E3A KECCAK256 0x49 0x4E MSTORE8 SSTORE CHAINID CHAINID 0x49 NUMBER 0x49 GASLIMIT 0x4E SLOAD 0x5F 0x4F SSTORE SLOAD POP SSTORE SLOAD 0x5F COINBASE 0x4D 0x4F SSTORE 0x4E SLOAD PC PUSH6 0x6C65726F6E3A KECCAK256 0x49 0x4E MSTORE8 SSTORE CHAINID CHAINID 0x49 NUMBER 0x49 GASLIMIT 0x4E SLOAD 0x5F 0x4C 0x49 MLOAD SSTORE 0x49 DIFFICULTY 0x49 SLOAD MSIZE 0x5F TIMESTAMP SSTORE MSTORE 0x4E GASLIMIT DIFFICULTY LOG2 PUSH6 0x627A7A723158 KECCAK256 0xC2 0xE0 0x5C 0xE 0xDF SWAP2 PUSH21 0x72128B05A754CEF0E360C4A9FE3A8A5C6297B1CABA SWAP11 0x49 BLOCKHASH MSTORE PUSH5 0x736F6C6343 STOP SDIV LT STOP ORIGIN GASLIMIT 0x49 POP CALLDATACOPY BALANCE ORIGIN DIFFICULTY PUSH16 0x6D61696E28737472696E67206E616D65 0x2C PUSH20 0x7472696E672076657273696F6E2C75696E743235 CALLDATASIZE KECCAK256 PUSH4 0x6861696E 0x49 PUSH5 0x2C61646472 PUSH6 0x737320766572 PUSH10 0x6679696E67436F6E7472 PUSH2 0x6374 0x29 LOG2 PUSH6 0x627A7A723158 KECCAK256 PUSH4 0x88E8A11A 0xC PUSH14 0x1856365930DE3421A8BA40CFE24E DUP13 SWAP1 EXTCODESIZE SWAP15 0x26 PUSH16 0xB939A12A6564736F6C63430005100032 "
				},
				"gasEstimates": {
					"creation": {
						"codeDepositCost": "2809800",
						"executionCost": "infinite",
						"totalCost": "infinite"
					},
					"external": {
						"INIT_CODE_HASH()": "infinite",
						"allPairs(uint256)": "1991",
						"allPairsLength()": "1021",
						"createPair(address,address)": "infinite",
						"feeTo()": "1014",
						"feeToSetter()": "1036",
						"getPair(address,address)": "1264",
						"setFeeTo(address)": "21928",
						"setFeeToSetter(address)": "21907"
					}
				},
				"methodIdentifiers": {
					"INIT_CODE_HASH()": "257671f5",
					"allPairs(uint256)": "1e3dd18b",
					"allPairsLength()": "574f2ba3",
					"createPair(address,address)": "c9c65396",
					"feeTo()": "017e7e58",
					"feeToSetter()": "094b7415",
					"getPair(address,address)": "e6a43905",
					"setFeeTo(address)": "f46901ed",
					"setFeeToSetter(address)": "a2e74af6"
				}
			},
			"storageLayout": {
				"storage": [
					{
						"astId": 2126,
						"contract": "v2-core-master/contracts/XeleronFactory_flattened.sol:XeleronFactory",
						"label": "feeTo",
						"offset": 0,
						"slot": "0",
						"type": "t_address"
					},
					{
						"astId": 2128,
						"contract": "v2-core-master/contracts/XeleronFactory_flattened.sol:XeleronFactory",
						"label": "feeToSetter",
						"offset": 0,
						"slot": "1",
						"type": "t_address"
					},
					{
						"astId": 2134,
						"contract": "v2-core-master/contracts/XeleronFactory_flattened.sol:XeleronFactory",
						"label": "getPair",
						"offset": 0,
						"slot": "2",
						"type": "t_mapping(t_address,t_mapping(t_address,t_address))"
					},
					{
						"astId": 2137,
						"contract": "v2-core-master/contracts/XeleronFactory_flattened.sol:XeleronFactory",
						"label": "allPairs",
						"offset": 0,
						"slot": "3",
						"type": "t_array(t_address)dyn_storage"
					}
				],
				"types": {
					"t_address": {
						"encoding": "inplace",
						"label": "address",
						"numberOfBytes": "20"
					},
					"t_array(t_address)dyn_storage": {
						"base": "t_address",
						"encoding": "dynamic_array",
						"label": "address[]",
						"numberOfBytes": "32"
					},
					"t_mapping(t_address,t_address)": {
						"encoding": "mapping",
						"key": "t_address",
						"label": "mapping(address => address)",
						"numberOfBytes": "32",
						"value": "t_address"
					},
					"t_mapping(t_address,t_mapping(t_address,t_address))": {
						"encoding": "mapping",
						"key": "t_address",
						"label": "mapping(address => mapping(address => address))",
						"numberOfBytes": "32",
						"value": "t_mapping(t_address,t_address)"
					}
				}
			},
			"userdoc": {
				"methods": {}
			}
		}
	}
}